:020000040800F2
:10000000B80C00209D01000861660008B54E00088C
:10001000955E00082D1500083182000800000000E0
:100020000000000000000000000000001570000843
:100030003D19000800000000D56C0008ED740008B0
:10004000B7010008B7010008B7010008B7010008B0
:10005000B7010008B7010008B7010008B7010008A0
:10006000B7010008B7010008B7010008B701000890
:10007000B7010008B7010008B7010008B701000880
:10008000B7010008B7010008B7010008B701000870
:10009000B7010008B7010008B7010008B701000860
:1000A000B7010008B7010008B7010008B701000850
:1000B000B7010008B7010008B7010008B701000840
:1000C000B7010008B7010008B7010008B701000830
:1000D000B7010008B7010008B7010008B701000820
:1000E000B7010008B7010008B7010008B701000810
:1000F000B7010008B7010008B7010008B701000800
:10010000B7010008B7010008B7010008B7010008EF
:10011000C57C0008B7010008B7010008B701000856
:10012000B7010008B7010008B7010008B7010008CF
:10013000B70100080000000000000000B70100083F
:10014000B7010008B7010008B7010008B7010008AF
:10015000B7010008B7010008B7010008B70100089F
:10016000B7010008B7010008B7010008B70100088F
:10017000B7010008B70100080000000000000000FF
:10018000B7010008B7010008DFF80CD000F00AFC46
:1001900000480047318D0008B80C00200648804711
:1001A00006480047FEE7FEE7FEE7FEE7FEE7FEE75C
:1001B000FEE7FEE7FEE7FEE7E175000889010008BB
:1001C0002DE9F05F0546002092469B46884606468C
:1001D000814640241BE0284641464746224600F01F
:1001E000ABFA53465A46C01A914110D311461846ED
:1001F000224600F092FA2D1A67EB01084F4622467C
:100200000120002100F089FA17EB00094E41201E61
:10021000A4F10104DFDC484631462A464346BDE8E6
:10022000F09F2DE9F0410024061B254671F10006E0
:1002300005DA01240027D0EB070067EB0101161E49
:1002400073F1000605DA0027D2EB0702012567EB00
:100250000303FFF7B5FF86460E4617469C46AC42A1
:1002600004D00025D0EB050E65EB010624B100207B
:10027000D2EB000760EB030C704631463A4663460A
:10028000BDE8F08140EA01039B0703D009E008C9FB
:10029000121F08C0042AFAD203E011F8013B00F84B
:1002A000013B521EF9D27047D2B201E000F8012B97
:1002B000491EFBD270470022F6E710B513460A46E6
:1002C00004461946FFF7F0FF204610BD30B505463D
:1002D0002A460B4612F8010B13F8014B08B1A04255
:1002E000F8D01CB1002802D06D1CF1E7284630BDC3
:1002F000CAB2401E10F8011F8A4202D00029F9D16B
:10030000002070472DE9FE4F804681EA0300C00FB0
:100310000C46009021F0004123F00045B8EB0200AC
:10032000A94105D24046214690461C460B4602464E
:1003300023F00040104347D0270DC7F30A00C3F352
:100340000A510290401A019040286BDAC3F313005F
:1003500040F4801B0098924620B10023D2EB030AA0
:1003600063EB0B0B01985946C0F14002504600F078
:10037000D4F906460D4650465946019A00F0ECF96C
:1003800010EB08006141002487EA115284EAE77308
:100390001A4340D0009A62B3019A012A4FEA0752E9
:1003A00015DC001B61EB02014FF0004202EA07522C
:1003B000CDE90042001C41F5801132462B4600F089
:1003C00023FA03B0BDE8F08F40462146F9E7001B51
:1003D00061EB0201001C41F5801300185B412018FD
:1003E000A2F5001747EB030140EAD570B6196D413D
:1003F00011E06D084FEA360645EAC0754FEA07522C
:10040000001B61EB0201001C41F5801149084FEA15
:1004100030000019514132462B4603B0BDE8F04F81
:1004200000F0E3B90098012240000023D0EB020263
:1004300063EBE073009821464FEAE074B8EB0000EC
:1004400061EB0401E9E783F000435BE781F00041E1
:1004500058E72DE9FE4F81EA030404F0004421F03F
:10046000004100944FF0000B23F0004350EA0104D8
:100470005ED052EA03045BD0C3F30A54C1F30A55B9
:100480002C44A4F2F3340194A0FB0254C1F31301F1
:1004900041F48011C3F3130343F4801301FB0244BE
:1004A00000FB034E840A970A44EA815447EA8357C3
:1004B000A4FB076802958D0A05FB07854FEA932C7C
:1004C00004FB0C542705029D4FEA065847EA1637ED
:1004D000B5EB08056EEB070C870E920E47EA811705
:1004E00042EA8312A7FB0201B6EB0B0164EB0004A6
:1004F0002B0D43EA0C335E1844EB1C50DA46514690
:10050000E7FB0201C5F313044FEA0B3343EA14532C
:100510004FEA0432019C43EA0603A4F10C0402945E
:10052000009CCDE900B400F06FF903B0BDE8F08F96
:1005300000200146F9E72DE9F04D81EA030404F0BB
:10054000004B21F0004514464FF0000A23F0004113
:1005500050EA050220D054EA01021DD0C5F30A5723
:100560000246C5F31303C1F31300C1F30A5640F466
:10057000801543F48013A7EB0608101BD64608F23B
:10058000FD3873EB050002D308F1010801E0921871
:100590005B41B8F1000F03DA00200146BDE8F08DA1
:1005A00000204FF48011064684460EE0171B73EBC3
:1005B000050705D3121B63EB050306434CEA010C48
:1005C00049084FEA300092185B4150EA0107EDD12B
:1005D00052EA030012D082EA040083EA05010843CC
:1005E00005D0101BAB4106D20122002306E00022F9
:1005F0004FF0004302E06FF0010253101AEB0600C7
:100600004CEB085110EB0A0041EB0B01BDE8F04D3B
:1006100000F0EBB830B5041E71F1000404DB4FF0BC
:100620000044404264EB0101141E73F1000405DB39
:100630001C464FF00043524263EB0403801A994179
:1006400001D3012030BD002030BD30B5041E71F152
:10065000000404DB4FF00044404264EB0101141E2F
:1006600073F1000405DB1C464FF00043524263EB7C
:100670000403101A8B4101D3012030BD002030BD8E
:100680000EB5C10F80EAE0700844CA07002140F2AD
:1006900033438DE80E000A460B4600F0B5F803B070
:1006A00000BD0EB540F2334102910021CDE90011A9
:1006B0000A460B4600F0A8F803B000BD00F0004267
:1006C00030F000400AD0C10D01F56071C0F3160092
:1006D00042EA0151C2084007114370470020014619
:1006E000704701F0004330B421F0004150EA0102AC
:1006F00006D00A0DA2F56072C1F31301002A02DCD4
:1007000030BC00207047440F44EAC104C100E01827
:1007100030BC00EBC25000F031B8202A04DB203A94
:1007200000FA02F1002070479140C2F1200320FA44
:1007300003F3194390407047202A04DB203A21FA42
:1007400002F00021704721FA02F3D040C2F12002EA
:100750009140084319467047202A06DBCB17203A00
:1007600041FA02F043EAE07306E041FA02F3D040B6
:10077000C2F1200291400843194670470029A8BFE2
:100780007047401C490008BF20F00100704710B4BA
:10079000B0FA80FC00FA0CF050EA010404BF10BC6F
:1007A000704749B1CCF1200421FA04F411FA0CF19C
:1007B00018BF012121430843A3EB0C01CB1D4FEAD5
:1007C00000614FEA102042BF002010BC704700EBD0
:1007D000C35010440029A4BF10BC7047401C4900FE
:1007E00008BF20F0010010BC704710B5141E73F153
:1007F000000408DA401C41F1000192185B411A43E1
:1008000001D120F0010010BD2DE9F04D92469B462C
:1008100011B1B1FA81F202E0B0FA80F220329046D2
:10082000FFF77BFF04460F4640EA0A0041EA0B014E
:1008300053465A46084313D0114653EA010019D0D3
:10084000C8F140025046FFF777FF05460E46504676
:1008500059464246FFF761FF084305D0012004E0F6
:1008600020463946BDE8F08D0020054346EAE07693
:100870002C4337430A986305E40AA0EB08000022E2
:10088000FD0A44EA47540A3002D500200146E9E750
:10089000010510196941DDE9084500196941BDE804
:1008A000F04DA2E770B521F0004303430CD0C1F333
:1008B0000A550024D5EB040564EB0403D617AD1AE2
:1008C000B34102DB0020014670BD201841EB02510C
:1008D00070BD2DE9F04D00231A461B1A8A4103DB37
:1008E00000200146BDE8F08DC1F30A52C1F31301A7
:1008F00041F480154FF0000BD10702D100186D4173
:10090000521E0027044640F2FF11384601EB620AEE
:100910003E468046024600204FF48011FFF70CFF50
:10092000C2197141BB1846EB0100B4EB030C75EB27
:10093000000C04D3E41A65EB000517460E46241993
:1009400008F101006D4180463428E3DDF91946EBDA
:100950000600091BA84103D24FF0FF32134601E005
:10096000002213461BEB070046EB0A51BDE8F04D91
:10097000FFF73BBF30B5041E71F1000404DB4FF0FC
:100980000044404264EB0101141E73F1000405DBD6
:100990001C464FF00043524263EB0403994208BFE8
:1009A000904230BD064C074D06E0E06840F0010380
:1009B00094E8070098471034AC42F6D3FFF7E8FB01
:1009C000F09D0008109E000883B00146029042F29C
:1009D0000030C4F2010001900198426822F44032D4
:1009E000426002984068019A536818435060029828
:1009F0000068426822F480724260029802680069CE
:100A0000536843EA0020506002980068426822F070
:100A100040724260029802688068536818435060D0
:100A200002980068826822F400628260029802687C
:100A3000C0689368184390600298806A0122C0F6EB
:100A400000729042009119D0FFE702980068816817
:100A500021F07061816002980168806A8A681043A1
:100A6000886002980068816821F040518160029896
:100A70000168C06A8A68104388600CE002980068C8
:100A8000816821F07061816002980068816821F0BE
:100A900040518160FFE702980068816821F00201FF
:100AA00081600298017E0068826842EA41018160AB
:100AB000029890F82000002819D0FFE702980068FB
:100AC000416841F40061416002980068416821F486
:100AD0006041416002980168406A4EF20002CFF620
:100AE000FF7202EB40304A681043486006E002980B
:100AF0000068416821F400614160FFE702980068E6
:100B0000C16A21F47001C16202980168C0690022C3
:100B1000CFF6F07202EB0050CA6A1043C862029826
:100B20000068816821F400718160029890F83010AB
:100B30000068826842EA4121816002980068816809
:100B400021F4806181600298016840698A6842EA04
:100B50008020886003B0704780B582B040F22010DA
:100B6000C2F200003021FFF7A6FB0020ADF806001E
:100B7000FFE7BDF80600022825DCFFE7BDF8060008
:100B8000C0EBC00040F2B811C2F2000101EB8000DE
:100B90004FF4FA715022009100F05EFCBDF806009F
:100BA000C0EBC00040F2CC01C2F2000101EB8000BA
:100BB0000F22009900F050FCFFE7BDF8060001305D
:100BC000ADF80600D5E702B080BD000080B584B066
:100BD00040F29800C2F2000000780146002803911C
:100BE00008D0FFE7039801281CD0FFE703980228EC
:100BF00037D03DE040F22860C2F200000168406852
:100C000040F2A002C2F200025060116005F094FEB2
:100C100000F0D6FC40F29800C2F2000001780131E9
:100C2000017025E040F22860C2F2000001684068CF
:100C300040F2A002C2F2000213685268C91A60EBC7
:100C40000200023970F100000291019008D3FFE721
:100C500040F29800C2F20000017801310170FFE714
:100C600006E040F29800C2F2000000210170FFE7A8
:100C700004B080BD80B582B000208DF8070040F63A
:100C80001400C4F20200016821F4807101600A219D
:100C90000090084601F00CFB0098016841F4807157
:100CA0000160D02000F044FA8DF807009DF807009D
:100CB000582811D1FFE740F25011C2F2000108207C
:100CC000182200F0F5F97420772100F069FA7520F8
:100CD000102100F065FA00E0FFE702B080BD0000DF
:100CE00080B582B000F0BEF940F2501EC2F2000E94
:100CF000DEF82000CDF804E000F08AF900EE100ADA
:100D0000B8EE400A9FED381A80EE010A019880ED96
:100D10000A0AC06900F06EF800EE100AB8EE400A48
:100D20009FED321A80EE010A019880ED090A90EDDC
:100D3000090A9FED2F1A80EE010A80ED090A90ED55
:100D4000090AB5EEC00AF1EE10FA34DDFFE740F211
:100D50005010C2F20000416A00900846FFF7AEFC56
:100D600041EC100B9FED181B53EC112B51EC100BA9
:100D7000FFF7E1FB41EC100B9FED151B08F030F87D
:100D800053EC102B9FED140B51EC100BFFF75BFB9A
:100D900041EC100B51EC100B9FED110B53EC102B91
:100DA000FFF757FB41EC100B51EC100BFFF799FCD0
:100DB0000099C86206E040F25010C2F20000002123
:100DC000C162FFE702B080BDCDCCCCCCCC54594041
:100DD000A6859916665AC83F000000000000F03F43
:100DE0003D0AD7A358A5E5400000C8420000804353
:100DF00000007A442DE9F0418AB00146089040F2A3
:100E00005010C2F200008269D317B2F5FA3263F1D2
:100E1000000306920793069A079BA2FB02CE02FBF1
:100E200003EE02FB03E2B0F910304FEAE37EACFBC5
:100E300003450CFB0E5C02FB03C204940592049A6A
:100E4000059BDDF818C0DDF81CE0B0F90E404FEA54
:100E5000E475ACFB04670CFB057C0EFB04CC4FEA8D
:100E60004C4C4CEAD63C12EB464243EB0C0304924A
:100E70000593049A059BB0F90CC003EBCC030492D4
:100E80000593069A079BA2FB02CE02FB03EE02FB30
:100E900003EEB0F90840B0F90A504FEAE576ACFB32
:100EA00005780CFB068C0EFB05CC4FEA2C2E4FEA86
:100EB000172545EA0C6C4FEAE475A2FB046702FBB8
:100EC000057203FB04224FEA023242EA16521CEB7F
:100ED000063342EB0E0206930792069A079B03F530
:100EE0000043C088A2FB002C03FB00C04FEA600354
:100EF0004FEAE070079006930698079B40EA0300CC
:100F000000280191009203D1FFE7002009907BE0C7
:100F10000898C0F58010C1170290039102980399B8
:100F2000C90741EA5001049A059BD2EBC07061EBFE
:100F3000030140F63542A0FB020301FB0231069A91
:100F4000079BFFF76EF90391029040F25010C2F236
:100F50000000B0F916104FEAE172029BDDF80CE0D8
:100F60004FEA533343EACE434FEA6E3EA1FB03C43C
:100F700001FB0E4102FB0311ACFB03240CFB0E4CE6
:100F800001FB03C14FEA526242EAC1124FEA6161BA
:100F900007910692B0F914104FEAE172029BDDF856
:100FA0000CC0A1FB03E401FB0C4102FB03114FEA5F
:100FB000DE4242EA41324FEAE14105910492029950
:100FC000039A069BDDF81CC0C91842EB0C02049B77
:100FD000DDF814C0C91842EB0C024FEA22234FEA95
:100FE000112141EA0261B0F912004FEAE0724FEAC2
:100FF000021242EA107211EB001043EB0201029060
:10100000039102980990FFE709980AB0BDE8F081C2
:1010100085B0014604900498C01040F25012C2F20C
:1010200000021388A0EB4300B2F902305843C0120B
:10103000039004981388C3EB201040430013B2F9C7
:1010400004305843801302900398029B1844906127
:10105000906900EB800080300012019001980091AF
:1010600005B0704780B582B077200DF102010622ED
:1010700000F01EF89DF802009DF803109DF8042072
:10108000000340EA011040EA121040F25011C2F28F
:101090000001C8619DF805009DF806209DF807E055
:1010A000000340EA021040EA1E10086202B080BD50
:1010B000B0B58CB013468C4686468DF82F000A9149
:1010C000ADF826209DF82F0040F080008DF8250017
:1010D00040F61400C4F20200016821F4807101603E
:1010E00040F2F861C2F200010DF1250201244FF433
:1010F0007A750890084607911146224606932B46BA
:10110000CDF814C0CDF810E0039502F0C1FB0A99A8
:10111000BDF82620079B02901846039B02F080FA38
:1011200008990A6842F480720A6001900CB0B0BD60
:1011300080B586B001468DF817000020ADF8140088
:10114000ADF812009DF8170040F080008DF81400F3
:1011500040F61400C4F20200026822F480720260B9
:101160006A464FF47A73136040F2F862C2F20002EA
:1011700005AB0DF1120C4FF0020E039010460291D8
:1011800019466246734602F0E3FC03990A6842F48A
:1011900080720A609DF813200190104606B080BD51
:1011A00010B588B00A4603468DF81F008DF81E1052
:1011B0009DF81F008DF81C009DF81E008DF81D0085
:1011C00040F61400C4F20200016821F4807101604D
:1011D00069464FF47A7CC1F800C040F2F861C2F26F
:1011E00000010DF11C0C0DF11A0E022405900846A9
:1011F0006146049272460393234602F0A9FC0599C6
:101200000A6842F480720A60029008B010BD0000C3
:1012100080B584B040F23060C2F20000039000F06C
:10122000FFFD0A21DDF80CE00290704600F058FD49
:10123000019004B080BD000080B540F2A800C2F269
:1012400000000078C007002803D1FFE704F078FE13
:10125000FFE780BD80B506F033FFFFF7EDFF80BDEF
:10126000B0B598B09C46B0EE401A96460C4605467E
:101270001790ADF85A10ADF858208DED150A8DF87D
:101280005330BDF85800BDF85A10B0EB510FCDF8EF
:1012900020C08DED071ACDF818E00594049580F272
:1012A000C280FFE7BDF85A0000EE100AB8EE400A0F
:1012B0008DED130ABDF8580000EE100AB8EE400A92
:1012C00010EE100AFFF7FAF941EC110B9FED602BBD
:1012D00053EC122B51EC110BFFF7BBF841EC110B47
:1012E00013988DED021BFFF7E9F941EC110B9DED11
:1012F000022B51EC120B53EC112BFFF71CF941ECB4
:10130000110B51EC110BFFF7ECF912909DED120A45
:1013100005F096F88DED110A9DED120A05F01CF806
:101320008DED100A9DED110A9DED153A33EE033A4D
:1013300080EE030A8DED0F0A9DF853000146002848
:10134000019104D0FFE7019801281BD027E09DED13
:10135000100AB7EE001A31EE400AB0EE002A80EE15
:10136000020A8DED0E0A9DED100A31EE400A8DED58
:101370000D0A9DED100A31EE400A80EE020A8DED55
:101380000C0A0CE04FF07E500E909DED100AB8EE66
:10139000001A20EE010A8DED0D0A0C90FFE79DED7D
:1013A0000F0AB7EE001A30EE010A8DED0B0A9DED23
:1013B000100AB8EE002A20EE020A8DED0A0A9DED11
:1013C0000F0A31EE400A8DED090A9DED0E0A9DEDE2
:1013D0000B1A80EE010A179880ED000A9DED0D0AA8
:1013E0009DED0B1A80EE010A179880ED010A9DED24
:1013F0000C0A9DED0B1A80EE010A179880ED020A87
:101400009DED0A0A9DED0B1A80EE010A179880EDFA
:10141000030A9DED090A9DED0B1A80EE010A17984B
:1014200080ED040A0DE017984FF07E510160179887
:1014300000214160179881601798C1601798016179
:10144000FFE71798002181611798416118B0B0BD7E
:1014500044174154FB21194080B588B013468C468F
:1014600086460790ADF81A10ADF818200798BDF819
:101470001A10BDF81820B0EE000A0593CDF810C080
:10148000CDF80CE002900191009208F0D1FAB7EE8D
:10149000001A81EE000A002302980199009AFFF7D2
:1014A000DFFE08B080BD000085B0B0EE401A0146F6
:1014B00004908DED030A04989DED030A90ED002A37
:1014C00090ED053A22EE000A30EE030A8DED020A95
:1014D00004989DED030A90ED012A90ED033A90EDFA
:1014E000064A22EE000A9DED022A23EE022A30EE81
:1014F000420A30EE040A80ED050A04989DED030AC5
:1015000090ED022A90ED043A22EE000A9DED022AA7
:1015100023EE022A30EE420A80ED060A9DED020A11
:101520008DED011A009105B070470000FFE7FEE75E
:1015300086B00A46034605908DF813104FF6FF70EB
:10154000ADF810000020039001920093FFE703988C
:101550009DF8131088422EDAFFE705980399405C46
:10156000BDF810104840ADF8100000200290FFE7D1
:10157000029807281ADCFFE7BDF81000C007002812
:1015800009D0FFE7BDF810004AF2010181EA5000DE
:10159000ADF8100005E0BDF810004008ADF81000EF
:1015A000FFE7FFE7029801300290E1E7FFE70398C9
:1015B00001300390CBE7BDF8100006B07047000083
:1015C00080B58AB040F22010C2F20000D0ED001ABF
:1015D00090ED012AD0ED022A90ED030AD0ED040A25
:1015E00090ED051A90ED063AD0ED073A90ED084AD5
:1015F0000120DFED044A06F0DBFF07F0F9FA0AB03C
:1016000080BD00BF6F12033B80B540F28010C2F274
:1016100000003821FEF74FFE80BD000080B5A8B065
:101620000DF16E003221FEF746FE40F22860C2F254
:1016300000000168406840F2B00EC2F2000EDEF811
:101640000020DEF804E0891A60EB0E0040EA010099
:10165000002831D0FFE740F22010C2F2000090EDE8
:10166000090A90ED0A1AB2EE042A21EE021A60EE7F
:10167000020A40F20060C2F2000090ED030A90ED11
:10168000043A20EE020A63EE021A8DED040AB0EE6F
:10169000410A9DED041A06F0CDFD40F22860C2F229
:1016A0000000D0F800E0406840F2B001C2F2000152
:1016B0004860C1F800E0FFE740F28010C2F200008D
:1016C0000078C007002800F00D81FFE740F280108D
:1016D000C2F20000011D0FAA3223039010461A46E1
:1016E000FEF7D0FD03990A7802F0FE020A709DF819
:1016F0003C20012A029012D1FFE79DF83E000146EE
:10170000A028019104D0FFE70198A12803D005E0AB
:1017100004F016FC02E004F0ABFCFFE7E1E09DF80A
:101720003C0010286BD1FFE70020ADF82800FFE750
:10173000BDF82800082815DCFFE7BDF828000FA930
:1017400001EB4000023003F0D3FBBDF828100DF18F
:101750002A0E2EF81100FFE7BDF828000130ADF881
:101760002800E5E70020ADF82800FFE7BDF82800D5
:10177000022843DCFFE7BDF8280000EB40010DF133
:101780002A0232F8111000EE101AB8EE400A9FED4E
:10179000561A80EE010A40F29021C2F2000158234D
:1017A00000FB031080ED050ABDF8280000EB400C9B
:1017B00002EB4C0CBCF802C000EE10CAB8EE400AB6
:1017C00080EE010A00FB031080ED060ABDF8280038
:1017D00000EB400C02EB4C02928800EE102AB8EEAF
:1017E000400A80EE010A00FB031080ED070AFFE7C4
:1017F000BDF828000130ADF82800B7E770E09DF88B
:101800003C0011286BD1FFE70020ADF81400FFE782
:10181000BDF81400082815DCFFE7BDF814000FA977
:1018200001EB4000023003F063FBBDF814100DF132
:10183000160E2EF81100FFE7BDF814000130ADF8C8
:101840001400E5E70320ADF81400FFE7BDF814002D
:10185000052843DCFFE7BDF8140000EB40010DF163
:10186000160232F8111000EE101AB8EE400A9FED81
:101870001E1A80EE010A40F29021C2F200015823A4
:1018800000FB031080ED050ABDF8140000EB400CCE
:1018900002EB4C0CBCF802C000EE10CAB8EE400AD5
:1018A00080EE010A00FB031080ED060ABDF814006B
:1018B00000EB400C02EB4C02928800EE102AB8EECE
:1018C000400A80EE010A00FB031080ED070AFFE7E3
:1018D000BDF814000130ADF81400B7E7FFE7FFE7EB
:1018E000FFE7FFE728B080BD00007A4480B586B0EE
:1018F00013468C4686468DF8170004918DF80F200C
:101900009DF8170000280293CDF804C0CDF800E040
:1019100006D1FFE704989DF80F1006F0DBF90BE005
:101920009DF81700012806D1FFE704989DF80F10D5
:1019300003F0C4FBFFE7FFE706B080BD704700007F
:1019400081B0EFF3108072B60090FFE7FEE7000071
:1019500088B00A4603460690059100200490029242
:101960000193FFE7069890F83C00012804D1FFE7B7
:1019700002208DF81F00FBE00698012180F83C1042
:10198000FFE7FFE7059800680A281CD3FFE70598E2
:10199000008800EB40001E38072101FA00F006998C
:1019A0000968CA6822EA0000C86005988168008852
:1019B00000EB40001E3801FA00F006990968CA6879
:1019C0001043C86019E00598008800EB400007212B
:1019D00001FA00F0069909680A6922EA0000086124
:1019E00005988168008800EB400001FA00F0069934
:1019F00009680A6910430861FFE7059840680628EE
:101A00001CD8FFE70598406800EB800005381F21CF
:101A100001FA00F0069909684A6B22EA000048635F
:101A200005980188406800EB8000053801FA00F055
:101A3000069909684A6B104348633DE00598406881
:101A40000C281CD8FFE70598406800EB800023387D
:101A50001F2101FA00F0069909680A6B22EA0000CA
:101A6000086305980188406800EB8000233801FA7C
:101A700000F0069909680A6B104308631BE005989B
:101A8000406800EB800041381F2101FA00F0069900
:101A90000968CA6A22EA0000C8620598018840689D
:101AA00000EB8000413801FA00F006990968CA6A23
:101AB0001043C862FFE7FFE742F20030C4F20100C2
:101AC00003900698006842F20001C4F201018842C6
:101AD0000BD1FFE705980068122806D1FFE70398AD
:101AE000416841F480014160FFE70698006842F2D6
:101AF0000001C4F20101884230D1FFE70598006877
:101B0000102805D0FFE705980068112826D1FFE7C7
:101B10000398416841F4000141600598006810286D
:101B20001BD1FFE740F28000C2F2000000684DF6D2
:101B30008361C4F21B31A0FB0101890C01EB81011F
:101B4000490004910090FFE70498002804D0FFE7C3
:101B5000049801380490F7E7FFE7FFE7FFE70698EE
:101B6000002180F83C10FFE700208DF81F00FFE700
:101B70009DF81F0008B0704782B00146019001989F
:101B8000006C009102B0704782B00146019001984C
:101B90000068C06C009102B07047000080B584B04E
:101BA0000146029000208DF807000298002800915D
:101BB00004D1FFE701208DF80F0045E00298806A0C
:101BC0000121C0F60071884201D0FFE7FFE70298CB
:101BD000006C00280CD1FFE7029800F039F8029859
:101BE0004FF0000EC0F844E0029880F83CE0FFE7B8
:101BF0000298006CC006002817D4FFE70298006C1A
:101C000040F0020020F48850029908640298FEF720
:101C1000DBFE0298002141640298006C40F0010054
:101C200020F002000299086403E001208DF807000B
:101C3000FFE7FFE70298002180F83C10FFE79DF8DE
:101C400007008DF80F00FFE79DF80F0004B080BD7E
:101C500080B58CB001460B9000200A900990089046
:101C6000079006900B98006842F20002C4F201024D
:101C70009042039132D1FFE7FFE70020059043F641
:101C80004400C4F20200016841F480710160006800
:101C900000F48070059005980290FFE7FFE70020B0
:101CA000049043F63000C4F20200016841F00401E0
:101CB0000160006800F00400049004980190FFE7C0
:101CC00008200690032007900020089040F60000AE
:101CD000C4F2020006A900F013FBFFE70CB080BDC0
:101CE00080B586B00A460346049003910020029016
:101CF000049800688068400500280192009316D57A
:101D0000FFE7049800688068C00500280FD5FFE74A
:101D10000498016C41F020010164FFE70498002160
:101D200080F83C10FFE701208DF8170073E000F009
:101D3000EFFC0290FFE704980068006800F00200E2
:101D400002282ED0FFE703980130002828D0FFE7B3
:101D5000039800280BD0FFE700F0DAFCDDF808E07C
:101D6000A0EB0E00DDF80CE0704518D9FFE70498F1
:101D70000068006800F0020002280FD0FFE7049816
:101D8000016C41F004010164FFE70498002180F830
:101D90003C10FFE703208DF817003CE0FFE7FFE76A
:101DA000C9E7049800686FF0120101600498016CA3
:101DB00041F40071016404980068806810F0405F8D
:101DC00025D1FFE70498007E002820D1FFE7049882
:101DD0000068C06A10F4700F07D0FFE7049800682D
:101DE00080684005002812D4FFE70498016C21F4B4
:101DF000807101640498006CC004002806D4FFE7D9
:101E00000498016C41F001010164FFE7FFE7002045
:101E10008DF81700FFE79DF8170006B080BD0000A1
:101E200086B001460490002003900191FFE70498DA
:101E300090F83C00012804D1FFE702208DF817003C
:101E4000D9E00498012180F83C10FFE7FFE70498EF
:101E500000688068C007002820D1FFE70498006868
:101E6000816841F00101816040F28000C2F200000F
:101E700000684DF68361C4F21B31A0FB0101890C9F
:101E800001EB410103910090FFE70398002804D083
:101E9000FFE7039801380390F7E7FFE7049800682D
:101EA0008068C007002800F09780FFE70498006C66
:101EB00040F4807040F201618843049908640498FA
:101EC000006840684005002809D5FFE70498006CC9
:101ED00040F4805020F4005004990864FFE704980F
:101EE000006CC004002806D5FFE70498416C21F07F
:101EF0000601416403E0049800214164FFE7FFE725
:101F00000498002180F83C10FFE742F20030C4F250
:101F100001000290049800686FF0220101600298AD
:101F20004068C00600283ED1FFE70498006842F2EE
:101F30000001C4F20101884225D0FFE7049800683F
:101F400042F20011C4F20101884209D1FFE742F2D6
:101F50000430C4F201000068C006002813D0FFE777
:101F60000498006842F20021C4F20101884219D1AC
:101F7000FFE742F20430C4F20100006800F01F00E5
:101F80000F280FD8FFE704980068806810F0405FC2
:101F900007D1FFE704980068816841F080418160C3
:101FA000FFE7FFE717E00498006842F20001C4F27F
:101FB000010188420ED1FFE704980068806810F0A4
:101FC000405F07D1FFE704980068816841F08041D5
:101FD0008160FFE7FFE70AE00498016C41F010011F
:101FE00001640498416C41F001014164FFE7002065
:101FF0008DF81700FFE79DF8170006B07047000046
:1020000080B584B00146029002980028009104D166
:10201000FFE701208DF80F00E6E0029890F820001D
:10202000002804D1FFE7029800F0E2F8FFE70298E9
:102030000068016821F00201016000F069FB019075
:10204000FFE70298006840688007002817D5FFE77F
:1020500000F05EFBDDF804E0A0EB0E000B280DD3D2
:10206000FFE70298416A41F400314162029805217C
:1020700080F8201001208DF80F00B5E0E1E702980C
:102080000068016841F00101016000F041FB01902E
:10209000FFE7029800684068C007002817D1FFE7F3
:1020A00000F036FBDDF804E0A0EB0E000B280DD3AA
:1020B000FFE70298416A41F400314162029805212C
:1020C00080F8201001208DF80F008DE0E1E70298E4
:1020D000007E012807D1FFE702980068016841F0FF
:1020E0008001016006E002980068016821F080012B
:1020F0000160FFE70298407E012807D1FFE70298C0
:102100000068016841F04001016006E00298006843
:10211000016821F040010160FFE70298807E0128FC
:1021200007D1FFE702980068016841F020010160D3
:1021300006E002980068016821F020010160FFE7D5
:102140000298C07E012807D1FFE702980068016865
:1021500021F01001016006E002980068016841F07A
:1021600010010160FFE70298007F012807D1FFE717
:1021700002980068016841F00801016006E00298D9
:102180000068016821F008010160FFE70298407FC4
:10219000012807D1FFE702980068016841F00401B7
:1021A000016006E002980068016821F00401016006
:1021B000FFE70298016842688368D0F80CC043EAE0
:1021C0000C03D0F810C043EA0C0340691843013AED
:1021D0001043C8610298002141620298012280F8F0
:1021E00020208DF80F10FFE79DF80F0004B080BD90
:1021F00080B58EB001460D9000200C900B900A9097
:10220000099008900D98006846F60002C4F200029A
:102210009042049149D1FFE7FFE70020079043F681
:102220004000C4F20200016841F080610160006872
:1022300000F08060079007980390FFE7FFE7002019
:10224000069043F64000C4F20200016841F00071BC
:102250000160006800F00070069006980290FFE7A9
:10226000FFE70020059043F63000C4F20200016849
:1022700041F002010160006800F00200059005983D
:102280000190FFE74FF44050089002200990002091
:102290000A9003200B9009200C9040F20040C4F2F9
:1022A000020008A900F02CF8FFE70EB080BD000086
:1022B00080B584B001460390009100F029FA0290A5
:1022C0000398019001980130002809D0FFE740F2FF
:1022D0008C00C2F200000078019908440190FFE7E9
:1022E000FFE700F015FADDF808E0A0EB0E00DDF8DE
:1022F00004E0704501D2FFE7F3E704B080BD0000C1
:1023000091B00A46034610900F9100200D900C905A
:102310000B900E9009920893FFE70E980F2800F299
:10232000D381FFE70E98012101FA00F00D900F987C
:1023300000680D9908400C900C980D99884240F067
:10234000BE81FFE70F98406800F00300012807D026
:10235000FFE70F98406800F0030002282FD1FFE745
:10236000109880680B900E984000032101FA00F04D
:102370000B9921EA00000B900F98C0680E99490054
:1023800088400B9908430B900B981099886010981F
:1023900040680B900E98012101FA00F00B9921EA98
:1023A00000000B900F984068C0F300100E99884011
:1023B0000B9908430B900B9810994860FFE70F9812
:1023C000406800F00300032818D0FFE71098C068A9
:1023D0000B900E984000032101FA00F00B9921EABE
:1023E00000000B900F9880680E99490088400B9967
:1023F00008430B900B981099C860FFE70F9840684E
:1024000000F00300022826D1FFE710980E996FF024
:10241000030202EA51010844006A0B900E9800F092
:10242000070080000F2101FA00F00B9921EA00005B
:102430000B900F9800690E9901F007018900884000
:102440000B9908430B900B9810990E9B02EA5302CC
:1024500011440862FFE7109800680B900E98400046
:10246000032101FA00F00B9921EA00000B900F986C
:10247000406800F003000E99490088400B9908431A
:102480000B900B98109908600F984068C0000028C6
:1024900040F11481FFE7FFE700200A9043F6440073
:1024A000C4F20200016841F480410160006800F458
:1024B00080400A900A980790FFE70E9820F00300EA
:1024C00043F60801C4F2010140580B900E9800F049
:1024D000030080000F2101FA00F00B9921EA0000AF
:1024E0000B9010980021C4F20201884203D1FFE74B
:1024F000002006905EE0109840F20041C4F2020114
:10250000884203D1FFE70120059050E0109840F683
:102510000001C4F20201884203D1FFE702200490C7
:1025200042E0109840F60041C4F20201884203D113
:10253000FFE70320039034E0109841F20001C4F259
:102540000201884203D1FFE70420029026E01098A0
:1025500041F20041C4F20201884203D1FFE70520A5
:10256000019018E0109841F60001C4F2020188427F
:1025700003D1FFE7062000900AE0109841F60041E1
:10258000C4F202010822884208BF07220092FFE736
:1025900000980190FFE701980290FFE702980390EE
:1025A000FFE703980490FFE704980590FFE705987C
:1025B0000690FFE70698C0B20E9901F0030189006A
:1025C00088400B9908430B900B980E9921F003015A
:1025D00043F60802C4F20102885043F60040C4F2F8
:1025E000010000680B900C980B9921EA00000B90F9
:1025F0000F984068C003002805D5FFE70C980B9999
:1026000008430B90FFE70B9843F60041C4F2010129
:10261000086043F60440C4F2010000680B900C9877
:102620000B9921EA00000B900F9840688003002866
:1026300005D5FFE70C980B9908430B90FFE70B9823
:1026400043F60441C4F20101086043F60840C4F2B5
:10265000010000680B900C980B9921EA00000B9088
:102660000F984068C002002805D5FFE70C980B9929
:1026700008430B90FFE70B9843F60841C4F20101B1
:10268000086043F60C40C4F2010000680B900C98FF
:102690000B9921EA00000B900F98406880020028F7
:1026A00005D5FFE70C980B9908430B90FFE70B98B3
:1026B00043F60C41C4F201010860FFE7FFE7FFE7C2
:1026C0000E9801300E9028E611B0704780B585B0A5
:1026D00013468C4686460490ADF80E108DF80D20FA
:1026E0009DF80D0000280293CDF804C0CDF800E05D
:1026F00005D0FFE7BDF80E000499886105E0BDF83C
:102700000E00000404998861FFE705B080BD000059
:1027100040F6B400C2F200000068704740F28C003E
:10272000C2F20000007840F6B401C2F200010A686B
:10273000104408607047000080B582B043F6004046
:10274000C4F20200016841F400710160016841F4C3
:1027500080610160016841F480710160032000F034
:10276000A1F80020019000F007F8009000F040F878
:10277000019802B080BD000080B584B0014602908F
:1027800040F28000C2F20000006840F28C02C2F207
:10279000000212784FF47A73B3FBF2F2B0FBF2F05E
:1027A000019101F0AFFB002804D0FFE701208DF874
:1027B0000F0018E002980F280DD8FFE702994FF09C
:1027C000FF30002200F048F8029840F29001C2F277
:1027D0000001086003E001208DF80F0003E00020F5
:1027E0008DF80F00FFE79DF80F0004B080BD0000DA
:1027F00084B0FFE70020039043F64400C4F20200D7
:10280000016841F480410160006800F48040039059
:1028100003980190FFE7FFE70020029043F6400095
:10282000C4F20200016841F080510160006800F0CC
:102830008050029002980090FFE704B070470000BB
:1028400080B582B001468DF807009DF90700009120
:1028500005F06AFD02B080BD80B58AB013468C4693
:1028600086468DF827000891079200200690059370
:10287000CDF810C0CDF80CE005F072FD06909DF982
:1028800027000699089A079B0290084611461A46A7
:1028900004F012F8029901900846019905F068FDCC
:1028A0000AB080BD80B582B00146019001980091C8
:1028B00005F084FD02B080BD80B588B00A460346AD
:1028C00006900591069800280392029304D1FFE731
:1028D00001208DF81F0028E1059843F60041C4F25D
:1028E0000201096801F00701884212D9FFE7059843
:1028F00043F60041C4F202010870086800F00700C6
:102900000599884204D0FFE701208DF81F000CE1F3
:10291000FFE706980068800700282AD5FFE7069899
:1029200000684007002809D5FFE743F60800C4F215
:102930000200016841F4E0510160FFE70698006879
:102940000007002809D5FFE743F60800C4F202009B
:10295000016841F460410160FFE743F60800C4F2FA
:102960000200016821F0F001069A926811430160AB
:10297000FFE706980068C007002870D0FFE70698B8
:102980004068012811D1FFE743F60000C4F20200BD
:10299000006800F400300021B1EB504F04D1FFE794
:1029A00001208DF81F00C0E02CE006984068022846
:1029B00005D0FFE706984068032811D1FFE743F6EA
:1029C0000000C4F20200006800F000700021B1EBCA
:1029D000506F04D1FFE701208DF81F00A5E010E043
:1029E00043F60000C4F20200006800F0020000217B
:1029F000B1EB500F04D1FFE701208DF81F0094E0E8
:102A0000FFE7FFE743F60800C4F20200016821F087
:102A10000301069A526811430160FFF779FE0490A2
:102A2000FFE743F60800C4F20200006800F00C0063
:102A300006994968B0EB810F10D0FFE7FFF768FEF9
:102A4000DDF810E0A0EB0E0041F2893E704504D3A2
:102A5000FFE703208DF81F0067E0E2E7FFE7059836
:102A600043F60041C4F20201096801F007018842FF
:102A700012D2FFE7059843F60041C4F20201087044
:102A8000086800F007000599884204D0FFE701209C
:102A90008DF81F0049E0FFE706980068400700280E
:102AA0000CD5FFE743F60800C4F20200016821F4E8
:102AB000E051069AD26811430160FFE7069800686A
:102AC000000700280DD5FFE743F60800C4F2020016
:102AD000016821F46041069A126941EAC20101606D
:102AE000FFE700F057F843F6080EC4F2020EDEF8D6
:102AF00000E05FFA8EFE4FEA1E1E49F65851C0F6FE
:102B0000000111F80E10C84040F28001C2F200012D
:102B1000086040F29000C2F200000068FFF72CFE4F
:102B200000218DF81F100190FFE79DF81F0008B0ED
:102B300080BD000040F28000C2F2000000687047D3
:102B400080B5FFF7F7FF43F6080EC4F2020EDEF879
:102B500000E0CEF3822E49F66851C0F6000111F86C
:102B60000E10C84080BD000080B5FFF7E3FF43F6BC
:102B7000080EC4F2020EDEF800E01FFA8EFE4FEAE5
:102B80005E3E49F66851C0F6000111F80E10C840CB
:102B900080BD000080B586B00020059004900390B1
:102BA000029043F60800C4F20200006800F00C0036
:102BB00001460028019108D0FFE7019804280AD0B7
:102BC000FFE7019808280CD04FE042F20040C0F225
:102BD000F40002904FE042F20040C0F2F400029094
:102BE00049E043F60400C4F20200016801F03F012D
:102BF000059100684002002813D5FFE743F6040062
:102C0000C4F202000068C0F3881042F20041C0F232
:102C1000F401A0FB0101059A0023FDF7D1FA04900D
:102C200012E043F60400C4F202000068C0F388100A
:102C300042F20041C0F2F401A0FB0101059A002319
:102C4000FDF7BEFA0490FFE743F60400C4F2020069
:102C5000006800F44030022101EBD030039004986A
:102C60000399B0FBF1F0029005E042F20040C0F29F
:102C7000F4000290FFE7029806B080BD80B588B0EE
:102C80000146069006980028019104D1FFE7012033
:102C90008DF81F006EE306980068C007002800F05A
:102CA000AB80FFE743F60800C4F20200006800F0C2
:102CB0000C00042813D0FFE743F60800C4F202001A
:102CC000006800F00C0008281FD1FFE743F604005D
:102CD000C4F2020000684002002816D5FFE743F660
:102CE0000000C4F20200006800F400300021B1EBE3
:102CF000504F09D0FFE706984068002804D1FFE74D
:102D000001208DF81F0035E375E0FFE70698406865
:102D1000B0F5803F09D1FFE743F60000C4F202009E
:102D2000016841F48031016020E006984068B0F508
:102D3000A02F0DD1FFE743F60000C4F202000168A6
:102D400041F480210160016841F4803101600CE0B0
:102D500043F60000C4F20200016821F480310160F2
:102D6000016821F480210160FFE7FFE7FFE7069893
:102D7000406800281FD0FFE7FFF7CAFC0590FFE777
:102D800043F60000C4F20200006800F400300021A5
:102D9000B1EB504F0ED1FFE7FFF7BAFCDDF814E0BE
:102DA000A0EB0E00652804D3FFE703208DF81F0079
:102DB000E0E2E5E71EE0FFF7ABFC0590FFE743F636
:102DC0000000C4F20200006800F400300021B1EB02
:102DD000504F0ED0FFE7FFF79BFCDDF814E0A0EBAF
:102DE0000E00652804D3FFE703208DF81F00C1E221
:102DF000E5E7FFE7FFE7FFE70698006880070028A0
:102E000040F19B80FFE743F60800C4F2020000682F
:102E100010F00C0F13D0FFE743F60800C4F20200D5
:102E2000006800F00C0008282CD1FFE743F60400EE
:102E3000C4F2020000684002002823D4FFE743F6F2
:102E40000000C4F20200006800F002000021B1EBB3
:102E5000500F09D0FFE70698C068012804D0FFE7AB
:102E600001208DF81F0085E243F60000C4F2020045
:102E7000016821F0F801069A126941EAC201016075
:102E8000FFE759E00698C068002830D0FFE700202F
:102E9000C4F2472001210160FFF73AFC0590FFE7EB
:102EA00043F60000C4F20200006800F002000021B6
:102EB000B1EB500F0ED1FFE7FFF72AFCDDF814E06D
:102EC000A0EB0E00032804D3FFE703208DF81F00BA
:102ED00050E2E5E743F60000C4F20200016821F089
:102EE000F801069A126941EAC201016023E000205C
:102EF000C4F2472000210160FFF70AFC0590FFE7BC
:102F000043F60000C4F20200006800F00200002155
:102F1000B1EB500F0ED0FFE7FFF7FAFBDDF814E03E
:102F2000A0EB0E00032804D3FFE703208DF81F0059
:102F300020E2E5E7FFE7FFE7FFE706980068000704
:102F4000002850D5FFE706984069002825D0FFE704
:102F500040F68060C4F2472001210160FFF7D8FBF2
:102F60000590FFE743F67400C4F20200006800F029
:102F700002000021B1EB500F0ED1FFE7FFF7C8FBB5
:102F8000DDF814E0A0EB0E00032804D3FFE70320D4
:102F90008DF81F00EEE1E5E724E040F68060C4F222
:102FA000472000210160FFF7B3FB0590FFE743F6E0
:102FB0007400C4F20200006800F002000021B1EBCE
:102FC000500F0ED0FFE7FFF7A3FBDDF814E0A0EBF6
:102FD0000E00032804D3FFE703208DF81F00C9E18A
:102FE000E5E7FFE7FFE7069800684007002840F1A3
:102FF000D680FFE700208DF80F0043F64000C4F2B2
:1030000002000068C000002816D4FFE7FFE7002098
:10301000029043F64000C4F20200016841F0805182
:103020000160006800F08050029002980090FFE775
:1030300001208DF80F00FFE747F20000C4F2000006
:103040000068C005002824D4FFE747F20000C4F25E
:103050000000016841F480710160FFF759FB0590A1
:10306000FFE747F20000C4F200000068C005002836
:103070000ED4FFE7FFF74CFBDDF814E0A0EB0E00E9
:10308000032804D3FFE703208DF81F0072E1E8E76F
:10309000FFE7FFE706988068012809D1FFE743F6BC
:1030A0007000C4F20200016841F0010101601FE0FC
:1030B0000698806805280DD1FFE743F67000C4F23A
:1030C0000200016841F004010160016841F0010162
:1030D00001600CE043F67000C4F20200016821F0C8
:1030E00001010160016821F004010160FFE7FFE7D1
:1030F000FFE706988068002821D0FFE7FFF708FB6C
:103100000590FFE743F67000C4F20200006800F08B
:1031100002000021B1EB500F10D1FFE7FFF7F8FAE2
:10312000DDF814E0A0EB0E0041F2893E704504D3B7
:10313000FFE703208DF81F001CE1E3E720E0FFF725
:10314000E7FA0590FFE743F67000C4F2020000685A
:1031500000F002000021B1EB500F10D0FFE7FFF7A5
:10316000D7FADDF814E0A0EB0E0041F2893E70457D
:1031700004D3FFE703208DF81F00FBE0E3E7FFE740
:103180009DF80F00012809D1FFE743F64000C4F283
:103190000200016821F080510160FFE7FFE7069817
:1031A0008069002800F0E280FFE743F60800C4F2DF
:1031B0000200006800F00C00082800F08B80FFE798
:1031C00006988069022860D1FFE76020C4F247209A
:1031D00000210160FFF79CFA0590FFE743F600002D
:1031E000C4F20200006800F000700021B1EB506FE3
:1031F0000ED0FFE7FFF78CFADDF814E0A0EB0E002D
:10320000032804D3FFE703208DF81F00B2E0E5E7B1
:103210000698C169026A436AD0F828C0114341EA9E
:1032200083114FEACC324FF6FF739A43A2F58032F6
:103230001143C06A41EA006043F60401C4F202018E
:1032400008606020C4F2472001210160FFF760FAA6
:103250000590FFE743F60000C4F20200006800F0AA
:1032600000700021B1EB506F0ED1FFE7FFF750FA6D
:10327000DDF814E0A0EB0E00032804D3FFE70320E1
:103280008DF81F0076E0E5E723E06020C4F24720D8
:1032900000210160FFF73CFA0590FFE743F60000CC
:1032A000C4F20200006800F000700021B1EB506F22
:1032B0000ED0FFE7FFF72CFADDF814E0A0EB0E00CC
:1032C000032804D3FFE703208DF81F0052E0E5E751
:1032D000FFE74AE006988069012804D1FFE7012052
:1032E0008DF81F0046E043F60400C4F202000068B7
:1032F000049006988069012831D0FFE7049800F413
:1033000080000699C969884229D1FFE7049800F036
:103310003F000699096A884221D1FFE7049847F6E1
:10332000C07108400699496AB0EB811F17D1FFE7C9
:10333000049800F440300699896AC9034FF6FF7279
:103340009143A1F58031884209D1FFE7049800F04C
:1033500070600699C96AB0EB016F04D0FFE70120E5
:103360008DF81F0006E0FFE7FFE7FFE700208DF87C
:103370001F00FFE79DF81F0008B080BD80B584B036
:103380000146029002980028019104D1FFE7012034
:103390008DF80F0072E00298406A00280CD1FFE718
:1033A00002984068B0F5827F01D1FFE703E0029800
:1033B0000021C161FFE705E0029800210161029848
:1033C0004161FFE7029800218162029890F8510064
:1033D000002808D1FFE70298002180F850100298D9
:1033E00000F050F8FFE70298022180F8511002988F
:1033F0000068016821F0400101600298016842689C
:103400008368D0F80CC002F4827203F404431A44B7
:103410000CF400631A44036903F002031A4443697D
:1034200003F001031A44836903F400731A44C36967
:1034300003F038031A44036A03F080031A43806AD6
:1034400000F40050104308600298418B01F0040121
:103450000268406A00F0100008445060029800685A
:10346000C16921F40061C16102980021416502989F
:10347000012280F851208DF80F10FFE79DF80F0012
:1034800004B080BD80B594B0014613900020129026
:10349000119010900F900E901398006843F2000264
:1034A000C4F201029042079135D1FFE7FFE7002007
:1034B0000D9043F64400C4F20200016841F48051CB
:1034C0000160006800F480500D900D980690FFE7B1
:1034D000FFE700200C9043F63000C4F202000168C0
:1034E00041F001010160006800F001000C900C98AF
:1034F0000590FFE7E0200E9002200F900020109032
:1035000003201190052012900020C4F202000EA9A1
:10351000FEF7F6FE81E01398006843F60001C4F25E
:103520000001884237D1FFE7FFE700200B9043F608
:103530004000C4F20200016841F48041016000686B
:1035400000F480400B900B980490FFE7FFE7002009
:103550000A9043F63000C4F20200016841F0020113
:103560000160006800F002000A900A980390FFE7EB
:103570004FF444400E9002200F9000201090032042
:1035800011900520129040F20040C4F202000EA9F2
:10359000FEF7B6FE40E01398006843F60041C4F21F
:1035A0000001884237D1FFE7FFE70020099043F68A
:1035B0004000C4F20200016841F40041016000686B
:1035C00000F40040099009980290FFE7FFE700200F
:1035D000089043F63000C4F20200016841F0040193
:1035E0000160006800F00400089008980190FFE76F
:1035F0004FF4E0500E9002200F9000201090032016
:1036000011900620129040F60000C4F202000EA9AC
:10361000FEF776FEFFE7FFE7FFE714B080BD00008E
:10362000B0B58EB09C4696460C4605460C900B9164
:10363000ADF82A20099300208DF81F000C984068EF
:10364000B0F5827FCDF818C0CDF814E0049403954E
:1036500018D1FFE70C988068002813D1FFE70C9879
:10366000042180F851100C980B99BDF82A30099A62
:10367000EC46CCF800200291029A00F069FA8DF82D
:10368000370000E1FFE70C9890F85000012804D1C2
:10369000FFE702208DF83700F5E00C98012180F853
:1036A0005010FFE7FFE7FFF733F808900C9890F809
:1036B0005100012804D0FFE702208DF81F00D3E05D
:1036C0000B98002805D0FFE7BDF82A00002804D198
:1036D000FFE701208DF81F00C6E00C98042180F858
:1036E00051100C98002141650B980C9A9063BDF81D
:1036F0002A000C9A9087BDF82A000C9AD0870C9863
:1037000001630C9881860C98C1860C9801640C9812
:1037100041640C988068B0F5004F0DD1FFE70C981C
:103720000068016821F0400101600C9800680168A0
:1037300021F480410160FFE70C980068006800F008
:103740004000402807D0FFE70C980068016841F06E
:1037500040010160FFE70C98C068002837D1FFE7FF
:10376000FFE70C98C08F002830D0FFE70C98006866
:103770008068C00700280FD0FFE70C980068007B26
:103780000C99896B08700C98816B013181630C98DE
:10379000C18F0139C18718E0FEF7BAFFDDF820E0DC
:1037A000A0EB0E00DDF824E0704505D3FFE7099893
:1037B0000130002804D1FFE70998002804D1FFE771
:1037C00003208DF81F004FE0FFE7CAE736E0FFE770
:1037D0000C98C08F002830D0FFE70C9800688068F4
:1037E000C00700280FD0FFE70C980068C0680C994C
:1037F000896B08800C98816B023181630C98C18FB2
:103800000139C18718E0FEF783FFDDF820E0A0EB67
:103810000E00DDF824E0704505D3FFE7099801307C
:10382000002804D1FFE70998002804D1FFE703200E
:103830008DF81F0018E0FFE7CAE7FFE70C98099929
:10384000089A03F067FA002804D0FFE70C982021BB
:103850004165FFE70C98406D002804D0FFE7012088
:103860008DF81F00FFE7FFE70C98012180F8511049
:10387000FFE70C98002180F85010FFE79DF81F002B
:103880008DF83700FFE79DF837000EB0B0BD00009F
:10389000B0B58EB09C4696460C4605460C900B91F2
:1038A000ADF82A20099300208DF81F00CDF814C030
:1038B000CDF810E003940295FFE70C9890F85000C3
:1038C000012804D1FFE702208DF837003CE10C9875
:1038D000012180F85010FFE7FFE7FEF719FF08907D
:1038E000BDF82A00ADF81C000C9890F85100012892
:1038F00004D0FFE702208DF81F0016E10B98002886
:1039000005D0FFE7BDF82A00002804D1FFE7012019
:103910008DF81F0009E10C98032180F851100C98D4
:10392000002141650B980C9A1063BDF82A000C9A8F
:103930009086BDF82A000C9AD0860C9881630C986A
:1039400081870C98C1870C9841640C9801640C988D
:103950008068B0F5004F0DD1FFE70C980068016852
:1039600021F0400101600C980068016841F4804139
:103970000160FFE70C980068006800F040004028F4
:1039800007D0FFE70C980068016841F04001016032
:10399000FFE70C98C068B0F5006F4ED1FFE70C98B8
:1039A0004068002805D0FFE7BDF81C0001280ED1B3
:1039B000FFE70C980168006B0088C8600C98016BE9
:1039C000023101630C98C18E0139C186FFE7FFE720
:1039D0000C98C08E00282FD0FFE70C9800688068F4
:1039E000800700280ED5FFE70C980168006B00885F
:1039F000C8600C98016B023101630C98C18E0139CB
:103A0000C18618E0FEF784FEDDF820E0A0EB0E0092
:103A1000DDF824E0704505D3FFE709980130002860
:103A200004D1FFE70998002804D1FFE703208DF8AF
:103A30001F007AE0FFE7CBE74DE00C9840680028D4
:103A400005D0FFE7BDF81C0001280ED1FFE70C9858
:103A50000168006B007808730C98016B01310163F9
:103A60000C98C18E0139C186FFE7FFE70C98C08E24
:103A700000282FD0FFE70C98006880688007002896
:103A80000ED5FFE70C980168006B007808730C985E
:103A9000016B013101630C98C18E0139C18618E0B8
:103AA000FEF736FEDDF820E0A0EB0E00DDF824E0A6
:103AB000704505D3FFE709980130002804D1FFE7DE
:103AC0000998002804D1FFE703208DF81F002CE09F
:103AD000FFE7CBE7FFE70C980999089A03F098F9FC
:103AE000002804D0FFE70C9820214165FFE70C98DF
:103AF000806800280FD1FFE7FFE7002006900C98B0
:103B00000068C06806900C98006880680690069867
:103B10000190FFE7FFE70C98406D002804D0FFE715
:103B200001208DF81F00FFE7FFE70C98012180F8C6
:103B30005110FFE70C98002180F85010FFE79DF826
:103B40001F008DF83700FFE79DF837000EB0B0BDBD
:103B500070B594B0DDF860C09E4614460D4606462A
:103B6000129011911092ADF83E3001200B90002080
:103B70008DF82B00CDF820C0CDF81CE006940595FB
:103B80000496FFE7129890F85000012804D1FFE74F
:103B900002208DF84F00B0E11298012180F85010FA
:103BA000FFE7FFE7FEF7B4FD0C90129890F8510084
:103BB0008DF83700129840680E90BDF83E00ADF8C1
:103BC0003C009DF83700012813D0FFE70E98B0F5B0
:103BD000827F0AD1FFE712988068002805D1FFE7AD
:103BE0009DF83700042804D0FFE702208DF82B0051
:103BF00074E11198002809D0FFE71098002805D03B
:103C0000FFE7BDF83E00002804D1FFE701208DF852
:103C10002B0063E1129890F85100042805D0FFE7CB
:103C20001298052180F85110FFE712980021416594
:103C30001098129A9063BDF83E00129AD087BDF892
:103C40003E00129A90871198129A1063BDF83E00B8
:103C5000129AD086BDF83E00129A9086129801649E
:103C60001298416412980068006800F040004028F3
:103C700007D0FFE712980068016841F04001016039
:103C8000FFE71298C068B0F5006F40F08080FFE752
:103C900012984068002805D0FFE7BDF83C000128D5
:103CA0000ED1FFE712980168006B0088C860129877
:103CB000016B023101631298C18E0139C186FFE7A1
:103CC000FFE71298C08E01210028039107D1FFE77A
:103CD0001298C08F002818BF01200390FFE70398B7
:103CE000C007002852D0FFE712980068806880075C
:103CF000002819D5FFE71298C08E002814D0FFE7DE
:103D00000B98012810D1FFE712980168006B00881A
:103D1000C8601298016B023101631298C18E01399B
:103D2000C18600200B90FFE7129800688068C007EA
:103D3000002816D0FFE71298C08F002811D0FFE7A7
:103D400012980068C0681299896B08801298816B7C
:103D5000023181631298C18F0139C18701200B9014
:103D6000FFE7FEF7D5FCDDF830E0A0EB0E00DDF854
:103D700060E0704509D3FFE718980130002804D0AF
:103D8000FFE703208DF82B00A8E09AE782E0129865
:103D90004068002805D0FFE7BDF83C0001280ED19F
:103DA000FFE712980168006B007808731298016BA6
:103DB000013101631298C18E0139C186FFE7FFE727
:103DC0001298C08E01210028029107D1FFE71298B6
:103DD000C08F002818BF01200290FFE70298C0079B
:103DE000002856D0FFE712980068806880070028F6
:103DF00019D5FFE71298C08E002814D0FFE70B9862
:103E0000012810D1FFE712980168006B0078087351
:103E10001298016B013101631298C18E0139C1867C
:103E200000200B90FFE7129800688068C007002808
:103E300016D0FFE71298C08F002811D0FFE7129824
:103E40000068C0681299896B08701298816B013103
:103E500081631298C18F0139C18701200B90FFE760
:103E6000FEF756FCDDF830E0A0EB0E00DDF860E078
:103E7000704505D3FFE718980130002804D1FFE70B
:103E80001898002804D1FFE703208DF82B0025E0C7
:103E900096E7FFE7129818990C9A02F0B9FF0028EC
:103EA00007D0FFE701208DF82B00129820214165F3
:103EB00014E01298806800280FD1FFE7FFE7002088
:103EC000099012980068C06809901298006880688C
:103ED000099009980190FFE7FFE7FFE71298012199
:103EE00080F85110FFE71298002180F85010FFE78A
:103EF0009DF82B008DF84F00FFE79DF84F0014B0A0
:103F000070BD000080B582B001460190019800911B
:103F100003F0BEFA02B080BD86B00A4603460490A4
:103F200003910020029001920093FFE7049890F81B
:103F30003C00012804D1FFE702208DF8170044E07F
:103F40000498012180F83C10FFE7FFE7029820F079
:103F5000FF000399C96808430290029820F440705A
:103F60000399896808430290029820F480600399BD
:103F7000496808430290029820F400600399096898
:103F800008430290029820F480500399096908437D
:103F90000290029820F40050039949690843029066
:103FA000029820F480400399C9690843029002985E
:103FB000049909684864FFE70498002180F83C10E0
:103FC000FFE700208DF81700FFE79DF8170006B007
:103FD0007047000087B00A4603460590049101929D
:103FE0000093FFE7059890F83C00012804D1FFE713
:103FF00002208DF81B007EE00598012180F83C101E
:10400000FFE7FFE70598022180F83D10059800685A
:10401000406803900598006880680290039820F03B
:104020007000039004980068039908430390039874
:10403000059909684860059800680021C4F20101EB
:1040400088423CD0FFE705980068B0F1804F36D039
:10405000FFE70598006840F20041C4F20001884281
:104060002DD0FFE70598006840F60001C4F200017A
:10407000884224D0FFE70598006840F60041C4F26A
:10408000000188421BD0FFE70598006840F200411C
:10409000C4F20101884212D0FFE70598006844F29B
:1040A0000001C4F20101884209D0FFE705980068C9
:1040B00041F60001C4F2000188420ED1FFE70298E8
:1040C00020F0800002900498406802990843029012
:1040D0000298059909688860FFE70598012180F832
:1040E0003D10FFE70598002180F83C10FFE7002015
:1040F0008DF81B00FFE79DF81B0007B0704700001C
:1041000080B584B00146029002980028019104D144
:10411000FFE701208DF80F0043E0029890F83D0082
:10412000002808D1FFE70298002180F83C1002988F
:1041300000F03CF8FFE70298022180F83D10029859
:1041400050F8041B00900846009903F053FA0298B7
:10415000012180F84610FFE70298012180F83E1007
:10416000029880F83F10029880F84010029880F87A
:104170004110FFE7FFE70298012180F84210029802
:1041800080F84310029880F84410029880F8451097
:10419000FFE70298012180F83D1000208DF80F0004
:1041A000FFE79DF80F0004B080BD000084B0014619
:1041B0000390039800680022C4F20102904201912A
:1041C00013D1FFE7FFE70020029043F64400C4F25A
:1041D0000200016841F001010160006800F0010087
:1041E000029002980090FFE7FFE704B070470000DC
:1041F00084B001460290029890F83D000128009199
:1042000004D0FFE701208DF80F0064E0029802213E
:1042100080F83D10029800680021C4F20101884234
:104220003CD0FFE702980068B0F1804F36D0FFE73E
:104230000298006840F20041C4F2000188422DD08B
:10424000FFE70298006840F60001C4F200018842CE
:1042500024D0FFE70298006840F60041C4F2000154
:1042600088421BD0FFE70298006840F20041C4F288
:104270000101884212D0FFE70298006844F2000171
:10428000C4F20101884209D0FFE70298006841F6B4
:104290000001C4F20001884212D1FFE702980068D1
:1042A000806800F0070001900198062807D0FFE71A
:1042B00002980068016841F001010160FFE706E033
:1042C00002980068016841F001010160FFE70020E9
:1042D0008DF80F00FFE79DF80F0004B07047000055
:1042E00080B58CB00A4603460A900991079206935E
:1042F000FFE70A9890F83C00012804D1FFE702206C
:104300008DF82F00B7E00A98012180F83C10FFE7F4
:10431000FFE70A98022180F83D100A98006880683B
:104320000890089820F077000890089820F47F40C3
:10433000089008980A990968886009980068002818
:10434000059000F08280FFE7059810287DD0FFE7F8
:104350000598202879D0FFE70598302875D0FFE729
:104360000598402861D0FFE7059850283DD0FFE729
:104370000598602849D0FFE7059870280BD0FFE723
:104380000598B0F5805F05D0FFE70598B0F5005FB0
:1043900019D061E061E00A98006809994A688B6861
:1043A000C96804911946049B03F01CFA0A98006836
:1043B00080680890089840F07700089008980A995B
:1043C0000968886049E00A98006809994A688B681A
:1043D000C96803911946039B03F004FA0A98006820
:1043E000816841F48041816037E00A98006809994A
:1043F0004A68C96802911146029A03F0FFFB0A98C5
:104400000068502103F014FA27E00A98006809991F
:104410004A68C96801911146019A03F021FC0A9883
:104420000068602103F004FA17E00A98006809990F
:104430004A68C96800911146009A03F0DFFB0A98A8
:104440000068402103F0F4F907E00A980068099930
:10445000096803F0EDF900E0FFE70A98012180F810
:104460003D10FFE70A98002180F83C10FFE700208C
:104470008DF82F00FFE79DF82F000CB080BD0000E5
:1044800080B58AB0014609900020089007900690F8
:1044900005900490099800680022C4F2010290423D
:1044A000029123D1FFE7FFE70020039043F630009D
:1044B000C4F20200016841F001010160006800F0EF
:1044C0000100039003980190FFE74FF4706004909F
:1044D00002200590002006900790012008900020FF
:1044E000C4F2020004A9FDF70BFFFFE70AB080BD8C
:1044F00080B58EB00A4603460C900B910B980028AD
:104500000992089305D1FFE70C9890F83E000790B8
:104510001CE00B98042805D1FFE70C9890F83F00A9
:10452000069010E00B98082805D1FFE70C9890F84A
:104530004000059004E00C9890F841000590FFE7DA
:1045400005980690FFE706980790FFE7079801286F
:1045500004D0FFE701208DF83700B2E00B98002867
:1045600005D1FFE70C98022180F83E101FE00B9860
:10457000042806D1FFE70C98022180F83F1004912F
:1045800012E00B98082806D1FFE70C98022180F86A
:104590004010039105E00C98022180F8411003912E
:1045A000FFE703980490FFE704980290FFE70C9858
:1045B00000680B990122019203F0EEF80C98006854
:1045C00001990022C4F20102904200910CD0FFE751
:1045D0000C9800684FF60041CBF6FE710844B0FA23
:1045E00080F040090090FFE70098C007002807D03E
:1045F000FFE70C980068416C41F400414164FFE71B
:104600000C9800680021C4F2010188423CD0FFE709
:104610000C980068B0F1804F36D0FFE70C98006826
:1046200040F20041C4F2000188422DD0FFE70C980F
:10463000006840F60001C4F20001884224D0FFE780
:104640000C98006840F60041C4F2000188421BD07B
:10465000FFE70C98006840F20041C4F20101884273
:1046600012D0FFE70C98006844F20001C4F2010187
:10467000884209D0FFE70C98006841F60001C4F2B7
:104680000001884212D1FFE70C980068806800F0B2
:1046900007000A900A98062807D0FFE70C980068E0
:1046A000016841F001010160FFE706E00C98006835
:1046B000016841F001010160FFE700208DF837003B
:1046C000FFE79DF837000EB080BD000080B588B0D0
:1046D0000A460346079006910798006806994FF02E
:1046E000000C05926246049303F056F807980068A0
:1046F00001210022C4F20102904203910CD0FFE795
:10470000079800684FF60041CBF6FE710844B0FAF6
:1047100080F040090390FFE70398C00700281BD0F2
:10472000FFE7FFE707980068006A41F211110842AD
:1047300010D1FFE707980068006A40F24441084240
:1047400007D1FFE707980068416C21F400414164FC
:10475000FFE7FFE7FFE7FFE7FFE707980068006A6A
:1047600041F21111084210D1FFE707980068006A72
:1047700040F24441084207D1FFE70798006801680A
:1047800021F001010160FFE7FFE7FFE7069800283D
:1047900005D1FFE70798012180F83E101FE0069839
:1047A000042806D1FFE70798012180F83F10029105
:1047B00012E00698082806D1FFE70798012180F843
:1047C0004010019105E00798012180F84110019106
:1047D000FFE701980290FFE702980090FFE70020B2
:1047E00008B080BD80B588B013468C4686460690DA
:1047F000059104920393CDF808C0CDF804E0FFE7DB
:10480000069890F83C00012804D1FFE702208DF8BB
:104810001F008BE00698012180F83C10FFE7FFE7BE
:1048200004980C28009000F276800099DFE801F0EF
:1048300007737373227373733D7373735800069811
:104840000068059903F00EF806980068816941F048
:104850000801816106980068816921F00401816185
:104860000598006906990968D1F818E040EA0E0039
:10487000886151E006980068059903F06DF8069884
:104880000068816941F4006181610698006881696E
:1048900021F4806181610598006906990968D1F861
:1048A00018E04EEA0020886136E006980068059915
:1048B00003F0D0F806980068C16941F00801C161B1
:1048C00006980068C16921F00401C161059800697A
:1048D00006990968D1F81CE040EA0E00C8611BE0A7
:1048E00006980068059903F033F906980068C169D5
:1048F00041F40061C16106980068C16921F48061DA
:10490000C1610598006906990968D1F81CE04EEA72
:104910000020C86100E0FFE7FFE70698002180F86B
:104920003C10FFE700208DF81F00FFE79DF81F00F7
:1049300008B080BD80B584B001460290029800287E
:10494000019104D1FFE701208DF80F0043E00298A8
:1049500090F83D00002808D1FFE70298002180F878
:104960003C10029800F03CF8FFE70298022180F822
:104970003D10029850F8041B00900846009902F080
:1049800039FE0298012180F84610FFE702980121C4
:1049900080F83E10029880F83F10029880F840108E
:1049A000029880F84110FFE7FFE70298012180F8A4
:1049B0004210029880F84310029880F84410029840
:1049C00080F84510FFE70298012180F83D10002093
:1049D0008DF80F00FFE79DF80F0004B080BD0000C8
:1049E00082B001460190009102B0704780B584B05A
:1049F0000146029002980028019104D1FFE70120AE
:104A00008DF80F0041E002988069002801D0FFE78F
:104A100000E0FFE7029890F83D00002808D1FFE78A
:104A20000298002180F83C10029800F033F8FFE76C
:104A30000298242180F83D1002980068C16821F492
:104A40000051C160029803F063F90298006801699F
:104A500021F49041016102980068416921F02A0126
:104A6000416102980068C16841F40051C160029838
:104A70000021016402984FF0200E80F83DE002987A
:104A800080F83EE08DF80F10FFE79DF80F0004B0AE
:104A900080BD000080B592B00146119000201090BA
:104AA0000F900E900D900C901198006844F6004203
:104AB000C4F20002904207913ED1FFE7FFE70020D9
:104AC0000B9043F64000C4F20200016841F400215B
:104AD0000160006800F400200B900B980690FFE73F
:104AE000FFE700200A9043F63000C4F2020001689C
:104AF00041F001010160006800F001000A900A988D
:104B00000590FFE703200C9002210D9101210E91E9
:104B10000F90082010900020C4F202000CA9FDF7AD
:104B2000EFFB3420002104900391039AFDF794FEDB
:104B30000498FDF785FE3FE01198006841F20041BE
:104B4000C4F20101884236D1FFE7FFE70020099057
:104B500043F64400C4F20200016841F02001016004
:104B6000006800F02000099009980290FFE7FFE735
:104B70000020089043F63000C4F20200016841F0C2
:104B800004010160006800F004000890089801909A
:104B9000FFE7C0200C9002200D9000200E90032013
:104BA0000F900820109040F60000C4F202000CA9FB
:104BB000FDF7A6FBFFE7FFE712B080BDB0B58EB0F2
:104BC0009C4696460C4605460C900B91ADF82A2063
:104BD0000993002006900C9890F83E002028CDF80C
:104BE00014C0CDF810E00394029540F0A280FFE7D6
:104BF0000B98002805D0FFE7BDF82A00002804D153
:104C0000FFE701208DF8370097E0FFE70C9890F858
:104C10003C00012804D1FFE702208DF837008CE02A
:104C20000C98012180F83C10FFE7FFE70C98002169
:104C300001640C98222280F83E200C980163FDF755
:104C400067FD0690BDF82A000C998885BDF82A00FA
:104C50000C99C8850C988068B0F5805F0AD1FFE791
:104C60000C980069002805D1FFE7002008900B98F8
:104C7000079004E00B98089000200790FFE7FFE7FB
:104C80000C98002180F83C10FFE7FFE70C98C08DDE
:104C9000002846D0FFE70C98069B09996A461160E8
:104CA0002021002203F024F9002804D0FFE703208C
:104CB0008DF8370041E0089800280BD1FFE70C98E9
:104CC000006840686FF35F200799088007980230FA
:104CD000079021E00C988068B0F5805F0AD0FFE76C
:104CE0000C98806800280BD1FFE70C980069002819
:104CF00006D1FFE70C98006840680899087007E043
:104D00000C980068406800F07F0008990870FFE781
:104D1000089801300890FFE70C98C18D0139C185D2
:104D2000B4E70C98202180F83E1000208DF8370061
:104D300003E002208DF83700FFE79DF837000EB042
:104D4000B0BD0000B0B58EB09C4696460C460546F8
:104D50000C900B91ADF82A200993002006900C9836
:104D600090F83D002028CDF814C0CDF810E0039451
:104D7000029540F09780FFE70B98002805D0FFE7E9
:104D8000BDF82A00002804D1FFE701208DF8370084
:104D90008CE0FFE70C9890F83C00012804D1FFE775
:104DA00002208DF8370081E00C98012180F83C103A
:104DB000FFE7FFE70C98002101640C98212180F89F
:104DC0003D10FDF7A5FC0690BDF82A000C998884DB
:104DD000BDF82A000C99C8840C988068B0F5805FF3
:104DE0000AD1FFE70C980069002805D1FFE70020F1
:104DF00008900B98079004E00B980890002007900B
:104E0000FFE7FFE70C98002180F83C10FFE7FFE781
:104E10000C98C08C00282DD0FFE70C98069B0999B0
:104E20006A4611608021002203F062F8002804D055
:104E3000FFE703208DF8370038E0089800280BD1F1
:104E4000FFE7079800886FF35F200C9909684860B6
:104E500007980230079008E0089800780C990968D4
:104E60004860089801300890FFE70C98C18C013920
:104E7000C184CDE70C98069B09996A4611604021D0
:104E8000002203F035F8002804D0FFE703208DF856
:104E900037000BE00C98202180F83D1000208DF8A1
:104EA000370003E002208DF83700FFE79DF8370058
:104EB0000EB0B0BDFFE7FEE780B582B0FDF73CFC69
:104EC000019002F027FB00F067FD00F003FD00F009
:104ED00043FD00F053FE00F079FE00F09DFE00F06F
:104EE000C3FE00F099FF00F0B5FF02B080BD0000E6
:104EF00083B001460290029800780002ADF80600E7
:104F000002984078BDF806201043ADF80600BDF8C1
:104F10000600009103B0704780B584B000208DF882
:104F20000F0040F61400C4F20200016821F01001E5
:104F300001601420C4F20200016841F00801016020
:104F40000520FDF7B5F949F6DA50C0F6000049F63C
:104F5000EA51C0F6000100F05FF800285AD0FFE7E0
:104F600049F6DF50C0F6000049F6EA51C0F60001EC
:104F7000029100F051F80F2101900846FDF798F9D1
:104F800049F6AE50C0F60000029900F045F88DF8E1
:104F90000F0049F68350C0F60000029900F03CF87B
:104FA0008DF80F0049F6BB50C0F60000029900F0E2
:104FB00033F88DF80F0049F6A050C0F600000299B2
:104FC00000F02AF88DF80F0049F69350C0F6000063
:104FD000029900F021F88DF80F0049F6C950C0F68B
:104FE0000000029900F018F88DF80F0049F675508E
:104FF000C0F60000029900F00FF88DF80F001420A1
:10500000C4F20200016821F0080101600120FDF7EF
:105010004FF9FFE704B080BD80B592B00A46034661
:1050200010900F910020ADF834000C900B900A9076
:10503000099008900790069010980A210592049311
:10504000FBF756F90E900E98002804D1FFE70020D8
:105050008DF847002EE00E981099401A0130ADF8F7
:105060003600FFE71099BDF8362040F2F070C2F22A
:10507000000064230390FFF765FE06A91E220523A6
:10508000DDF80CE0029070460191FFF797FD0F9953
:10509000019A00901046FBF719F90E900E9800281F
:1050A00004D1FFE700208DF8470003E001208DF8D0
:1050B0004700FFE79DF8470012B080BD80B586B07D
:1050C0000A4603460590ADF812100599BDF8120086
:1050D00040F2F07CC2F2000C4FF0010E03906046EB
:1050E000DDF80CC00292624601937346FFF72AFE78
:1050F000009006B080BD000080B584B00F2000F0A5
:1051000023F98DF80F009DF80F0049283ED1FFE7E5
:105110001F208021029000F04FF93220FDF7C8F8DF
:105120000020029901900846019900F045F90120FC
:105130000090FDF7BDF82020A72100F03DF9009870
:10514000FDF7B6F82120182100F036F90098FDF798
:10515000AFF82320042100F02FF90098FDF7A8F8FC
:105160002420F42100F028F90098FDF7A1F825206B
:10517000019900F021F90098FDF79AF8262001998D
:1051800000F01AF90098FDF793F8FFE704B080BD2E
:1051900080B586B00020ADF814000490ADF80C0086
:1051A0000290082004A90622009200F03FF828206F
:1051B00002A9009A00F03AF89DF810009DF811102D
:1051C00040EA012040F20C21C2F2000108809DF863
:1051D00012009DF8132040EA022048809DF8140038
:1051E0009DF8152040EA022088809DF808009DF86F
:1051F000092040EA0220C8809DF80A009DF80B2093
:1052000040EA022008819DF80C009DF80D2040EA3C
:10521000022048814888ADF8060008884880BDF81B
:1052200006004042088006B080BD0000B0B58CB0DA
:1052300013468C4686468DF82F000A91ADF826203D
:105240009DF82F0040F0C0008DF8250040F214407A
:10525000C4F20200016821F00801016040F25071BF
:10526000C2F200010DF1250201244FF47A75089075
:10527000084607911146224606932B46CDF814C0E6
:10528000CDF810E00395FEF703FB0A99BDF8262040
:10529000079B02901846039BFEF7C2F908990A681B
:1052A00042F008020A6001900CB0B0BD10B588B0A1
:1052B00013468C4686468DF81F000691ADF81620E1
:1052C0009DF81F008DF8150040F21440C4F2020052
:1052D000016821F00201016040F2F860C2F20000B2
:1052E0000DF1150101224FF47A7403932346CDF892
:1052F00008C0CDF804E0FEF7CBFA0021ADF812109B
:105300000090FFE7BDF81200BDF81610884210DAD1
:10531000FFE7FF2001F078FADDF818E0BDF8121081
:105320000EF80100FFE7BDF812000130ADF81200E1
:10533000E8E740F21440C4F20200016841F00201C3
:10534000016008B010BD000080B586B001468DF840
:1053500017000020ADF81400ADF812009DF81700FA
:1053600040F080008DF8140040F21440C4F20200B6
:10537000026822F0080202606A464FF47A731360F2
:1053800040F25072C2F2000205AB0DF1120C4FF068
:10539000020E039010460291194662467346FEF7CC
:1053A000D7FB03990A6842F008020A609DF81320AF
:1053B0000190104606B080BD10B588B00A4603467D
:1053C0008DF81F008DF81E109DF81F008DF81C0031
:1053D0009DF81E008DF81D0040F21440C4F202003A
:1053E000016821F00801016069464FF47A7CC1F838
:1053F00000C040F25071C2F200010DF11C0C0DF121
:105400001A0E0224059008466146049272460393E0
:105410002346FEF79DFB05990A6842F008020A60E0
:10542000029008B010BD000086B00A460346B0EEF8
:10543000401A8DED050A049003919DED050A04982C
:1054400090ED002A20EE022AB7EE003A33EE400A31
:10545000039890ED003A20EE030A32EE000A80ED48
:10546000000A029201938DED001A06B07047000009
:1054700080B58AB040F21820C2F200000021C1605D
:1054800081604160016043F20000C4F201000168E4
:1054900021F040010160016821F0380101600168DC
:1054A00041F030010160016841F0400101606B2072
:1054B00080210890079100F0D5F932200690FCF782
:1054C000F7FE682003210590049100F0CBF90698BF
:1054D000FCF7EEFE0898079900F0C4F90698FCF76F
:1054E000E7FE0598049900F0BDF90698FCF7E0FE88
:1054F000752000F07FF98DF827009DF827006828B7
:105500003DD1FFE76B200121039100F0ABF90F20A3
:105510000290FCF7CDFE6A201021019100F0A2F963
:105520000298FCF7C5FE6C200021009100F09AF96A
:105530000298FCF7BDFE1920009900F093F902983B
:10554000FCF7B6FE1B20182100F08CF90298FCF73E
:10555000AFFE1C20019900F085F90298FCF7A8FE27
:105560003720009900F07EF90298FCF7A1FE1A207E
:10557000022100F077F90398FCF79AFE00E0FFE7BC
:1055800043F20000C4F20100016821F04001016013
:10559000016821F038010160016841F010010160EB
:1055A000016841F04001016000F002F80AB080BDDE
:1055B00080B58EB00020ADF834000C900B900A90AE
:1055C000BB218DF8271040F21441C4F202010A6891
:1055D00022F001020A6040F2A062C2F200020DF164
:1055E00027034FF0010C4FF00A0E0690104605916C
:1055F0001946049262467346CDF80CE0FEF748F96E
:105600000AA90E22049B02901846039BFEF708F895
:1056100005990A6842F001020A60069A8DF8262070
:105620000190FFE79DF82600052830DCFFE79DF894
:105630002600C007002814D1FFE79DF826000AA91C
:10564000095C00F0FE0040F21822C2F200020632AD
:1056500011529DF8260000F0FE00115A0902115265
:105660000EE09DF826000AA9095C00F0FE0040F259
:105670001822C2F200021044C2881143C180FFE721
:10568000FFE79DF8260001308DF82600CAE70620C6
:105690008DF82600FFE79DF82600072823DCFFE7AA
:1056A0009DF82600C00700280CD1FFE79DF82600D2
:1056B0000AA9085CADF82400BDF824000002ADF88A
:1056C000240009E09DF826000AA9085CBDF8241012
:1056D0000843ADF82400FFE7FFE79DF826000130FE
:1056E0008DF82600D7E7BDF92400FAF7C9FF41EC91
:1056F000100B9FED3D1B53EC112B51EC100BFAF7E7
:105700001AFF41EC100B51EC100BFAF7EAFF02EE16
:10571000100AB3EE053A32EE032A8DED082A40F264
:105720001820C2F2000000F10C019FED310A08A818
:10573000FFF77AFE08208DF82600FFE79DF8260087
:105740000D2837DCFFE79DF82600C007002819D197
:10575000FFE79DF826000AA9095C083800EBD07025
:1057600020F0010040F21822C2F2000211529DF80E
:105770002600083800EBD07020F00100115A090211
:10578000115210E09DF826000AA9095C083800EBC8
:10579000D07020F0010040F21822C2F20002135A29
:1057A00019431152FFE7FFE79DF8260001308DF8FD
:1057B0002600C3E740F21820C2F200000189ADF8CC
:1057C0001E10C18849420181BDF81E10C180418868
:1057D000ADF81E10018849424180BDF81E100180BD
:1057E0000EB080BD00BF00BF52B81E85EBDD744017
:1057F000CDCC4C3E80B586B001468DF81700002018
:10580000ADF81400ADF812009DF8170040F08000CC
:105810008DF8140040F21440C4F20200026822F035
:10582000010202606A464FF47A73136040F2A0628C
:10583000C2F2000205AB0DF1120C4FF0020E039004
:1058400010460291194662467346FEF781F90399A4
:105850000A6842F001020A609DF813200190104688
:1058600006B080BD10B588B00A4603468DF81F000B
:105870008DF81E109DF81F008DF81C009DF81E006D
:105880008DF81D0040F21440C4F20200016821F0BE
:105890000101016069464FF47A7CC1F800C040F212
:1058A000A061C2F200010DF11C0C0DF11A0E0224D0
:1058B0000590084661460492724603932346FEF71C
:1058C00047F905990A6842F001020A60029008B09F
:1058D00010BD000080B584B00020039002900190BC
:1058E000009040F23061C2F2000142F20002C4F2C4
:1058F00001020A604FF400324A608860086108764D
:1059000081F82000C8620122C0F600728A62C86075
:105910000122CA6181F830004A610846FCF73EF96D
:10592000002803D0FFE7FCF70BF8FFE70D200090FD
:10593000012001900020029040F23060C2F200008D
:105940006946FCF705F8002803D0FFE7FBF7F8FFEE
:10595000FFE704B080BD000080B540F27860C2F27D
:10596000000046F60001C4F2000101601021416010
:1059700000218160C16001614161017641768176DB
:10598000C17601774177FCF73BFB002803D0FFE7A6
:10599000FBF7D6FFFFE780BD80B598B000201790D9
:1059A0001690159014901390FFE70020129043F684
:1059B0003000C4F20200016841F08001016000681B
:1059C00000F08000129012980E90FFE7FFE7002091
:1059D000119043F63000C4F20200016841F0040166
:1059E0000160006800F00400119011980D90FFE72D
:1059F000FFE70020109043F63000C4F20200016877
:105A000041F001010160006800F001001090109861
:105A10000C90FFE7FFE700200F9043F63000C4F240
:105A20000200016841F002010160006800F002001C
:105A30000F900F980B90FFE740F60000C4F20200B1
:105A400040F2231101220A900992FCF73FFE002048
:105A5000C4F20200082108900791099AFCF736FE6B
:105A6000102100200A9A06901046069AFCF72EFE96
:105A700040F20040C4F202000B2105900491099A03
:105A8000FCF724FE40F23310139009981490069905
:105A90001591032216920DF14C0E0A98714603924D
:105AA000CDF808E0FCF72CFC039813900221149128
:105AB000069A15921690DDF81CE0CDF85CE0089887
:105AC000029B01911946FCF71BFC0798139009995A
:105AD0001491069A1592039B169308980299FCF765
