:020000040800F2
:10000000200D00209D0100089D500008FD3D0008C6
:10001000C94B0008F1190008356100080000000014
:1000200000000000000000000000000091570008E0
:10003000EB1A00080000000031540008895B00083A
:10004000B7010008B7010008B7010008B7010008B0
:10005000B7010008B7010008B7010008B7010008A0
:10006000B7010008B7010008B7010008B701000890
:10007000B7010008B7010008B7010008F31900082C
:10008000B7010008B7010008B7010008B701000870
:10009000B7010008B7010008B7010008B701000860
:1000A000B7010008B7010008B7010008B701000850
:1000B000B7010008B7010008B7010008B701000840
:1000C000B7010008B7010008B7010008B701000830
:1000D000B7010008B7010008B7010008B701000820
:1000E000B7010008B7010008B7010008B701000810
:1000F000B7010008B7010008B7010008B701000800
:10010000B7010008B7010008B7010008B7010008EF
:10011000595E0008B7010008B7010008B7010008E0
:10012000B7010008B7010008B7010008B7010008CF
:10013000B70100080000000000000000B70100083F
:10014000B7010008B7010008B7010008B7010008AF
:10015000B7010008B7010008B7010008B70100089F
:10016000B7010008B7010008B7010008B70100088F
:10017000B7010008B70100080000000000000000FF
:10018000B7010008B7010008DFF80CD000F0F0FB61
:1001900000480047D1610008200D00200648804734
:1001A00006480047FEE7FEE7FEE7FEE7FEE7FEE75C
:1001B000FEE7FEE7FEE7FEE7A75B0008890100080F
:1001C0002DE9F05F0546002092469B46884606468C
:1001D000814640241BE0284641464746224600F01F
:1001E000E1FA53465A46C01A914110D311461846B7
:1001F000224600F0C8FA2D1A67EB01084F46224646
:100200000120002100F0BFFA17EB00094E41201E2B
:10021000A4F10104DFDC484631462A464346BDE8E6
:10022000F09F2DE9F0410024061B254671F10006E0
:1002300005DA01240027D0EB070067EB0101161E49
:1002400073F1000605DA0027D2EB0702012567EB00
:100250000303FFF7B5FF86460E4617469C46AC42A1
:1002600004D00025D0EB050E65EB010624B100207B
:10027000D2EB000760EB030C704631463A4663460A
:10028000BDE8F08140EA01039B0703D009E008C9FB
:10029000121F08C0042AFAD203E011F8013B00F84B
:1002A000013B521EF9D27047D2B201E000F8012B97
:1002B000491EFBD270470022F6E710B513460A46E6
:1002C00004461946FFF7F0FF204610BD30B505463D
:1002D0002A460B4612F8010B13F8014B08B1A04255
:1002E000F8D01CB1002802D06D1CF1E7284630BDC3
:1002F000CAB2401E10F8011F8A4202D00029F9D16B
:10030000002070472DE9FE4F804681EA0300C00FB0
:100310000C46009021F0004123F00045B8EB0200AC
:10032000A94105D24046214690461C460B4602464E
:1003300023F00040104347D0270DC7F30A00C3F352
:100340000A510290401A019040286BDAC3F313005F
:1003500040F4801B0098924620B10023D2EB030AA0
:1003600063EB0B0B01985946C0F14002504600F078
:100370000AFA06460D4650465946019A00F022FAFE
:1003800010EB08006141002487EA115284EAE77308
:100390001A4340D0009A62B3019A012A4FEA0752E9
:1003A00015DC001B61EB02014FF0004202EA07522C
:1003B000CDE90042001C41F5801132462B4600F089
:1003C00059FA03B0BDE8F08F40462146F9E7001B1B
:1003D00061EB0201001C41F5801300185B412018FD
:1003E000A2F5001747EB030140EAD570B6196D413D
:1003F00011E06D084FEA360645EAC0754FEA07522C
:10040000001B61EB0201001C41F5801149084FEA15
:1004100030000019514132462B4603B0BDE8F04F81
:1004200000F019BA0098012240000023D0EB02022C
:1004300063EBE073009821464FEAE074B8EB0000EC
:1004400061EB0401E9E783F000435BE781F00041E1
:1004500058E72DE9FE4F81EA030404F0004421F03F
:10046000004100944FF0000B23F0004350EA0104D8
:100470005ED052EA03045BD0C3F30A54C1F30A55B9
:100480002C44A4F2F3340194A0FB0254C1F31301F1
:1004900041F48011C3F3130343F4801301FB0244BE
:1004A00000FB034E840A970A44EA815447EA8357C3
:1004B000A4FB076802958D0A05FB07854FEA932C7C
:1004C00004FB0C542705029D4FEA065847EA1637ED
:1004D000B5EB08056EEB070C870E920E47EA811705
:1004E00042EA8312A7FB0201B6EB0B0164EB0004A6
:1004F0002B0D43EA0C335E1844EB1C50DA46514690
:10050000E7FB0201C5F313044FEA0B3343EA14532C
:100510004FEA0432019C43EA0603A4F10C0402945E
:10052000009CCDE900B400F0A5F903B0BDE8F08F60
:1005300000200146F9E72DE9F04D81EA030404F0BB
:10054000004B21F0004514464FF0000A23F0004113
:1005500050EA050220D054EA01021DD0C5F30A5723
:100560000246C5F31303C1F31300C1F30A5640F466
:10057000801543F48013A7EB0608101BD64608F23B
:10058000FD3873EB050002D308F1010801E0921871
:100590005B41B8F1000F03DA00200146BDE8F08DA1
:1005A00000204FF48011064684460EE0171B73EBC3
:1005B000050705D3121B63EB050306434CEA010C48
:1005C00049084FEA300092185B4150EA0107EDD12B
:1005D00052EA030012D082EA040083EA05010843CC
:1005E00005D0101BAB4106D20122002306E00022F9
:1005F0004FF0004302E06FF0010253101AEB0600C7
:100600004CEB085110EB0A0041EB0B01BDE8F04D3B
:1006100000F021B930B5041E71F1000404DB4FF085
:100620000044404264EB0101141E73F1000405DB39
:100630001C464FF00043524263EB0403801A994179
:1006400001D3012030BD002030BD30B5041E71F152
:10065000000404DB4FF00044404264EB0101141E2F
:1006600073F1000405DB1C464FF00043524263EB7C
:100670000403101A8B4101D2012030BD002030BD8F
:1006800030B5041E71F1000404DB4FF00044404219
:1006900064EB0101141E73F1000405DB1C464FF0EE
:1006A0000043524263EB0403101A8B4101D3012033
:1006B00030BD002030BD30B5041E71F1000404DBF4
:1006C0004FF00044404264EB0101141E73F100043A
:1006D00005DB1C464FF00043524263EB0403801AD3
:1006E000994101D2012030BD002030BD0EB5C10FAF
:1006F00080EAE0700844CA07002140F233438DE8E5
:100700000E000A460B4600F0B5F803B000BD0EB56A
:1007100040F2334102910021CDE900110A460B4617
:1007200000F0A8F803B000BD00F0004230F0004037
:100730000AD0C10D01F56071C0F3160042EA015103
:10074000C20840071143704700200146704701F07E
:10075000004330B421F0004150EA010206D00A0DF6
:10076000A2F56072C1F31301002A02DC30BC002044
:100770007047440F44EAC104C100E01830BC00EBEC
:10078000C25000F031B8202A04DB203A00FA02F10E
:10079000002070479140C2F1200320FA03F319436F
:1007A00090407047202A04DB203A21FA02F0002111
:1007B000704721FA02F3D040C2F120029140084371
:1007C00019467047202A06DBCB17203A41FA02F07F
:1007D00043EAE07306E041FA02F3D040C2F120029E
:1007E00091400843194670470029A8BF7047401C34
:1007F000490008BF20F00100704710B4B0FA80FC37
:1008000000FA0CF050EA010404BF10BC704749B173
:10081000CCF1200421FA04F411FA0CF118BF0121E3
:1008200021430843A3EB0C01CB1D4FEA00614FEAC3
:10083000102042BF002010BC704700EBC350104492
:100840000029A4BF10BC7047401C490008BF20F01D
:10085000010010BC704710B5141E73F1000408DAD3
:10086000401C41F1000192185B411A4301D120F074
:10087000010010BD2DE9F04D92469B4611B1B1FA31
:1008800081F202E0B0FA80F220329046FFF77BFF5F
:1008900004460F4640EA0A0041EA0B0153465A4615
:1008A000084313D0114653EA010019D0C8F14002A1
:1008B0005046FFF777FF05460E46504659464246DA
:1008C000FFF761FF084305D0012004E020463946C8
:1008D000BDE8F08D0020054346EAE0762C4337431F
:1008E0000A986305E40AA0EB08000022FD0A44EA26
:1008F00047540A3002D500200146E9E701051019E6
:100900006941DDE9084500196941BDE8F04DA2E7FC
:1009100070B521F0004303430CD0C1F30A55002405
:10092000D5EB040564EB0403D617AD1AB34102DB23
:100930000020014670BD201841EB025170BD00003F
:1009400030B5041E71F1000404DB4FF00044404256
:1009500064EB0101141E73F1000405DB1C464FF02B
:100960000043524263EB0403994208BF904230BDFA
:10097000064C074D06E0E06840F0010394E80700EC
:1009800098471034AC42F6D3FFF702FC74720008AB
:10099000947200082DE9F04D00231A461B1A8A4173
:1009A00003DB00200146BDE8F08DC1F30A52C1F31C
:1009B000130141F480154FF0000BD10702D100184C
:1009C0006D41521E0027044640F2FF11384601EBEC
:1009D000620A3E468046024600204FF48011FFF72F
:1009E000E1FEC2197141BB1846EB0100B4EB030CE8
:1009F00075EB000C04D3E41A65EB000517460E46B0
:100A0000241908F101006D4180463428E3DDF9190D
:100A100046EB0600091BA84103D24FF0FF321346F4
:100A200001E0002213461BEB070046EB0A51BDE82C
:100A3000F04DFFF710BF0000F0B585B00446007818
:100A4000A0F1100105293DD8DFE801F00364A1A45D
:100A50004AA7A61C00270DF1020500BFF01903F0FC
:100A600058FCE8530237122FF8D140F21C20C2F292
:100A700000009FED500A1C30002100BF6A5A6B181D
:100A800001EE102A5A88B8EE411A02EE102A9A880E
:100A9000B8EE422A03EE102AB8EE433A81EE001A6D
:100AA00082EE002A83EE003A0631122900ED021A86
:100AB00000ED012A80ED003A00F16000DED1217DD9
:100AC000102060E0F1280ED001285ED1A078A12886
:100AD0006AD0A02859D105B0BDE8F04004F088B82C
:100AE000217D14205BE0023400250DF1020600BFD9
:100AF000601903F00EFC70530235082DF8D1BDF8D3
:100B00000200BDF80410BDF80620BDF8083005F05D
:100B1000FBFA3AE0A51C00260DF10207A81903F024
:100B2000F8FBB8530236122EF8D19FED220A40F29C
:100B30001C22381D0021C2F2000200BF30F8043C24
:100B400001EE103A30F8023CB8EE411A02EE103ACB
:100B500030F8063BB8EE422A03EE103AB8EE433ABC
:100B600081EE001A82EE002A83EE003A53186031BB
:100B7000B1F5907F83ED4D1A83ED4E2A83ED4F3A08
:100B8000DCD1217D112000F017F805B0F0BD217DEA
:100B9000122004E0217D132001E0217D152005B005
:100BA000BDE8F04000F008B805B0BDE8F04004F042
:100BB00056B800BF00007A4480B58EB04AF6AA222B
:100BC000C0F2EF22CDF806208DF80A008DF80B1048
:100BD000AA2001210DF10602535C013106291844B7
:100BE000FAD18DF80C000DF10600072103F04AFC44
:100BF0000EB080BD70B540F2B400C2F200003021EA
:100C0000FFF759FB03F0C8FD03F044FC00F0C0FB04
:100C100040F2581540F260060024C2F20005C2F20C
:100C2000000600BF28194FF4FA71502200F0B0FE00
:100C300030194FF4FA710F2200F0AAFE1C34542C24
:100C4000F0D170BD000000002DE9F04F81B02DED16
:100C5000108B86B040F21807C2F2000738780228DD
:100C600000F01981012800F01881002840F02B8342
:100C700040F22060C2F20000D0E9000140F2200200
:100C8000C2F20002C2E9000103F0F2FE03F0E0FC50
:100C900040F2B810C2F200009FED8B0A9FED8B1A54
:100CA000063000210DF10C09EA4600BF30F9022B95
:100CB00030F9083C03EE102A02EE103AB8EEC22AD0
:100CC00082EE012AB8EEC33A23EE003A09EB0102A4
:100CD00082ED003A0AEB010204310C2982ED002A70
:100CE000E4D140F2AC1740F2581440F260059FED99
:100CF000788A40F2B4080026C2F20007C2F200046B
:100D0000C2F20005C2F200080AEB060090ED000AEC
:100D1000204600F045FE09EB060020EE081A90ED93
:100D2000000A08EB060B28468BED031A00F038FE8C
:100D300037F9020B8BED000A00EE100A0436B8EE0C
:100D4000C00A1C340C2E05F11C058BED060ADBD104
:100D5000D8ED068AD8ED079AD8ED08AA40F2080027
:100D600028EEA80A29EEA91AC2F2000030EE010A04
:100D70002AEEAA1A016830EE010A9FED561A4A1EA1
:100D800098ED009A98ED01AA98ED02BA98ED03CA81
:100D900098ED04DA98ED05EA0260B2EE04FA002953
:100DA000B4EE410A40F6F40440F6F80C40F6FC05B7
:100DB00040F6001640F6041340F6081240F60C1BED
:100DC00040F6101140F61410B7EE008A08BFB0EEDE
:100DD00048FAF1EE10FAC2F20004C2F2000CC2F2BC
:100DE0000005C2F20006C2F20003C2F20002C2F223
:100DF000000BC2F20001C2F200006FDDB1EEC01ABA
:100E0000B4EE411AF1EE10FA80F1838288EE010A05
:100E100094ED003A9CED004A95ED005A28EE801AB8
:100E200029EE802A2AEE800A23EE013A24EE024AB5
:100E300033EE043A20EE054A33EE043A96ED004ACA
:100E400093ED005A21EE041A92ED004A22EE052A93
:100E500031EE021A20EE040A71EE008A23EE030A34
:100E600028EEA81A30EE011AB1EEC10AB4EE400A1B
:100E7000F1EE10FA80F160829BED001A91ED002AEC
:100E800090ED003A28EEC00A21EE001A22EE002A68
:100E900020EE030A28E0002013E040F2206040F238
:100EA0002002C2F20000C2F20002D0E90001D2E941
:100EB0000023801A9941023871F10000C0F00382CA
:100EC00002203870FFE100BF000080396F128341BB
:100ED00035FA8E3C0AD7233C000000001FED020AC1
:100EE000B0EE402AB0EE401A2FEE011A2FEE022A81
:100EF0002FEE000AB5EE409A7CEE018A3DEE02FA32
:100F0000F1EE10FA7EEE009A0AD1B5EE40AAF1EEAB
:100F100010FA05D1B5EE40BAF1EE10FA00F0958066
:100F200029EE090A2AEE0A1A30EE010A2BEE0B1AF4
:100F300030EE011AB1EEC10A2CEE0C2A2DEE0D3A5C
:100F400032EE032A2EEE0E3AE246A9461F46154619
:100F500032EE03CAB4EE400AF1EE10FA80F1D0810D
:100F600088EE000A90ED003A91ED004A9BED007A80
:100F700004461CEE100A0E4629EE001A2AEE002A3C
:100F80002BEE000A23EE025A20EE046A20EE070A36
:100F900023EE013A30EE43AA21EE040A22EE071AAC
:100FA00035EE469A30EE41BAFFF7BEFB9FEDEA0BF5
:100FB00053EC102BFFF764FB98BB9FEDF10A40F652
:100FC000DC00C2F200009FEDEF2A29EE001A90ED3E
:100FD000003A40F6E00121EE021AC2F2000131EEC1
:100FE000031A2AEE003A91ED004A40F6E40223EE9D
:100FF000023AC2F2000233EE043A2BEE000A92EDFE
:10100000004A20EE020A30EE040A78EE818A3FEEB2
:1010100003FA79EE809A80ED001A81ED003A82EDB4
:10102000000A9FEDD90A2A4629EE001A71EE288A95
:101030002AEE001A2BEE000A3B464D46D44631EE0E
:101040000FFA70EE299A2046314640F6E80740F63E
:10105000EC069FEDCE0AC2F20007C2F2000640F68F
:10106000F00440F20C0997ED004A96ED005AC2F2E6
:10107000000428EE801A2FEE002AC2F20009D4EDF7
:10108000000A29EE800A99ED003A24EE416A22EE28
:10109000057A36EE476A20EE207A36EE476A23EE6E
:1010A000017A60EE051A37EE217A62EE201A37EEE9
:1010B000617A62EE031A60EE042A20EE030A22EE41
:1010C000042A71EEE21A61EE202A30EE020A21EEC5
:1010D000051A33EE066A34EE077A71EEA21A30EE84
:1010E000410A75EE211A30EE802A26EE060A27EE16
:1010F000071A30EE010A21EEA11A31EE000A22EEA3
:10110000021A31EE001AB1EEC10A89ED006A87EDCC
:10111000007AC6ED001A84ED002AB4EE400AF1EE22
:1011200010FA80F1D68088EE000A96ED003A99ED2B
:10113000001A97ED002A94ED004A40F6001AC2F218
:10114000000A20EE033A21EE001A20EE022A20EED9
:10115000040A23EE035A20EE006A35EE055A86EDA6
:10116000003A78EE452A36EE066A40F6F40684ED3B
:10117000000A22EE037A62EE000A63EE001A72EEB3
:10118000C62AC2F2000621EE400AC6ED002A77EE1A
:10119000002A37EE400A22EE024A30EE000A8AEDBB
:1011A000000A34EE040A38EE404A34EE460A83ED73
:1011B000000A21EE420A89ED001A21EE433A30EE90
:1011C000211A72EEA22A31EE011ACCED002A70EE3D
:1011D000C32A82ED001A33EE201A31EEC00A72EEF5
:1011E000A22A31EE011A30EE000A74EE450A87EDAC
:1011F000002AC5ED002A8BED001A81ED000AC0ED32
:10120000000A03F0ADFD10EE100AFFF78DFA9FED16
:10121000540B54EC105B2A462346FFF78CF9FFF77A
:1012200096FA9BED000AC8F82800B1EE400A03F0D8
:1012300043FD10EE100AFFF777FA9FED4B0B0246C5
:101240000B4651EC100BFFF7FEF82A462346FFF73A
:1012500072F9FFF77CFA9AED000AD6ED000AC8F899
:10126000240003F07DFD10EE100AFFF75DFA2A4618
:101270002346FFF760F9FFF76AFAC8F82C00D8E9AF
:101280000940FFF751FA9FED3A0B53EC102BFFF793
:1012900039F8FFF75CFAC8F828002046FFF744FA4F
:1012A0009FED350B53EC102BFFF72CF8FFF74FFA9F
:1012B000C8F8240000F0D8F840F21801C2F200018A
:1012C00008780130087006B0BDEC108B01B0BDE8A5
:1012D000F08FB0EE410AE24605F0E6FD40F6041359
:1012E00040F6081240F6101140F61410D446C2F22F
:1012F0000003C2F20002C2F20001C2F2000012E7D3
:10130000B0EE410A04460E4605F0CEFD31462046B9
:1013100026E689461F46E24605F0C6FD40F608125D
:1013200040F61410D4463B46C2F200024946C2F2CF
:101330000000B0EE401A69E5B0EE410A82460E4662
:1013400091461F46644605F0AFFDA4463B464A461B
:101350003146504690E500BF04C947E65C31BF3FC7
:10136000916B50A246DF913F44174154FB21F93F56
:101370003333333333330F4033333333333307C0F3
:101380000AD7A33B6F12033B9A99193F6F12833A16
:101390002DE9F04184B040F61407C4F20207386822
:1013A00020F4807038600A2001F07EF838684FF42D
:1013B0007A7440F480703860D020ADF80A000020C4
:1013C000ADF8080038680DF10A0120F4807038602B
:1013D00040F25C70C2F2000002AA0223009401F005
:1013E00007FF386840F4807038609DF8090058287D
:1013F00034D140F2E401C2F200010820182200F0CA
:101400005BF947F27470ADF80E00386840F25C7812
:1014100020F48070C2F200080DF10E0503AE3860B2
:101420004046294632460223009401F0E1FE386826
:10143000294640F48070386041F27500ADF80E0026
:101440003868324620F480703860404602230094A9
:1014500001F0CEFE386840F48070386004B0BDE81A
:10146000F0810000000000002DE9F04F81B02DED6B
:10147000028B82B00DF102017720062200F01CF9E8
:101480009DF806109DF8050040F2E40809019DF85A
:101490000720C2F2000841EA003141EA121CB8F804
:1014A0000020B8F90450C2EB111149434FEADC03A4
:1014B000B8F90260090BA3EB420369437343891334
:1014C00001EBE322B8F90A40A2F5FA3B8BFB0B5E75
:1014D000A5FB0467E31705FB0373B8F908000EFBCF
:1014E0000433340A02EB82068036361200EE106AAC
:1014F0009FED6D1A80FB0B0944EA0364B8F806708F
:10150000B8EE400A14EB003480EE010AA4FB074A4F
:101510009DF803609DF802409DF804104FEA0616FE
:1015200046EA043444EA111608F1180181E844102F
:101530004FEA093141EA105040EB232000F500400A
:1015400000FB07A49FED598A621042EAE47088ED1F
:101550000A0A0028B0EE480A5FD0B8F91000B8F9BE
:101560000E70A5FB00C3C11705FB01318BFB0737CC
:101570000EFB0010C6F580114E08DCEBC1714FEA7E
:1015800047478641B1EB4340B8F90C1047EAD333E3
:1015900040F6354C66EB0303A0FB0C05A3EBC10141
:1015A00001FB0C51B8F91290E317FEF73AFE420B1B
:1015B00042EAC142A2FB02374D13B8F9166002FBA2
:1015C0000577A3FB06C402FB0572F71703FB07436D
:1015D000B8F9147002FB0632A0FB0754FB1700FB9E
:1015E00003434FEA5C6401FB0733561644EAC21218
:1015F000EF0C47EA433780187141C01941EBD341E2
:10160000000A40EA016000EB091000EE100A9FEDAD
:10161000281AB8EE400A20EE010A9FED261A80EE45
:10162000010AB5EE400AF1EE10FA88ED090A21DD53
:1016300010EE100AFFF778F89FED130B53EC102B08
:10164000FEF779FF41EC100B9FED111B04F0FCFD40
:1016500053EC102B9FED100B51EC100BFEF7F3FE2B
:101660009FED0F0B53EC102BFEF7F3FEFFF76FF817
:1016700008EE100A88ED0B8A02B0BDEC028B01B0B7
:10168000BDE8F08F00BF00BFCDCCCCCCCC545940CE
:10169000A6859916665AC83F000000000000F03F7A
:1016A0003D0AD7A358A5E5400000C842000000004D
:1016B0000000803B00007A44F0B581B040F080002B
:1016C00040F614078DF80300C4F20207386840F2B0
:1016D0005C7620F48070C2F2000614460D46386035
:1016E0000DF10301304601224FF47A7301F0C6FC7C
:1016F0003046294622464FF47A7301F01BFC3868C5
:1017000040F48070386001B0F0BD10B540F2346430
:10171000C2F20004204600F0DFFB20460A2100F060
:1017200083FB40F2141049F69A11C2F20000C4F291
:10173000491101600021017110BD0000000000008E
:1017400010B582B040F2206C40F25801C2F2000C99
:10175000C2F20001DCE90023D1E90040121B63EB77
:101760000000323A70F100007ED3DCE9000240F262
:101770003464C2F20004C1E90002204600F0ACFB70
:101780002046052100F050FB204600F071FA80054C
:101790001CD540F23460C2F2000000F06BFA00EE9B
:1017A000100AB8EE400A10EE100AFEF7BDFF9FEDDA
:1017B000300B53EC102BFEF74CFE9FED2F0B53EC30
:1017C000102BFEF746FEFEF7C2FF019040F2141404
:1017D000C2F200049FED2A0A01A8214602F0CBFFC5
:1017E00094ED000A9FED271AB4EE410AF1EE10FACB
:1017F00001DD002037E09FED241AB4EE410AF1EE3E
:1018000010FA08DA9FED211AB4EE410AF1EE10FA4F
:1018100001DD012027E0B2EE061AB4EE410AF1EE36
:1018200010FA08DA9FED1A1AB4EE410AF1EE10FA36
:1018300001DD022017E09FED171AB4EE410AF1EE28
:1018400010FA08DA9FED141AB4EE410AF1EE10FA1C
:1018500001DD032007E09FED111AB4EE410AF1EE1D
:1018600010FA01DA0420207102B010BD00BF00BFE1
:101870006666666666660A40000000000000503F2B
:101880009A99993E66663E4133333B413333334147
:1018900033332B413333274166661E4166661A4156
:1018A0002DE9F0412DED068BB2EB510F044638D2F5
:1018B00010469846B0EE408A0E46FEF728FF9FED90
:1018C000320B53EC102BFEF7C4FD074630460D4695
:1018D000FEF71DFF02460B4638462946FEF72BFE53
:1018E000FEF735FF09EE100AB0EE490A03F010FBCF
:1018F000B0EE40AAB0EE490A03F0EEFA38EE081A4C
:101900008AEE011AB8F1010F14D0B8F1000F17D107
:10191000B7EE002A32EE402AB6EE003A22EE033A43
:101920000EE04FF07E500021C4E90001C4E902112D
:10193000216121E0B8EE002A20EE022AB7EE003A3B
:10194000B7EE004AB8EE006A31EE045A20EE060AFD
:1019500034EE411A83EE053A82EE052A80EE050A3E
:1019600081EE051A84ED003A84ED012A84ED023AF5
:1019700084ED030A84ED041A0020C4E90500BDECDF
:10198000068BBDE8F08100BF44174154FB2119408C
:101990009FED020A0023FFF783BF00BFF304353F2A
:1019A00090ED001A90ED055A90ED012A90ED034A52
:1019B00021EE001A31EE051A22EE002A21EE044A29
:1019C00090ED023A32EE442A90ED044A90ED065A28
:1019D00023EE000A21EE043A35EE022A30EE433AB5
:1019E000B0EE410A80ED052A80ED063A704700000E
:1019F000FEE740F2A460C2F2000000F0A5BB10B503
:101A000040F21C14C2F2000420463821FEF753FCB9
:101A100002F084FC40F65400211DC2F20000322284
:101A2000BDE8104004F0D8BA70B58EB040F2206422
:101A300040F22805C2F20004C2F20005D4E9000118
:101A4000D5E90023801A9941023871F1000021D3B1
:101A500040F2B400C2F2000090ED091A90ED0A0ABB
:101A600040F2F850C2F2000090ED013A40F21C2022
:101A7000B2EE042AC2F2000061EE020A90ED011AF1
:101A800020EE020A63EE021A04F056FBD4E90001CC
:101A9000C5E9000140F21C10C2F200000178C9073C
:101AA00021D0051D2ECD049500F12405066A019173
:101AB000029226CD00F1140E9EE810500393036BA2
:101AC000CDE90861818ECDE9054C0C93CDE90A255D
:101AD000CDF81CE0ADF83410017801F0FE01017082
:101AE00001A8FEF7A9FF0EB070BD704772B600BF27
:101AF000FEE740F25410C2F200000021017070476E
:101B000080B540F2206C40F2300EC2F2000CC2F2FE
:101B1000000EDCE90023DEE9000159405040084393
:101B200008BF80BDDCE90001CEE9000140F21410DD
:101B3000C2F2000000790021042808BF0521032813
:101B400040F25410C2F2000008BF0421017080BDB1
:101B500040F61810C2F200000078704770B581B0EE
:101B60000022009290F83C20012A01D102217CE061
:101B7000D1F800E00122BEF10A0F80F83C200AD320
:101B80001FFA8EF25200066812FA8EF2A2F11E03BC
:101B900006F10C0204E006680EEB4E0306F110029B
:101BA0004FF0070C15680CFA03F4A54315608D6817
:101BB000146805FA03F3234313604968062905D81E
:101BC00001EB8101053906F1340209E00C2901EB32
:101BD000810187BF413906F12C02233906F1300219
:101BE0001F2314688B4024EA030342F2043C136071
:101BF000C4F2010C1FFA8EF3146803FA01F1ACF57C
:101C0000417321439E4211602CD1BEF1120F06D1C7
:101C1000DCF8001041F48001CCF8001022E02EF036
:101C2000010110291ED1DCF80010BEF1100F41F4A3
:101C30000001CCF8001015D140F20401C2F20001FD
:101C400009684DF68362C4F21B32A1FB0212910CAB
:101C500001EB8101490000BF0091009911B1009989
:101C60000139F9E7002180F83C10084601B070BD49
:101C7000006C70470068C06C7047002848D010B5F1
:101C80000446006C30B9204600F09DF800206064E6
:101C900084F83C00206CC0063CD4206C41F2021158
:101CA0008843023042F204312064C4F20101086822
:101CB00020F4403008600A6894E809101A43D4F808
:101CC00010E00A604168012321F48071416041689D
:101CD000C0F6007341EA0E214160416821F0407175
:101CE0004160416841EA0C014160816821F4006172
:101CF0008160E168826811438160A16A82689942CB
:101D000022F070628260826806D122F040510CE0BD
:101D100001207047012052E011438160816821F069
:101D200040518160E16A826811438160816821F0DD
:101D3000020181608168227E94F8203041EA4201EC
:101D40008160416883B141F40061416041684EF2B5
:101D5000000221F460414160616ACFF6FF7243687E
:101D600002EB4131194301E021F400614160C16A95
:101D700040F2000C21F47001C162E2696169CFF6A2
:101D8000F07CC36A0CEB02521A43C262826822F4EE
:101D90000072826094F83020836843EA42228260B5
:101DA000826822F480628260826842EA81218160D6
:101DB00000206064216C012262F301012164002192
:101DC00084F83C1010BD80B586B042F20001006876
:101DD000C4F20101002288420592049221D143F607
:101DE00030000092C4F20200436943F480734361FF
:101DF000436903F480730093009B0092036843F0EF
:101E000004030360006800F00400009000980820BC
:101E100001900320CDE9020201F5684001A900F01C
:101E200057FB06B080BD0000F0B581B004460068E5
:101E30000D468268520544BF80685FEAC05024D4D2
:101E400000F027FC21680A6892070FD406466F1C31
:101E50004FB12DB100F01DFC801B2168A84202D9B2
:101E6000086880071AD508688007F1D56FF012005E
:101E70000860206C40F400702064886810F0405FB7
:101E800001D1207EA0B1002010E0206C40F02000A5
:101E90002064002084F83C00012007E0206C40F022
:101EA00004002064002084F83C00032001B0F0BD51
:101EB000C86A10F4700F02D088684005E3D4206C23
:101EC00020F480702064206CC004DCD4206C40F0CE
:101ED00001002064D7E7000081B00021009190F854
:101EE0003C10012901D1022076E00122016880F82E
:101EF0003C208A68D20717D18A684DF6836342F086
:101F000001028A6040F20402C2F200021268C4F2C6
:101F10001B33A2FB03239A0C02EB42020092009AAD
:101F200012B1009A013AF9E78B68026CDB0707D11E
:101F300042F010010164416C41F0010141644AE04A
:101F400040F201739A4302F5807202644A685205B6
:101F500004D5026C012363F30D320264026C00238A
:101F60004FF0000CD20444BF426C22F0060342F250
:101F70000002436480F83CC06FF02200C4F201020A
:101F80000860D2F80403C00603D0914223D19068C0
:101F90001AE0914217D042F20020C4F201008142BF
:101FA0000DD042F20010C4F20100814213D1D2F8E8
:101FB0000403C00607D002F5007081420BD1D2F8AD
:101FC0000403C00607D4886810F0405F03D1886816
:101FD00040F080408860002001B07047B0B5C8B1C3
:101FE000044690F8200010B9204600F06FF82068F1
:101FF000016821F00201016000F04BFB054600BFC3
:1020000020684168890707D500F043FB401B0B2877
:10201000F6D312E00120B0BD016841F0010101607A
:1020200000F037FB054600BF20684168C9070BD1A7
:1020300000F02FFB401B0B28F6D3606A052140F40B
:102040000030606201203EE0217E0268012922F01A
:10205000800208BF80320260617E0268012922F09E
:10206000400208BF40320260A17E0268012922F0CE
:10207000200208BF20320260E17E0268012922F0BE
:10208000100218BF10320260217F0268012922F07D
:10209000080208BF08320260617F0268012922F04D
:1020A000040208BF04320260D4E901C2D4E9033556
:1020B00061691A432A431143ACF101021143C16122
:1020C00000200121606284F82010B0BD80B586B088
:1020D000016846F60000C4F20000814231D10021BF
:1020E00043F630020191C4F20202136900F5CE30CA
:1020F00043F080631361136903F080630193019BD4
:102100000191136943F000731361136903F00073C5
:102110000193019B0191136843F00203136012685D
:1021200002F002020192019A4FF4405201920222FF
:10213000CDE90221032104910921059101A900F0B3
:10214000C7F906B080BD0000F0B581B0044600209C
:10215000009040F20400C2F200000268D4E9166068
:1021600048F2B51337680821C1F64E338140394231
:10217000A2FB03250CD0226813685B0708D51368FF
:1021800023F004031360B160616D41F001016165EA
:1021900001218140394208D022685269120604D5D3
:1021A000B160616D41F002016165042181403942F5
:1021B00008D022681268920704D5B160616D41F0C1
:1021C0000401616510218140394217D020680268FE
:1021D000120713D5B16002680168520306D4C9051D
:1021E00006D4016821F00801016001E0080301D470
:1021F000216C00E0A16C09B120468847E16D2020E8
:1022000000FA01F23A423BD020680368DB0637D57A
:10221000B26094F835300268052B19D122F016020D
:102220000260426922F080024261226C0AB9A26C0B
:102230001AB1026822F0080202603F208840B060B4
:10224000002084F83400012084F83500216D34E04A
:10225000016852030CD4C9050ED4016821F01001A5
:102260000160002084F83400012084F8350003E088
:10227000080301D4616C00E0E16B09B12046884796
:10228000606DE8B1606DC00716D0052084F8350098
:102290002068A90A026822F001020260009A013255
:1022A0008A42009202D80268D207F7D1002084F84F
:1022B0003400012084F83500E16C09B120468847DC
:1022C00001B0F0BD2DE9F041044600F0E2F9002C28
:1022D0004DD00546002084F83400022084F83500F3
:1022E0002168086820F00100086000BF0868C00786
:1022F00006D000F0CEF9401B052865D82168F5E727
:10230000086848F23F02CFF21002D4E901350240DA
:1023100004F10C0E9EE8C1511A432A431043304386
:10232000384340EA0800626A40EA0C00042A40EAA6
:102330000E031FD1D4E90A5E206B4EEA030210435C
:1023400008604869BEF1000F20F0030040EA050074
:1023500040F0040C14D0B8F5005F39D0B8F1000F8C
:1023600045D1022D46D0012D3BD0002D41E001206A
:10237000BDE8F0810B60486920F0070040EA020CDC
:102380006FF00F004AF6AB2250FA81F0CAF6AA228B
:10239000A0FB02231A0947F26923C0F600039A5CE6
:1023A00040F2FF335F284FF03F00C1F814C021EA2C
:1023B000030100FA02F088BF0431C4E916128860F4
:1023C0000023012200201CE003222023032018E028
:1023D000032DD5D8012240230120DFE805F0120BA0
:1023E0001202AEF1C070B0FA80F0400904E0032D93
:1023F00004D3C5D1CEF300600028C1D00122402310
:102400000120636584F83520BDE8F08170B590F84F
:1024100034C0BCF1010F45D04FF0010C80F834C03E
:10242000D0F858E090F835C0BCF1010F37D14FF02B
:10243000020C80F835C04FF0000CC0F854C0D0F842
:1024400000C08468056CC06DDCF80060402C26F488
:102450008026CCF80060CCF804300B4604BF13464D
:102460000A463F2101FA00F0CCF80830CCF80C20E5
:10247000CEF80800DCF8000040F01600CCF80000B0
:102480002DB1DCF8000040F00800CCF80000DCF8CA
:10249000000040F00100CCF80000002070BD0021D9
:1024A00080F83410022070BDB0B5044600F0F1F899
:1024B000054640F21000C2F200000078611C18BF0F
:1024C000044400BF00F0E5F8401BA042FAD3B0BDC1
:1024D0002DE9F04F82B000F13E4241F6004502F195
:1024E000FF77C4F2020508224FEAB726A84208BFC8
:1024F0000722072E38BF4FEAB7224FF0010E002601
:1025000000274FF0000800920C680EFA08F914EA50
:10251000090F00F0AE80D1F804A00AF0030BABF174
:102520000104012C1AD80322846802FA07FECA6843
:1025300024EA0E04BA40224382604268CAF30015BE
:1025400022EA090205FA08F54FEA480C6FEA0E0480
:102550004FF0010E2A4342600CE000BF0322BA4054
:10256000D443BBF1030FBC4604D1BC464FF0030B70
:1025700024E000BFC2688D68224005FA0CF52A43AA
:10258000BBF1020FC26019D16FF0030202EA5802D8
:10259000024406F01C030F25D2F820E005FA03FAE6
:1025A0000D692EEA0A0E05FA03F343EA0E031362DD
:1025B000D1F804A04FF0010E0AF0030B02680BFAE9
:1025C0000CF322401A435FEACA03026051D500228D
:1025D00043F644030192C4F202031A6843F6004C26
:1025E00042F480421A601A68C4F2010C02F480427C
:1025F0000192019A28F003024FF6084A6244CFF68E
:10260000FF7A52F80A3006F00C050F24AC40A343C1
:10261000009C04FA05F52B4342F80A30DCF8002050
:102620004B6842EA0905DC0358BF22EA0905CCF8E9
:102630000050DCF804209C0342EA090558BF22EA56
:102640000905CCF80450DCF80820DC0242EA090550
:1026500043F60C4458BF22EA0905CCF80850C4F2EE
:10266000010422689B0242EA090558BF22EA0905D3
:102670002560023708F10108202F06F104067FF4D7
:1026800043AF02B0BDE8F08F002A08BF09048161A2
:10269000704740F61C10C2F200000068704740F21C
:1026A000100040F61C11C2F20000C2F200010078D6
:1026B0000A6810440860704780B543F60040C4F2D1
:1026C0000200016841F400710160016841F4806119
:1026D0000160016841F480710160032000F085F819
:1026E000002000F004F800F02AF8002080BDB0B50A
:1026F00040F21002C2F2000240F204011278C2F26B
:1027000000014FF47A730968B3FBF2F20446B1FB9F
:10271000F2F1084600F059FE0F2C4FF001050CD8DD
:1027200058B94FF0FF3021460022002500F032F862
:1027300040F21400C2F2000004602846B0BD82B02E
:10274000002043F640010190C4F202014A6842F4BD
:1027500080424A604A6802F480420192019A0090E5
:10276000086840F080500860086800F080500090D1
:10277000009802B0704700280BD400F01F0101221E
:1027800002FA01F14EF200124009CEF2000242F8C4
:102790002010704710B54EF60C5CCEF2000CDCF841
:1027A0000030C3F3022E8EF00704042C28BF04244B
:1027B000BEF103034FF0FF3E0EFA04F438BF0023CE
:1027C000A14399400EFA03F39A4300F00F03043B30
:1027D0001143634409010C3300F16042B0F1FF3F43
:1027E000C8BF02F56443197010BD4EF60C51CEF20D
:1027F00000010A684FF6FF031A4060F30A2242F014
:10280000806040F0FD700860704700002DE9F041E5
:10281000002878D043F60008C4F202080446D8F82D
:1028200000040D4600F00700884207D288F80054E3
:10283000D8F8000400F00700A84264D1206881079E
:1028400017D5410705D5D8F8081041F4E051C8F86C
:102850000810010705D5D8F8081041F46041C8F800
:102860000810D8F80810A26821F0F0011143C8F848
:102870000810C0073FD1D8F8000400F00700A842B4
:1028800007D988F80054D8F8000400F00700A842DF
:1028900039D12068410707D5D8F80810E26821F43B
:1028A000E0511143C8F80810000708D5D8F808000F
:1028B000216920F4604040EAC100C8F8080000F037
:1028C00078F8D8F8081047F2D012C1F30311C0F617
:1028D0000002515C40F2040220FA01F140F21400BF
:1028E000C2F200000068C2F200021160FFF7FFFEB2
:1028F0000020BDE8F0816068811E022906D2D8F868
:102900000010890108D40120BDE8F08101281FD101
:10291000D8F800108903F6D5D8F8081021F0030183
:102920000843C8F80800FFF7B4FE064641F28837AE
:10293000D8F80800616800F00C00B0EB810F9AD065
:10294000FFF7A7FE801BB842F2D90320BDE8F08153
:10295000D8F800108907D6D5DEE740F20400C2F2AD
:1029600000000068704740F2040043F60801C2F21C
:102970000000C4F202010068096847F2E012C1F3E6
:102980008221C0F60002515CC840704740F204004A
:1029900043F60801C2F20000C4F2020100680968AF
:1029A00047F2E012C1F34231C0F60002515CC84068
:1029B000704710B543F60404C4F20204606800F0E6
:1029C0000C00082842F20040C0F2F40018BF10BD0D
:1029D00021682268236801F03F02C3F38811A1FB3C
:1029E00000010023FDF7ECFB21680222C1F3014145
:1029F00002EB4101B0FBF1F010BD00002DE9F04108
:102A000082B0002867D00446007843F60006C0076D
:102A1000C4F202060BD0B06800F00C00042840F0AD
:102A200098803068800302D56068002853D02078F1
:102A300080071AD5B06810F00C0F09D0B06800F00C
:102A40000C00082840F09F807068400200F19B80D5
:102A50003068800702D5E06801283CD130682169E0
:102A600020F0F80040EAC10030602078000734D43C
:102A70002078400747D4A5695DB3B06800F00C002A
:102A8000082840F0B380012D25D07068E16900F47A
:102A900080028A421FD1216A00F03F028A421AD185
:102AA00047F6C071626A0140B1EB821F13D1A26A7E
:102AB0000023CFF6FF7303EBC23200F440316FF313
:102AC0000F02914207D1E16A00F07060B0EB016F34
:102AD00001D10020F0E00120EEE06069002840F222
:102AE0000000C4F2472071D00121C0F8801EFFF71A
:102AF000D0FD0546706F8007BAD4FFF7CAFD401BB2
:102B00000228F7D9D7E0306C10F080580AD10020A5
:102B10000190306C40F080503064306C00F0805098
:102B20000190019847F20007C4F200073868C00519
:102B30003ED4386840F480703860FFF7AAFD05463F
:102B40003868C00534D4FFF7A4FD401B0228F7D92C
:102B5000B1E0B06800F00C00082803D170684002B2
:102B60003FF55FAF6068B0F5803F07D0B0F5A02FAC
:102B700040F08B80306840F480203060306840F452
:102B8000803030608BE0E068002851D00020C4F233
:102B9000472001210160FFF77CFD05463068800772
:102BA0003FF55CAFFFF775FD401B0228F6D982E0C8
:102BB000A068012805D005284ED1306F40F00400F0
:102BC0003067306F40F0010030674FE00021C0F8FF
:102BD000801EFFF75EFD0546706F80077FF548AFEA
:102BE000FFF757FD401B0228F6D964E00027C4F226
:102BF000472700203866FFF74CFD022D05460BD114
:102C0000306880015BD5FFF744FD401B02284FF080
:102C10000300F5D950E000BF306880017FF559AF5F
:102C2000FFF737FD401B02284FF00300F4D943E0C3
:102C30000020C4F2472000210160FFF72AFD05466D
:102C4000306880077FF511AFFFF723FD401B022896
:102C50004FF00300F4D92FE0316F002821F001017B
:102C60003167316F21F0040131674BD0FFF711FD5F
:102C7000054641F2883700BF306F800753D4FFF715
:102C800008FD401BB842F7D915E03168002821F44F
:102C900080313160316821F4802131604CD0FFF700
:102CA000F8FC0546306880033FF5C1AEFFF7F1FC44
:102CB000401B6428F6D9032002B0BDE8F08104F17E
:102CC0001C052FCD08430021CFF6FF7140EA82108A
:102CD00001EBC3316FF30F0140EA056008437060F8
:102CE00001203866FFF7D5FC044600BF306880013C
:102CF0003FF5EFAEFFF7CDFC001B02284FF00300BD
:102D0000F4D9D9E7FFF7C5FC054641F2883700BF83
:102D1000306F800707D5FFF7BCFC401BB8424FF06F
:102D20000300F5D9C8E7B8F1000F7FF4A4AE306C0A
:102D300020F0805030649EE6FFF7ABFC054600BFF4
:102D4000306880037FF573AEFFF7A3FC401B642857
:102D50004FF00300F4D9AFE770B550B1D0F824C0FC
:102D60000446BCF1000F06D00021216104F11401DA
:102D700007E0012550E06168B1F5827F03D004F1DE
:102D80001C0100220A600025A56294F851104FF042
:102D9000000E41B9204684F8505000F03FF8D4E9C5
:102DA00009C101F4005E022284F85120D4E9002315
:102DB000D4E90201166803F4827326F04006166017
:102DC00000F404401844236901F40061084403F04E
:102DD00002016369084403F00101A369E66908443C
:102DE00003F40071084406F03801266A084406F02E
:102DF0008001084340EA0E001060042000EA1340FE
:102E00000CF0100108445060D06920F40060D061DB
:102E10000120656584F85100284670BD10B586B064
:102E2000044601A81421FDF746FA206843F6000184
:102E3000C4F2000188422BD043F60041C4F20001E5
:102E4000884248D043F20001C4F2010188426ED1A9
:102E5000002043F630010090C4F202014A6942F4B6
:102E600080524A614A6902F480520092009A0090AE
:102E7000086840F0010008600868052100F00100C2
:102E800000900098E02001900020C4F2020044E08D
:102E9000002043F630010090C4F202010A6942F4B6
:102EA00080420A610A6902F480420092009A00900E
:102EB000086840F0020008600868052100F0020080
:102EC000009000984FF4444001900020C4F20200AA
:102ED00000F5806021E0002043F630010090C4F24C
:102EE00002010A6942F400420A610A6902F40042DE
:102EF0000092009A0090086840F00400086008689A
:102F0000062100F00400009000984FF4E05001907A
:102F10000020C4F2020000F50060022202920022AA
:102F200003920322CDE9042101A9FFF7D1FA06B0EB
:102F300010BD00002DE9F04381B0044640681D46F5
:102F40001746B0F5827F0E4602D1A068002857D000
:102F500094F85000012801D1022089E04FF00109C6
:102F600084F85090FFF795FB94F85110012945D152
:102F70008046002E4FF0010075D0002F73D0042042
:102F8000002184F851006165A663A787E787216364
:102F9000A186E186A2682068B2F5004F21646164D1
:102FA00007D1016821F040010160016821F48041EE
:102FB00001600168490603D4016841F040010160E5
:102FC000E268E18F3AB3002941D06E1C8168C907DD
:102FD00008D1FFF75EFB6EB1A0EB0800A84209D351
:102FE00049E000BFC068A16B21F8020BA163E08F2C
:102FF0000138E087E08F50B32068E7E7022032E035
:10300000042084F851002046314632463B46009564
:1030100000F0EEF82CE0D1B16E1C00BF8168C9074A
:1030200008D1FFF736FB76B1A0EB0800A8420AD31F
:1030300021E000BF007BA16B0870A06B0130A06392
:10304000E08F0138E087E08F08B12068E6E720468E
:103050002946424602F0DEFA08B120206065606D24
:10306000002818BF0120002184F8519084F85010E6
:1030700001B0BDE8F0830320F5E700002DE9F0433F
:1030800081B0044690F85000012801D10220ACE044
:103090004FF001091D4616460F4684F85090FFF781
:1030A000F8FA94F8511001295CD18046002F4FF0B6
:1030B000010000F09580002E00F092800320002196
:1030C00084F8510061652763A686E686A163A1871F
:1030D000E187A0682164B0F5004F2068616407D1E2
:1030E000016821F040010160016841F48041016004
:1030F0000168490603D4016841F04001016061683C
:10310000731EE268B1FA81F1B3FA83F349095B09EE
:10311000B2F5006F41EA030126D131B137F8021B45
:10312000C1602763E18E0139E186E18E00293FD03D
:103130006E1C00BF8168890708D4FFF7AAFA6EB138
:10314000A0EB0800A84209D349E000BF216B31F889
:10315000022BC2602163E08E0138E086E08E38B336
:103160002068E7E702203BE039B139780173206B32
:1031700001302063E08E0138E086E08EC0B16E1C25
:1031800020688168890707D4FFF783FA6EB1A0EB46
:103190000800A84209D322E0216B09780173206B53
:1031A00001302063E08E0138E086E08E0028E7D110
:1031B00020462946424602F057FA08B120206065B1
:1031C000A06838B9002000902068C168009180682C
:1031D00000900098606D002818BF012000E00320D7
:1031E000002184F8519084F8501001B0BDE8F083BC
:1031F0002DE9F04381B0044690F85000012801D138
:103200000220C8E001201E4615460F4684F85000F3
:10321000FFF73FFA94F85110814601296BD1002F36
:103220004FF0010000F0B180002D00F0AE80002EC4
:1032300000F0AB8094F85100002104281CBF052049
:1032400084F851006165A563E687A6872763E68653
:103250002068A686216461640168490603D4016878
:1032600041F0400101606168731EE268B1FA81F1CA
:10327000B3FA83F3DDF8208049095B09B2F5006FEA
:1032800041EA030146D131B137F8021BC16027631F
:10329000E08E0138E086012608F10105E08E10B9C4
:1032A000E08F00287AD02068816889070CD5E18EEC
:1032B000012E09D141B1216B002631F8022BC260E9
:1032C0002163E18E0139E1868168C9070AD0E18F67
:1032D00041B1C068A16B012621F8020BA163E08F08
:1032E0000138E087FFF7D5F9002DD7D0A0EB090012
:1032F0004045D3D348E06068B0F5827F08D1042907
:103300004FF0020041D1A16800293FF488AF3CE0B2
:1033100002203AE039B139780173206B0130206323
:10332000E08E0138E086012608F10105E08E08B93B
:10333000E08F98B32068816889070ED5E18E012E51
:103340000BD151B1216B002609780173216B2068E4
:1033500001312163E18E0139E1868168C9070BD013
:10336000E18F49B1C068A16B01260870A06B0130E4
:10337000A063E08F0138E087FFF78BF9002DD5D0EF
:10338000A0EB09004045D1D30320012184F851105E
:10339000002184F8501001B0BDE8F083204641467A
:1033A0004A4602F061F918B1202060650120ECE77F
:1033B000A06800284FF00000E7D100902168CA689B
:1033C0000092896800910099DFE7411E0020B0EB70
:1033D000116F1CBF012070474EF21002CEF20002A6
:1033E00051604EF62351CEF20001F0230B700721FD
:1033F000906011607047B0B590F83C20012A01D16F
:1034000002211CE001F108053CCDD1E900CE23F4F6
:103410007C5322F470521A432EF4F0431A432CF4D6
:10342000E0431A4324F4C0431A432A43C96922F4EF
:103430008042036811435964002180F83C1008461B
:10344000B0BD10B590F83C20012A4FF002024DD0DB
:1034500080F83D200268D2F804E0D2F808C00C6879
:103460002EF07003234341F2FF74C4F20004A24221
:1034700053600BDC40F2FF73C4F200039A4213DC8A
:10348000B2F1804F27D040F2004315E040F2FF3305
:10349000C4F201039A4212DC41F60003C4F20003B5
:1034A0009A4218D0002312E040F60003C4F2000351
:1034B0009A4210D040F60043C4F2000309E044F2FF
:1034C0000003C4F201039A4205D040F20043C4F263
:1034D00001039A4204D149682CF08003194391609A
:1034E0000121002280F83D1080F83C20104610BDDC
:1034F00040B310B5044690F83D0028B9002084F888
:103500003C00204600F020F8022084F83D002068AE
:10351000211D02F051FB012084F8460084F83E0092
:1035200084F83F0084F8400084F8410084F84200A9
:1035300084F8430084F8440084F8450084F83D0092
:10354000002010BD0120704781B000680021C4F246
:10355000010188420ED10020009043F64400C4F2DD
:103560000200016841F001010160006800F0010003
:103570000090009801B0704790F83D1001291CBFE1
:1035800001207047022180F83D10006841F2FF7170
:10359000C4F2000188420BDC40F2FF71C4F200016A
:1035A000884213DCB0F1804F27D040F2004115E093
:1035B00040F2FF31C4F20101884212DC41F6000101
:1035C000C4F20001884218D0002112E040F6000148
:1035D000C4F20001884210D040F60041C4F200015C
:1035E00009E044F20001C4F20101884205D040F232
:1035F0000041C4F20101884204D1816801F0070151
:10360000062903D0016841F00101016000207047E4
:1036100080B590F83C20012A4FF0020200F0BD80F6
:1036200080F83D20D0F800C04FF67772DCF8083003
:1036300023EA0202CCF808200B683F2B1CDD5F2B2D
:1036400020DD602B4FD0B3F5005F6CD0702B40F0C5
:103650009E80D1E901E3C968DCF8082043EA0E0343
:1036600022F47F4243EA01211143CCF80810DCF830
:10367000081041F0770188E01F2B28DC5BB3102B8A
:1036800029D084E0402B61D0502B40F08080D1F8CD
:1036900004E0C968DCF82030DCF8202022F00102C8
:1036A000CCF82020DCF8182022F0F00242EA0111C8
:1036B00023F00A0242EA0E02CCF81810CCF82020BF
:1036C000DCF8081041F0570121F020015DE0202BCB
:1036D00001D0302B5BD1DCF8081021F070011943C8
:1036E00041F0070151E0D1F804E0C968DCF820306E
:1036F00023F01003CCF82030DCF81830DCF8202060
:1037000023F4704322F0A00243EA013142EA0E1290
:10371000CCF81810CCF82020DCF8081041F0670134
:1037200021F0100131E0D1E901E3C968DCF808209B
:1037300043EA0E0322F47F4243EA01211143CCF80D
:103740000810DCF8081041F480411EE0D1F804E0D4
:10375000C968DCF82030DCF8202022F00102CCF827
:103760002020DCF8182022F0F00242EA011123F0B8
:103770000A0242EA0E02CCF81810CCF82020DCF83D
:10378000081041F0470121F03001CCF80810012168
:10379000002280F83D1080F83C20104680BD80B5A6
:1037A00086B001680020C4F2010081421CD10021D2
:1037B00043F630020191C4F20202136800F5803032
:1037C00043F001031360126802F001020192019AB2
:1037D0004FF4706201920222CDE90221049101218D
:1037E000059101A9FEF774FE06B080BD41B108291C
:1037F0000ED0042914BF00F1410200F13F0209E09C
:1038000090F83E20012A12D1022280F83E2012E0D8
:1038100000F140021278012A09D10222082908D0B9
:10382000042914BF80F8412080F83F2003E00120E4
:10383000704780F84020006801F01F010122036AF0
:1038400002FA01F123EA01020262026A114341F223
:10385000FF72C4F20002904201620BDC40F2FF7181
:10386000C4F20001884213DCB0F1804F35D040F241
:10387000004115E040F2FF31C4F20101884214DC3E
:1038800041F60001C4F20001884226D0002114E074
:1038900040F60001C4F2000188421ED040F600410B
:1038A000C4F20001884218D01CE044F20001C4F2C6
:1038B0000101884211D040F20041C4F20101884266
:1038C00010D1416C40F2004340F48062C4F2010325
:1038D00041F400419A42416404D1816801F007013A
:1038E000062903D0016841F0010101600020704702
:1038F00010B5026801F01F0E4FF0010C146A0CFAAB
:103900000EF324EA0303136240F20043D2F820C00E
:1039100042F48064C4F201039C42C2F820C00DD17D
:10392000136A41F21114234208D1136A40F244444D
:10393000234203D1536C23F400435364136A41F2CE
:103940001114234208D1136A40F24444234203D1A4
:10395000136823F00103136008290AD004290CD04E
:1039600000294FF0010114BF80F8411080F83E108B
:1039700006E0012180F8401002E0012180F83F10AC
:10398000002010BDB0B5044690F83C00012804BFEB
:103990000220B0BD4FEAB2000D460121032884F891
:1039A0003C1036D8DFE800F0020A122220682946CF
:1039B00002F090F9206850F8181F0EE020682946A0
:1039C00002F0BAF9206850F8181F16E0206829465E
:1039D00002F0E7F9206850F81C1F41F0080101606F
:1039E000016821F00401016029690FE0206829467F
:1039F00002F00BFA206850F81C1F41F400610160CE
:103A0000016821F48061016029690902026811439B
:103A10000160002084F83C00B0BD40B310B50446FE
:103A200090F83D0028B9002084F83C00204600F0C2
:103A300020F8022084F83D002068211D02F0BCF827
:103A4000012084F8460084F83E0084F83F0084F8A2
:103A5000400084F8410084F8420084F8430084F870
:103A6000440084F8450084F83D00002010BD01208A
:103A700070477047704750B310B5044690F83D004A
:103A800028B9002084F83C00204600F022F82420C9
:103A900084F83D002068C16821F40051C1602046CF
:103AA00002F02CFA2068016921F49041016141691A
:103AB00021F02A014161C16841F40051C160002038
:103AC0002021206484F83D1084F83E1010BD0120B0
:103AD000704770B586B0044601A81421FCF7EBFBD3
:103AE000206841F20041C4F20101884255D044F6F9
:103AF0000041C4F20001884279D1002643F6300526
:103B00000096C4F202052869022140F400202861D1
:103B1000286900F40020009000980096286840F082
:103B200001002860286800F0010000900098032040
:103B3000029101210190CDE9031008200590002099
:103B4000C4F2020001A9FEF7C3FC05F5215040F2C2
:103B5000A465C2F200054FF00061402285E84700ED
:103B60004FF480304FF480634FF4807CC5E9080641
:103B70002846C5E90436C5E9066CFEF7A3FB08B183
:103B8000FDF7B4FF3420002100226563AC63FEF72B
:103B900001FE3420FEF7EFFD29E0002043F630015E
:103BA0000090C4F202014A6942F020024A614A6967
:103BB00002F020020092009A00900A6842F004028B
:103BC0000A60096801F0040100910099C021019187
:103BD0000221CDE902100320049008200590002066
:103BE000C4F2020000F5006001A9FEF771FC06B006
:103BF00070BD00002DE9F04381B0054690F83E000D
:103C0000202809D10E464FF0010031B1174622B1EC
:103C100095F83C00012803D1022001B0BDE8F083F3
:103C2000012085F83C004FF0000922201C46C5F811
:103C3000409085F83E00C5F83090FEF72AFDAF852C
:103C4000EF85A9680746B1F5805F07D1286900288C
:103C50001CBF30464E46B046064601E04FF0000815
:103C600085F83C90E88D18B3284620213A46234633
:103C700002F0CCF908BB5EB1A868B0F5805F0FD048
:103C800008B9286960B12868406800F07F0009E041
:103C90002868002640686FF35F2028F8020B03E0D5
:103CA0002868406806F8010BE88D0138E885D9E7F7
:103CB000202085F83E000020AFE70320ADE700009C
:103CC0002DE9F04381B0044690F83D00202809D149
:103CD0000E464FF0010031B1174622B194F83C0076
:103CE000012803D1022001B0BDE8F083012084F84F
:103CF0003C004FF0000921201D46C4F8409084F894
:103D00003D00FEF7C6FCA784E784A1680746B1F52D
:103D1000805F07D1206900281CBF30464E46B04660
:103D2000064601E04FF0000884F83C90E08CC0B1FA
:103D3000204680213A462B4602F068F9C0B92EB1E0
:103D400016F8010B2168486007E000BF38F8020B45
:103D500021686FF35F2048600026E08C0138E08422
:103D6000E4E7204640213A462B4602F04FF908B1DD
:103D70000320B8E7202084F83D000020B3E770B5A9
:103D8000044690F83D00202808D14FF0010531B1DC
:103D9000134622B194F83C00012802D1022528469E
:103DA00070BD012084F83C00002521202162A384FD
:103DB000E384256484F83D002668606B45F66562FF
:103DC00045F6D16C45F6F76EC0F60002C0F6000C61
:103DD000C0F6000EC0E91325321DC0E90FCEFEF774
:103DE00015FB20686FF04001016084F83C50416988
:103DF00041F080014161D2E77047704700F0F8FE62
:103E0000FEE700002DE9F04F9BB043F6300447F287
:103E10000007C4F20204C4F20007FEF74DFC0025BF
:103E20000DA81421CDE90555CDE90355FCF743FA5A
:103E300017952069022640F080502061206900F02B
:103E40008050179017981795386840F48040386074
:103E5000386800F4804017901798012001904FF4C3
:103E6000803002904FF480000890102009904FF4A9
:103E7000A070CDE90A0604200C9001A80796FEF771
:103E8000BDFD10B172B600BFFEE70F20CDE90D06F3
:103E90004FF4A05010904FF4805011900DA80521C0
:103EA0000F95FEF7B3FC10B172B600BFFEE7FEF748
:103EB00054FD002605960D96206807F5CC3940F094
:103EC00080002060206840F2231100F080000D90F7
:103ED0000D980D962068012240F0040020602068B3
:103EE00000F004000D900D980D96206840F0010040
:103EF0002060206800F001000D900D980D9620685C
:103F000040F002002060206800F002000D900D9843
:103F10004846FEF7B9FB07F5C8384046082101229C
:103F2000FEF7B2FB484610210022FEF7ADFB07F575
:103F3000CA3528460B210122FEF7A6FB40F23310BA
:103F4000019001200DF1040ACDE902064FF0030BA8
:103F500048465146CDF810B0FEF7BAFA022002A941
:103F600081E84108082740465146CDF804B005973E
:103F7000FEF7AEFA01200290404651460197012714
:103F8000CDE9036BFEF7A4FA0B20CDE90107284623
:103F90005146CDE9036BFEF79BFA4FF403600190A5
:103FA0000020C1F21100CDE9020628465146FEF775
:103FB0008FFA0820C0274FF0020805904846514666
:103FC0000197CDE90286CDF810B0FEF781FA0720FF
:103FD000059028465146CDE90178CDE9036BFEF7FF
:103FE00077FA4FF440700190122002900120CDE941
:103FF000030B042005902846514647F20005C4F201
:104000000005FEF765FA01962068002140F40010D3
:1040100020602068002200F40010019001980F2019
:104020000124FEF7B7FB0F20FEF7A5FB40F234603A
:10403000012305F53041C2F20000C0F6007304967A
:104040004FF40032067680F82060C0E90A36C46179
:1040500080F8306080E84600C0E903664461FDF7FF
:104060000CFE10B172B600BFFEE70D2001A951C1D0
:1040700040F23460C2F2000001A9FDF76FFD10B1FB
:1040800072B600BFFEE743F60009C4F2000940F231
:104090007C6409F54050C2F200041021C4E900011B
:1040A00004F108001621FCF706F92046FDF796FFFB
:1040B00008B172B6FEE740F2047005F54041C2F265
:1040C00000004FF48277382600240222C0E900174E
:1040D00000F11001C6610A2601234FF4007AC0E9FD
:1040E000024481E80C04C0E90844C0E90A46FEF72E
:1040F00033FE10B172B600BFFEE740F25C70C2F250
:1041000000004FF00808C0E90097C0E90244C0E988
:104110000444C0E906A8C0E90844C0E90A46FEF71D
:104120001BFE10B172B600BFFEE740F2B47009F595
:104130008061C2F200004FF4827200240223012742
:104140004FF4007680E816000A21C0E90343C0E975
:104150000576C0F81C80C0E90844C0E90A41FEF7B2
:10416000FBFD10B172B600BFFEE70DAE30461C215C
:104170001A94CDE91844CDE91444FCF79CF801A841
:104180002021FCF798F840F60C0005F51041C2F22A
:10419000000049F640438027532280E81600C0E91A
:1041A0000334C0E90547FFF7A3F910B172B600BFA9
:1041B000FEE74FF48050179040F60C00C2F200006A
:1041C00017A9FFF725FA10B172B600BFFEE740F657
:1041D0000C00C2F20000FFF720FC08B172B6FEE747
:1041E0000020CDE9140040F60C00C2F2000014A932
:1041F000FFF727F908B172B6FEE760200D904FF483
:10420000FA600E9006F108001421FCF754F840F60D
:104210000C05C2F20005284631460022FFF7B2FB2A
:1042200008B172B6FEE728680422816921F008010E
:1042300081610DA92846FFF7A5FB08B172B6FEE71C
:1042400028680822816921F4006181610DA928464E
:10425000FFF798FB08B172B6FEE728680C22C16927
:1042600021F00801C1610DA92846FFF78BFB08B1B9
:1042700072B6FEE7286801ACC16921F40061C16132
:1042800020461421FCF717F84FF400500690002642
:10429000284621460896FFF7AEF808B172B6FEE749
:1042A00040F60C00C2F20000FFF779FA40F6540025
:1042B00009F5A051C2F200000C244FF4E13280E86D
:1042C0004600C0E90366C0E90546C661FFF7D3FBB7
:1042D00008B172B6FEE747F20000C4F2000000F534
:1042E000244140F69800C2F200004AF22012002356
:1042F000C0F2070280E80E00C0E90333C0E90543BD
:10430000C361FFF7B8FB08B172B6FEE71BB0BDE8AA
:10431000F08F008800BA000C7047000010B514241C
:10432000C4F20204D4F8000820F01000C4F8000819
:10433000206840F0080020600520FEF7B5F819A0BD
:1043400000F074F808B319A000F070F80F20FEF721
:10435000ABF819A000F06AF81BA000F067F81EA0E7
:1043600000F064F820A000F061F823A000F05EF8EF
:1043700025A000F05BF829A000F058F8206820F094
:10438000080020600120FEF78FF840F6540040F24C
:104390002861C2F20000C2F200010A22BDE810400A
:1043A000FFF7EDBC41540D0A0000000041542B52B0
:1043B000455345540D0A000041542B464C41534887
:1043C0003D300D0A0000000041542B414444523D51
:1043D00030302C30300D0A0041542B54504F57458B
:1043E000523D330D0A00000041542B43574D4F44BA
:1043F000453D300D0A00000041542B544D4F4445BB
:104400003D300D0A0000000041542B574C524154DE
:10441000453D32332C350D0A0000000041542B5528
:104420004152543D372C300D0A000000B0B588B021
:10443000044668461E21FBF73EFF20460A21FBF793
:1044400057FFD0B1001B40F654050130C2F2000501
:1044500082B2284621466423FFF732FC6C46284688
:1044600021461E220523FFF7C5FB05A12046FBF7C9
:104470002DFF002818BF012000E0002008B0B0BDCB
:104480004F4B0000014640F22860C2F200000A22B1
:10449000FBF7F8BE2DE9F04184B08F2040F21447BD
:1044A000ADF80A000020C4F20207ADF80800386831
:1044B0004FF47A7420F00800386040F2B470C2F211
:1044C00000000DF10A0102AA02230094FEF790FEFB
:1044D000386840F0080038609DF80900492840F02D
:1044E000B48048F21F00ADF80E00386840F2B4788E
:1044F00020F00800C2F200080DF10E0503AE38608E
:1045000040462946324602230094FEF771FE386881
:1045100040F0080038603220FDF7C6FF1F20ADF8DC
:104520000E003868294620F00800386040463246C0
:1045300002230094FEF75CFE386840F00800386003
:104540000120FDF7B1FF4AF22070ADF80E00386887
:10455000294620F008003860404632460223009485
:10456000FEF746FE386840F0080038600120FDF78D
:104570009BFF41F62100ADF80E003868294620F077
:10458000080038604046324602230094FEF730FEB1
:10459000386840F0080038600120FDF785FF40F2E0
:1045A0002340ADF80E003868294620F00800386036
:1045B0004046324602230094FEF71AFE386840F067
:1045C000080038600120FDF76FFF4FF22440ADF87E
:1045D0000E003868294620F0080038604046324610
:1045E00002230094FEF704FE386840F008003860AB
:1045F0000120FDF759FF2520ADF80E003868294647
:1046000020F0080038604046324602230094FEF74E
:10461000EFFD386840F0080038600120FDF744FFE6
:104620002620ADF80E003868294620F008003860D2
:104630004046324602230094FEF7DAFD386840F027
:10464000080038600120FDF72FFF04B0BDE8F081BD
:1046500080B584B00020ADF80C000290ADF80400E5
:10466000009002A9082000F01AF86946282000F0FE
:1046700016F8BDF80C1040F2AC12C2F200029180A4
:10468000BDF80010BDF80A30BDF80800D180DDF893
:1046900002105B4291605080138004B080BD70B501
:1046A00082B040F0C00040F214468DF80700C4F21A
:1046B0000206306840F2B47520F00800C2F200052E
:1046C0000C4630600DF10701284601224FF47A7341
:1046D000FEF7D4FC2846214606224FF47A73FEF7F3
:1046E00029FC306840F00800306002B070BD000066
:1046F0002DE9F04F83B040F21449C4F202098DF85D
:104700000900D9F80000144620F00200C9F80000A2
:1047100040F25C700D46C2F200000DF10901012269
:104720004FF47A734FF47A7AFEF7A8FCD4B140F2D2
:104730005C784FF0FF0BC2F200080DF10B070DF192
:104740000A0600BF40463946324601238DF80BB0B9
:10475000CDF800A0FEF74CFD9DF80A00013C05F8DD
:10476000010BEFD1D9F8000040F00200C9F80000B9
:1047700003B0BDE8F08F90ED001AB7EE002A91ED7E
:10478000003A21EE001A32EE400A20EE030A31EE22
:10479000000A81ED000A70472DE9F04F83B040F226
:1047A000B81043F20008C2F200000021C4F2010870
:1047B000C0E90011C0E90211D8F8000040F2144726
:1047C00020F04000C8F80000D8F8000048F26B0A5A
:1047D00020F03800C8F80000D8F80000C4F2020742
:1047E00040F03000C8F80000D8F8000040F204742F
:1047F00040F04000C8F80000ADF80AA03868C2F2E6
:10480000000420F001000DF10A0502AE38604FF4FB
:104810007A792046294632460223CDF80090FEF7E9
:10482000E7FC386840F0010038603220FDF73CFEBC
:104830004FF45A7BADF80AB03868294620F00100E1
:104840003860204632460223CDF80090FEF7D0FCB7
:10485000386840F0010038603220FDF725FEADF8E1
:104860000AA03868294620F0010038602046324608
:104870000223CDF80090FEF7BBFC386840F0010041
:1048800038603220FDF710FEADF80AB038682946CE
:1048900020F001003860204632460223CDF8009017
:1048A000FEF7A6FC386840F0010038603220FDF7C2
:1048B000FBFD752000F05EF9682840F0BC8040F2F6
:1048C0006B10ADF80A00386840F2047420F0010063
:1048D000C2F200040DF10A0502AE386020462946F6
:1048E00032460223CDF80090FEF782FC386840F093
:1048F000010038600F20FDF7D7FD41F26A00ADF8E6
:104900000A003868294620F0010038602046324607
:104910000223CDF80090FEF76BFC386840F00100F0
:1049200038600F20FDF7C0FD6C20ADF80A00386834
:10493000294620F001003860204632460223CDF897
:104940000090FEF755FC386840F0010038600F20F9
:10495000FDF7AAFD1920ADF80A003868294620F0B5
:1049600001003860204632460223CDF80090FEF761
:104970003FFC386840F0010038600F20FDF794FDDF
:1049800041F61B00ADF80A003868294620F0010006
:104990003860204632460223CDF80090FEF728FC0E
:1049A000386840F0010038600F20FDF77DFD41F2CE
:1049B0001C00ADF80A003868294620F00100386074
:1049C000204632460223CDF80090FEF711FC3868ED
:1049D00040F0010038600F20FDF766FD3720ADF88C
:1049E0000A003868294620F0010038602046324627
:1049F0000223CDF80090FEF7FBFB386840F0010081
:104A000038600F20FDF750FD40F21A20ADF80A0083
:104A10003868294620F001003860204632460223DB
:104A2000CDF80090FEF7E4FB386840F001003860F4
:104A30000120FDF739FDD8F8000020F04000C8F84B
:104A40000000D8F8000020F03800C8F80000D8F8BE
:104A5000000040F01000C8F80000D8F8000040F056
:104A60004000C8F8000000F003F803B0BDE8F08F84
:104A7000F0B587B00026BB2040F21447ADF81860AF
:104A80000596CDE903668DF80B00C4F2020738687D
:104A900040F2047520F00100C2F2000538600DF10B
:104AA0000B01284601220A23FEF7E8FA03AC284648
:104AB00021460E220A23FEF73DFA386840F2B81567
:104AC00040F00100C2F20005386000BFF107A05DB0
:104AD00026F0010106F1010629441ABFCA881043D5
:104AE0000002062EC880F1D1BDF81200C0BAFBF753
:104AF000FDFD9FED1D0B53EC102BFBF71CFDFBF791
:104B000026FE00EE100AB3EE051A30EE010A8DED16
:104B1000010A9FED170A05F10C0101A8FFF72BFE12
:104B2000082000BFC207A0F1080293B202EBD33203
:104B3000215C12B200F1010022F001021ABFAB5A4F
:104B4000194309020E28A952ECD1E888298940426C
:104B500028812888E980698840426880298007B0D8
:104B6000F0BD00BF00BF00BF52B81E85EBDD744032
:104B7000CDCC4C3E10B582B0002140F0800040F218
:104B80001444ADF80610ADF804108DF80600C4F218
:104B9000020420684FF47A7C20F00100206040F28B
:104BA0000470C2F200000DF1060101AA0223CDF843
:104BB00000C0FEF71DFB206840F0010020609DF85A
:104BC000050002B010BD0000FEE780B500F010F84F
:104BD00040F60C00C2F20000FEF7CEFC3420C4F216
:104BE00001004FF4FA61016041608160C16080BDE5
:104BF000B0B540F60C04C2F20004204600210025A6
:104C0000FEF776FE20460421FEF772FE20460821BC
:104C1000FEF76EFE20460C21FEF76AFE40F61810E5
:104C2000C2F200000570B0BD032888BF7047DFE8FE
:104C300000F00211070C3420C4F20100016070473B
:104C40003420C4F20100816070473420C4F20100B6
:104C5000C16070473420C4F2010041607047B0B5B4
:104C600040F61815C2F20005287810BB342040F633
:104C70000C04C4F201004FF4FA61C2F200040160B6
:104C800041608160C16020460021FEF7AFFD2046F3
:104C90000421FEF7ABFD20460821FEF7A7FD2046C4
:104CA0000C21FEF7A3FD40F2DC50FDF7FDFB0120D7
:104CB0002870B0BD0000000080B52DED048BB0EE73
:104CC000408AB0EEC09AB7EE000A30EE491AB1EE53
:104CD000C10AB4EE400AF1EE10FA2DD69FED1C1A6F
:104CE0009FED1C2A29EE011A31EE021A9FED1A2AB5
:104CF00029EE011A31EE021A9FED182A29EE011A47
:104D000031EE021AB5EE408AF1EE10FA21EE000AF9
:104D10000FDA10EE100AFBF707FD9FED0B0B0246B2
:104D20000B4651EC100BFBF78EFBFBF710FD00EE72
:104D3000100ABDEC048B80BDB0EE410A02F0B4F85D
:104D4000CCE700BF00BF00BF44174154FB2109401E
:104D5000306E99BC2716983D843459BEA40DC93FC6
:104D600080B52DED048BB0EEE01AB0EEC02AB0EEA7
:104D7000408AB4EE421AB0EE420AF1EE10FAC8BF11
:104D8000B0EE410AB5EE400AB0EE609AF1EE10FACC
:104D90000BD0B4EE421AB0EE423AF1EE10FAB8BFC0
:104DA000B0EE413A83EE000A01E09FED350A9FED37
:104DB000353A9FED354A20EE033A33EE043A9FED43
:104DC000334A20EE033A33EE043A9FED314A20EEA7
:104DD000033A33EE043A9FED2F4A20EE033A33EEC6
:104DE000043A9FED2D4A9FED2D5A20EE044A34EEF1
:104DF000054A20EE040AB7EE004A30EE040A83EEBC
:104E0000000AB4EE412AF1EE10FA0FDD10EE100A9E
:104E1000FBF78AFC9FED160B02460B4651EC100B7C
:104E2000FBF711FBFBF793FC00EE100AB5EE409A7E
:104E3000F1EE10FA0FDA10EE100AFBF775FC9FED99
:104E40000E0B02460B4651EC100BFBF7FCFAFBF77E
:104E50007EFC00EE100AB5EE408AB1EE401AF1EE8B
:104E600010FAB8BFB0EE410ABDEC048B80BD00BFA4
:104E700044174154FB21F93F44174154FB21094099
:104E80000000000039094EBDE3B59E3E88FA163E8B
:104E900045FE7F3FA7DFA83499FB243F69A2163E59
:104EA000B4EE600AF1EE10FA08DBB4EE410AF0EE5F
:104EB000410AF1EE10FAD8BFF0EE400AB0EE600AF7
:104EC000704788423CBF08467047904288BF1046F2
:104ED000704700000000000080B510EE100AFBF7DC
:104EE00023FC9FED070B53EC102BFBF70BFAFBF7A2
:104EF0002EFC00EE100ABDE8804000F009B800BFAB
:104F000044174154FB21F93FB0EEC00A704700003E
:104F10002DE9F0412DED048BB0EE408ABDEEC00AC4
:104F200010EE100A2030402802D99FED570A8EE07B
:104F300018EE100AFBF7F8FB9FED470B41EC190B3D
:104F400055EC108B42462B46FBF764FBC8B99FED2E
:104F5000440B57EC106B00BF51EC190B32463B462B
:104F6000FBF7D0F9FBF7F3FB0446FBF7DDFB42460A
:104F70002B4641EC190BFBF79EFB0028ECD108EE09
:104F8000104A9FED390B51EC190B55EC108B424632
:104F90002B46FBF775FBC0B99FED350B57EC106B3B
:104FA00051EC190B32463B46FBF7ACF9FBF7CFFB54
:104FB0000446FBF7B9FB42462B4641EC190BFBF7C5
:104FC00044FB0028ECD108EE104A9FED2B0B54EC6B
:104FD000195B56EC107B284621463A463346FBF7D0
:104FE00019FB50B19FED260B284656EC107B21464D
:104FF0003A463346FBF744FB68B9384631462A4601
:105000002346FBF720FA3A463346FBF77BF9FBF7DA
:105010009EFB08EE100A9FED1D2A28EE080A9FED60
:105020001C3A20EE022A32EE032A9FED1A3A20EEB5
:10503000022A32EE032A9FED183A28EE001A20EEDB
:10504000020A30EE030A21EE000A38EE000ABDEC37
:10505000048BBDE8F08100BF44174154FB21094097
:1050600044174154FB2119C044174154FB2109C086
:1050700044174154FB21194044174154FB21F93F87
:1050800044174154FB21F9BF000000009A7C2E36E2
:10509000FAAF4FB93587083CA4AA2ABEFEE7000044
:1050A00070B584B040F2C814C2F200042046512109
:1050B000FBF701F940F61406C4F20206306820F04E
:1050C000200030600120FDF7EFF920200D2100F0D5
:1050D000C2F8306840F0200030601420FDF7E4F999
:1050E000306820F0200030600120FDF7DDF947F244
:1050F0006425C0F600052A202946052200F084F820
:105100002120012100F0A7F82220012100F0A3F8BE
:1051100025200C2100F09FF83120202100F09BF881
:1051200026200F2100F097F820203F2100F093F86F
:10513000306840F0200030600120FDF7B5F90DF136
:1051400006060A2031460522FFF7D2FA002000BFEA
:10515000315C2A5C914203D101300528F8D102E08C
:1051600080B2052809D1192084F83100322084F852
:10517000330084F8350084F8370004B070BD10B5F2
:1051800082B04FF60770ADF80600002040F21444DC
:10519000ADF80400C4F2020420684FF47A7C20F0D9
:1051A0000200206040F25C70C2F200000DF10601C6
:1051B00001AA0223CDF800C0FEF71AF8206840F0DB
:1051C000020020609DF8050002B010BD10B5FFF789
:1051D000D6FF04462720214600F03DF8600658BF60
:1051E00010BD40F2C814C2F2000404F1290161208C
:1051F0002022FFF77DFAE220FF2100F02CF8207832
:1052000040F00100207010BDF0B581B040F21447AD
:105210008DF80300C4F20207386840F25C7620F093
:105220000200C2F2000614460D4638600DF103017B
:10523000304601224FF47A73FDF720FF30462946AD
:1052400022464FF47A73FDF719FF386840F00200E8
:10525000386001B0F0BDB0B582B040F214458DF8B1
:1052600007008DF80610C4F20205286840F25C744D
:1052700020F00200C2F2000428600DF10701204670
:1052800001224FF47A73FDF7F9FE0DF10601204675
:1052900001224FF47A73FDF7F1FE286840F0020016
:1052A000286002B0B0BDB0B52DED108B0C4660216A
:1052B000B0EE448AB0EE639AB0EE43AAB0EE62BAA2
:1052C000B0EE42CAB0EE61DAB0EE41EAB0EE60FA9A
:1052D000F0EE408A0546FAF7EEFF0020C5ED058A9C
:1052E00085ED06FA85ED07EAC5E90800A86285F8AC
:1052F000404085ED0BDA85ED0CCA85ED0DBA85EDE4
:105300000EAA85ED0F9A9CB1B7EE000A80EE090A4D
:1053100005F14400BDEEC00A10EE101ABDEEC80A39
:1053200010EE102ABDEC108BBDE8B040FCF730BB8E
:10533000BDEC108BB0BD10B52DED028BB0EE408AE8
:10534000044680ED010AFFF7DFFD94ED0C1AB4EE80
:10535000410AF1EE10FA0CDA94ED010A94ED0F1AFD
:1053600094ED032A20EE010A32EE000A84ED030ACE
:1053700001E00020E060B0EE480AFFF7C5FD94EDC3
:105380000D1AB4EE410AF1EE10FABCBF0020E06045
:1053900094ED0B1AB5EE401AF1EE10FA07D094ED29
:1053A000030AF1EE410AFFF77BFD84ED030A94ED59
:1053B000012A94ED020A94ED0F1A32EE400A80EEB3
:1053C000010A94F8400084ED040A38B104F1440065
:1053D000FCF7E6FA94ED012A84ED040A94ED031A31
:1053E00094ED064A94ED053A94ED075A24EE014AED
:1053F00094ED0E1A23EE023A25EE000A84ED083AE7
:1054000033EE043AB5EE401A84ED0A0AF1EE10FAD2
:1054100033EE000A84ED094A05D0F1EE410AFFF7A8
:105420003FFD94ED012A84ED022ABDEC028B10BDF4
:10543000704710B540F2E054C2F200042046182133
:10544000FAF739FF40F2DC506080A080E0804FF432
:105450007A702081BDE81040FFF722BEB0B540F25F
:10546000206040F23801C2F20000C2F20001D0E92F
:105470000023D1E9005463406A401A4308BFB0BD1D
:10548000D0E90002C1E90002FFF7A0FE40F2C81512
:10549000C2F20005287840F2E054C107C2F20004CD
:1054A00013D1E0680130E060E068B0F5FA7F6FD9B1
:1054B000207800F0FE00207040F2DC506080E08038
:1054C000A0804FF47A70208162E095F8291000F0F6
:1054D000FE00AA29287051D195F82A00AA284DD19A
:1054E00000214FF4AA7000226B1893F82B30013181
:1054F000C01842F100021D29F6D195F84810C0B23B
:1055000081423BD120784FF47A7140F00100207045
:10551000B5F831004FF4FA6200BA000CFFF7D1FC85
:105520006080B5F833004FF47A7100BA000C4FF484
:10553000FA62FFF7C6FC2081B5F835004FF47A71A6
:1055400000BA000C4FF4FA62FFF7BBFCE080B5F83C
:1055500037004FF47A7100BA000C4FF4FA62FFF78B
:10556000B0FCA08095F83950E80718BFFFF740FB62
:10557000A80701D5FFF773FB002094E7D4E90401E5
:10558000013041F10001C4E90401E0680130E0604C
:1055900060889FED1B1AA0F57A7000EE100AA088B3
:1055A000B8EEC00AA0F57A7002EE100AE0882089F1
:1055B000B8EEC22A82EE012AA0F57A7003EE100A34
:1055C00080EE010AB8EEC33A83EE011ABEEE003A4D
:1055D0009FED0C4A32EE032A62EE040A9FED0A2A7E
:1055E00030EE030A9FED093A21EE021A71EE031A1A
:1055F0009FED071A20EE040ABDE8B04000F091BD0F
:1056000000007A44000070420000484400002F452A
:105610000000000010B5044640689446B0F5827F53
:105620000A460ED1A068B0F5004F02D0B0F5806FE9
:105630000AD12168B0F5806F0B6823F040030B603E
:1056400002D12046012101E020468021634600F07E
:105650003DF800280FBF0020606D40F0200060651D
:1056600018BF032010BD000010B582B040F2040343
:10567000C2F200031B6849F68174C1F25E64A3FBA9
:10568000043C04464FEA5C504FF47A73584301904F
:105690006068B0F5827F0DD113460A46204680210E
:1056A00000F014F878B1606D40F0200060650320D0
:1056B0000AE000BF019830B10198013801902068DC
:1056C00080680006F6D4002002B010BD2DE9F0433A
:1056D00081B01E4690460D468146FCF7DAFF301A2F
:1056E00000EB0807FCF7D5FF40F20401C2F200010D
:1056F0000968C1F3CB3179430091D9F800108A6869
:105700002A40AA4216D1064608F1010474B1FCF7FA
:10571000C0FF801BB8420FD2009800990028A1F169
:1057200001010091D9F8001008BF07468868284099
:10573000A842EBD0002028E0D9E900014268B1F589
:10574000827F22F0E00242600BD1D9F80810B1F557
:10575000004F02D0B1F5806F03D1016821F0400104
:105760000160D9F82810B1F5005F07D1016821F474
:1057700000510160016841F400510160012089F885
:105780005100002089F85000032001B0BDE8F083EB
:105790007047000010B52DED0E8B9EB0FFF715FA87
:1057A00040F2F854C2F2000420462421FAF783FDA7
:1057B00044F20000C4F21C5047F2E8119FED560A73
:1057C00060620020C0F600016A4600BF0B1893ED2E
:1057D000011A93ED022A93ED033A81EE001A82EE4C
:1057E000002A83EE003A13180C30782883ED001A53
:1057F00083ED012A83ED023AE8D109A840F21C2486
:105800009FED468A9FED469A9FED46AA90EC030ACB
:10581000C2F2000404F59070F0EE4A1AB0EE4A2A83
:10582000F0EE4A2AB0EE483AF0EE493A0021B0EEE6
:105830004A4AFFF738FD0CA890EC030A04F5C07043
:10584000F0EE4A1AB0EE4A2AF0EE4A2AB0EE483A92
:10585000F0EE493A0021B0EE4A4AFFF724FD0FA8C6
:1058600090EC030A04F5F070F0EE4A1AB0EE4A2A02
:10587000F0EE4A2AB0EE483AF0EE493A0021B0EE96
:105880004A4AFFF710FD9FED28AA9FED28BA9FED29
:1058900028DA9FED28EA9DEC030AB1EE04CA2046FF
:1058A000F0EE4A1AB0EE4B2AF0EE4C2AB0EE4D3A2A
:1058B000F0EE493A0121B0EE4E4AFFF7F4FC03A89E
:1058C00090EC030A04F16000F0EE4A1AB0EE4B2AA5
:1058D000F0EE4C2AB0EE4D3AF0EE493A0121B0EE2E
:1058E0004E4AFFF7E0FC06A890EC030A9FED122A4F
:1058F00004F1C000F2EE042AF0EE4A1AB0EE483A83
:10590000F0EE493A0121B0EE4E4A1EB0BDEC0E8BCE
:10591000BDE81040FFF7C7BC00007A440000964382
:105920006F12033B00000000000016430000B44269
:105930000000FA430000A04200003443F0B581B0FB
:105940002DED0C8B40F24007C2F200073878022898
:1059500000F08180012800F08080002840F00A815A
:1059600040F2206040F2F85540F2B406C2F2000066
:10597000C2F20005C2F20006D0E9000140F248027E
:1059800095ED000A96ED0A1A40F21C24C2F20002BC
:10599000C2F20004C2E9000130EE410A04F5907041
:1059A000FFF7C9FC95ED011A96ED092A85ED030A6A
:1059B00031EE420A04F5C070FFF7BDFC95ED021A06
:1059C00096ED0B2A85ED040A31EE420A04F5F070DB
:1059D000FFF7B1FC95ED031A96ED032A85ED050A54
:1059E00031EE420A2046FFF7A6FC95ED041A96ED2B
:1059F000042A85ED060A31EE420A04F16000FFF741
:105A00009AFC95ED051A96ED052A85ED070A31EE0B
:105A1000420A04F1C000FFF78EFC40F2541185EDFC
:105A2000080AC2F20001087805282AD8DFE800F049
:105A3000039F9F9F2C85FCF78BF8002800F0808047
:105A400095ED061A95ED093A95ED072A95ED084A68
:105A500033EE015A26E000208BE040F2206040F255
:105A60004802C2F20000C2F20002D0E90001D2E90D
:105A70000023801A9941023871F100007AD3022084
:105A800077E00520087072E0FCF762F8002857D034
:105A900095ED061A9FED393A95ED072A95ED084ADE
:105AA00031EE035A33EE411A9FED35BA9FED35CAF8
:105AB00035EE420A31EE023A31EE421A30EE440A35
:105AC00035EE025A31EE04AAF0EE4B0AB0EE4C1A53
:105AD00035EE048A33EE449AFFF7E2F9B0EE40DA8D
