:020000040800F2
:10000000700E00209D010008217C0008A15D000801
:10001000A5740008FD1C000821A9000800000000CC
:10002000000000000000000000000000D98F000860
:10003000892100080000000041830008899500081C
:10004000B7010008B7010008B7010008B7010008B0
:10005000B7010008B7010008B7010008B7010008A0
:10006000B7010008B7010008B7010008B701000890
:10007000B7010008B7010008B7010008FD1E00081D
:10008000B7010008B7010008B7010008B701000870
:10009000B7010008B7010008B7010008B701000860
:1000A000B7010008B7010008B7010008B701000850
:1000B000B7010008B7010008B7010008B701000840
:1000C000B7010008B7010008B7010008B701000830
:1000D000B7010008B7010008B7010008B701000820
:1000E000B7010008B7010008B7010008B701000810
:1000F000B7010008B7010008B7010008B701000800
:10010000B7010008B7010008B7010008B7010008EF
:10011000B19E0008B7010008B7010008B701000848
:10012000B7010008B7010008B7010008B7010008CF
:10013000B70100080000000000000000B70100083F
:10014000B7010008B7010008B7010008B7010008AF
:10015000B7010008B7010008B7010008B70100089F
:10016000B7010008B7010008B7010008B70100088F
:10017000B7010008B70100080000000000000000FF
:10018000B7010008B7010008DFF80CD000F0CCFB85
:100190000048004751B40008700E00200648804710
:1001A00006480047FEE7FEE7FEE7FEE7FEE7FEE75C
:1001B000FEE7FEE7FEE7FEE76D960008890100080E
:1001C0002DE9F05F0546002092469B46884606468C
:1001D000814640241BE0284641464746224600F01F
:1001E000BDFA53465A46C01A914110D311461846DB
:1001F000224600F0A4FA2D1A67EB01084F4622466A
:100200000120002100F09BFA17EB00094E41201E4F
:10021000A4F10104DFDC484631462A464346BDE8E6
:10022000F09F2DE9F0410024061B254671F10006E0
:1002300005DA01240027D0EB070067EB0101161E49
:1002400073F1000605DA0027D2EB0702012567EB00
:100250000303FFF7B5FF86460E4617469C46AC42A1
:1002600004D00025D0EB050E65EB010624B100207B
:10027000D2EB000760EB030C704631463A4663460A
:10028000BDE8F08140EA01039B0703D009E008C9FB
:10029000121F08C0042AFAD203E011F8013B00F84B
:1002A000013B521EF9D27047D2B201E000F8012B97
:1002B000491EFBD270470022F6E710B513460A46E6
:1002C00004461946FFF7F0FF204610BD30B505463D
:1002D0002A460B4612F8010B13F8014B08B1A04255
:1002E000F8D01CB1002802D06D1CF1E7284630BDC3
:1002F000CAB2401E10F8011F8A4202D00029F9D16B
:10030000002070472DE9FE4F804681EA0300C00FB0
:100310000C46009021F0004123F00045B8EB0200AC
:10032000A94105D24046214690461C460B4602464E
:1003300023F00040104347D0270DC7F30A00C3F352
:100340000A510290401A019040286BDAC3F313005F
:1003500040F4801B0098924620B10023D2EB030AA0
:1003600063EB0B0B01985946C0F14002504600F078
:10037000E6F906460D4650465946019A00F0FEF948
:1003800010EB08006141002487EA115284EAE77308
:100390001A4340D0009A62B3019A012A4FEA0752E9
:1003A00015DC001B61EB02014FF0004202EA07522C
:1003B000CDE90042001C41F5801132462B4600F089
:1003C00035FA03B0BDE8F08F40462146F9E7001B3F
:1003D00061EB0201001C41F5801300185B412018FD
:1003E000A2F5001747EB030140EAD570B6196D413D
:1003F00011E06D084FEA360645EAC0754FEA07522C
:10040000001B61EB0201001C41F5801149084FEA15
:1004100030000019514132462B4603B0BDE8F04F81
:1004200000F0F5B90098012240000023D0EB020251
:1004300063EBE073009821464FEAE074B8EB0000EC
:1004400061EB0401E9E783F000435BE781F00041E1
:1004500058E72DE9FE4F81EA030404F0004421F03F
:10046000004100944FF0000B23F0004350EA0104D8
:100470005ED052EA03045BD0C3F30A54C1F30A55B9
:100480002C44A4F2F3340194A0FB0254C1F31301F1
:1004900041F48011C3F3130343F4801301FB0244BE
:1004A00000FB034E840A970A44EA815447EA8357C3
:1004B000A4FB076802958D0A05FB07854FEA932C7C
:1004C00004FB0C542705029D4FEA065847EA1637ED
:1004D000B5EB08056EEB070C870E920E47EA811705
:1004E00042EA8312A7FB0201B6EB0B0164EB0004A6
:1004F0002B0D43EA0C335E1844EB1C50DA46514690
:10050000E7FB0201C5F313044FEA0B3343EA14532C
:100510004FEA0432019C43EA0603A4F10C0402945E
:10052000009CCDE900B400F081F903B0BDE8F08F84
:1005300000200146F9E72DE9F04D81EA030404F0BB
:10054000004B21F0004514464FF0000A23F0004113
:1005500050EA050220D054EA01021DD0C5F30A5723
:100560000246C5F31303C1F31300C1F30A5640F466
:10057000801543F48013A7EB0608101BD64608F23B
:10058000FD3873EB050002D308F1010801E0921871
:100590005B41B8F1000F03DA00200146BDE8F08DA1
:1005A00000204FF48011064684460EE0171B73EBC3
:1005B000050705D3121B63EB050306434CEA010C48
:1005C00049084FEA300092185B4150EA0107EDD12B
:1005D00052EA030012D082EA040083EA05010843CC
:1005E00005D0101BAB4106D20122002306E00022F9
:1005F0004FF0004302E06FF0010253101AEB0600C7
:100600004CEB085110EB0A0041EB0B01BDE8F04D3B
:1006100000F0FDB830B5041E71F1000404DB4FF0AA
:100620000044404264EB0101141E73F1000405DB39
:100630001C464FF00043524263EB0403801A994179
:1006400001D3012030BD002030BD30B5041E71F152
:10065000000404DB4FF00044404264EB0101141E2F
:1006600073F1000405DB1C464FF00043524263EB7C
:100670000403101A8B4101D3012030BD002030BD8E
:100680000EB5C10F80EAE0700844CA07002140F2AD
:1006900033438DE80E000A460B4600F0C7F803B05E
:1006A00000BD70B5C1F30A5201F000450024C1F34A
:1006B000130140F2FF3341F480119A4201DA002025
:1006C00070BD40F233439A42A2F2334203DC5242FD
:1006D00000F044F800E090402C43F1D0404270BD5F
:1006E00000F0004230F000400AD0C10D01F5607109
:1006F000C0F3160042EA0151C20840071143704797
:1007000000200146704701F0004330B421F0004161
:1007100050EA010206D00A0DA2F56072C1F313017E
:10072000002A02DC30BC00207047440F44EAC104B8
:10073000C100E01830BC00EBC25000F031B8202AF4
:1007400004DB203A00FA02F1002070479140C2F128
:10075000200320FA03F3194390407047202A04DB5A
:10076000203A21FA02F00021704721FA02F3D0402A
:10077000C2F120029140084319467047202A06DB47
:10078000CB17203A41FA02F043EAE07306E041FA5F
:1007900002F3D040C2F1200291400843194670474D
:1007A0000029A8BF7047401C490008BF20F0010085
:1007B000704710B4B0FA80FC00FA0CF050EA010463
:1007C00004BF10BC704749B1CCF1200421FA04F4F5
:1007D00011FA0CF118BF012121430843A3EB0C01CE
:1007E000CB1D4FEA00614FEA102042BF002010BC31
:1007F000704700EBC35010440029A4BF10BC7047E1
:10080000401C490008BF20F0010010BC704710B523
:10081000141E73F1000408DA401C41F10001921823
:100820005B411A4301D120F0010010BD2DE9F04DCC
:1008300092469B4611B1B1FA81F202E0B0FA80F221
:1008400020329046FFF77BFF04460F4640EA0A003D
:1008500041EA0B0153465A46084313D0114653EA66
:10086000010019D0C8F140025046FFF777FF054656
:100870000E46504659464246FFF761FF084305D0F1
:10088000012004E020463946BDE8F08D00200543F4
:1008900046EAE0762C4337430A986305E40AA0EB66
:1008A00008000022FD0A44EA47540A3002D500201D
:1008B0000146E9E7010510196941DDE9084500191C
:1008C0006941BDE8F04DA2E770B521F00043034354
:1008D0000CD0C1F30A550024D5EB040564EB0403E6
:1008E000D617AD1AB34102DB0020014670BD2018B7
:1008F00041EB025170BD000030B5041E71F10004DF
:1009000004DB4FF00044404264EB0101141E73F11C
:10091000000405DB1C464FF00043524263EB040326
:10092000994208BF904230BD064C074D06E0E06892
:1009300040F0010394E8070098471034AC42F6D326
:10094000FFF726FC10C5000830C500082DE9F04D62
:1009500000231A461B1A8A4103DB00200146BDE82A
:10096000F08DC1F30A52C1F3130141F480154FF029
:10097000000BD10702D100186D41521E002704461A
:1009800040F2FF11384601EB620A3E4680460246BD
:1009900000204FF48011FFF7E1FEC2197141BB182E
:1009A00046EB0100B4EB030C75EB000C04D3E41A26
:1009B00065EB000517460E46241908F101006D414C
:1009C00080463428E3DDF91946EB0600091BA841EF
:1009D00003D24FF0FF32134601E0002213461BEB17
:1009E000070046EB0A51BDE8F04DFFF710BF0000CD
:1009F00082B0019042F20030C4F2010000900099F0
:100A0000486820F44030486001984268009948687E
:100A10001043486001980168486820F4807048607D
:100A2000019801680269486840EA0220486001981C
:100A30000168486820F04070486001980168826849
:100A400048681043486001980168886820F4006095
:100A5000886001980168C2688868104388600198BE
:100A6000806A0121C0F60071884219D0FFE7019821
:100A70000168886820F07060886001980168826A67
:100A800088681043886001980168886820F04050A9
:100A9000886001980168C26A8868104388600CE029
:100AA00001980168886820F070608860019801688A
:100AB000886820F040508860FFE7019801688868E6
:100AC00020F0020088600198027E0168886840EA90
:100AD00042008860019890F82000C8B1FFE70198B3
:100AE0000168486840F400604860019801684868FF
:100AF00020F46040486001980168426A4EF20000AC
:100B0000CFF6FF7000EB423248681043486006E0C1
:100B100001980168486820F400604860FFE7019888
:100B20000168C86A20F47000C86201980168C2694F
:100B30000020CFF6F07000EB0252C86A1043C86282
:100B400001980168886820F400708860019890F826
:100B500030200168886840EA422088600198016876
:100B6000886820F48060886001980168426988681C
:100B700040EA8220886002B07047000080B590B0E3
:100B80000F900F9801F046F908B9FFE77CE10F9844
:100B90000078012801D1FFE776E10F98007802285C
:100BA00024D1FFE70F98807801281ED1FFE70220AB
:100BB000019005F0CBF840F26031C2F200010091E3
:100BC00001F1580201F1B003012000F089F9019808
:100BD00005F0BCF8009B019803F5847103F5B07231
:100BE00003F5DC7300F07CF9FFE74CE10F98007827
:100BF000102870D1FFE70020ADF82800FFE7BDF80E
:100C00002800082815DCFFE70F98BDF8281000EB36
:100C10004100023005F0ACFCBDF828200DF12A019E
:100C200021F81200FFE7BDF828000130ADF82800D8
:100C3000E5E70020ADF82800FFE7BDF8280002280E
:100C400043DCFFE7BDF8280000EB40010DF12A036B
:100C500033F8111000EE101AB8EE400A9FED8B1A0F
:100C600080EE010A40F26032C2F20002582100FB1D
:100C7000012080ED050ABDF8280000EB400C03EBD5
:100C80004C0CBCF802C000EE10CAB8EE400A80EE70
:100C9000010A00FB012080ED060ABDF8280000EBE8
:100CA000400C03EB4C039B8800EE103AB8EE400A70
:100CB00080EE010A00FB012080ED070AFFE7BDF886
:100CC00028000130ADF82800B7E70F98017D10200B
:100CD00000F0DEF8D6E00F980078112873D1FFE716
:100CE0000020ADF81400FFE7BDF81400082815DC5B
:100CF000FFE70F98BDF8141000EB4100023005F03B
:100D000037FCBDF814200DF1160121F81200FFE7A1
:100D1000BDF814000130ADF81400E5E70320ADF88C
:100D20001400FFE7BDF81400052846DCFFE7BDF816
:100D3000140000EB40010DF1160303EB410131F803
:100D4000121C00EE101AB8EE400A9FED501A80EE09
:100D5000010A40F26032C2F20002582100FB012079
:100D600080ED050ABDF8140000EB400C03EB4C0CC1
:100D70003CF810CC00EE10CAB8EE400A80EE010A32
:100D800000FB012080ED060ABDF8140000EB400CCA
:100D900003EB4C0333F80E3C00EE103AB8EE400A79
:100DA00080EE010A00FB012080ED070AFFE7BDF895
:100DB00014000130ADF81400B4E70F98017D112044
:100DC00000F066F85DE00F980078122806D1FFE782
:100DD0000F98017D122000F05BF851E00F98007829
:100DE000132806D1FFE70F98017D132000F050F87B
:100DF00045E00F980078142806D1FFE70F98017D91
:100E0000142000F045F839E00F980078152806D135
:100E1000FFE70F98017D152000F03AF82DE00F98BC
:100E20000078F12828D1FFE70020ADF80A00FFE79D
:100E3000BDF80A00032814DCFFE70F98BDF80A107C
:100E400000EB4100023005F093FBBDF80A2003A936
:100E500021F81200FFE7BDF80A000130ADF80A00E2
:100E6000E6E7BDF80C00BDF80E10BDF81020BDF887
:100E7000123009F021FDFFE7FFE7FFE7FFE7FFE79B
:100E8000FFE7FFE7FFE7FFE710B080BD00007A440F
:100E900080B58EB08DF837008DF83610AA208DF809
:100EA00004008DF80500EF208DF8060002208DF873
:100EB00007009DF837008DF808009DF836008DF882
:100EC000090001A80090062101F036FA01460098B9
:100ED0008DF80A10072105F023FC0EB080BD00003C
:100EE00080B594B08DF84F001291119210939DF837
:100EF0004F00012805DBFFE79DF84F00072801DBC5
:100F0000FFE73CE1AA208DF80E008DF80F009DF858
:100F10004F000F308DF8100012208DF8110012983C
:100F200090ED050A9FED971A8DED011A20EE010A4A
:100F3000BDEEC00A10EE100A00B201F0BFF99DED3F
:100F4000011A8DF81200129890ED050A20EE010AA0
:100F5000BDEEC00A10EE100A00B201F0B7F99DED27
:100F6000011A8DF81300129890ED060A20EE010A7E
:100F7000BDEEC00A10EE100A00B201F09FF99DED1F
:100F8000011A8DF81400129890ED060A20EE010A5D
:100F9000BDEEC00A10EE100A00B201F097F99DED07
:100FA000011A8DF81500129890ED070A20EE010A3B
:100FB000BDEEC00A10EE100A00B201F07FF99DEDFF
:100FC000011A8DF81600129890ED070A20EE010A1A
:100FD000BDEEC00A10EE100A00B201F077F99DEDE7
:100FE000011A8DF81700119890ED050A20EE010AFC
:100FF000BDEEC00A10EE100A00B201F05FF99DEDDF
:10100000011A8DF81800119890ED050A20EE010ADA
:10101000BDEEC00A10EE100A00B201F057F99DEDC6
:10102000011A8DF81900119890ED060A20EE010AB8
:10103000BDEEC00A10EE100A00B201F03FF99DEDBE
:10104000011A8DF81A00119890ED060A20EE010A97
:10105000BDEEC00A10EE100A00B201F037F99DEDA6
:10106000011A8DF81B00119890ED070A20EE010A75
:10107000BDEEC00A10EE100A00B201F01FF99DED9E
:10108000011A8DF81C00119890ED070A20EE010A54
:10109000BDEEC00A10EE100A00B201F017F99DED86
:1010A000011A8DF81D00109890ED050A20EE010A36
:1010B000BDEEC00A10EE100A00B201F0FFF89DED7F
:1010C000011A8DF81E00109890ED050A20EE010A15
:1010D000BDEEC00A10EE100A00B201F0F7F89DED67
:1010E000011A8DF81F00109890ED060A20EE010AF3
:1010F000BDEEC00A10EE100A00B201F0DFF89DED5F
:10110000011A8DF82000109890ED060A20EE010AD1
:10111000BDEEC00A10EE100A00B201F0D7F89DED46
:10112000011A8DF82100109890ED070A20EE010AAF
:10113000BDEEC00A10EE100A00B201F0BFF89DED3E
:10114000011A8DF82200109890ED070A20EE010A8E
:10115000BDEEC00A10EE100A00B201F0B7F88DF82B
:1011600023000DF10E000290162101F0E5F8014672
:1011700002988DF82410172105F0D2FAFFE714B079
:1011800080BD00BF00007A4480B582B0019000911C
:10119000019806F02DFC0099884203DAFFE7002051
:1011A000019014E00198012805DBFFE70099019800
:1011B000401A01900AE00198B0F1FF3F05DCFFE71B
:1011C0000099019808440190FFE7FFE7FFE70198C5
:1011D00002B080BD80B582B040F25420C2F200005F
:1011E00040780146019104281AD80199DFE801F0FE
:1011F0000306090C0F0004F0FBFD20E004F07CFF67
:101200001DE004F0F5FD1AE004F0F2FD17E040F2F5
:101210002071C2F20001002048628862C8620EE0BC
:1012200040F25421C2F200010420487040F22071C3
:10123000C2F20001002048628862C862FFE702B083
:1012400080BD000080B582B040F29C10C2F2000068
:101250004421FFF730F805F0FBFB05F07BFA002096
:10126000ADF80600FFE7BDF80600022825DCFFE721
:10127000BDF80600C0EBC00140F25820C2F20000E9
:1012800000EB81004FF4FA710091502200F0D8FC7D
:101290000099BDF80600C0EBC00240F24810C2F24F
:1012A000000000EB82000F2200F0CAFCFFE7BDF84F
:1012B00006000130ADF80600D5E702B080BD0000A1
:1012C00080B582B040F2A000C2F200000078014672
:1012D000019140B1FFE7019801281CD0FFE7019878
:1012E000022834D03AE040F26870C2F20000D0E93F
:1012F000000240F2A801C2F200014A60086006F054
:1013000023FE00F065FD40F2A001C2F20001087862
:101310000130087022E040F26870C2F20000D0E9AB
:10132000001040F2A802C2F2000213685268C91A03
:101330009041023970F1000008D3FFE740F2A001AC
:10134000C2F20001087801300870FFE706E040F2C1
:10135000A001C2F2000100200870FFE702B080BDCA
:1013600080B582B000208DF8070040F61401C4F269
:1013700002010091086820F4807008600A2004F0DF
:10138000E5FC0099086840F480700860D02000F007
:1013900013FA8DF807009DF80700582811D1FFE7D0
:1013A00040F2E011C2F200010820182200F0D2F948
:1013B0007420772100F030FA7520102100F02CFA0B
:1013C00000E0FFE702B080BD80B586B000F09CF978
:1013D00040F2E010C2F200000390406A00F06CF9A5
:1013E0000146039800EE101AB8EE400A9FED381A35
:1013F00080EE010A80ED0B0A006A00F06BF800EE47
:10140000100AB8EE400A10EE100AFFF769F941EC35
:10141000100B8DED040B9DED040B9FED291B53EC80
:10142000112B51EC100BFFF786F841EC100B8DEDF2
:10143000040B9DED040B9FED241B53EC112B51EC81
:10144000100BFFF706F841EC100B51EC100BFFF7F7
:1014500028F900F079FA0146039800EE101AB8EE68
:10146000C00AB2EE041A80EE010A80ED0A0A007F7B
:10147000C00768B9FFE740F2E010C2F20000029036
:1014800090ED0A0A00F0F4F902990020086314E0D4
:1014900040F2E010C2F20000019090ED0A0A07F05D
:1014A00017F8019840F66421C2F2000191ED001A8C
:1014B00030EE410A80ED0C0AFFE706B080BD00BFA8
:1014C0000000000000007040000000000000244008
:1014D0000000C842F0B589B0079040F2E011C2F2B6
:1014E00000018A69D017B2F5FA3260F10000049267
:1014F00005900498059AA0FB00C300FB023300FB93
:101500000230B1F910304FEAE37EACFB03240CFB50
:101510000E4C00FB03C002920390029A0398049CB5
:10152000059BB1F90EE04FEAEE75A4FB0EC604FB75
:10153000056403FB0E435B0443EADC3312EB4C42CD
:10154000584102920390029A0398B1F90C3000EBD3
:10155000C30002920390049C059BA4FB045004FB6F
:10156000030004FB0300B1F908E0B1F90AC04FEA37
:10157000EC76A5FB0C2705FB067500FB0C5C4FEA1F
:101580002C20120A42EA0C624FEAEE75A4FB0EC64A
:1015900004FB056403FB0E431B0343EA1C5312EBDD
:1015A0000C32584104920590049A059800F50040C9
:1015B000C988A2FB013200FB01214810C91705911F
:1015C000049004980599084318B9FFE70020089093
:1015D0006FE00798C0F58011C81700910190009B3B
:1015E0000198C00740EA53010298039AD0EBC370F8
:1015F000914140F63542A0FB020301FB0231049AFF
:10160000059BFEF70EFE0191009040F2E012C2F23F
:101610000002B2F91610C817009BDDF804C05B0B7E
:1016200043EACC434FEA6C3EA1FB03C401FB0E41ED
:1016300000FB0311ACFB03040CFB0E4C01FB03C1CC
:10164000400E40EAC110491605910490B2F914C049
:101650004FEAEC71009BDDF804E0ACFB03040CFBEB
:101660000E4C01FB03C1C00C40EA4130C914039188
:10167000029000990198DDF810C0059B11EB0C0158
:101680005841DDF808C0039B11EB0C0143411812CF
:10169000090A41EA0361B2F91230DA17120142EA8B
:1016A000137211EB031150410091019000980890C2
:1016B000FFE7089809B0F0BD84B003900398C1100B
:1016C00040F2E010C2F200000288A1EB4201B0F942
:1016D00002205143C9120291039A0188C1EB2211E1
:1016E00049430913B0F90420514389130191029928
:1016F000019A11448161806900EB80008030001202
:101700000090009804B0704780B582B077200DF14A
:101710000201062200F01EF89DF802009DF8032049
:101720009DF80410000340EA021040EA111040F254
:10173000E011C2F2000108629DF805009DF8063034
:101740009DF80720000340EA031040EA12104862A7
:1017500002B080BD80B586B08DF817000491ADF859
:101760000E209DF8170040F080008DF80D0040F627
:101770001401C4F202010291086820F4807008602C
:1017800040F6A400C2F2000001900DF10D0101220B
:101790004FF47A73009302F0DBFF009B01980499E9
:1017A000BDF80E2002F0BCFE0299086840F480707B
:1017B000086006B080BD000080B584B08DF80F00D1
:1017C0000020ADF80C00ADF80A009DF80F0040F0C5
:1017D00080008DF80C0040F61401C4F20201019162
:1017E000086820F48070086069464FF47A700860D9
:1017F00040F6A400C2F2000003A90DF10A02022380
:1018000003F0E8F80199086840F4807008609DF8DA
:101810000B0004B080BD000080B584B08DF80F00CF
:101820008DF80E109DF80F008DF80C009DF80E003D
:101830008DF80D0040F61401C4F202010191086810
:1018400020F48070086069464FF47A70086040F6B2
:10185000A400C2F2000003A90DF10A02022303F062
:10186000B9F80199086840F48070086004B080BD40
:1018700080B584B08DED030A9DED030A40F290001F
:10188000C2F20000019090ED001A30EE410A8DED99
:10189000020A9DED020A9FED2A1A20EE011A90ED30
:1018A000000A30EE010A80ED000A9DED020A06F002
:1018B00047F8019890ED001A9FED222A21EE021AB6
:1018C000B4EE410AF1EE10FA2BDAFFE740F268704D
:1018D000C2F20000D0E9001040F66022C2F200021D
:1018E0001268891A60F10000FB3970F1000017D30B
:1018F000FFE740F29000C2F2000090ED000A06F00F
:10190000E7FD40F66420C2F2000080ED000A40F2DC
:10191000E011C2F20001087F40F001000877FFE704
:101920000BE040F26870C2F20000D0E9000140F61E
:101930006021C2F200010860FFE704B080BD00BF73
:101940009A99193E17B7513880B586B0049040F285
:10195000BC00C2F200000068013003900398032825
:1019600009D1FFE70020039040F2C001C2F200015C
:1019700001200870FFE740F2BC00C2F200000068DE
:10198000013802900298B0F1FF3F03DCFFE702202C
:101990000290FFE7029940F2B000C2F2000050F856
:1019A0002100019040F2C000C2F20000007820B394
:1019B000FFE701980499401A06F01AF8B0F57A7F0B
:1019C00012DAFFE7049940F2BC02C2F20002136887
:1019D00040F2B000C2F2000040F8231003991160F9
:1019E00006F01EFE059019E0029940F2B000C2F226
:1019F000000050F82100059010E0049840F2BC016E
:101A0000C2F200010B6840F2B002C2F2000242F8DA
:101A100023000398086004980590FFE7059806B036
:101A200080BD000080B582B040F27070C2F200004C
:101A3000019000F00FFF01980A2100F075FE40F2BE
:101A40001421C2F2000149F69A10C4F2491008604C
:101A50000020087102B080BD80B508F08DFC80BD0B
:101A600080B592B01190ADF84210ADF840208DEDE8
:101A70000F0A8DF83B30BDF84000BDF84210B0EBC6
:101A8000510F80F2C180FFE7BDF8420000EE100A5E
:101A9000B8EE400A8DED0D0ABDF8400000EE100AC8
:101AA000B8EE400A10EE100AFEF71AFE41EC100BD9
:101AB0009FED611B53EC112B51EC100BFEF7C9FC91
:101AC00041EC100B8DED000B0D98FEF709FE9DED1E
:101AD000001B41EC100B51EC110B53EC102BFEF7DB
:101AE0002AFD41EC100B51EC100BFEF70CFE0C9094
:101AF0009DED0C0A05F08CFF8DED0B0A9DED0C0A97
:101B000005F0FAFE8DED0A0A9DED0B0A9DED0F1A08
:101B100031EE011A80EE010A8DED090A9DF83B00B5
:101B20000146029120B1FFE7029801281BD027E06F
:101B30009DED0A1AB7EE000A30EE412AB0EE001A07
:101B400082EE012A8DED082A9DED0A2A30EE422A06
:101B50008DED072A9DED0A2A30EE420A80EE010A39
:101B60008DED060A0CE04FF07E5008909DED0A0ABC
:101B7000B8EE001A20EE010A8DED070A0690FFE785
:101B80009DED091AB7EE000A31EE001A8DED051A27
:101B90009DED0A1AB8EE002A21EE021A8DED041A04
:101BA0009DED091A30EE410A8DED030A9DED080AFC
:101BB0009DED051A80EE010A119880ED000A9DED59
:101BC000070A9DED051A80EE010A119880ED010AC1
:101BD0009DED060A9DED051A80EE010A119880ED33
:101BE000020A9DED040A9DED051A80EE010A119886
:101BF00080ED030A9DED030A9DED051A80EE010AB2
:101C0000119880ED040A0DE011994FF07E500860A4
:101C1000119900204860119988601199C860119944
:101C20000861FFE71199002088611199486112B09D
:101C300080BD00BF00BF00BF44174154FB211940C5
:101C400080B586B00590ADF81210ADF8102005985B
:101C50000190BDF812000290BDF810000390B0EEA4
:101C6000000A0AF071FA01980299039AB0EE401A3C
:101C7000B7EE000A80EE010A0023FFF7F1FE06B07E
:101C800080BD000083B002908DED010A02989DEDA9
:101C9000012A90ED000A90ED051A20EE020A30EEBE
:101CA000010A8DED000A02989DED013A90ED010ABE
:101CB00090ED032A90ED061A20EE030A9DED003AFE
:101CC00022EE032A30EE420A30EE010A80ED050AC8
:101CD00002989DED012A90ED020A90ED041A20EE83
:101CE000020A9DED002A21EE021A30EE410A80ED33
:101CF000060A9DED000A03B070470000FFE7FEE70B
:101D000084B003908DF80B104FF6FF70ADF808000B
:101D100000200190FFE701989DF80B1088422DDA12
:101D2000FFE703980199415CBDF808004840ADF811
:101D3000080000200090FFE70098072819DCFFE763
:101D4000BDF80800C00748B1FFE7BDF808104AF227
:101D5000010080EA5100ADF8080005E0BDF8080078
:101D60004008ADF80800FFE7FFE700980130009059
:101D7000E2E7FFE7019801300190CCE7BDF80800E9
:101D800004B0704780B5FFF71FFB40F2E010C2F2CD
:101D90000000007FC00778B1FFE740F2E010C2F218
:101DA0000000006B40F2AC21C2F2000148600878EC
:101DB00040F0010008700AE040F2AC21C2F20001DC
:101DC00000204860087800F0FE000870FFE780BD42
:101DD00080B540F29C10C2F20000D0ED011A90EDE7
:101DE000022AD0ED032A90ED040AD0ED050A90ED09
:101DF000061A90ED073AD0ED083A90ED094A012015
:101E0000DFED034A08F034FF09F022FA80BD00BF7D
:101E10006F12033B84B00290002001900199AA3117
:101E200001910199AF310191ADF80000FFE7BDF8D4
:101E3000000002994978023188420EDAFFE70298E1
:101E4000BDF80010415C019808440190FFE7BDF81F
:101E500000000130ADF80000E9E701988DF80300BB
:101E600002994878084480789DF80310884204D08D
:101E7000FFE700208DF80F0003E001208DF80F0030
:101E8000FFE79DF80F0004B07047000085B0ADF883
:101E900012008DED030ACDED020A8DED011A9DEDC4
:101EA000020A9DED011A20EE010A9DED031A20EEB3
:101EB000010A8DED000A9DED001ABDF8121040F2E6
:101EC000D060C2F20000203000EB810191ED000AE9
:101ED00030EE010A81ED000A9DED010A9DED001A28
:101EE00020EE011ABDF8121000EB810090ED030AFC
:101EF00030EE010A80ED030A05B0704780B540F26C
:101F0000E070C2F2000000F0D7FE80BD82B0019008
:101F10000198007810384AF6AB21CAF6AA21A0FB36
:101F200001100009009000994CF28840C0F60000B2
:101F3000405C0199C8650098042807D3FFE7019920
:101F40000868042262F30900886506E001990868C0
:101F500040F2FF3290438865FFE70198806D02B040
:101F60007047000086B0059000208DF8130005989A
:101F7000806A03900598806910BBFFE70398029080
:101F800003281BD80299DFE801F0020D021805981A
:101F900090F82F00C00720B1FFE701208DF8130053
:101FA000FFE70CE00598C06AB0F1C07F04D1FFE7FD
:101FB00001208DF81300FFE701E000E0FFE745E0B6
:101FC00005988069B0F5005F25D1FFE7039801907F
:101FD00003281ED80199DFE801F002060211012052
:101FE0008DF8130016E0059890F82F00C00720B177
:101FF000FFE701208DF81300FFE70BE00598C06AAA
:10200000B0F1C07F04D1FFE701208DF81300FFE796
:1020100000E0FFE719E003980090032804D3FFE7EE
:102020000098032804D00EE001208DF813000BE087
:10203000059890F82F00C00720B1FFE701208DF828
:102040001300FFE700E0FFE7FFE7FFE79DF813005D
:1020500006B0704784B003900291019200930398F8
:102060000168086820F480200860009803990968D6
:10207000486003988068402809D1FFE701980399D8
:1020800009688860029803990968C86008E00298A6
:10209000039909688860019803990968C860FFE797
:1020A00004B0704780B582B040F21C20C2F200003C
:1020B00001903821FEF7FFF804F06CFA0198011D39
:1020C00040F69C10C2F20000322208F037F802B04D
:1020D00080BD000080B590B040F26870C2F2000090
:1020E000D0E9001040F2C802C2F200021368526840
:1020F000C91A9041023970F1000021D3FFE740F284
:10210000D060C2F2000090ED010A9FED1D2A20EE82
:10211000020A90ED0A1A61EE020ADFED1A1AB0EE19
:10212000611A08F0FFFB40F26870C2F20000D0E9CB
:10213000000240F2C801C2F200014A600860FFE7F5
:1021400040F21C20C2F200000078C007A8B1FFE7EF
:1021500040F21C20C2F200000190011D0DF10E00A2
:1021600002903222FEF78EF8019A0298117801F05F
:10217000FE011170FEF702FDFFE710B080BD00BF49
:102180000000C842000000007047000072B6FFE780
:10219000FEE7000040F25421C2F200010020088056
:1021A000042008704870704740F26870C2F2000066
:1021B000D0E9000140F2D002C2F200021368526876
:1021C000C01A9141084368B3FFE740F26870C2F259
:1021D0000000D0E9000240F2D001C2F200014A60E2
:1021E000086040F21420C2F200000079032807D1F1
:1021F000FFE740F25421C2F200010320087010E012
:1022000040F21420C2F200000079042808D1FFE750
:1022100040F25421C2F20001042008704870FFE728
:10222000FFE7FFE77047000080B540F25421C2F29B
:10223000000104200870487005F062F980BD0000BC
:1022400080B582B000F04AF8A8BBFFE707F040FD78
:1022500040B3FFE740F25421C2F200010020009099
:102260000870487006F04EFF0098ADF80600FFE7D2
:10227000BDF80600092812DCFFE7BDF8060040F2B1
:102280006032C2F20002582100FB012005F074FF09
:10229000FFE7BDF806000130ADF80600E8E705F0FD
:1022A0007DF907E040F25421C2F2000104200870D9
:1022B0004870FFE7FFE702B080BD000081B0ADF8D5
:1022C00002009DF8030001B07047000081B0ADF836
:1022D00002009DF8020001B07047000040F668203F
:1022E000C2F200000078704784B00390ADF80A1085
:1022F000002001900090ADF80800FFE7BDF808004D
:10230000BDF80A10884212DAFFE70398BDF80810FA
:10231000425C00990198891840F1000000910190F9
:10232000FFE7BDF808000130ADF80800E6E79DF8CA
:10233000000004B07047000084B00290ADF80610B1
:1023400000200090029820B9FFE700208DF80F00D0
:102350001CE00020ADF80400FFE7BDF80400BDF864
:10236000061088420EDAFFE70298BDF80410415CBF
:10237000009808440090FFE7BDF804000130ADF874
:102380000400EAE700988DF80F00FFE79DF80F00C2
:1023900004B0704781B040F20870C2F200000089BA
:1023A000A0F57A7000EE100AB8EEC00A9FED041A8C
:1023B00080EE010A8DED000A9DED000A01B0704724
:1023C00000007A4485B00390029100200190FFE75D
:1023D000039890F83C00012804D1FFE702208DF813
:1023E0001300F7E00399012081F83C00FFE7FFE7C5
:1023F000029800680A281CD3FFE70298008800EBC7
:102400004000A0F11E01072000FA01F203980168C4
:10241000C8689043C86002998868098801EB410147
:102420001E3900FA01F203980168C8681043C860B9
:1024300018E00298008800EB4001072000FA01F242
:1024400003980168086990430861029988680988BF
:1024500001EB410100FA01F2039801680869104399
:102460000861FFE70298406806281BD8FFE702983A
:10247000406800EB8000411F1F2000FA01F2039822
:102480000168486B9043486302990888496801EBEA
:102490008101053900FA01F203980168486B104385
:1024A00048633DE0029840680C281CD8FFE702987A
:1024B000406800EB8000A0F123011F2000FA01F228
:1024C00003980168086B904308630299088849687B
:1024D00001EB8101233900FA01F203980168086BCE
:1024E000104308631BE00298406800EB8000A0F1F5
:1024F00041011F2000FA01F203980168C86A904365
:10250000C86202990888496801EB8101413900FAE3
:1025100001F203980168C86A1043C862FFE7FFE749
:1025200042F20030C4F2010000900398006842F2C9
:102530000001C4F2010188420BD1FFE70298006854
:10254000122806D1FFE70099486840F480004860EF
:10255000FFE70398006842F20001C4F201018842DB
:102560002ED1FFE702980068102805D0FFE70298F7
:102570000068112824D1FFE70099486840F4000062
:10258000486002980068102819D1FFE740F28000E7
:10259000C2F2000000684DF68361C4F21B31A0FB5B
:1025A0000110800C00EB800040000190FFE70198D3
:1025B00020B1FFE7019801380190F8E7FFE7FFE756
:1025C000FFE70399002081F83C00FFE700208DF829
:1025D0001300FFE79DF8130005B0704781B000902D
:1025E0000098006C01B0704781B0009000980068BE
:1025F000C06C01B07047000080B584B0029000202C
:102600008DF80700029820B9FFE701208DF80F0030
:1026100042E00298806A0121C0F60071884201D030
:10262000FFE7FFE70298006C50B9FFE7029800F05F
:1026300037F8029900204864029981F83C00FFE7CE
:102640000298006CC006002817D4FFE70298006CBF
:1026500040F0020020F48850029908640298FEF7C6
:10266000C7F90299002048640298006C40F001000C
:1026700020F002000299086403E001208DF80700B1
:10268000FFE7FFE70299002081F83C00FFE79DF893
:1026900007008DF80F00FFE79DF80F0004B080BD24
:1026A00080B588B0079000200690059004900390B4
:1026B00002900798006842F20001C4F201018842CA
:1026C00030D1FFE7FFE70020019043F64400C4F259
:1026D0000200016841F480710160006800F48070BC
:1026E00001900198FFE7FFE70020009043F63000DB
:1026F000C4F20200016841F004010160006800F0CA
:10270000040000900098FFE7082002900320039047
:102710000020049040F60000C4F2020002A900F07C
:1027200075FDFFE708B080BD80B584B002900191CF
:10273000002000900298006880684005002816D5A7
:10274000FFE7029800688068C00500280FD5FFE702
:102750000299086C40F020000864FFE7029900200D
:1027600081F83C00FFE701208DF80F006DE000F0DC
:1027700055FF0090FFE702980068006800F0020033
:10278000022829D0FFE70198013020B3FFE7019824
:1027900040B1FFE700F042FF0099401A01998842DA
:1027A00018D9FFE702980068006800F002000228CC
:1027B0000FD0FFE70299086C40F004000864FFE7BF
:1027C0000299002081F83C00FFE703208DF80F00FC
:1027D0003BE0FFE7FFE7CEE7029801686FF01200E9
:1027E00008600299086C40F4007008640298006860
:1027F000806810F0405F24D1FFE70298007E00BBA4
:10280000FFE702980068C06A10F4700F07D0FFE776
:102810000298006880684005002812D4FFE70299FA
:10282000086C20F4807008640298006CC0040028D2
:1028300006D4FFE70299086C40F001000864FFE746
:10284000FFE700208DF80F00FFE79DF80F0004B0B0
:1028500080BD000084B0029000200190FFE7029844
:1028600090F83C00012804D1FFE702208DF80F000A
:10287000D4E00299012081F83C00FFE7FFE70298CD
:1028800000688068C007F0B9FFE7029801688868AF
:1028900040F00100886040F28000C2F20000006851
:1028A0004DF68361C4F21B31A0FB0110800C00EBDC
:1028B00040000190FFE7019820B1FFE7019801383F
:1028C0000190F8E7FFE7029800688068C0070028D9
:1028D00000F09580FFE70298006C40F4807040F2B1
:1028E00001618843029908640298006840684005C5
:1028F000002809D5FFE70298006C40F4805020F4CE
:10290000005002990864FFE70298006CC004002898
:1029100006D5FFE70299486C20F00600486403E002
:10292000029900204864FFE7FFE70299002081F840
:102930003C00FFE742F20030C4F201000090029830
:1029400001686FF02200086000984068C006E8BB8C
:10295000FFE70298006842F20001C4F201018842D8
:1029600024D0FFE70298006842F20011C4F201018E
:10297000884208D1FFE742F20430C4F20100006847
:10298000C00698B1FFE70298006842F20021C4F245
:102990000101884219D1FFE742F20430C4F201007C
:1029A000006800F01F000F280FD8FFE702980068AA
:1029B000806810F0405F07D1FFE7029801688868DF
:1029C00040F080408860FFE7FFE717E0029800686A
:1029D00042F20001C4F2010188420ED1FFE70298E1
:1029E0000068806810F0405F07D1FFE70298016837
:1029F000886840F080408860FFE7FFE70AE00299BE
:102A0000086C40F0100008640299486C40F0010026
:102A10004864FFE700208DF80F00FFE79DF80F00E6
:102A200004B0704780B584B00290029820B9FFE7E7
:102A300001208DF80F00E0E0029890F8200020B906
:102A4000FFE7029800F0DEF8FFE7029801680868E7
:102A500020F00200086000F0E1FD0190FFE702981D
:102A6000006840688007002815D5FFE700F0D6FD14
:102A70000199401A0B280DD3FFE70299486A40F4E8
:102A8000003048620299052081F8200001208DF86D
:102A90000F00B2E0E3E702980168086840F0010027
:102AA000086000F0BBFD0190FFE7029800684068F5
:102AB000C007A8B9FFE700F0B1FD0199401A0B2843
:102AC0000DD3FFE70299486A40F40030486202994A
:102AD000052081F8200001208DF80F008DE0E4E74B
:102AE0000298007E012807D1FFE702980168086874
:102AF00040F08000086006E002980168086820F055
:102B000080000860FFE70298407E012807D1FFE7B8
:102B100002980168086840F04000086006E00298EA
:102B20000168086820F040000860FFE70298807E96
:102B3000012807D1FFE702980168086840F02000EB
:102B4000086006E002980168086820F0200008602C
:102B5000FFE70298C07E012807D1FFE702980168CD
:102B6000086820F01000086006E002980168086814
:102B700040F010000860FFE70298007F012807D1AD
:102B8000FFE702980168086840F00800086006E066
:102B900002980168086820F008000860FFE70298C2
:102BA000407F012807D1FFE702980168086840F0DC
:102BB0000400086006E002980168086820F004003C
:102BC0000860FFE7029B19685A689868D3F80CC040
:102BD00040EA0C00D3F810C040EA0C005B691843CF
:102BE000013A1043C861029900204862029A01210B
:102BF00082F820108DF80F00FFE79DF80F0004B059
:102C000080BD000080B58AB0099000200890079030
:102C10000690059004900998006846F60001C4F2F9
:102C20000001884246D1FFE7FFE70020039043F60A
:102C30004000C4F20200016841F080610160006858
:102C400000F0806003900398FFE7FFE70020029008
:102C500043F64000C4F20200016841F000710160D7
:102C6000006800F0007002900298FFE7FFE7002084
:102C7000019043F63000C4F20200016841F0020105
:102C80000160006800F0020001900198FFE74FF436
:102C900040500490022005900020069003200790E9
:102CA0000920089040F20040C4F2020004A900F09C
:102CB000ADFAFFE70AB080BD80B586B00590002070
:102CC000039040F28000C2F20000006848F2B511A3
:102CD000C1F64E31A0FB0110800A02900598806D6C
:102CE000019001980068049004980599C96DC84046
:102CF000000700281AD5FFE705980068006840071C
:102D0000002812D5FFE705980168086820F0040044
:102D100008600598C16D0820884001998860059970
:102D2000486D40F001004865FFE7FFE7049805990A
:102D3000C96DC840C007A0B1FFE7059800684069A9
:102D4000000600280CD5FFE70598C16D01208840DA
:102D5000019988600599486D40F002004865FFE7D9
:102D6000FFE704980599C96DC8404007002814D5AD
:102D7000FFE7059800680068800700280CD5FFE78A
:102D80000598C16D04208840019988600599486DB7
:102D900040F004004865FFE7FFE704980599C96D16
:102DA000C840C006002847D5FFE7059800680068BE
:102DB000000700283FD5FFE70598C16D1020884027
:102DC00001998860059800680068400300281AD5BA
:102DD000FFE70598006800680003002809D4FFE7B2
:102DE0000598006C20B1FFE70598016C8847FFE764
:102DF00008E00598806C20B1FFE70598816C884752
:102E0000FFE7FFE716E0059800680068C0050028A6
:102E100007D4FFE705980168086820F008000860FB
:102E2000FFE70598006C20B1FFE70598016C884723
:102E3000FFE7FFE7FFE7FFE704980599C96DC84082
:102E40008006002840F18D80FFE705980068006843
:102E5000C006002840F18480FFE70598C16D20205E
:102E6000884001998860059890F83500052834D18C
:102E7000FFE705980168086820F0160008600598CB
:102E80000168486920F0800048610598006C20B90D
:102E9000FFE70598806C38B1FFE70598016808687E
:102EA00020F008000860FFE70598C16D3F208840CA
:102EB00001998860FFE70599002081F83400FFE759
:102EC0000599012081F835000598006D20B1FFE7D4
:102ED0000598016D8847FFE77BE00598006800686A
:102EE000400300281AD5FFE7059800680068000332
:102EF000002809D4FFE70598406C20B1FFE705984A
:102F0000416C8847FFE708E00598C06B20B1FFE7F8
:102F10000598C16B8847FFE7FFE720E00598006848
:102F20000068C005002811D4FFE70598016808680B
:102F300020F010000860FFE70599002081F83400B8
:102F4000FFE70599012081F83500FFE70598C06B80
:102F500020B1FFE70598C16B8847FFE7FFE7FFE770
:102F6000FFE70598406DA0B3FFE70598406DC007E7
:102F700030B3FFE70599052081F835000598016811
:102F8000086820F001000860FFE703980130039013
:102F90000299884201D9FFE707E0FFE7059800683A
:102FA0000068C0070028F0D1FFE7FFE7059900207F
:102FB00081F83400FFE70599012081F83500FFE72B
:102FC0000598C06C20B1FFE70598C16C8847FFE702
:102FD000FFE706B080BD000080B586B004900020F9
:102FE000039000F01BFB0290049820B9FFE701203A
:102FF0008DF81700A3E00498406A08B1FFE7FFE7E7
:10300000FFE70499002081F83400FFE704990220CB
:1030100081F8350004980168086820F00100086014
:10302000FFE7049800680068C00790B1FFE700F070
:10303000F5FA0299401A06280AD3FFE704992020DE
:1030400048650499032081F835008DF8170076E073
:10305000E7E70498006800680390039848F23F018E
:10306000CFF2100108400390049900914868D1F80C
:1030700008C0CB680A6940EA0C00184310434A694B
:1030800010438A691043CA691043096A01430398CF
:10309000084303900498406A042808D1FFE7049984
:1030A000C86A096B0143039808430390FFE703983C
:1030B00004990968086004980068406903900398BF
:1030C00020F0070003900498416A03980843039096
:1030D0000498406A04281AD1FFE70498816A03988B
:1030E000084303900498C06A80B1FFE70498FEF794
:1030F00039FF50B1FFE70499402048650499012049
:1031000081F835008DF8170019E0FFE7FFE7039815
:103110000499096848610498FEF7F8FE0190049844
:10312000C16D3F208840019988600499002048655E
:10313000049A012182F835108DF81700FFE79DF8F9
:10314000170006B080BD000080B588B006900591DC
:103150000492039300208DF80B000698806D019077
:10316000FFE7069890F83400012804D1FFE7022019
:103170008DF81F0045E00699012081F83400FFE733
:10318000FFE7069890F8350001282BD1FFE7069954
:10319000022081F8350006990020486506980599B7
:1031A000049A039BFEF756FF0698C16D3F208840A6
:1031B0000199886006980168086840F01600086068
:1031C0000698006C38B1FFE706980168086840F07F
:1031D00008000860FFE706980168086840F00100F1
:1031E000086009E0FFE70699002081F83400FFE756
:1031F00002208DF80B00FFE79DF80B008DF81F00F3
:10320000FFE79DF81F0008B080BD00008EB00D9054
:103210000C9100200A90099008900B90FFE70B9802
:103220000F2800F2CC81FFE70B99012088400A901B
:103230000C9800680A990840099009980A998842F0
:1032400040F0B881FFE70C98406800F003000128C7
:1032500007D0FFE70C98406800F0030002282FD148
:10326000FFE70D98806808900B984100032000FA52
:1032700001F10898884308900C98C0680B994900A0
:1032800000FA01F108980843089008980D998860A1
:103290000D98406808900B99012000FA01F10898F8
:1032A000884308900C984068C0F300100B9900FA0E
:1032B00001F108980843089008980D994860FFE7C5
:1032C0000C98406800F00300032818D0FFE70D9821
:1032D000C06808900B984100032000FA01F108989B
:1032E000884308900C9880680B99490000FA01F116
:1032F00008980843089008980D99C860FFE70C9853
:10330000406800F00300022826D1FFE70D980B99D2
:103310006FF0030202EA51010844006A08900B981A
:1033200000F0070081000F2000FA01F1089888439F
:1033300008900C9800690B9901F00701890000FAC8
:1033400001F108980843089008980D990B9B02EA30
:10335000530211440862FFE70D98006808900B982B
:103360004100032000FA01F10898884308900C9866
:10337000406800F003000B99490000FA01F1089839
:103380000843089008980D9908600C98C079C00609
:10339000002840F10E81FFE7FFE70020079043F689
:1033A0004400C4F20200016841F4804101600068F9
:1033B00000F4804007900798FFE70B9820F0030087
:1033C00043F60801C4F20101405808900B9800F040
:1033D000030081000F2000FA01F10898884308904B
:1033E0000D980021C4F20201884203D1FFE70020BA
:1033F00006905EE00D9840F20041C4F2020188425E
:1034000003D1FFE70120059050E00D9840F6000140
:10341000C4F20201884203D1FFE70220049042E097
:103420000D9840F60041C4F20201884203D1FFE743
:103430000320039034E00D9841F20001C4F2020130
:10344000884203D1FFE70420029026E00D9841F264
:103450000041C4F20201884203D1FFE70520019038
:1034600018E00D9841F60001C4F20201884203D130
:10347000FFE7062000900AE00D9941F60042C4F2F1
:1034800002020820914208BF07200090FFE7009841
:103490000190FFE701980290FFE702980390FFE791
:1034A00003980490FFE704980590FFE705980690BD
:1034B000FFE70698C0B20B9901F00301890000FAFA
:1034C00001F108980843089008980B9921F003012E
:1034D00043F60802C4F20102885043F60040C4F2E9
:1034E00001000068089009990898884308900C9892
:1034F0008079C00728B1FFE7099908980843089028
:10350000FFE7089843F60041C4F20101086043F662
:103510000440C4F2010000680890099908988843A3
:1035200008900C9880798007002805D5FFE7099955
:10353000089808430890FFE7089843F60441C4F24E
:103540000101086043F60840C4F2010000680890D9
:1035500009990898884308900C988079C00600283B
:1035600005D5FFE70999089808430890FFE70898F0
:1035700043F60841C4F20101086043F60C40C4F26E
:1035800001000068089009990898884308900C98F1
:1035900080798006002805D5FFE709990898084337
:1035A0000890FFE7089843F60C41C4F20101086057
:1035B000FFE7FFE7FFE70B9801300B902FE60EB017
:1035C0007047000083B00290ADF806100298406981
:1035D0000090009ABDF8060002EA0001904340EA1C
:1035E00001400299886103B07047000082B00190E9
:1035F000ADF802108DF801209DF8010028B1FFE719
:10360000BDF802000199886105E0BDF802000004E0
:1036100001998861FFE702B07047000040F66C2016
:10362000C2F200000068704780B584B00290029832
:1036300020B9FFE701208DF80F0037E002980168FC
:103640004CF6CC4008600298016845F2555008607D
:103650000298016840684860029801688068886044
:10366000FFF7DCFF0190FFE702980068C068800761
:1036700098B1FFE7FFF7D2FF0199401A31280BD329
:10368000FFE702980068C068800720B1FFE70320C9
:103690008DF80F000AE0FFE7E6E7029801684AF6B6
:1036A000AA20086000208DF80F00FFE79DF80F00AA
:1036B00004B080BD81B00090009801684AF6AA204D
:1036C0000860002001B0704740F29400C2F2000090
:1036D000027840F66C21C2F20001086810440860CC
:1036E0007047000080B582B043F60041C4F2020189
:1036F000086840F400700860086840F48060086062
:10370000086840F480700860032000F08BF8002007
:10371000019000F005F800F03BF8019802B080BD80
:1037200080B582B0009040F28000C2F200000068D4
:1037300040F29401C2F200010A784FF47A71B1FBB1
:10374000F2F1B0FBF1F001F0F9FA20B1FFE701204E
:103750008DF8070018E000980F280DD8FFE70099B2
:103760004FF0FF30002200F043F8009840F298013B
:10377000C2F20001086003E001208DF8070003E0B9
:1037800000208DF80700FFE79DF8070002B080BD1C
:1037900082B0FFE70020019043F64400C4F202002B
:1037A000016841F480410160006800F480400190AC
:1037B0000198FFE7FFE70020009043F64000C4F2C5
:1037C0000200016841F080510160006800F0805003
:1037D00000900098FFE702B07047000080B582B00B
:1037E0008DF807009DF9070007F008F902B080BDC9
:1037F00080B586B08DF817000491039200200290E6
:1038000007F014F902909DF91700019002980499AD
:10381000039A04F063FB0146019807F00FF906B024
:1038200080BD000080B582B00190019807F028F9B2
:1038300002B080BD80B584B002900191029820B999
:10384000FFE701208DF80F0021E1019843F60041C8
:10385000C4F20201096801F00701884212D9FFE7AA
:10386000019943F60040C4F202000170006800F0C4
:1038700007000199884204D0FFE701208DF80F006E
:1038800005E1FFE702980078800700282AD5FFE7C6
:10389000029800784007002809D5FFE743F60801A1
:1038A000C4F20201086840F4E0500860FFE70298A3
:1038B00000780007002809D5FFE743F60801C4F2A5
:1038C0000201086840F460400860FFE743F6080121
:1038D000C4F20201086820F0F000029A92681043D6
:1038E0000860FFE702980078C00700286ED0FFE765
:1038F00002984068012811D1FFE743F60000C4F2A6
:103900000200006800F400310020B0EB514F04D1F8
:10391000FFE701208DF80F00B9E02CE00298406825
:10392000022805D0FFE702984068032811D1FFE77D
:1039300043F60000C4F20200006800F000710020AD
:10394000B0EB516F04D1FFE701208DF80F009EE02E
:1039500010E043F60000C4F20200006800F002012B
:103960000020B0EB510F04D1FFE701208DF80F00CC
:103970008DE0FFE7FFE743F60801C4F202010868A3
:1039800020F00300029A526810430860FFF746FED9
:103990000090FFE743F60800C4F20200006800F060
:1039A0000C0002994968B0EB810F0ED0FFE7FFF7DA
:1039B00035FE0099401A41F28931884204D3FFE76D
:1039C00003208DF80F0062E0E4E7FFE7019843F67B
:1039D0000041C4F20201096801F00701884212D2D5
:1039E000FFE7019943F60040C4F20200017000684D
:1039F00000F007000199884204D0FFE701208DF80C
:103A00000F0044E0FFE702980078400700280CD53B
:103A1000FFE743F60801C4F20201086820F4E05011
:103A2000029AD26810430860FFE702980078000706
:103A300000280DD5FFE743F60801C4F2020108682B
:103A400020F46040029A126940EAC2000860FFE771
:103A500000F04CF843F60801C4F202010968C9B24B
:103A60000A094CF27041C0F60001895CC84040F27E
:103A70008001C2F20001086040F29800C2F200002A
:103A80000068FFF74DFE00208DF80F00FFE79DF85E
:103A90000F0004B080BD000040F28000C2F20000C0
:103AA0000068704780B5FFF7F7FF43F60801C4F2DE
:103AB00002010968C1F382224CF28041C0F6000184
:103AC000895CC84080BD000080B5FFF7E5FF43F684
:103AD0000801C4F20201096889B24A0B4CF2804124
:103AE000C0F60001895CC84080BD000080B586B08A
:103AF0000020059004900390029043F60800C4F261
:103B00000200006800F00C000146019140B1FFE79F
:103B1000019804280AD0FFE7019808280CD04FE04C
:103B200042F20040C0F2F40002904FE042F2004046
:103B3000C0F2F400029049E043F60400C4F202002F
:103B4000016801F03F01059100684002002813D58B
:103B5000FFE743F60400C4F202000068C0F38810D7
:103B600042F20041C0F2F401A0FB0101059A0023DA
:103B7000FCF726FB049012E043F60400C4F20200B6
:103B80000068C0F3881042F20041C0F2F401A0FBCB
:103B90000101059A0023FCF713FB0490FFE743F6AD
:103BA0000400C4F20200006800F44031022000EB7F
:103BB000D130039004980399B0FBF1F0029005E036
:103BC00042F20040C0F2F4000290FFE7029806B013
:103BD00080BD000080B586B00490049820B9FFE74E
:103BE00001208DF8170050E304980078C0070028E2
:103BF00000F0A580FFE743F60800C4F20200006869
:103C000000F00C00042813D0FFE743F60800C4F2CC
:103C10000200006800F00C0008281ED1FFE743F600
:103C20000400C4F2020000684002002815D5FFE736
:103C300043F60000C4F20200006800F400310020E6
:103C4000B0EB514F08D0FFE70498406820B9FFE778
:103C500001208DF8170018E370E0FFE70498406832
:103C6000B0F5803F09D1FFE743F60001C4F202013D
:103C7000086840F48030086020E004984068B0F59F
:103C8000A02F0DD1FFE743F60001C4F2020108683E
:103C900040F480200860086840F4803008600CE040
:103CA00043F60001C4F20201086820F48030086085
:103CB000086820F480200860FFE7FFE7FFE704982A
:103CC0004068E8B1FFE7FFF7A9FC0390FFE743F680
:103CD0000000C4F20200006800F400310020B0EBE4
:103CE000514F0CD1FFE7FFF799FC0399401A652863
:103CF00004D3FFE703208DF81700C6E2E7E71CE0D6
:103D0000FFF78CFC0390FFE743F60000C4F20200CB
:103D1000006800F400310020B0EB514F0CD0FFE7F9
:103D2000FFF77CFC0399401A652804D3FFE70320C2
:103D30008DF81700A9E2E7E7FFE7FFE7FFE7049840
:103D400000788007002840F19680FFE743F60800DE
:103D5000C4F20200006810F00C0F13D0FFE743F626
:103D60000800C4F20200006800F00C0008282CD102
:103D7000FFE743F60400C4F2020000684002002896
:103D800023D4FFE743F60000C4F20200006800F00D
:103D900002010020B0EB510F09D0FFE70498C06882
:103DA000012804D0FFE701208DF817006DE243F6EB
:103DB0000001C4F20201086820F0F800049A1269B8
:103DC00040EAC2000860FFE754E00498C06870B39E
:103DD000FFE70021C4F2472101200860FFF71EFC25
:103DE0000390FFE743F60000C4F20200006800F011
:103DF00002010020B0EB510F0CD1FFE7FFF70EFCE2
:103E00000399401A032804D3FFE703208DF8170015
:103E10003BE2E7E743F60001C4F20201086820F044
:103E2000F800049A126940EAC200086021E000210B
:103E3000C4F2472100200860FFF7F0FB0390FFE782
:103E400043F60000C4F20200006800F00201002006
:103E5000B0EB510F0CD0FFE7FFF7E0FB0399401ADE
:103E6000032804D3FFE703208DF817000DE2E7E7EE
:103E7000FFE7FFE7FFE704980078000700284BD52D
:103E8000FFE70498406918B3FFE740F68061C4F289
:103E9000472101200860FFF7C1FB0390FFE743F6CD
:103EA0007400C4F20200006800F002010020B0EBD0
:103EB000510F0CD1FFE7FFF7B1FB0399401A03281C
:103EC00004D3FFE703208DF81700DEE1E7E722E0E7
:103ED00040F68061C4F2472100200860FFF79EFB96
:103EE0000390FFE743F67400C4F20200006800F09C
:103EF00002010020B0EB510F0CD0FFE7FFF78EFB63
:103F00000399401A032804D3FFE703208DF8170014
:103F1000BBE1E7E7FFE7FFE70498007840070028E8
:103F200040F1CE80FFE700208DF8070043F6400007
:103F3000C4F202000068C000002815D4FFE7FFE7C4
:103F40000020009043F64000C4F20200016841F0F6
:103F500080510160006800F0805000900098FFE7F9
:103F600001208DF80700FFE747F20000C4F20000CF
:103F70000068C005002822D4FFE747F20001C4F220
:103F80000001086840F480700860FFF747FB039069
:103F9000FFE747F20000C4F200000068C0050028F7
:103FA0000CD4FFE7FFF73AFB0399401A032804D328
:103FB000FFE703208DF8170067E1EAE7FFE7FFE777
:103FC00004988068012809D1FFE743F67001C4F224
:103FD0000201086840F0010008601FE00498806852
:103FE00005280DD1FFE743F67001C4F2020108680D
:103FF00040F004000860086840F0010008600CE030
:1040000043F67001C4F20201086820F00100086064
:10401000086820F004000860FFE7FFE7FFE7049866
:104020008068F8B1FFE7FFF7F9FA0390FFE743F67E
:104030007000C4F20200006800F002010020B0EB42
:10404000510F0ED1FFE7FFF7E9FA0399401A41F249
:104050008931884204D3FFE703208DF8170014E16B
:10406000E5E71EE0FFF7DAFA0390FFE743F670009A
:10407000C4F20200006800F002010020B0EB510F12
:104080000ED0FFE7FFF7CAFA0399401A41F28931CF
:10409000884204D3FFE703208DF81700F5E0E5E739
:1040A000FFE79DF80700012809D1FFE743F640012B
:1040B000C4F20201086820F080500860FFE7FFE7C3
:1040C00004988069002800F0DC80FFE743F60800D0
:1040D000C4F20200006800F00C00082800F085809F
:1040E000FFE70498806902285CD1FFE76021C4F2F1
:1040F000472100200860FFF791FA0390FFE743F69D
:104100000000C4F20200006800F000710020B0EB73
:10411000516F0CD0FFE7FFF781FA0399401A03288B
:1041200004D3FFE703208DF81700AEE0E7E704991A
:10413000C869D1F820C04B6A8A6A40EA0C0040EA9C
:104140008310D2034FF6FF739A43A2F580321043D7
:10415000C96A40EA016043F60401C4F20201086042
:104160006021C4F2472101200860FFF757FA03904D
:10417000FFE743F60000C4F20200006800F000719F
:104180000020B0EB516F0CD1FFE7FFF747FA03991E
:10419000401A032804D3FFE703208DF8170074E0CA
:1041A000E7E721E06021C4F2472100200860FFF723
:1041B00035FA0390FFE743F60000C4F202000068FE
:1041C00000F000710020B0EB516F0CD0FFE7FFF75B
:1041D00025FA0399401A032804D3FFE703208DF83A
:1041E000170052E0E7E7FFE74AE0049880690128FA
:1041F00004D1FFE701208DF8170046E043F60400E4
:10420000C4F202000068029004988069012831D04D
:10421000FFE7029800F480000499C969884229D117
:10422000FFE7029800F03F000499096A884221D113
:10423000FFE7029847F6C07108400499496AB0EB5D
:10424000811F17D1FFE7029800F440300499896A72
:10425000C9034FF6FF729143A1F58031884209D11D
:10426000FFE7029800F070600499C96AB0EB016F33
:1042700004D0FFE701208DF8170006E0FFE7FFE715
:10428000FFE700208DF81700FFE79DF8170006B044
:1042900080BD000080B584B00290029820B9FFE78D
:1042A00001208DF80F0071E00298406A60B9FFE7C5
:1042B00002984068B0F5827F01D1FFE703E00299E0
:1042C0000020C861FFE705E002990020086102991B
:1042D0004861FFE7029900208862029890F8510037
:1042E00040B9FFE70299002081F85000029800F0E1
:1042F00051F8FFE70299022081F851000298016805
:10430000086820F040000860029A01921168506825
:10431000D2F808C0D36800F482700CF4044C6044F6
:1043200003F400631844136903F00203184453694B
:1043300003F001031844936903F400731844D3692C
:1043400003F038031844136A03F080031843926A99
:1043500002F4005210430860029A508B00F00400EF
:104360001168526A02F01002104448600298016815
:10437000C86920F40060C861029900204865029A6B
:10438000012182F851108DF80F00FFE79DF80F0012
:1043900004B080BD80B58CB00B9000200A900990CD
:1043A0000890079006900B98006843F20001C4F251
:1043B0000101884233D1FFE7FFE70020059043F673
:1043C0004400C4F20200016841F4805101600068B9
:1043D00000F4805005900598FFE7FFE70020049067
:1043E00043F63000C4F20200016841F001010160AF
:1043F000006800F0010004900498FFE7E0200690B8
:1044000002200790002008900320099005200A90C0
:104410000020C4F2020006A9FEF7F8FE7DE00B982A
:10442000006843F60001C4F20001884235D1FFE77D
:10443000FFE70020039043F64000C4F20200016849
:1044400041F480410160006800F4804003900398CB
:10445000FFE7FFE70020029043F63000C4F20200BD
:10446000016841F002010160006800F00200029062
:104470000298FFE74FF44440069002200790002086
:1044800008900320099005200A9040F20040C4F2F1
:10449000020006A9FEF7BAFE3EE00B98006843F65C
:1044A0000041C4F20001884235D1FFE7FFE7002058
:1044B000019043F64000C4F20200016841F400415B
:1044C0000160006800F4004001900198FFE7FFE7F9
:1044D0000020009043F63000C4F20200016841F071
:1044E00004010160006800F0040000900098FFE7FC
:1044F0004FF4E0500690022007900020089003201F
:10450000099006200A9040F60000C4F2020006A9B5
:10451000FEF77CFEFFE7FFE7FFE70CB080BD000081
:1045200080B588B006900591ADF812200393002065
:104530008DF8070006984068B0F5827F16D1FFE736
:104540000698806890B9FFE70699042081F8510029
:104550000698059ABDF812300399EC46CCF8001085
:10456000114600F037FA8DF81F00EDE0FFE70698DE
:1045700090F85000012804D1FFE702208DF81F00B9
:10458000E2E00699012081F85000FFE7FFE7FFF71E
:1045900045F80290069890F85100012804D0FFE7F2
:1045A00002208DF80700C0E0059820B1FFE7BDF8B4
:1045B000120020B9FFE701208DF80700B5E0069949
:1045C000042081F851000699002048650599069A53
:1045D0009163BDF81210069A9187BDF81210069AE1
:1045E000D18706990863069988860699C886069930
:1045F00008640699486406988068B0F5004F0DD1AC
:10460000FFE706980168086820F0400008600698F7
:104610000168086820F480400860FFE70698006899
:10462000006800F04000402807D0FFE706980168C6
:10463000086840F040000860FFE70698C06880BB4B
:10464000FFE7FFE70698C08F50B3FFE706980068C2
:104650008068C00778B1FFE706980068007B06997C
:10466000896B08700699886B013088630699C88F3A
:104670000138C88713E0FEF7D1FF0299401A039969
:10468000884204D3FFE70398013018B9FFE7039885
:1046900020B9FFE703208DF8070046E0FFE7D1E7E8
:1046A0002FE0FFE70698C08F50B3FFE70698006839
:1046B0008068C00778B1FFE706980068C06806996F
:1046C000896B08800699886B023088630699C88FC9
:1046D0000138C88713E0FEF7A1FF0299401A039939
:1046E000884204D3FFE70398013018B9FFE7039825
:1046F00020B9FFE703208DF8070016E0FFE7D1E7B8
:10470000FFE706980399029A04F00CFB20B1FFE73B
:10471000069920204865FFE70698406D20B1FFE725
:1047200001208DF80700FFE7FFE70699012081F8D7
:104730005100FFE70699002081F85000FFE79DF83F
:1047400007008DF81F00FFE79DF81F0008B080BD2F
:1047500080B588B006900591ADF812200393002033
:104760008DF80700FFE7069890F85000012804D163
:10477000FFE702208DF81F0028E10699012081F84B
:104780005000FFE7FFE7FEF749FF0290BDF8120077
:10479000ADF80400069890F85100012804D0FFE716
:1047A00002208DF8070002E1059820B1FFE7BDF86F
:1047B000120020B9FFE701208DF80700F7E0069905
:1047C000032081F851000699002048650599069A52
:1047D0001163BDF81210069A9186BDF81210069A60
:1047E000D18606998863069988870699C8870699AD
:1047F00048640699086406988068B0F5004F0DD1AA
:10480000FFE706980168086820F0400008600698F5
:104810000168086840F480400860FFE70698006877
:10482000006800F04000402807D0FFE706980168C4
:10483000086840F040000860FFE70698C068B0F5DF
:10484000006F47D1FFE70698406828B1FFE7BDF841
:10485000040001280ED1FFE706980168006B00886C
:10486000C8600699086B023008630699C88E013843
:10487000C886FFE7FFE70698C08E50B3FFE70698AB
:1048800000688068800700280ED5FFE70698016859
:10489000006B0088C8600699086B023008630699AF
:1048A000C88E0138C88613E0FEF7B8FE0299401A98
:1048B0000399884204D3FFE70398013018B9FFE752
:1048C000039820B9FFE703208DF807006FE0FFE7AA
:1048D000D1E746E00698406828B1FFE7BDF804003C
:1048E00001280ED1FFE706980168006B0078087375
:1048F0000699086B013008630699C88E0138C8868E
:10490000FFE7FFE70698C08E50B3FFE70698006800
:104910008068800700280ED5FFE706980168006BC5
:10492000007808730699086B013008630699C88EF1
:104930000138C88613E0FEF771FE0299401A039908
:10494000884204D3FFE70398013018B9FFE70398C2
:1049500020B9FFE703208DF8070028E0FFE7D1E743
:10496000FFE706980399029A04F04EFA20B1FFE798
:10497000069920204865FFE70698806870B9FFE730
:10498000FFE70020009006980068C0680090069835
:104990000068806800900098FFE7FFE70698406D88
:1049A00020B1FFE701208DF80700FFE7FFE7069938
:1049B000012081F85100FFE70699002081F850009E
:1049C000FFE79DF807008DF81F00FFE79DF81F0027
:1049D00008B080BD80B58EB0DDF840C00C900B9162
:1049E0000A92ADF826300120059000208DF81300C2
:1049F000FFE70C9890F85000012804D1FFE702204F
:104A00008DF8370095E10C99012081F85000FFE7FF
:104A1000FFE7FEF703FE06900C9890F851008DF822
:104A20001F000C9840680890BDF82600ADF82400DF
:104A30009DF81F00012812D0FFE70898B0F5827F8B
:104A400009D1FFE70C98806828B9FFE79DF81F009F
:104A5000042804D0FFE702208DF813005AE10B98D8
:104A600038B1FFE70A9820B1FFE7BDF8260020B96A
:104A7000FFE701208DF813004CE10C9890F85100ED
:104A8000042805D0FFE70C99052081F85100FFE7C5
:104A90000C99002048650A990C9A9163BDF826107C
:104AA0000C9AD187BDF826100C9A91870B990C9A15
:104AB0001163BDF826100C9AD186BDF826100C9A09
:104AC00091860C9908640C9948640C9800680068F9
:104AD00000F04000402807D0FFE70C980168086804
:104AE00040F040000860FFE70C98C068B0F5006F28
:104AF00076D1FFE70C98406828B1FFE7BDF82400A5
:104B000001280ED1FFE70C980168006B0088C8608F
:104B10000C99086B023008630C99C88E0138C8865E
:104B2000FFE7FFE70C98C18E0120029039B9FFE73B
:104B30000C98C08F002818BF01200290FFE7029850
:104B4000C00700284BD0FFE70C98006880688007FA
:104B5000002818D5FFE70C98C08EA0B1FFE7059894
:104B6000012810D1FFE70C980168006B0088C8602D
:104B70000C99086B023008630C99C88E0138C886FE
:104B800000200590FFE70C9800688068C007A8B176
:104B9000FFE70C98C08F88B1FFE70C980068C068E9
:104BA0000C99896B08800C99886B023088630C998A
:104BB000C88F0138C88701200590FFE7FEF72EFD5A
:104BC0000699401A1099884208D3FFE710980130DF
:104BD00020B1FFE703208DF813009BE0A2E778E007
:104BE0000C98406828B1FFE7BDF8240001280ED1D9
:104BF000FFE70C980168006B007808730C99086B4C
:104C0000013008630C99C88E0138C886FFE7FFE7BA
:104C10000C98C18E0120019039B9FFE70C98C08F24
:104C2000002818BF01200190FFE70198C007002865
:104C30004ED0FFE70C98006880688007002818D5E0
:104C4000FFE70C98C08EA0B1FFE70598012810D1AE
:104C5000FFE70C980168006B007808730C99086BEB
:104C6000013008630C99C88E0138C8860020059071
:104C7000FFE70C9800688068C007A8B1FFE70C98B0
:104C8000C08F88B1FFE70C980068C0680C99896BE9
:104C900008700C99886B013088630C99C88F0138B3
:104CA000C88701200590FFE7FEF7B8FC0699401A77
:104CB0001099884204D3FFE71098013018B9FFE734
:104CC000109820B9FFE703208DF8130022E09FE73A
:104CD000FFE70C981099069A04F096F838B1FFE7B0
:104CE00001208DF813000C992020486512E00C98E3
:104CF000806870B9FFE7FFE7002003900C98006818
:104D0000C06803900C980068806803900398FFE7E0
:104D1000FFE7FFE70C99012081F85100FFE70C99AC
:104D2000002081F85000FFE79DF813008DF8370050
:104D3000FFE79DF837000EB080BD000080B582B05F
:104D40000190019804F0F6FB02B080BD84B002909F
:104D5000019100200090FFE7029890F83C000128A4
:104D600004D1FFE702208DF80F0044E002990120F2
:104D700081F83C00FFE7FFE7009820F0FF00019971
:104D8000C96808430090009820F440700199896830
:104D900008430090009820F4806001994968084316
:104DA0000090009820F40060019909680843009081
:104DB000009820F4805001990969084300900098F8
:104DC00020F400500199496908430090009820F4AC
:104DD00080400199C96908430090009802990968C8
:104DE0004864FFE70299002081F83C00FFE70020BB
:104DF0008DF80F00FFE79DF80F0004B0704700002A
:104E000085B003900291FFE7039890F83C000128D9
:104E100004D1FFE702208DF813007EE00399012002
:104E200081F83C00FFE7FFE70399022081F83D008D
:104E300003980068406801900398006880680090BB
:104E4000019820F0700001900298016801980843D1
:104E5000019001980399096848600398006800214F
:104E6000C4F2010188423CD0FFE703980068B0F12A
:104E7000804F36D0FFE70398006840F20041C4F24B
:104E8000000188422DD0FFE70398006840F600013A
:104E9000C4F20001884224D0FFE70398006840F67E
:104EA0000041C4F2000188421BD0FFE7039800686C
:104EB00040F20041C4F20101884212D0FFE703989A
:104EC000006844F20001C4F20101884209D0FFE702
:104ED0000398006841F60001C4F2000188420ED137
:104EE000FFE7009820F08000009002984168009849
:104EF000084300900098039909688860FFE70399C8
:104F0000012081F83D00FFE70399002081F83C0073
:104F1000FFE700208DF81300FFE79DF8130005B0B0
:104F20007047000080B582B00090009820B9FFE77C
:104F300001208DF807003FE0009890F83D0040B94F
:104F4000FFE70099002081F83C00009800F038F855
:104F5000FFE70099022081F83D00009951F8040B09
:104F600004F08EFB0099012081F84600FFE70099CC
:104F7000012081F83E00009981F83F00009981F8F6
:104F80004000009981F84100FFE7FFE70099012008
:104F900081F84200009981F84300009981F84400AB
:104FA000009981F84500FFE70099012081F83D0054
:104FB00000208DF80700FFE79DF8070002B080BDD4
:104FC00082B00190019800680021C4F2010188427A
:104FD00012D1FFE7FFE70020009043F64400C4F23F
:104FE0000200016841F001010160006800F0010069
:104FF00000900098FFE7FFE702B0704783B0019090
:10500000019890F83D00012804D0FFE701208DF8B9
:105010000B0064E00199022081F83D0001980068CE
:105020000021C4F2010188423CD0FFE701980068EA
:10503000B0F1804F36D0FFE70198006840F20041A0
:10504000C4F2000188422DD0FFE70198006840F6C5
:105050000001C4F20001884224D0FFE701980068F3
:1050600040F60041C4F2000188421BD0FFE70198DE
:10507000006840F20041C4F20101884212D0FFE70B
:105080000198006844F20001C4F20101884209D08D
:10509000FFE70198006841F60001C4F20001884270
:1050A00012D1FFE701980068806800F007000090C7
:1050B0000098062807D0FFE701980168086840F0CB
:1050C00001000860FFE706E001980168086840F009
:1050D00001000860FFE700208DF80B00FFE79DF856
:1050E0000B0003B07047000080B586B004900391B8
:1050F000FFE7049890F83C00012804D1FFE7022064
:105100008DF81700A7E00499012081F83C00FFE723
:10511000FFE70499022081F83D0004980068806848
:105120000290029820F077000290029820F47F40CD
:1051300002900298049909688860039800680190B9
:10514000002872D0FFE7019810286ED0FFE7019881
:1051500020286AD0FFE70198302866D0FFE7019841
:10516000402855D0FFE70198502837D0FFE7019835
:10517000602840D0FFE7019870280BD0FFE7019826
:10518000B0F5805F05D0FFE70198B0F5005F16D05D
:1051900052E052E004980068039B5A689968DB6803
:1051A00004F058FB0498006880680290029840F070
:1051B0007700029002980499096888603DE004989D
:1051C0000068039B5A689968DB6804F043FB049805
:1051D0000168886840F4804088602EE00498006888
:1051E000039A5168D26804F021FD049800685021A8
:1051F00004F04AFB21E004980068039A5168D268E1
:1052000004F03CFD04980068602104F03DFB14E0CC
:1052100004980068039A5168D26804F007FD049866
:105220000068402104F030FB07E00498006803990F
:10523000096804F029FB00E0FFE70499012081F8E8
:105240003D00FFE70499002081F83C00FFE70020C3
:105250008DF81700FFE79DF8170006B080BD00002D
:1052600080B588B0079000200690059004900390C8
:105270000290079800680021C4F20101884222D1FF
:10528000FFE7FFE70020019043F63000C4F2020080
:10529000016841F001010160006800F00100019027
:1052A0000198FFE74FF47060029002200390002005
:1052B00004900590012006900020C4F2020002A98B
:1052C000FDF7A4FFFFE708B080BD000080B58CB0FB
:1052D0000A900991099828B9FFE70A9890F83E00CA
:1052E00007901CE00998042805D1FFE70A9890F878
:1052F0003F00069010E00998082805D1FFE70A98BA
:1053000090F84000059004E00A9890F8410005905C
:10531000FFE705980690FFE706980790FFE70798D4
:10532000012804D0FFE701208DF82F00AFE0099895
:1053300028B9FFE70A99022081F83E001EE009988B
:10534000042806D1FFE70A99022081F83F00049063
:1053500012E00998082806D1FFE70A99022081F88F
:105360004000039005E00A99022081F84100039073
:10537000FFE703980490FFE70498FFE70A980068A6
:1053800009990122019204F049FA01980A990968E1
:105390000022C4F20102914202900CD0FFE70A9869
:1053A00000684FF60041CBF6FE710844B0FA80F079
:1053B00040090290FFE70298C00738B1FFE70A985A
:1053C0000168486C40F400404864FFE70A980068B0
:1053D0000021C4F2010188423CD0FFE70A9800682E
:1053E000B0F1804F36D0FFE70A98006840F20041E4
:1053F000C4F2000188422DD0FFE70A98006840F609
:105400000001C4F20001884224D0FFE70A98006836
:1054100040F60041C4F2000188421BD0FFE70A9821
:10542000006840F20041C4F20101884212D0FFE757
:105430000A98006844F20001C4F20101884209D0D0
:10544000FFE70A98006841F60001C4F200018842B3
:1054500012D1FFE70A980068806800F00700089002
:105460000898062807D0FFE70A980168086840F006
:1054700001000860FFE706E00A980168086840F04C
:1054800001000860FFE700208DF82F00FFE79DF87E
:105490002F000CB080BD000080B586B0059004914F
:1054A000059800680499002204F0B8F9059801688D
:1054B00001200022C4F20102914203900CD0FFE7C8
:1054C000059800684FF60041CBF6FE710844B0FA2B
:1054D00080F040090390FFE70398C007D8B1FFE7C9
:1054E000FFE705980068006A41F21111084210D1E7
:1054F000FFE705980068006A40F24441084207D17E
:10550000FFE705980168486C20F400404864FFE715
:10551000FFE7FFE7FFE7FFE705980068006A41F251
:105520001111084210D1FFE705980068006A40F2A7
:105530004441084207D1FFE705980168086820F058
:1055400001000860FFE7FFE7FFE7049828B9FFE7DD
:105550000599012081F83E001EE00498042806D138
:10556000FFE70599012081F83F00029012E00498BE
:10557000082806D1FFE70599012081F84000019035
:1055800005E00599012081F841000190FFE70198AD
:105590000290FFE70298FFE7002006B080BD000000
:1055A00080B586B0049003910292FFE7049890F8CA
:1055B0003C00012804D1FFE702208DF8170085E0A8
:1055C0000499012081F83C00FFE7FFE70298019071
:1055D0000C2800F270800199DFE801F0076D6D6D15
:1055E000206D6D6D3A6D6D6D5300049800680399E0
:1055F00004F060F904980168886940F00800886147
:1056000004980168886920F00400886103980269A1
:10561000049801688869104388614DE00498006827
:10562000039904F0BDF904980168886940F40060AA
:10563000886104980168886920F480608861039813
:10564000026904980168886940EA0220886133E0B1
:1056500004980068039904F01DFA04980168C86969
:1056600040F00800C86104980168C86920F004008F
:10567000C8610398026904980168C8691043C86149
:105680001AE004980068039904F07EFA049801680F
:10569000C86940F40060C86104980168C86920F4D2
:1056A0008060C8610398026904980168C86940EA8B
:1056B0000220C86100E0FFE7FFE70499002081F8BD
:1056C0003C00FFE700208DF81700FFE79DF817006A
:1056D00006B080BD80B582B00090009820B9FFE789
:1056E00001208DF807003FE0009890F83D0040B998
:1056F000FFE70099002081F83C00009800F038F89E
:10570000FFE70099022081F83D00009951F8040B51
:1057100003F0B6FF0099012081F84600FFE70099E9
:10572000012081F83E00009981F83F00009981F83E
:105730004000009981F84100FFE7FFE70099012050
:1057400081F84200009981F84300009981F84400F3
:10575000009981F84500FFE70099012081F83D009C
:1057600000208DF80700FFE79DF8070002B080BD1C
:1057700081B0009001B0704781B0009001B07047D7
:1057800080B582B00090009820B9FFE701208DF825
:1057900007003EE00098806908B1FFE700E0FFE7FE
:1057A000009890F83D0040B9FFE70099002081F88B
:1057B0003C00009800F032F8FFE70099242081F8BF
:1057C0003D0000980168C86820F40050C860009847
:1057D00004F016FC00980168086920F49040086104
:1057E00000980168486920F02A0048610098016823
:1057F000C86840F40050C860009900200864009A0E
:10580000202182F83D10009A82F83E108DF80700A2
:10581000FFE79DF8070002B080BD000080B58CB0A6
:105820000B9000200A9009900890079006900B9822
:10583000006844F60041C4F20001884267D1FFE7E6
:10584000FFE70020059043F64000C4F20200016823
:1058500041F400210160006800F4002005900598E3
:10586000FFE7FFE70020049043F63000C4F2020097
:10587000016841F001010160006800F0010004903E
:105880000498FFE703200690022107910121089167
:10589000099008200A900020C4F2020006A9FDF732
:1058A000B5FC40F2E070C2F20000019046F27001D7
:1058B000C4F2020101604FF000614160402181604B
:1058C0000021C1604FF48062026141618161C16168
:1058D0004FF4803202624162FDF77EFB18B1FFE7B0
:1058E000FCF754FCFFE7FFE70B9840F2E071C2F2CF
:1058F000000141630B988863FFE734200090002289
:105900001146FDF775FF0098FDF768FF3DE00B9825
:10591000006841F20041C4F20101884234D1FFE73E
:10592000FFE70020039043F64400C4F20200016840
:1059300041F020010160006800F02000039003980E
:10594000FFE7FFE70020029043F63000C4F20200B8
:10595000016841F004010160006800F00400029059
:105960000298FFE7C02006900220079000200890D0
:105970000320099008200A9040F60000C4F20200BB
:1059800006A9FDF743FCFFE7FFE70CB080BD000070
:1059900080B58AB008900791ADF81A2005930020D1
:1059A0000290089890F83E00202840F09B80FFE786
:1059B000079820B1FFE7BDF81A0020B9FFE70120E2
:1059C0008DF8270092E0FFE7089890F83C00012846
:1059D00004D1FFE702208DF8270087E00899012015
:1059E00081F83C00FFE7FFE7089900200864089A67
:1059F000222182F83E1008990863FDF70FFE0290FD
:105A0000BDF81A0008998885BDF81A000899C8855C
:105A100008988068B0F5805F09D1FFE708980069B1
:105A200028B9FFE7002004900798039004E0079846
:105A3000049000200390FFE7FFE70899002081F819
:105A40003C00FFE7FFE70898C08D002842D0FFE741
:105A50000898029B05996A4611602021002204F0F3
:105A60009FFB20B1FFE703208DF827003EE004985C
:105A700058B9FFE70898006840686FF35F20039902
:105A800008800398023003901FE008988068B0F502
:105A9000805F08D0FFE70898806850B9FFE7089852
:105AA000006930B9FFE708980068406804990870F9
:105AB00007E008980068406800F07F0004990870CB
:105AC000FFE7049801300490FFE70899C88D01387A
:105AD000C885B8E70899202081F83E0000208DF89D
