:020000040800F2
:10000000080D00209D0100084D520008B13F000876
:10001000814D0008811B0008C16700080000000036
:10002000000000000000000000000000415900082E
:10003000A11C000800000000A3550008D5610008BD
:10004000B7010008B7010008B7010008B7010008B0
:10005000B7010008B7010008B7010008B7010008A0
:10006000B7010008B7010008B7010008B701000890
:10007000B7010008B7010008B7010008831B00089A
:10008000B7010008B7010008B7010008B701000870
:10009000B7010008B7010008B7010008B701000860
:1000A000B7010008B7010008B7010008B701000850
:1000B000B7010008B7010008B7010008B701000840
:1000C000B7010008B7010008B7010008B701000830
:1000D000B7010008B7010008B7010008B701000820
:1000E000B7010008B7010008B7010008B701000810
:1000F000B7010008B7010008B7010008B701000800
:10010000B7010008B7010008B7010008B7010008EF
:10011000A5640008B7010008B7010008B70100088E
:10012000B7010008B7010008B7010008B7010008CF
:10013000B70100080000000000000000B70100083F
:10014000B7010008B7010008B7010008B7010008AF
:10015000B7010008B7010008B7010008B70100089F
:10016000B7010008B7010008B7010008B70100088F
:10017000B7010008B70100080000000000000000FF
:10018000B7010008B7010008DFF80CD000F0F0FB61
:10019000004800475D680008080D002006488047B9
:1001A00006480047FEE7FEE7FEE7FEE7FEE7FEE75C
:1001B000FEE7FEE7FEE7FEE7F361000889010008BD
:1001C0002DE9F05F0546002092469B46884606468C
:1001D000814640241BE0284641464746224600F01F
:1001E000E1FA53465A46C01A914110D311461846B7
:1001F000224600F0C8FA2D1A67EB01084F46224646
:100200000120002100F0BFFA17EB00094E41201E2B
:10021000A4F10104DFDC484631462A464346BDE8E6
:10022000F09F2DE9F0410024061B254671F10006E0
:1002300005DA01240027D0EB070067EB0101161E49
:1002400073F1000605DA0027D2EB0702012567EB00
:100250000303FFF7B5FF86460E4617469C46AC42A1
:1002600004D00025D0EB050E65EB010624B100207B
:10027000D2EB000760EB030C704631463A4663460A
:10028000BDE8F08140EA01039B0703D009E008C9FB
:10029000121F08C0042AFAD203E011F8013B00F84B
:1002A000013B521EF9D27047D2B201E000F8012B97
:1002B000491EFBD270470022F6E710B513460A46E6
:1002C00004461946FFF7F0FF204610BD30B505463D
:1002D0002A460B4612F8010B13F8014B08B1A04255
:1002E000F8D01CB1002802D06D1CF1E7284630BDC3
:1002F000CAB2401E10F8011F8A4202D00029F9D16B
:10030000002070472DE9FE4F804681EA0300C00FB0
:100310000C46009021F0004123F00045B8EB0200AC
:10032000A94105D24046214690461C460B4602464E
:1003300023F00040104347D0270DC7F30A00C3F352
:100340000A510290401A019040286BDAC3F313005F
:1003500040F4801B0098924620B10023D2EB030AA0
:1003600063EB0B0B01985946C0F14002504600F078
:100370000AFA06460D4650465946019A00F022FAFE
:1003800010EB08006141002487EA115284EAE77308
:100390001A4340D0009A62B3019A012A4FEA0752E9
:1003A00015DC001B61EB02014FF0004202EA07522C
:1003B000CDE90042001C41F5801132462B4600F089
:1003C00059FA03B0BDE8F08F40462146F9E7001B1B
:1003D00061EB0201001C41F5801300185B412018FD
:1003E000A2F5001747EB030140EAD570B6196D413D
:1003F00011E06D084FEA360645EAC0754FEA07522C
:10040000001B61EB0201001C41F5801149084FEA15
:1004100030000019514132462B4603B0BDE8F04F81
:1004200000F019BA0098012240000023D0EB02022C
:1004300063EBE073009821464FEAE074B8EB0000EC
:1004400061EB0401E9E783F000435BE781F00041E1
:1004500058E72DE9FE4F81EA030404F0004421F03F
:10046000004100944FF0000B23F0004350EA0104D8
:100470005ED052EA03045BD0C3F30A54C1F30A55B9
:100480002C44A4F2F3340194A0FB0254C1F31301F1
:1004900041F48011C3F3130343F4801301FB0244BE
:1004A00000FB034E840A970A44EA815447EA8357C3
:1004B000A4FB076802958D0A05FB07854FEA932C7C
:1004C00004FB0C542705029D4FEA065847EA1637ED
:1004D000B5EB08056EEB070C870E920E47EA811705
:1004E00042EA8312A7FB0201B6EB0B0164EB0004A6
:1004F0002B0D43EA0C335E1844EB1C50DA46514690
:10050000E7FB0201C5F313044FEA0B3343EA14532C
:100510004FEA0432019C43EA0603A4F10C0402945E
:10052000009CCDE900B400F0A5F903B0BDE8F08F60
:1005300000200146F9E72DE9F04D81EA030404F0BB
:10054000004B21F0004514464FF0000A23F0004113
:1005500050EA050220D054EA01021DD0C5F30A5723
:100560000246C5F31303C1F31300C1F30A5640F466
:10057000801543F48013A7EB0608101BD64608F23B
:10058000FD3873EB050002D308F1010801E0921871
:100590005B41B8F1000F03DA00200146BDE8F08DA1
:1005A00000204FF48011064684460EE0171B73EBC3
:1005B000050705D3121B63EB050306434CEA010C48
:1005C00049084FEA300092185B4150EA0107EDD12B
:1005D00052EA030012D082EA040083EA05010843CC
:1005E00005D0101BAB4106D20122002306E00022F9
:1005F0004FF0004302E06FF0010253101AEB0600C7
:100600004CEB085110EB0A0041EB0B01BDE8F04D3B
:1006100000F021B930B5041E71F1000404DB4FF085
:100620000044404264EB0101141E73F1000405DB39
:100630001C464FF00043524263EB0403801A994179
:1006400001D3012030BD002030BD30B5041E71F152
:10065000000404DB4FF00044404264EB0101141E2F
:1006600073F1000405DB1C464FF00043524263EB7C
:100670000403101A8B4101D2012030BD002030BD8F
:1006800030B5041E71F1000404DB4FF00044404219
:1006900064EB0101141E73F1000405DB1C464FF0EE
:1006A0000043524263EB0403101A8B4101D3012033
:1006B00030BD002030BD30B5041E71F1000404DBF4
:1006C0004FF00044404264EB0101141E73F100043A
:1006D00005DB1C464FF00043524263EB0403801AD3
:1006E000994101D2012030BD002030BD0EB5C10FAF
:1006F00080EAE0700844CA07002140F233438DE8E5
:100700000E000A460B4600F0B5F803B000BD0EB56A
:1007100040F2334102910021CDE900110A460B4617
:1007200000F0A8F803B000BD00F0004230F0004037
:100730000AD0C10D01F56071C0F3160042EA015103
:10074000C20840071143704700200146704701F07E
:10075000004330B421F0004150EA010206D00A0DF6
:10076000A2F56072C1F31301002A02DC30BC002044
:100770007047440F44EAC104C100E01830BC00EBEC
:10078000C25000F031B8202A04DB203A00FA02F10E
:10079000002070479140C2F1200320FA03F319436F
:1007A00090407047202A04DB203A21FA02F0002111
:1007B000704721FA02F3D040C2F120029140084371
:1007C00019467047202A06DBCB17203A41FA02F07F
:1007D00043EAE07306E041FA02F3D040C2F120029E
:1007E00091400843194670470029A8BF7047401C34
:1007F000490008BF20F00100704710B4B0FA80FC37
:1008000000FA0CF050EA010404BF10BC704749B173
:10081000CCF1200421FA04F411FA0CF118BF0121E3
:1008200021430843A3EB0C01CB1D4FEA00614FEAC3
:10083000102042BF002010BC704700EBC350104492
:100840000029A4BF10BC7047401C490008BF20F01D
:10085000010010BC704710B5141E73F1000408DAD3
:10086000401C41F1000192185B411A4301D120F074
:10087000010010BD2DE9F04D92469B4611B1B1FA31
:1008800081F202E0B0FA80F220329046FFF77BFF5F
:1008900004460F4640EA0A0041EA0B0153465A4615
:1008A000084313D0114653EA010019D0C8F14002A1
:1008B0005046FFF777FF05460E46504659464246DA
:1008C000FFF761FF084305D0012004E020463946C8
:1008D000BDE8F08D0020054346EAE0762C4337431F
:1008E0000A986305E40AA0EB08000022FD0A44EA26
:1008F00047540A3002D500200146E9E701051019E6
:100900006941DDE9084500196941BDE8F04DA2E7FC
:1009100070B521F0004303430CD0C1F30A55002405
:10092000D5EB040564EB0403D617AD1AB34102DB23
:100930000020014670BD201841EB025170BD00003F
:1009400030B5041E71F1000404DB4FF00044404256
:1009500064EB0101141E73F1000405DB1C464FF02B
:100960000043524263EB0403994208BF904230BDFA
:10097000064C074D06E0E06840F0010394E80700EC
:1009800098471034AC42F6D3FFF702FC0479000814
:10099000247900082DE9F04D00231A461B1A8A41DC
:1009A00003DB00200146BDE8F08DC1F30A52C1F31C
:1009B000130141F480154FF0000BD10702D100184C
:1009C0006D41521E0027044640F2FF11384601EBEC
:1009D000620A3E468046024600204FF48011FFF72F
:1009E000E1FEC2197141BB1846EB0100B4EB030CE8
:1009F00075EB000C04D3E41A65EB000517460E46B0
:100A0000241908F101006D4180463428E3DDF9190D
:100A100046EB0600091BA84103D24FF0FF321346F4
:100A200001E0002213461BEB070046EB0A51BDE82C
:100A3000F04DFFF710BF0000F0B585B004464078D8
:100A400040F2591102300023002200BFE75C01325E
:100A500093B298423944F9D8205CC9B2884240F038
:100A6000BC802078A0F1100105293DD8DFE801F015
:100A7000037AB7BA61BDA61C00270DF1020500BFBD
:100A8000F01903F020FDE8530237122FF8D140F29D
:100A90005020C2F200009FED580A1C30002100BF18
:100AA0006A5A6B1801EE102A5A88B8EE411A02EE03
:100AB000102A9A88B8EE422A03EE102AB8EE433A7A
:100AC00081EE001A82EE002A83EE003A06311229E6
:100AD00000ED021A00ED012A80ED003A00F1580005
:100AE000DED1217D102076E0F12825D0022874D1B6
:100AF000A078012871D1022001F0B2FD40F250240B
:100B0000C2F2000404F1580204F1B00301202146AE
:100B100000F092F8022001F0A3FD04F5847104F5C1
:100B2000B07204F5DC73022005B0BDE8F04000F0BF
:100B300083B8217D14205AE0023400250DF102060D
:100B4000601903F0C0FC70530235082DF8D1BDF8D0
:100B50000200BDF80410BDF80620BDF8083005F00D
:100B600017FE3AE0A51C00260DF10207A81903F0B4
:100B7000AAFCB8530236122EF8D19FED1F0A40F29C
:100B80005022381D0021C2F2000200BF30F8043CA0
:100B900001EE103A30F8023CB8EE411A02EE103A7B
:100BA00030F8063BB8EE422A03EE103AB8EE433A6C
:100BB00081EE001A82EE002A83EE003A5318583173
:100BC000B1F5847F83ED471A83ED482A83ED493AD6
:100BD000DCD1217D112000F011F805B0F0BD217DA0
:100BE000122004E0217D132001E0217D152005B0B5
:100BF000BDE8F04000F002B800007A4480B58EB045
:100C00004AF6AA22C0F2EF22CDF806208DF80A009B
:100C10008DF80B10AA2001210DF10602535C013161
:100C200006291844FAD18DF80C000DF106000721B1
:100C300003F0F8FC0EB080BDA0F1010CBCF1050F73
:100C400088BF704780B58EB091ED050A9FED402AB0
:100C50000F3091ED061A20EE020A8DF808001220DE
:100C6000BDEEC00A8DF8090091ED073A10EE100AAA
:100C700021EE020A40BABDEEC00AADF80A0010EE3D
:100C8000100A23EE020A40BABDEEC00AADF80C000D
:100C900010EE100A92ED050A92ED061A20EE020AF5
:100CA00040BABDEEC00AADF80E0092ED073A10EE64
:100CB000100A21EE020A40BABDEEC00AADF81000DB
:100CC00010EE100A23EE020A40BABDEEC00AADF8DB
:100CD000120010EE100A93ED050A93ED061A20EEAD
:100CE000020A40BABDEEC00AADF8140093ED073A0F
:100CF00010EE100A21EE020A40BABDEEC00AADF8AD
:100D0000160010EE100A23EE020A40BABDEEC00A29
:100D1000ADF8180010EE100A40BA4AF6AA2CADF849
:100D20001A0000200DF106010022ADF806C000BF38
:100D30000B5C013016281A44FAD10DF10600172178
:100D40008DF81C2003F06EFC0EB0BDE880407047AB
:100D500000007A4470B540F2B400C2F200003021C5
:100D6000FFF7A9FA03F0F4FD03F071FC00F0DCFBDF
:100D700040F2581540F260060024C2F20005C2F2AB
:100D8000000600BF28194FF4FA71502200F0C8FE87
:100D900030194FF4FA710F2200F0C2FE1C34542CAB
:100DA000F0D170BD000000002DE9F04F81B02DEDB5
:100DB000108B88B040F21807C2F20007387802287A
:100DC00000F02981012800F02881002840F04183AB
:100DD00040F21060C2F20000D0E9000140F22002AF
:100DE000C2F20002C2E9000103F01EFF03F00DFD94
:100DF00040F2EC10C2F200009FED930A9FED931AAF
:100E00000630002105AF02AC30F9022B30F9083C66
:100E100003EE102A02EE103AB8EEC22A82EE012A40
:100E2000B8EEC33A23EE003A7A1882ED003A62181F
:100E300004310C2982ED002AE6D19FED850B40F2AA
:100E4000DE1940F2581640F260074FF00008C2F277
:100E50000009C2F20006C2F2000755EC10AB00BF59
:100E600004EB080090ED000A304600F061FE40F20D
:100E7000B400C2F2000000EB080B10EE100AFFF7FE
:100E800053FC52462B46FFF7E4FAFFF760FC05A936
:100E9000414491ED000ACBF80C00384600F048FEC2
:100EA00039F9020B8BED000A00EE100A40F2B40093
:100EB00008F10408B8EEC00AC2F200001C36B8F10E
:100EC0000C0F07F11C078BED060AC9D1D0ED068A7D
:100ED000D0ED079A90ED009A90ED01AA90ED02BA3C
:100EE00090ED03CA90ED04DA90ED05EAD0ED08AA82
:100EF00040F2080028EEA80A29EEA91AC2F2000062
:100F000030EE010A2AEEAA1A016830EE010A9FEDBE
:100F1000521A4A1ECDE900A50260B2EE04FA002979
:100F2000B4EE410A40F6D80440F6DC0640F6E00391
:100F300040F6E40540F6E80C40F6EC0240F6F00A14
:100F400040F6F40140F6F800B7EE008A08BFB0EEB4
:100F500048FAF1EE10FAC2F20004C2F20006C2F240
:100F60000003C2F20005C2F2000CC2F20002C2F29B
:100F7000000AC2F20001C2F2000071DDB1EEC01A37
:100F8000B4EE411AF1EE10FA80F18F8288EE010A78
:100F900094ED003A96ED004A93ED005A28EE801A3F
:100FA00029EE802A2AEE800A23EE013A24EE024A34
:100FB00033EE043A20EE054A33EE043A95ED004A4A
:100FC0009CED005A21EE041A92ED004A22EE052A09
:100FD00031EE021A20EE040A71EE008A23EE030AB3
:100FE00028EEA81A30EE011AB1EEC10AB4EE400A9A
:100FF000F1EE10FA80F16E829AED001A91ED002A5E
:1010000090ED003A28EEC00A21EE001A22EE002AE6
:1010100020EE030A2AE0002013E040F2106040F2C4
:101020002002C2F20000C2F20002D0E90001D2E9BF
:101030000023801A9941023871F10000C0F0098242
:101040000220387005E200BF000080396F12834132
:10105000916B50A246DF913F0AD7233C000000006D
:101060001FED020AB0EE402AB0EE401A40F2180519
:101070002FEE011A2FEE022A2FEE000AB5EE409A4B
:10108000C2F200057CEE018A3DEE02FAF1EE10FAA2
:101090007EEE009A0AD1B5EE40AAF1EE10FA05D123
:1010A000B5EE40BAF1EE10FA00F0978029EE090A89
:1010B0002AEE0A1A30EE010A2BEE0B1A30EE011A54
:1010C000B1EEC10A2CEE0C2A2DEE0D3A32EE032AB7
:1010D0002EEE0E3AB3469846E1462E46154632EEBF
:1010E00003CAB4EE400AF1EE10FA80F1D58188EE21
:1010F000000A90ED003A91ED004A9AED007A04461C
:101100001CEE100A0F4629EE001A2AEE002A2BEEDA
:10111000000A23EE025A20EE046A20EE070A23EEAC
:10112000013A30EE43AA21EE040A22EE071A35EE08
:10113000469A30EE41BAFFF7F7FA9FEDEF0B53EC0A
:10114000102BFFF79DFA98BB9FEDF30A40F6C00005
:10115000C2F200009FEDF12A29EE001A90ED003A4C
:1011600040F6C40121EE021AC2F2000131EE031A68
:101170002AEE003A91ED004A40F6C80223EE023A08
:10118000C2F2000233EE043A2BEE000A92ED004A5E
:1011900020EE020A30EE040A78EE818A3FEE03FA6E
:1011A00079EE809A80ED001A81ED003A82ED000A16
:1011B0009FEDDB0A2A4629EE001A71EE288A2AEEF4
:1011C000001A2BEE000ACC46434631EE0FFA70EEC1
:1011D000299A2046394635465E4640F6CC0740F609
:1011E000D0049FEDD00AC2F20007C2F2000440F61C
:1011F000D40940F20C0897ED004A94ED005AC2F26F
:10120000000928EE801A2FEE002AC2F20008D9ED5C
:10121000000A29EE800A98ED003A24EE416A22EE97
:10122000057A36EE476A20EE207A36EE476A23EEDC
:10123000017A60EE051A37EE217A62EE201A37EE57
:10124000617A62EE031A60EE042A20EE030A22EEAF
:10125000042A71EEE21A61EE202A30EE020A21EE33
:10126000051A33EE066A34EE077A71EEA21A30EEF2
:10127000410A75EE211A30EE802A26EE060A27EE84
:10128000071A30EE010A21EEA11A31EE000A22EE11
:10129000021A31EE001AB1EEC10A88ED006A87ED3C
:1012A000007AC4ED001A89ED002AB4EE400AF1EE8E
:1012B00010FA80F1D48088EE000A94ED003A98ED9F
:1012C000001A97ED002A99ED004A40F6D80BC2F2B9
:1012D000000B20EE033A21EE001A20EE022A20EE47
:1012E000040A23EE035A20EE006A35EE055A78EE22
:1012F000452A36EE066A89ED000A22EE037A62EE8E
:10130000000A63EE001A72EEC62A21EE400ACBED07
:10131000002A77EE002A72EEA22AC6ED002A37EEE6
:10132000400A40F6E40622EE024A30EE000AC2F21B
:10133000000686ED000A34EE040A38EE404A34EE28
:10134000460A8CED000A21EE420A88ED001A84ED6F
:10135000003A21EE433A30EE211A31EE011A70EED6
:10136000C32A82ED001A33EE201A31EEC00A72EE63
:10137000A22A31EE011A30EE000A74EE450A87ED1A
:10138000002AC3ED002A8AED001A81ED000AC0EDA3
:10139000000A03F0C1FD10EE100AFFF7C5F9009F27
:1013A000019C3A462346FFF7C6F8FFF7D0F99AEDBD
:1013B000000A40F2B40AC2F2000AB1EE400ACAF8CA
:1013C000280003F055FD10EE100AFFF7ADF99FED70
:1013D0004C0B02460B4651EC100BFFF734F83A4623
:1013E0002346FFF7A8F8FFF7B2F996ED000ADBED08
:1013F000000ACAF8240003F08FFD10EE100AFFF770
:1014000093F93A462346FFF796F8FFF7A0F9CAF892
:101410002C00DAE90940FFF787F99FED3B0B53EC0D
:10142000102BFEF76FFFFFF792F9CAF8280020464D
:10143000FFF77AF99FED360B53EC102BFEF762FFA6
:10144000FFF785F9CAF8240000F0DAF828780130AF
:10145000287008B0BDEC108B01B0BDE8F08FB0EE85
:10146000410A6546B34656469A4606F065F8AC46CC
:1014700040F6EC0240F2180540F6F40140F6F800A0
:101480005346B2465E46C2F20002C2F20005C2F204
:101490000001C2F200000EE7B0EE410A04460F461A
:1014A00006F04AF83946204621E681460F46904626
:1014B0006646D3469A4606F03FF8B44640F6DC0648
:1014C0005346DA46C2F20006424639464846B0EE76
:1014D000401A5BE5B0EE410A80460D461746644669
:1014E000994606F029F84B46A4463A462946404616
:1014F00082E500BF00BF00BF04C947E65C31BF3FC3
:1015000044174154FB21F93F3333333333330B401A
:10151000B81E85EB51B806C00AD7A33B6F12033B38
:101520009A99193F6F12833A2DE9F04184B040F641
:101530001407C4F20207386820F4807038600A206B
:1015400001F08EF838684FF47A7440F48070386097
:10155000D020ADF80A000020ADF8080038680DF181
:101560000A0120F48070386040F24070C2F200003E
:1015700002AA0223009401F017FF386840F480703B
:1015800038609DF80900582834D140F2E401C2F2D5
:1015900000010820182200F05BF947F27470ADF8E2
:1015A0000E00386840F2407820F48070C2F20008E3
:1015B0000DF10E0503AE386040462946324602233F
:1015C000009401F0F1FE3868294640F480703860DC
:1015D00041F27500ADF80E003868324620F4807094
:1015E000386040460223009401F0DEFE386840F483
:1015F0008070386004B0BDE8F08100000000000099
:101600002DE9F04F81B02DED028B82B00DF102017A
:101610007720062200F01CF99DF806109DF80500C1
:1016200040F2E40809019DF80720C2F2000841EAEF
:10163000003141EA121CB8F80020B8F90450C2EB9E
:10164000111149434FEADC03B8F90260090BA3EB1F
:10165000420369437343891301EBE322B8F90A405B
:10166000A2F5FA3B8BFB0B5EA5FB0467E31705FBBA
:101670000373B8F908000EFB0433340A02EB820648
:101680008036361200EE106A9FED6D1A80FB0B0952
:1016900044EA0364B8F80670B8EE400A14EB00346C
:1016A00080EE010AA4FB074A9DF803609DF8024002
:1016B0009DF804104FEA061646EA043444EA11166F
:1016C00008F1180181E844104FEA093141EA10504D
:1016D00040EB232000F5004000FB07A49FED598A52
:1016E000621042EAE47088ED0A0A0028B0EE480A67
:1016F0005FD0B8F91000B8F90E70A5FB00C3C11790
:1017000005FB01318BFB07370EFB0010C6F580117E
:101710004E08DCEBC1714FEA47478641B1EB4340CD
:10172000B8F90C1047EAD33340F6354C66EB0303A7
:10173000A0FB0C05A3EBC10101FB0C51B8F9129001
:10174000E317FEF76EFD420B42EAC142A2FB0237ED
:101750004D13B8F9166002FB0577A3FB06C402FB24
:101760000572F71703FB0743B8F9147002FB063242
:10177000A0FB0754FB1700FB03434FEA5C6401FB2B
:101780000733561644EAC212EF0C47EA4337801873
:101790007141C01941EBD341000A40EA016000EBFE
:1017A000091000EE100A9FED281AB8EE400A20EE4C
:1017B000010A9FED261A80EE010AB5EE400AF1EE0D
:1017C00010FA88ED090A21DD10EE100AFEF7ACFFD1
:1017D0009FED130B53EC102BFEF7ADFE41EC100BFD
:1017E0009FED111B05F078F853EC102B9FED100BBB
:1017F00051EC100BFEF727FE9FED0F0B53EC102B57
:10180000FEF727FEFEF7A3FF08EE100A88ED0B8A0D
:1018100002B0BDEC028B01B0BDE8F08F00BF00BF8D
:10182000CDCCCCCCCC545940A6859916665AC83F2D
:10183000000000000000F03F3D0AD7A358A5E54096
:101840000000C842000000000000803B00007A4415
:10185000F0B581B040F0800040F614078DF8030029
:10186000C4F20207386840F2407620F48070C2F279
:10187000000614460D4638600DF103013046012282
:101880004FF47A7301F0D6FC3046294622464FF4D5
:101890007A7301F02BFC386840F48070386001B036
:1018A000F0BD10B540F21864C2F20004204600F00A
:1018B000EFFB20460A2100F093FB40F2141049F69A
:1018C0009A11C2F20000C4F24911016000210171B5
:1018D00010BD00000000000010B582B040F2106C96
:1018E00040F25801C2F2000CC2F20001DCE9002310
:1018F000D1E90040121B63EB0000323A70F10000A6
:101900007ED3DCE9000240F21864C2F20004C1E9AF
:101910000002204600F0BCFB2046052100F060FBE1
:10192000204600F081FA80051CD540F21860C2F212
:10193000000000F07BFA00EE100AB8EE400A10EE4C
:10194000100AFEF7F1FE9FED300B53EC102BFEF763
:1019500080FD9FED2F0B53EC102BFEF77AFDFEF769
:10196000F6FE019040F21414C2F200049FED2A0A20
:1019700001A8214602F0DBFF94ED000A9FED271A33
:10198000B4EE410AF1EE10FA01DD002037E0B2EECC
:10199000081AB4EE410AF1EE10FA08DA9FED201AA7
:1019A000B4EE410AF1EE10FA01DD012027E0B2EEBB
:1019B000071AB4EE410AF1EE10FA08DA9FED191A8F
:1019C000B4EE410AF1EE10FA01DD022017E0B2EEAA
:1019D000061AB4EE410AF1EE10FA08DA9FED121A77
:1019E000B4EE410AF1EE10FA01DD032007E0B2EE99
:1019F000051AB4EE410AF1EE10FA01DA0420207162
:101A000002B010BD00BF00BF6666666666660A402B
:101A1000000000000000503F9A99993E3333434143
:101A200033333B413333334133332B410000000028
:101A30002DE9F0412DED068BB2EB510F044638D263
:101A400010469846B0EE408A0E46FEF760FE9FEDC7
:101A5000320B53EC102BFEF7FCFC074630460D46CC
:101A6000FEF755FE02460B4638462946FEF763FD53
:101A7000FEF76DFE09EE100AB0EE490A03F020FBF6
:101A8000B0EE40AAB0EE490A03F002FB38EE081AA5
:101A90008AEE011AB8F1010F14D0B8F1000F17D176
:101AA000B7EE002A32EE402AB6EE003A22EE033AB2
:101AB0000EE04FF07E500021C4E90001C4E902119C
:101AC000216121E0B8EE002A20EE022AB7EE003AAA
:101AD000B7EE004AB8EE006A31EE045A20EE060A6C
:101AE00034EE411A83EE053A82EE052A80EE050AAD
:101AF00081EE051A84ED003A84ED012A84ED023A64
:101B000084ED030A84ED041A0020C4E90500BDEC4D
:101B1000068BBDE8F08100BF44174154FB211940FA
:101B20009FED020A0023FFF783BF00BFF304353F98
:101B300090ED001A90ED055A90ED012A90ED034AC0
:101B400021EE001A31EE051A22EE002A21EE044A97
:101B500090ED023A32EE442A90ED044A90ED065A96
:101B600023EE000A21EE043A35EE022A30EE433A23
:101B7000B0EE410A80ED052A80ED063A704700007C
:101B8000FEE740F28860C2F2000000F0B9BB10B579
:101B900040F21C14C2F2000420463821FEF78BFBF1
:101BA00002F096FC40F63800211DC2F200003222FD
:101BB000BDE8104004F036BD70B52DED068B8EB03B
:101BC00040F2106440F22805C2F20004C2F200059F
:101BD000D4E90001D5E90023801A9941023871F156
:101BE000000029D300F090F810B340F2B400C2F224
:101BF000000040F2D85190ED0B8AC2F2000140691A
:101C000091ED069A91ED0CAAFEF78EFD9FED220B49
:101C100053EC102BFEF78FFCFEF799FD01EE900AB6
:101C2000B0EE480AF0EE4A0AB0EE491A04F0CAFDD6
:101C3000D4E90001C5E9000140F21C10C2F2000025
:101C40000178C90721D0051D2ECD049500F124058A
:101C5000066A0191029226CD00F1140E9EE8105002
:101C60000393036BCDE90861818ECDE9054C0C939C
:101C7000CDE90A25CDF81CE0ADF83410017801F06B
:101C8000FE01017001A8FEF7D7FE0EB0BDEC068B79
:101C900070BD00BF00BF00BF916B50A246DF913FF7
:101CA0007047000072B600BFFEE740F25410C2F267
:101CB000000000210170704780B540F2106C40F2C6
:101CC000300EC2F2000CC2F2000EDCE90023DEE9A5
:101CD000000159405040084308BF80BDDCE90001C5
:101CE000CEE9000140F21410C2F200000079012197
:101CF000042808BF0621032840F25410C2F2000055
:101D000008BF0521017080BD40F6FC00C2F2000052
:101D10000078704770B581B00022009290F83C20A6
:101D2000012A01D102217CE0D1F800E00122BEF1BC
:101D30000A0F80F83C200AD31FFA8EF25200066880
:101D400012FA8EF2A2F11E0306F10C0204E00668FC
:101D50000EEB4E0306F110024FF0070C15680CFA5B
:101D600003F4A54315608D68146805FA03F3234353
:101D700013604968062905D801EB8101053906F190
:101D8000340209E00C2901EB810187BF413906F1DA
:101D90002C02233906F130021F2314688B4024EAF9
:101DA000030342F2043C1360C4F2010C1FFA8EF3E9
:101DB000146803FA01F1ACF5417321439E421160AE
:101DC0002CD1BEF1120F06D1DCF8001041F48001D5
:101DD000CCF8001022E02EF0010110291ED1DCF811
:101DE0000010BEF1100F41F40001CCF8001015D125
:101DF00040F20401C2F2000109684DF68362C4F2A8
:101E00001B32A1FB0212910C01EB8101490000BFC2
:101E10000091009911B100990139F9E7002180F88A
:101E20003C10084601B070BD006C70470068C06C83
:101E30007047002848D010B50446006C30B92046E1
:101E400000F09DF80020606484F83C00206CC0061F
:101E50003CD4206C41F202118843023042F204313A
:101E60002064C4F20101086820F4403008600A6868
:101E700094E809101A43D4F810E00A60416801237D
:101E800021F4807141604168C0F6007341EA0E217F
:101E90004160416821F040714160416841EA0C01B4
:101EA0004160816821F400618160E16882681143CA
:101EB0008160A16A8268994222F0706282608268C1
:101EC00006D122F040510CE001207047012052E081
:101ED00011438160816821F040518160E16A82682C
:101EE00011438160816821F0020181608168227E56
:101EF00094F8203041EA42018160416883B141F4A5
:101F00000061416041684EF2000221F4604141608D
:101F1000616ACFF6FF72436802EB4131194301E079
:101F200021F400614160C16A40F2000C21F47001AB
:101F3000C162E2696169CFF6F07CC36A0CEB0252C0
:101F40001A43C262826822F40072826094F83020E0
:101F5000836843EA42228260826822F4806282605F
:101F6000826842EA8121816000206064216C012244
:101F700062F301012164002184F83C1010BD80B59A
:101F800086B042F200010068C4F2010100228842DA
:101F90000592049221D143F630000092C4F202006F
:101FA000436943F480734361436903F4807300938E
:101FB000009B0092036843F004030360006800F094
:101FC000040000900098082001900320CDE902024F
:101FD00001F5684001A900F057FB06B080BD000084
:101FE000F0B581B0044600680D468268520544BFD2
:101FF00080685FEAC05024D400F027FC21680A689A
:1020000092070FD406466F1C4FB12DB100F01DFC96
:10201000801B2168A84202D9086880071AD5086881
:102020008007F1D56FF012000860206C40F400705A
:102030002064886810F0405F01D1207EA0B10020AC
:1020400010E0206C40F020002064002084F83C0068
:10205000012007E0206C40F004002064002084F898
:102060003C00032001B0F0BDC86A10F4700F02D02C
:1020700088684005E3D4206C20F480702064206CD4
:10208000C004DCD4206C40F001002064D7E70000DD
:1020900081B00021009190F83C10012901D102206B
:1020A00076E00122016880F83C208A68D20717D1C7
:1020B0008A684DF6836342F001028A6040F20402AE
:1020C000C2F200021268C4F21B33A2FB03239A0C73
:1020D00002EB42020092009A12B1009A013AF9E72B
:1020E0008B68026CDB0707D142F010010164416C80
:1020F00041F0010141644AE040F201739A4302F564
:10210000807202644A68520504D5026C012363F3AD
:102110000D320264026C00234FF0000CD20444BF65
:10212000426C22F0060342F20002436480F83CC095
:102130006FF02200C4F201020860D2F80403C00666
:1021400003D0914223D190681AE0914217D042F215
:102150000020C4F2010081420DD042F20010C4F20E
:102160000100814213D1D2F80403C00607D002F562
:10217000007081420BD1D2F80403C00607D48868EE
:1021800010F0405F03D1886840F0804088600020F4
:1021900001B07047B0B5C8B1044690F8200010B93E
:1021A000204600F06FF82068016821F0020101600C
:1021B00000F04BFB054600BF20684168890707D542
:1021C00000F043FB401B0B28F6D312E00120B0BD0A
:1021D000016841F00101016000F037FB054600BFD6
:1021E00020684168C9070BD100F02FFB401B0B286A
:1021F000F6D3606A052140F40030606201203EE0C1
:10220000217E0268012922F0800208BF803202602C
:10221000617E0268012922F0400208BF403202605C
:10222000A17E0268012922F0200208BF203202604C
:10223000E17E0268012922F0100218BF103202600C
:10224000217F0268012922F0080208BF08320260DB
:10225000617F0268012922F0040208BF0432026093
:10226000D4E901C2D4E9033561691A432A43114311
:10227000ACF101021143C16100200121606284F8C8
:102280002010B0BD80B586B0016846F60000C4F2EB
:102290000000814231D1002143F630020191C4F2A5
:1022A0000202136900F5CE3043F0806313611369B5
:1022B00003F080630193019B0191136943F0007364
:1022C0001361136903F000730193019B019113687B
:1022D00043F002031360126802F002020192019AB5
:1022E0004FF4405201920222CDE9022103210491D0
:1022F0000921059101A900F0C7F906B080BD0000D1
:10230000F0B581B004460020009040F20400C2F213
:1023100000000268D4E9166048F2B5133768082156
:10232000C1F64E3381403942A2FB03250CD022680E
:1023300013685B0708D5136823F004031360B160CA
:10234000616D41F00101616501218140394208D090
:1023500022685269120604D5B160616D41F0020134
:10236000616504218140394208D0226812689207D1
:1023700004D5B160616D41F00401616510218140B7
:10238000394217D020680268120713D5B16002687D
:102390000168520306D4C90506D4016821F008017A
:1023A000016001E0080301D4216C00E0A16C09B1D7
:1023B00020468847E16D202000FA01F23A423BD0E6
:1023C00020680368DB0637D5B26094F835300268C0
:1023D000052B19D122F016020260426922F0800218
:1023E0004261226C0AB9A26C1AB1026822F008029A
:1023F00002603F208840B060002084F83400012053
:1024000084F83500216D34E0016852030CD4C9050D
:102410000ED4016821F010010160002084F834001E
:10242000012084F8350003E0080301D4616C00E06A
:10243000E16B09B120468847606DE8B1606DC00767
:1024400016D0052084F835002068A90A026822F019
:1024500001020260009A01328A42009202D80268A8
:10246000D207F7D1002084F83400012084F8350029
:10247000E16C09B12046884701B0F0BD2DE9F0417B
:10248000044600F0E2F9002C4DD00546002084F807
:102490003400022084F835002168086820F001002B
:1024A000086000BF0868C00706D000F0CEF9401BE6
:1024B000052865D82168F5E7086848F23F02CFF2A1
:1024C0001002D4E90135024004F10C0E9EE8C1511E
:1024D0001A432A4310433043384340EA0800626AF3
:1024E00040EA0C00042A40EA0E031FD1D4E90A5E38
:1024F000206B4EEA0302104308604869BEF1000FEA
:1025000020F0030040EA050040F0040C14D0B8F5B8
:10251000005F39D0B8F1000F45D1022D46D0012D12
:102520003BD0002D41E00120BDE8F0810B604869FF
:1025300020F0070040EA020C6FF00F004AF6AB22D1
:1025400050FA81F0CAF6AA22A0FB02231A0947F624
:10255000F903C0F600039A5C40F2FF335F284FF0A6
:102560003F00C1F814C021EA030100FA02F088BF5D
:102570000431C4E9161288600023012200201CE007
:1025800003222023032018E0032DD5D80122402365
:102590000120DFE805F0120B1202AEF1C070B0FAB4
:1025A00080F0400904E0032D04D3C5D1CEF30060D0
:1025B0000028C1D0012240230120636584F8352022
:1025C000BDE8F08170B590F834C0BCF1010F45D082
:1025D0004FF0010C80F834C0D0F858E090F835C0C6
:1025E000BCF1010F37D14FF0020C80F835C04FF02D
:1025F000000CC0F854C0D0F800C08468056CC06DF1
:10260000DCF80060402C26F48026CCF80060CCF882
:1026100004300B4604BF13460A463F2101FA00F07E
:10262000CCF80830CCF80C20CEF80800DCF800001C
:1026300040F01600CCF800002DB1DCF8000040F0AE
:102640000800CCF80000DCF8000040F00100CCF8F5
:102650000000002070BD002180F83410022070BD01
:10266000B0B5044600F0F1F8054640F21000C2F2A1
:1026700000000078611C18BF044400BF00F0E5F8BA
:10268000401BA042FAD3B0BD2DE9F04F82B000F15B
:102690003E4241F6004502F1FF77C4F202050822EE
:1026A0004FEAB726A84208BF0722072E38BF4FEAD5
:1026B000B7224FF0010E002600274FF000080092CD
:1026C0000C680EFA08F914EA090F00F0AE80D1F890
:1026D00004A00AF0030BABF10104012C1AD8032269
:1026E000846802FA07FECA6824EA0E04BA4022434C
:1026F00082604268CAF3001522EA090205FA08F569
:102700004FEA480C6FEA0E044FF0010E2A43426074
:102710000CE000BF0322BA40D443BBF1030FBC4618
:1027200004D1BC464FF0030B24E000BFC2688D68A3
:10273000224005FA0CF52A43BBF1020FC26019D101
:102740006FF0030202EA5802024406F01C030F2550
:10275000D2F820E005FA03FA0D692EEA0A0E05FA0E
:1027600003F343EA0E031362D1F804A04FF0010E05
:102770000AF0030B02680BFA0CF322401A435FEADB
:10278000CA03026051D5002243F644030192C4F209
:1027900002031A6843F6004C42F480421A601A6839
:1027A000C4F2010C02F480420192019A28F0030263
:1027B0004FF6084A6244CFF6FF7A52F80A3006F024
:1027C0000C050F24AC40A343009C04FA05F52B43F1
:1027D00042F80A30DCF800204B6842EA0905DC03C5
:1027E00058BF22EA0905CCF80050DCF804209C030D
:1027F00042EA090558BF22EA0905CCF80450DCF882
:102800000820DC0242EA090543F60C4458BF22EADC
:102810000905CCF80850C4F2010422689B0242EA80
:10282000090558BF22EA09052560023708F10108A9
:10283000202F06F104067FF443AF02B0BDE8F08F0D
:10284000002A08BF09048161704740F60010C2F2F7
:1028500000000068704740F2100040F60011C2F21C
:102860000000C2F2000100780A6810440860704756
:1028700080B543F60040C4F20200016841F40071E3
:102880000160016841F480610160016841F4807178
:102890000160032000F085F8002000F004F800F04B
:1028A0002AF8002080BDB0B540F21002C2F200024A
:1028B00040F204011278C2F200014FF47A73096801
:1028C000B3FBF2F20446B1FBF2F1084600F059FE08
:1028D0000F2C4FF001050CD858B94FF0FF302146AE
:1028E0000022002500F032F840F21400C2F200008D
:1028F00004602846B0BD82B0002043F6400101903C
:10290000C4F202014A6842F480424A604A6802F412
:1029100080420192019A0090086840F0805008605F
:10292000086800F080500090009802B070470028BE
:102930000BD400F01F01012202FA01F14EF2001245
:102940004009CEF2000242F82010704710B54EF652
:102950000C5CCEF2000CDCF80030C3F3022E8EF0DB
:102960000704042C28BF0424BEF103034FF0FF3EEC
:102970000EFA04F438BF0023A14399400EFA03F382
:102980009A4300F00F03043B1143634409010C33E5
:1029900000F16042B0F1FF3FC8BF02F56443197017
:1029A00010BD4EF60C51CEF200010A684FF6FF033F
:1029B0001A4060F30A2242F0806040F0FD70086027
:1029C000704700002DE9F041002878D043F6000858
:1029D000C4F202080446D8F800040D4600F00700CF
:1029E000884207D288F80054D8F8000400F00700A5
:1029F000A84264D12068810717D5410705D5D8F8CA
:102A0000081041F4E051C8F80810010705D5D8F8BE
:102A1000081041F46041C8F80810D8F80810A268FE
:102A200021F0F0011143C8F80810C0073FD1D8F8D1
:102A3000000400F00700A84207D988F80054D8F82D
:102A4000000400F00700A84239D12068410707D5EB
:102A5000D8F80810E26821F4E0511143C8F80810D2
:102A6000000708D5D8F80800216920F4604040EA42
:102A7000C100C8F8080000F078F8D8F8081047F648
:102A80006002C1F30311C0F60002515C40F204027F
:102A900020FA01F140F21400C2F200000068C2F214
:102AA00000021160FFF7FFFE0020BDE8F0816068C2
:102AB000811E022906D2D8F80010890108D401200D
:102AC000BDE8F08101281FD1D8F800108903F6D5A0
:102AD000D8F8081021F003010843C8F80800FFF7F0
:102AE000B4FE064641F28837D8F80800616800F065
:102AF0000C00B0EB810F9AD0FFF7A7FE801BB84205
:102B0000F2D90320BDE8F081D8F800108907D6D5A6
:102B1000DEE740F20400C2F200000068704740F2B5
:102B2000040043F60801C2F20000C4F2020100688A
:102B3000096847F67002C1F38221C0F60002515CB9
:102B4000C840704740F2040043F60801C2F200009A
:102B5000C4F202010068096847F67002C1F342310D
:102B6000C0F60002515CC840704710B543F604043B
:102B7000C4F20204606800F00C00082842F2004031
:102B8000C0F2F40018BF10BD21682268236801F06C
:102B90003F02C3F38811A1FB00010023FDF710FBE6
:102BA00021680222C1F3014102EB4101B0FBF1F0C7
:102BB00010BD00002DE9F04182B0002867D0044626
:102BC000007843F60006C007C4F202060BD0B068D6
:102BD00000F00C00042840F098803068800302D593
:102BE0006068002853D0207880071AD5B06810F0AC
:102BF0000C0F09D0B06800F00C00082840F09F804E
:102C00007068400200F19B803068800702D5E06860
:102C100001283CD13068216920F0F80040EAC10069
:102C200030602078000734D42078400747D4A56965
:102C30005DB3B06800F00C00082840F0B380012DAF
:102C400025D07068E16900F480028A421FD1216AB0
:102C500000F03F028A421AD147F6C071626A014011
:102C6000B1EB821F13D1A26A0023CFF6FF7303EBEF
:102C7000C23200F440316FF30F02914207D1E16A92
:102C800000F07060B0EB016F01D10020F0E0012096
:102C9000EEE06069002840F20000C4F2472071D0E5
:102CA0000121C0F8801EFFF7D0FD0546706F800738
:102CB000BAD4FFF7CAFD401B0228F7D9D7E0306C21
:102CC00010F080580AD100200190306C40F0805004
:102CD0003064306C00F080500190019847F200079A
:102CE000C4F200073868C0053ED4386840F48070EC
:102CF0003860FFF7AAFD05463868C00534D4FFF7F1
:102D0000A4FD401B0228F7D9B1E0B06800F00C0028
:102D1000082803D1706840023FF55FAF6068B0F5E6
:102D2000803F07D0B0F5A02F40F08B80306840F492
:102D300080203060306840F4803030608BE0E068A4
:102D4000002851D00020C4F2472001210160FFF784
:102D50007CFD0546306880073FF55CAFFFF775FDE9
:102D6000401B0228F6D982E0A068012805D005287A
:102D70004ED1306F40F004003067306F40F00100FA
:102D800030674FE00021C0F8801EFFF75EFD05466A
:102D9000706F80077FF548AFFFF757FD401B022893
:102DA000F6D964E00027C4F2472700203866FFF711
:102DB0004CFD022D05460BD1306880015BD5FFF735
:102DC00044FD401B02284FF00300F5D950E000BF3E
:102DD000306880017FF559AFFFF737FD401B0228AF
:102DE0004FF00300F4D943E00020C4F24720002153
:102DF0000160FFF72AFD0546306880077FF511AFB7
:102E0000FFF723FD401B02284FF00300F4D92FE009
:102E1000316F002821F001013167316F21F0040189
:102E200031674BD0FFF711FD054641F2883700BFEF
:102E3000306F800753D4FFF708FD401BB842F7D925
:102E400015E03168002821F480313160316821F4C7
:102E5000802131604CD0FFF7F8FC054630688003D4
:102E60003FF5C1AEFFF7F1FC401B6428F6D9032003
:102E700002B0BDE8F08104F11C052FCD084300210C
:102E8000CFF6FF7140EA821001EBC3316FF30F01FF
:102E900040EA05600843706001203866FFF7D5FC02
:102EA000044600BF306880013FF5EFAEFFF7CDFC70
:102EB000001B02284FF00300F4D9D9E7FFF7C5FC47
:102EC000054641F2883700BF306F800707D5FFF70E
:102ED000BCFC401BB8424FF00300F5D9C8E7B8F17D
:102EE000000F7FF4A4AE306C20F0805030649EE67A
:102EF000FFF7ABFC054600BF306880037FF573AE7B
:102F0000FFF7A3FC401B64284FF00300F4D9AFE7A0
:102F100070B550B1D0F824C00446BCF1000F06D003
:102F20000021216104F1140107E0012550E06168EE
:102F3000B1F5827F03D004F11C0100220A60002554
:102F4000A56294F851104FF0000E41B9204684F864
:102F5000505000F03FF8D4E909C101F4005E0222AC
:102F600084F85120D4E90023D4E90201166803F45F
:102F7000827326F04006166000F40440184423696A
:102F800001F40061084403F002016369084403F09E
:102F90000101A369E669084403F40071084406F0DE
:102FA0003801266A084406F08001084340EA0E0012
:102FB0001060042000EA13400CF010010844506037
:102FC000D06920F40060D0610120656584F851006B
:102FD000284670BD10B586B0044601A81421FDF73F
:102FE0006AF9206843F60001C4F2000188422BD040
:102FF00043F60041C4F20001884248D043F2000188
:10300000C4F2010188426ED1002043F630010090E5
:10301000C4F202014A6942F480524A614A6902F4E8
:1030200080520092009A0090086840F00100086009
:103030000868052100F0010000900098E020019050
:103040000020C4F2020044E0002043F6300100906A
:10305000C4F202010A6942F480420A610A6902F478
:1030600080420092009A0090086840F002000860D8
:103070000868052100F00200009000984FF44440D9
:1030800001900020C4F2020000F5806021E00020E1
:1030900043F630010090C4F202010A6942F4004292
:1030A0000A610A6902F400420092009A00900868DE
:1030B00040F0040008600868062100F00400009059
:1030C00000984FF4E05001900020C4F2020000F597
:1030D000006002220292002203920322CDE9042121
:1030E00001A9FFF7D1FA06B010BD00002DE9F043A9
:1030F00081B0044640681D461746B0F5827F0E46F3
:1031000002D1A068002857D094F85000012801D1BE
:10311000022089E04FF0010984F85090FFF795FBF9
:1031200094F85110012945D18046002E4FF001003E
:1031300075D0002F73D00420002184F85100616500
:10314000A663A787E7872163A186E186A268206836
:10315000B2F5004F2164616407D1016821F040019C
:103160000160016821F4804101600168490603D4CF
:10317000016841F040010160E268E18F3AB3002943
:1031800041D06E1C8168C90708D1FFF75EFB6EB1A4
:10319000A0EB0800A84209D349E000BFC068A16BBA
:1031A00021F8020BA163E08F0138E087E08F50B374
:1031B0002068E7E7022032E0042084F8510020462E
:1031C000314632463B46009500F0EEF82CE0D1B196
:1031D0006E1C00BF8168C90708D1FFF736FB76B1C6
:1031E000A0EB0800A8420AD321E000BF007BA16B3E
:1031F0000870A06B0130A063E08F0138E087E08F9A
:1032000008B12068E6E720462946424602F0DAFA8D
:1032100008B120206065606D002818BF01200021E2
:1032200084F8519084F8501001B0BDE8F083032079
:10323000F5E700002DE9F04381B0044690F8500016
:10324000012801D10220ACE04FF001091D461646CD
:103250000F4684F85090FFF7F8FA94F851100129BE
:103260005CD18046002F4FF0010000F09580002EC9
:1032700000F092800320002184F8510061652763EB
:10328000A686E686A163A187E187A0682164B0F5E0
:10329000004F2068616407D1016821F0400101609E
:1032A000016841F4804101600168490603D4016866
:1032B00041F0400101606168731EE268B1FA81F17A
:1032C000B3FA83F349095B09B2F5006F41EA0301E0
:1032D00026D131B137F8021BC1602763E18E013975
:1032E000E186E18E00293FD06E1C00BF816889070E
:1032F00008D4FFF7AAFA6EB1A0EB0800A84209D3E0
:1033000049E000BF216B31F8022BC2602163E08EDF
:103310000138E086E08E38B32068E7E702203BE022
:1033200039B139780173206B01302063E08E0138A8
:10333000E086E08EC0B16E1C20688168890707D4E2
:10334000FFF783FA6EB1A0EB0800A84209D322E090
:10335000216B09780173206B01302063E08E013806
:10336000E086E08E0028E7D120462946424602F05A
:1033700053FA08B120206065A06838B90020009099
:103380002068C1680091806800900098606D0028F6
:1033900018BF012000E00320002184F8519084F838
:1033A000501001B0BDE8F0832DE9F04381B0044630
:1033B00090F85000012801D10220C8E001201E46EB
:1033C00015460F4684F85000FFF73FFA94F8511065
:1033D000814601296BD1002F4FF0010000F0B18030
:1033E000002D00F0AE80002E00F0AB8094F851006C
:1033F000002104281CBF052084F851006165A563E5
:10340000E687A6872763E6862068A686216461642E
:103410000168490603D4016841F040010160616818
:10342000731EE268B1FA81F1B3FA83F3DDF820800C
:1034300049095B09B2F5006F41EA030146D131B198
:1034400037F8021BC1602763E08E0138E086012651
:1034500008F10105E08E10B9E08F00287AD02068CD
:10346000816889070CD5E18E012E09D141B1216B0C
:10347000002631F8022BC2602163E18E0139E1861A
:103480008168C9070AD0E18F41B1C068A16B0126EC
:1034900021F8020BA163E08F0138E087FFF7D5F92F
:1034A000002DD7D0A0EB09004045D3D348E0606899
:1034B000B0F5827F08D104294FF0020041D1A16804
:1034C00000293FF488AF3CE002203AE039B1397876
:1034D0000173206B01302063E08E0138E086012605
:1034E00008F10105E08E08B9E08F98B32068816883
:1034F00089070ED5E18E012E0BD151B1216B00262B
:1035000009780173216B206801312163E18E013953
:10351000E1868168C9070BD0E18F49B1C068A16B12
:1035200001260870A06B0130A063E08F0138E087AE
:10353000FFF78BF9002DD5D0A0EB09004045D1D382
:103540000320012184F85110002184F8501001B0AB
:10355000BDE8F083204641464A4602F05DF918B1C5
:10356000202060650120ECE7A06800284FF00000F3
:10357000E7D100902168CA6800928968009100999B
:10358000DFE7411E0020B0EB116F1CBF0120704728
:103590004EF21002CEF2000251604EF62351CEF2EE
:1035A0000001F0230B700721906011607047B0B5E7
:1035B00090F83C20012A01D102211CE001F108050C
:1035C0003CCDD1E900CE23F47C5322F470521A434F
:1035D0002EF4F0431A432CF4E0431A4324F4C0437E
:1035E0001A432A43C96922F480420368114359648B
:1035F000002180F83C100846B0BD10B590F83C2082
:10360000012A4FF002024DD080F83D200268D2F826
:1036100004E0D2F808C00C682EF07003234341F296
:10362000FF74C4F20004A24253600BDC40F2FF734B
:10363000C4F200039A4213DCB2F1804F27D040F26B
:10364000004315E040F2FF33C4F201039A4212DC5A
:1036500041F60003C4F200039A4218D0002312E09E
:1036600040F60003C4F200039A4210D040F6004333
:10367000C4F2000309E044F20003C4F201039A42D9
:1036800005D040F20043C4F201039A4204D14968D4
:103690002CF08003194391600121002280F83D1035
:1036A00080F83C20104610BD40B310B5044690F899
:1036B0003D0028B9002084F83C00204600F020F8A6
:1036C000022084F83D002068211D02F09BFD0120AE
:1036D00084F8460084F83E0084F83F0084F84000F7
:1036E00084F8410084F8420084F8430084F84400E0
:1036F00084F8450084F83D00002010BD012070478B
:1037000081B000680021C4F2010188420ED100207E
:10371000009043F64400C4F20200016841F0010148
:103720000160006800F001000090009801B070474F
:1037300090F83D1001291CBF01207047022180F83C
:103740003D10006841F2FF71C4F2000188420BDCB9
:1037500040F2FF71C4F20001884213DCB0F1804FE7
:1037600027D040F2004115E040F2FF31C4F20101E0
:10377000884212DC41F60001C4F20001884218D0F0
:10378000002112E040F60001C4F20001884210D08E
:1037900040F60041C4F2000109E044F20001C4F225
:1037A0000101884205D040F20041C4F20101884283
:1037B00004D1816801F00701062903D0016841F0B6
:1037C000010101600020704780B590F83C20012A7B
:1037D0004FF0020200F0BD8080F83D20D0F800C01C
:1037E0004FF67772DCF8083023EA0202CCF80820A2
:1037F0000B683F2B1CDD5F2B20DD602B4FD0B3F51A
:10380000005F6CD0702B40F09E80D1E901E3C96865
:10381000DCF8082043EA0E0322F47F4243EA012148
:103820001143CCF80810DCF8081041F0770188E06B
:103830001F2B28DC5BB3102B29D084E0402B61D0F8
:10384000502B40F08080D1F804E0C968DCF82030CB
:10385000DCF8202022F00102CCF82020DCF818202F
:1038600022F0F00242EA011123F00A0242EA0E02BB
:10387000CCF81810CCF82020DCF8081041F05701E3
:1038800021F020015DE0202B01D0302B5BD1DCF852
:10389000081021F07001194341F0070151E0D1F8FF
:1038A00004E0C968DCF8203023F01003CCF82030A5
:1038B000DCF81830DCF8202023F4704322F0A0025A
:1038C00043EA013142EA0E12CCF81810CCF820205D
:1038D000DCF8081041F0670121F0100131E0D1E976
:1038E00001E3C968DCF8082043EA0E0322F47F42B2
:1038F00043EA01211143CCF80810DCF8081041F428
:1039000080411EE0D1F804E0C968DCF82030DCF822
:10391000202022F00102CCF82020DCF8182022F030
:10392000F00242EA011123F00A0242EA0E02CCF848
:103930001810CCF82020DCF8081041F0470121F0E5
:103940003001CCF808100121002280F83D1080F8E9
:103950003C20104680BD80B586B001680020C4F2CE
:10396000010081421CD1002143F630020191C4F2D2
:103970000202136800F5803043F0010313601268FF
:1039800002F001020192019A4FF470620192022248
:10399000CDE9022104910121059101A9FEF774FEF0
:1039A00006B080BD41B108290ED0042914BF00F132
:1039B000410200F13F0209E090F83E20012A12D1B5
:1039C000022280F83E2012E000F140021278012A23
:1039D00009D10222082908D0042914BF80F8412007
:1039E00080F83F2003E00120704780F84020006805
:1039F00001F01F010122036A02FA01F123EA010228
:103A00000262026A114341F2FF72C4F20002904264
:103A100001620BDC40F2FF71C4F20001884213DC4A
:103A2000B0F1804F35D040F2004115E040F2FF3157
:103A3000C4F20101884214DC41F60001C4F2000125
:103A4000884226D0002114E040F60001C4F20001B3
:103A500088421ED040F60041C4F20001884218D0CE
:103A60001CE044F20001C4F20101884211D040F28E
:103A70000041C4F20101884210D1416C40F2004380
:103A800040F48062C4F2010341F400419A4241646F
:103A900004D1816801F00701062903D0016841F0D3
:103AA000010101600020704710B5026801F01F0E8F
:103AB0004FF0010C146A0CFA0EF324EA03031362AC
:103AC00040F20043D2F820C042F48064C4F2010303
:103AD0009C42C2F820C00DD1136A41F21114234256
:103AE00008D1136A40F24444234203D1536C23F4B7
:103AF00000435364136A41F21114234208D1136A3C
:103B000040F24444234203D1136823F001031360BD
:103B100008290AD004290CD000294FF0010114BF54
:103B200080F8411080F83E1006E0012180F8401036
:103B300002E0012180F83F10002010BDB0B504461E
:103B400090F83C00012804BF0220B0BD4FEAB2004B
:103B50000D460121032884F83C1036D8DFE800F038
:103B6000020A12222068294602F0DAFB206850F887
:103B7000181F0EE02068294602F004FC206850F867
:103B8000181F16E02068294602F031FC206850F822
:103B90001C1F41F008010160016821F0040101606F
:103BA00029690FE02068294602F055FC206850F88A
:103BB0001C1F41F400610160016821F48061016013
:103BC00029690902026811430160002084F83C0061
:103BD000B0BD40B310B5044690F83D0028B90020B0
:103BE00084F83C00204600F020F8022084F83D00D4
:103BF0002068211D02F006FB012084F8460084F8AD
:103C00003E0084F83F0084F8400084F8410084F8C6
:103C1000420084F8430084F8440084F8450084F8A6
:103C20003D00002010BD012070477047704750B321
:103C300010B5044690F83D0028B9002084F83C00F7
:103C4000204600F022F8242084F83D002068C16856
:103C500021F40051C160204602F076FC2068016921
:103C600021F490410161416921F02A014161C1685B
:103C700041F40051C16000202021206484F83D10EF
:103C800084F83E1010BD0120704770B586B0044620
:103C900001A81421FCF70FFB206841F20041C4F297
:103CA0000101884253D044F60041C4F20001884229
:103CB00077D1002643F630050096C4F20205286944
:103CC000022140F400202861286900F400200090BF
:103CD00000980096286840F001002860286800F0ED
:103CE0000100009000980320029101210190CDE98C
:103CF0000310082005900020C4F2020001A9FEF77D
:103D0000C3FC05F5215040F28865C2F200054FF072
:103D10000061402285E847004FF480304FF4806313
:103D2000C5E908062846C5E90436C5E90666FEF772
:103D3000A5FB08B1FDF7B6FF342000210022656322
:103D4000AC63FEF703FE3420FEF7F1FD29E000200E
:103D500043F630010090C4F202014A6942F02002A9
:103D60004A614A6902F020020092009A00900A68B3
:103D700042F004020A60096801F004010091009910
:103D8000C02101910221CDE90210032004900820F6
:103D900005900020C4F2020000F5006001A9FEF7C2
:103DA00073FC06B070BD00002DE9F04381B00546FC
:103DB00090F83E00202809D10E464FF0010031B1A5
:103DC000174622B195F83C00012803D1022001B02A
:103DD000BDE8F083012085F83C004FF00009222067
:103DE0001C46C5F8409085F83E00C5F83090FEF7B7
:103DF0002CFDAF85EF85A9680746B1F5805F07D137
:103E0000286900281CBF30464E46B046064601E0F1
:103E10004FF0000885F83C90E88D18B32846202123
:103E20003A46234602F018FC08BB5EB1A868B0F51C
:103E3000805F0FD008B9286960B12868406800F039
:103E40007F0009E02868002640686FF35F2028F8AB
:103E5000020B03E02868406806F8010BE88D013882
:103E6000E885D9E7202085F83E000020AFE7032051
:103E7000ADE700002DE9F04381B0044690F83D0025
:103E8000202809D10E464FF0010031B1174622B16A
:103E900094F83C00012803D1022001B0BDE8F08372
:103EA000012084F83C004FF0000921201D46C4F891
:103EB000409084F83D00FEF7C8FCA784E784A16821
:103EC0000746B1F5805F07D1206900281CBF304646
:103ED0004E46B046064601E04FF0000884F83C909C
:103EE000E08CC0B1204680213A462B4602F0B4FB5C
:103EF000C0B92EB116F8010B2168486007E000BF79
:103F000038F8020B21686FF35F2048600026E08CD0
:103F10000138E084E4E7204640213A462B4602F08F
:103F20009BFB08B10320B8E7202084F83D00002067
:103F3000B3E770B5044690F83D00202808D14FF053
:103F4000010531B1134622B194F83C00012802D199
:103F50000225284670BD012084F83C000025212060
:103F60002162A384E384256484F83D002668606BA5
:103F700046F2B14246F21D5C46F2435EC0F60002D4
:103F8000C0F6000CC0F6000EC0E91325321DC0E9D2
:103F90000FCEFEF717FB20686FF04001016084F838
:103FA0003C50416941F080014161D2E77047704760
:103FB00000F0FAFEFEE700002DE9F04F9BB043F65B
:103FC000300447F20007C4F20204C4F20007FEF70F
:103FD0004FFC00250DA81421CDE90555CDE9035569
:103FE000FCF769F917952069022640F0805020619E
:103FF000206900F08050179017981795386840F4A2
:1040000080403860386800F480401790179801208D
:1040100001904FF4803002904FF4800008901020FF
:1040200009904FF4A070CDE90A0604200C9001A875
:104030000796FEF7BFFD10B172B600BFFEE70F2076
:10404000CDE90D064FF4A05010904FF48050119020
:104050000DA805210F95FEF7B5FC10B172B600BF93
:10406000FEE7FEF756FD002605960D96206807F53B
:10407000CC3940F080002060206840F2231100F02D
:1040800080000D900D980D962068012240F00400EC
:104090002060206800F004000D900D980D962068B7
:1040A00040F001002060206800F001000D900D98A4
:1040B0000D96206840F002002060206800F00200A9
:1040C0000D900D984846FEF7BBFB07F5C8384046F3
:1040D00008210122FEF7B4FB484610210022FEF71A
:1040E000AFFB07F5CA3528460B210122FEF7A8FBD6
:1040F00040F23310019001200DF1040ACDE90206CF
:104100004FF0030B48465146CDF810B0FEF7BCFA0D
:10411000022002A981E84108082740465146CDF80F
:1041200004B00597FEF7B0FA0120029040465146D0
:1041300001970127CDE9036BFEF7A6FA0B20CDE925
:10414000010728465146CDE9036BFEF79DFA4FF46F
:10415000036001900020C1F21100CDE9020628465B
:104160005146FEF791FA0820C0274FF0020805904B
:10417000484651460197CDE90286CDF810B0FEF7CA
:1041800083FA0720059028465146CDE90178CDE90C
:10419000036BFEF779FA4FF4407001901220029001
:1041A0000120CDE9030B042005902846514647F233
:1041B0000005C4F20005FEF767FA019620680021A9
:1041C00040F4001020602068002200F400100190EC
:1041D00001980F200124FEF7B9FB0F20FEF7A7FB83
:1041E00040F21860012305F53041C2F20000C0F62C
:1041F000007304964FF40032067680F82060C0E920
:104200000A36C46180F8306080E84600C0E9036681
:104210004461FDF70EFE10B172B600BFFEE70D203F
:1042200001A951C140F21860C2F2000001A9FDF7D6
:1042300071FD10B172B600BFFEE743F60009C4F28B
:10424000000940F2606409F54050C2F200041021F8
:10425000C4E9000104F108001621FCF72CF82046FF
:10426000FDF798FF08B172B6FEE740F2E86005F589
:104270004041C2F200004FF4827738260024022227
:10428000C0E9001700F11001C6610A2601234FF4AE
:10429000007AC0E9024481E80C04C0E90844C0E99E
:1042A0000A46FEF735FE10B172B600BFFEE740F2D7
:1042B0004070C2F200004FF00808C0E90097C0E962
:1042C0000244C0E90444C0E906A8C0E90844C0E9C2
:1042D0000A46FEF71DFE10B172B600BFFEE740F2BF
:1042E000987009F58061C2F200004FF482720024D8
:1042F000022301274FF4007680E816000A21C0E966
:104300000343C0E90576C0F81C80C0E90844C0E951
:104310000A41FEF7FDFD10B172B600BFFEE70DAE1B
:1043200030461C211A94CDE91844CDE91444FBF71A
:10433000C2FF01A82021FBF7BEFF40F2F07005F597
:104340001041C2F2000049F640438027532280E822
:104350001600C0E90334C0E90547FFF7A5F910B11D
:1043600072B600BFFEE74FF48050179040F2F07035
:10437000C2F2000017A9FFF727FA10B172B600BF0A
:10438000FEE740F2F070C2F20000FFF722FC08B135
:1043900072B6FEE70020CDE9140040F2F070C2F2E0
:1043A000000014A9FFF729F908B172B6FEE76020F2
:1043B0000D904FF4FA600E9006F108001421FBF7FF
:1043C0007AFF40F2F075C2F200052846314600221D
:1043D000FFF7B4FB08B172B6FEE7286804228169D2
:1043E00021F0080181610DA92846FFF7A7FB08B15C
:1043F00072B6FEE728680822816921F400618161B4
:104400000DA92846FFF79AFB08B172B6FEE72868A7
:104410000C22C16921F00801C1610DA92846FFF7EE
:104420008DFB08B172B6FEE7286801ACC16921F4C2
:104430000061C16120461421FBF73DFF4FF400509D
:1044400006900026284621460896FFF7B0F808B1E6
:1044500072B6FEE740F2F070C2F20000FFF77BFA9E
:1044600040F6380009F5A051C2F200000C244FF4C8
:10447000E13280E84600C0E90366C0E90546C6614E
:10448000FFF7D5FB08B172B6FEE747F20000C4F2B1
:10449000000000F5244140F67C00C2F200004AF220
:1044A00020120023C0F2070280E80E00C0E90333A7
:1044B000C0E90543C361FFF7BAFB08B172B6FEE776
:1044C0001BB0BDE8F08F008800BA000C70470000F8
:1044D00010B51424C4F20204D4F8000820F010002F
:1044E000C4F80008206840F0080020600520FEF7AE
:1044F000B7F814A000F06AF818B314A000F066F83A
:104500000F20FEF7ADF814A000F060F816A000F040
:104510005DF819A000F05AF81BA000F057F81EA093
:1045200000F054F820A000F051F824A000F04EF85C
:10453000206820F0080101202160BDE81040FEF74E
:104540008FB810BD41540D0A0000000041542B5299
:10455000455345540D0A000041542B464C415348E5
:104560003D300D0A0000000041542B414444523DAF
:1045700030302C30300D0A0041542B54504F5745E9
:10458000523D330D0A00000041542B43574D4F4418
:10459000453D300D0A00000041542B544D4F444519
:1045A0003D300D0A0000000041542B574C5241543D
:1045B000453D32332C350D0A0000000041542B5587
:1045C0004152543D372C300D0A000000B0B588B080
:1045D000044668461E21FBF76EFE20460A21FBF7C3
:1045E00087FED0B1001B40F638050130C2F200054D
:1045F00082B2284621466423FFF73CFC6C462846DD
:1046000021461E220523FFF7CFFB05A12046FBF71D
:104610005DFE002818BF012000E0002008B0B0BDFA
:104620004F4B0000B0B540F2AC150C46C2F200058D
:10463000014628462246FBF725FE40F63800C2F226
:10464000000029462246BDE8B040FFF772BC2DE9C4
:10465000F04184B08F2040F21447ADF80A000020EA
:10466000C4F20207ADF8080038684FF47A7420F0FD
:104670000800386040F29870C2F200000DF10A01A3
:1046800002AA02230094FEF78FFE386840F008006B
:1046900038609DF80900492840F0B48048F21F00B6
:1046A000ADF80E00386840F2987820F00800C2F2A9
:1046B00000080DF10E0503AE38604046294632462B
:1046C00002230094FEF770FE386840F0080038605E
:1046D0003220FDF7C5FF1F20ADF80E0038682946CF
:1046E00020F0080038604046324602230094FEF76E
:1046F0005BFE386840F0080038600120FDF7B0FF2D
:104700004AF22070ADF80E003868294620F0080003
:1047100038604046324602230094FEF745FE386872
:1047200040F0080038600120FDF79AFF41F62100B3
:10473000ADF80E003868294620F008003860404681
:10474000324602230094FEF72FFE386840F008003E
:1047500038600120FDF784FF40F22340ADF80E00E1
:104760003868294620F00800386040463246022367
:104770000094FEF719FE386840F008003860012008
:10478000FDF76EFF4FF22440ADF80E003868294661
:1047900020F0080038604046324602230094FEF7BD
:1047A00003FE386840F0080038600120FDF758FF2C
:1047B0002520ADF80E003868294620F00800386042
:1047C0004046324602230094FEF7EEFD386840F082
:1047D000080038600120FDF743FF2620ADF80E00E9
:1047E0003868294620F008003860404632460223E7
:1047F0000094FEF7D9FD386840F0080038600120C9
:10480000FDF72EFF04B0BDE8F08180B584B0002034
:10481000ADF80C000290ADF80400009002A9082049
:1048200000F01AF86946282000F016F8BDF80C10C0
:1048300040F2DE12C2F200029180BDF80010BDF815
:104840000A30BDF80800D180DDF802105B429160AB
:104850005080138004B080BD70B582B040F0C000BD
:1048600040F214468DF80700C4F20206306840F2A8
:10487000987520F00800C2F200050C4630600DF17A
:104880000701284601224FF47A73FEF7D3FC28462D
:10489000214606224FF47A73FEF728FC306840F078
:1048A0000800306002B070BD2DE9F04F83B040F2D7
:1048B0001449C4F202098DF80900D9F80000144621
:1048C00020F00200C9F8000040F240700D46C2F22C
:1048D00000000DF1090101224FF47A734FF47A7A46
:1048E000FEF7A8FCD4B140F240784FF0FF0BC2F2C3
:1048F00000080DF10B070DF10A0600BF40463946CE
:10490000324601238DF80BB0CDF800A0FEF74CFD28
:104910009DF80A00013C05F8010BEFD1D9F8000021
:1049200040F00200C9F8000003B0BDE8F08F90ED40
:10493000001AB7EE002A91ED003A21EE001A32EE8D
:10494000400A20EE030A31EE000A81ED000A7047AA
:104950002DE9F04F83B040F2EC1043F20008C2F2B0
:1049600000000021C4F20108C0E90011C0E90211F1
:10497000D8F8000040F2144720F04000C8F80000CA
:10498000D8F8000048F26B0A20F03800C8F80000A0
:10499000D8F80000C4F2020740F03000C8F8000068
:1049A000D8F8000040F2E86440F04000C8F8000089
:1049B000ADF80AA03868C2F2000420F001000DF141
:1049C0000A0502AE38604FF47A792046294632460D
:1049D0000223CDF80090FEF7E7FC386840F00100B4
:1049E00038603220FDF73CFE4FF45A7BADF80AB038
:1049F0003868294620F001003860204632460223FC
:104A0000CDF80090FEF7D0FC386840F00100386027
:104A10003220FDF725FEADF80AA03868294620F0BF
:104A200001003860204632460223CDF80090FEF7A0
:104A3000BBFC386840F0010038603220FDF710FE02
:104A4000ADF80AB03868294620F0010038602046E9
:104A500032460223CDF80090FEF7A6FC386840F0FD
:104A6000010038603220FDF7FBFD752000F05EF993
:104A7000682840F0BC8040F26B10ADF80A0038683E
:104A800040F2E86420F00100C2F200040DF10A05D2
:104A900002AE38602046294632460223CDF8009007
:104AA000FEF782FC386840F0010038600F20FDF707
:104AB000D7FD41F26A00ADF80A003868294620F0B7
:104AC00001003860204632460223CDF80090FEF700
:104AD0006BFC386840F0010038600F20FDF7C0FD26
:104AE0006C20ADF80A003868294620F001003860D3
:104AF000204632460223CDF80090FEF755FC386878
:104B000040F0010038600F20FDF7AAFD1920ADF834
:104B10000A003868294620F00100386020463246F5
:104B20000223CDF80090FEF73FFC386840F001000A
:104B300038600F20FDF794FD41F61B00ADF80A0028
:104B40003868294620F001003860204632460223AA
:104B5000CDF80090FEF728FC386840F0010038607E
:104B60000F20FDF77DFD41F21C00ADF80A0038680A
:104B7000294620F001003860204632460223CDF855
:104B80000090FEF711FC386840F0010038600F20FB
:104B9000FDF766FD3720ADF80A003868294620F099
:104BA00001003860204632460223CDF80090FEF71F
:104BB000FBFB386840F0010038600F20FDF750FD26
:104BC00040F21A20ADF80A003868294620F00100AA
:104BD0003860204632460223CDF80090FEF7E4FB11
:104BE000386840F0010038600120FDF739FDD8F841
:104BF000000020F04000C8F80000D8F8000020F0C5
:104C00003800C8F80000D8F8000040F01000C8F8DC
:104C10000000D8F8000040F04000C8F8000000F0A4
:104C200003F803B0BDE8F08FF0B587B00026BB20D5
:104C300040F21447ADF818600596CDE903668DF88B
:104C40000B00C4F20207386840F2E86520F001006A
:104C5000C2F2000538600DF10B01284601220A233B
:104C6000FEF7E8FA03AC284621460E220A23FEF797
:104C70003DFA386840F2EC1540F00100C2F2000540
:104C8000386000BFF107A05D26F0010106F10106C2
:104C900029441ABFCA8810430002062EC880F1D1E9
:104CA000BDF81200C0BAFBF721FD9FED1D0B53ECC0
:104CB000102BFBF740FCFBF74AFD00EE100AB3EEA9
:104CC000051A30EE010A8DED010A9FED170A05F174
:104CD0000C0101A8FFF72BFE082000BFC207A0F1BE
:104CE000080293B202EBD332215C12B200F1010050
:104CF00022F001021ABFAB5A194309020E28A95229
:104D0000ECD1E8882989404228812888E98069888F
:104D100040426880298007B0F0BD00BF00BF00BFDF
:104D200052B81E85EBDD7440CDCC4C3E10B582B040
:104D3000002140F0800040F21444ADF80610ADF8B8
:104D400004108DF80600C4F2020420684FF47A7C47
:104D500020F00100206040F2E860C2F200000DF196
:104D6000060101AA0223CDF800C0FEF71DFB206852
:104D700040F0010020609DF8050002B010BD000069
:104D8000FEE780B500F010F840F2F070C2F20000CB
:104D9000FEF7CEFC3420C4F201004FF4FA6101604A
:104DA00041608160C16080BDB0B540F2F074C2F274
:104DB0000004204600210025FEF776FE204604214F
:104DC000FEF772FE20460821FEF76EFE20460C21FB
:104DD000FEF76AFE40F6FC00C2F200000570B0BDAE
:104DE000032888BF7047DFE800F00211070C342069
:104DF000C4F20100016070473420C4F201008160F8
:104E000070473420C4F20100C16070473420C4F2FE
:104E1000010041607047B0B540F6FC05C2F20005E4
:104E2000287810BB342040F2F074C4F201004FF433
:104E3000FA61C2F20004016041608160C1602046F5
:104E40000021FEF7AFFD20460421FEF7ABFD204612
:104E50000821FEF7A7FD20460C21FEF7A3FD40F236
:104E6000DC50FDF7FDFB01202870B0BD0000000004
:104E700080B52DED048BB0EE408AB0EEC09AB7EE4F
:104E8000000A30EE491AB1EEC10AB4EE400AF1EE62
:104E900010FA2DD69FED1C1A9FED1C2A29EE011A3F
:104EA00031EE021A9FED1A2A29EE011A31EE021A8A
:104EB0009FED182A29EE011A31EE021AB5EE408A4A
:104EC000F1EE10FA21EE000A0FDA10EE100AFBF7ED
:104ED0002BFC9FED0B0B02460B4651EC100BFBF726
:104EE000B2FAFBF734FC00EE100ABDEC048B80BD77
:104EF000B0EE410A02F020FBCCE700BF00BF00BFCC
:104F000044174154FB210940306E99BC2716983D47
:104F1000843459BEA40DC93F80B52DED048BB0EE8D
:104F2000E01AB0EEC02AB0EE408AB4EE421AB0EEFB
:104F3000420AF1EE10FAC8BFB0EE410AB5EE400ADF
:104F4000B0EE609AF1EE10FA0BD0B4EE421AB0EE69
:104F5000423AF1EE10FAB8BFB0EE413A83EE000AE1
:104F600001E09FED350A9FED353A9FED354A20EE81
:104F7000033A33EE043A9FED334A20EE033A33EE20
:104F8000043A9FED314A20EE033A33EE043A9FEDA6
:104F90002F4A20EE033A33EE043A9FED2D4A9FED5F
:104FA0002D5A20EE044A34EE054A20EE040AB7EEEC
:104FB000004A30EE040A83EE000AB4EE412AF1EE14
:104FC00010FA0FDD10EE100AFBF7AEFB9FED160B8B
:104FD00002460B4651EC100BFBF735FAFBF7B7FB1B
:104FE00000EE100AB5EE409AF1EE10FA0FDA10EE6C
:104FF000100AFBF799FB9FED0E0B02460B4651EC96
:10500000100BFBF720FAFBF7A2FB00EE100AB5EE3F
:10501000408AB1EE401AF1EE10FAB8BFB0EE410A84
:10502000BDEC048B80BD00BF44174154FB21F93F08
:1050300044174154FB2109400000000039094EBDCE
:10504000E3B59E3E88FA163E45FE7F3FA7DFA834B3
:1050500099FB243F69A2163EB4EE600AF1EE10FA05
:1050600008DBB4EE410AF0EE410AF1EE10FAD8BFC7
:10507000F0EE400AB0EE600A704788423CBF084636
:105080007047904288BF1046704700000000000043
:1050900080B510EE100AFBF747FB9FED070B53ECB2
:1050A000102BFBF72FF9FBF752FB00EE100ABDE8BF
:1050B000804000F005B800BF44174154FB21F93F80
:1050C0002DE9F0412DED048BB0EE408ABDEEC00A13
:1050D00010EE100A2030402802D99FED570A8EE0CA
:1050E00018EE100AFBF720FB9FED470B41EC190B64
:1050F00055EC108B42462B46FBF78CFAC8B99FED56
:10510000440B57EC106B00BF51EC190B32463B4679
:10511000FBF7F8F8FBF71BFB0446FBF705FB4246E1
:105120002B4641EC190BFBF7C6FA0028ECD108EE30
:10513000104A9FED390B51EC190B55EC108B424680
:105140002B46FBF79DFAC0B99FED350B57EC106B62
:1051500051EC190B32463B46FBF7D4F8FBF7F7FA54
:105160000446FBF7E1FA42462B4641EC190BFBF7EC
:105170006CFA0028ECD108EE104A9FED2B0B54EC92
:10518000195B56EC107B284621463A463346FBF71E
:1051900041FA50B19FED260B284656EC107B214674
:1051A0003A463346FBF76CFA68B9384631462A4628
:1051B0002346FBF748F93A463346FBF7A3F8FBF7DB
:1051C000C6FA08EE100A9FED1D2A28EE080A9FED88
:1051D0001C3A20EE022A32EE032A9FED1A3A20EE04
:1051E000022A32EE032A9FED183A28EE001A20EE2A
:1051F000020A30EE030A21EE000A38EE000ABDEC86
:10520000048BBDE8F08100BF44174154FB210940E5
:1052100044174154FB2119C044174154FB2109C0D4
:1052200044174154FB21194044174154FB21F93FD5
:1052300044174154FB21F9BF000000009A7C2E3630
:10524000FAAF4FB93587083CA4AA2ABEFEE7000092
:1052500070B584B040F2FC14C2F200042046512123
:10526000FBF729F840F61406C4F20206306820F075
:10527000200030600120FDF7F3F920200D2100F01F
:10528000C2F8306840F0200030601420FDF7E8F9E3
:10529000306820F0200030600120FDF7E1F947F68A
:1052A000F405C0F600052A202946052200F084F8FE
:1052B0002120012100F0A7F82220012100F0A3F80D
:1052C00025200C2100F09FF83120202100F09BF8D0
:1052D00026200F2100F097F820203F2100F093F8BE
:1052E000306840F0200030600120FDF7B9F90DF181
:1052F00006060A2031460522FFF7D6FA002000BF35
:10530000315C2A5C914203D101300528F8D102E0DA
:1053100080B2052809D1192084F83100322084F8A0
:10532000330084F8350084F8370004B070BD10B540
:1053300082B04FF60770ADF80600002040F214442A
:10534000ADF80400C4F2020420684FF47A7C20F027
:105350000200206040F24070C2F200000DF1060130
:1053600001AA0223CDF800C0FEF71EF8206840F025
:10537000020020609DF8050002B010BD10B5FFF7D7
:10538000D6FF04462720214600F03DF8600658BFAE
:1053900010BD40F2FC14C2F2000404F129016120A6
:1053A0002022FFF781FAE220FF2100F02CF820787C
:1053B00040F00100207010BDF0B581B040F21447FC
:1053C0008DF80300C4F20207386840F2407620F0FE
:1053D0000200C2F2000614460D4638600DF10301CA
:1053E000304601224FF47A73FDF724FF30462946F8
:1053F00022464FF47A73FDF71DFF386840F0020033
:10540000386001B0F0BDB0B582B040F214458DF8FF
:1054100007008DF80610C4F20205286840F24074B7
:1054200020F00200C2F2000428600DF107012046BE
:1054300001224FF47A73FDF7FDFE0DF106012046BF
:1054400001224FF47A73FDF7F5FE286840F0020060
:10545000286002B0B0BDB0B52DED0E8B0D465821C1
:10546000B0EE438AB0EE629AB0EE42AAB0EE61BAF4
:10547000B0EE41CAB0EE60DAB0EE40EA0446FAF7A8
:105480001AFF002084ED05EA84ED06DA84ED07CAF0
:10549000C4E90800A06284ED0BBA84ED0CAA84ED87
:1054A0000D9A84F838509DB1B7EE000A80EE090AD3
:1054B00004F13C00BDEEC00A10EE101ABDEEC80AA1
:1054C00010EE102ABDEC0E8BBDE8B040FCF728BBF7
:1054D000BDEC0E8BB0BD0021C0E90111C0E9031184
:1054E000704710B590ED0D2A90ED0B1AB0EE403AD2
:1054F00080ED010A90ED030A22EE034AB5EE401A50
:10550000044630EE040AF1EE10FA80ED030A09D0E9
:10551000F1EE410AFFF7A0FD94ED013A94ED0D2A5A
:1055200084ED030A94ED021A94F8380033EE411A20
:1055300081EE022A84ED042A68B104F13C00B0EE49
:10554000420AFCF7F5FAB0EE402A94ED013A94EDE8
:10555000030A84ED042A94ED054A94ED065A94ED6D
:10556000076A94ED0C1A24EE034A25EE000A26EE93
:10557000022A84ED090A34EE000AB5EE401AF1EE73
:1055800010FA30EE020A84ED084A84ED0A2A05D0AA
:10559000F1EE410AFFF760FD94ED013A84ED023A25
:1055A00010BD704710B540F2C054C2F2000420464E
:1055B0001821FAF780FE40F2DC506080A080E08085
:1055C0004FF47A702081BDE81040FFF741BE000023
:1055D00070B540F2106040F23801C2F20000C2F231
:1055E0000001D0E90023D1E900656B4072401A4305
:1055F00008BF70BDD0E90002C1E90002FFF7BEFE9E
:1056000040F2FC15C2F20005287840F2C054C107F0
:10561000C2F2000414D1E0680130E060E068B0F547
:10562000FA7F40F28080207800F0FE00207040F287
:10563000DC506080E080A0804FF47A70208172E0BE
:1056400095F8291000F0FE00AA29287061D195F87C
:105650002A00AA285DD100214FF4AA70002200BFC1
:105660006B1893F82B300131C01842F100021D294C
:10567000F6D195F84810C0B281424AD120784FF453
:105680007A7140F001002070B5F831004FF4FA62F1
:1056900000BA000CFFF7F1FC6080B5F833004FF45E
:1056A0007A7100BA000C4FF4FA62FFF7E6FC208131
:1056B000B5F835004FF47A7100BA000C4FF4FA6275
:1056C000FFF7DBFCE080B5F837004FF47A7100BAE1
:1056D000000C4FF4FA62FFF7D0FCA08095F8395027
:1056E000E80718BFFFF760FBA80710D500F029F9FD
:1056F00040F250260025C2F2000600BF7019FFF7E5
:10570000EAFE5835B5F55C7FF8D1FFF784FB002041
:1057100083E7D4E90401013041F10001C4E9040147
:10572000E0680130E06060889FED211AA0F57A7092
:1057300000EE100AA088B8EEC00AA0F57A7002EE5A
:10574000100AE088B8EEC22AA0F57A7003EE100ABB
:105750002089B8EEC33A80EE010A82EE012A83EE78
:10576000013AA0F57A7004EE100AB8EEC44A84EE4D
:10577000014ABEEE001A9FED0F5A30EE010A32EEDA
:10578000012A33EE011A9FED0C3A62EE050A9FEDF5
:105790000B2A21EE031A9FED0A3A24EE022A20EE8C
:1057A000050A72EE031ABDE8704000F0FEBF00BFAC
:1057B00000007A44000070420000C8C30000C843E3
:1057C00000002F4510B5044640689446B0F5827F2E
:1057D0000A460ED1A068B0F5004F02D0B0F5806F38
:1057E0000AD12168B0F5806F0B6823F040030B608D
:1057F00002D12046012101E020468021634600F0CD
:105800003DF800280FBF0020606D40F0200060656B
:1058100018BF032010BD000010B582B040F2040391
:10582000C2F200031B6849F68174C1F25E64A3FBF7
:10583000043C04464FEA5C504FF47A73584301909D
:105840006068B0F5827F0DD113460A46204680215C
:1058500000F014F878B1606D40F02000606503201E
:105860000AE000BF019830B101980138019020682A
:1058700080680006F6D4002002B010BD2DE9F04388
:1058800081B01E4690460D468146FCF7DEFF301A79
:1058900000EB0807FCF7D9FF40F20401C2F2000157
:1058A0000968C1F3CB3179430091D9F800108A68B7
:1058B0002A40AA4216D1064608F1010474B1FCF749
:1058C000C4FF801BB8420FD2009800990028A1F1B4
:1058D00001010091D9F8001008BF074688682840E8
:1058E000A842EBD0002028E0D9E900014268B1F5D8
:1058F000827F22F0E00242600BD1D9F80810B1F5A6
:10590000004F02D0B1F5806F03D1016821F0400152
:105910000160D9F82810B1F5005F07D1016821F4C2
:1059200000510160016841F400510160012089F8D3
:105930005100002089F85000032001B0BDE8F08339
:10594000704740F2B400C2F2000090ED0B0A40F242
:10595000D850C2F2000080ED0B0A80ED0C0A7047AF
:1059600010B52DED0A8B9EB0FFF70BFA40F2D85020
:10597000C2F200003421FAF79EFC47F678019FED51
:10598000480A0020C0F600016A4600BF0B1893EDDC
:10599000011A93ED022A93ED033A81EE001A82EE8A
:1059A000002A83EE003A13180C30782883ED001A91
:1059B00083ED012A83ED023AE8D109A840F2502490
:1059C0009FED388A9FED389A9FED38AA90EC030A34
:1059D000C2F2000404F58470F0EE4A1AB0EE482AD0
:1059E000F0EE492A0021B0EE4A3AFFF734FD0CA848
:1059F00090EC030A04F5B070F0EE4A1AB0EE482AB3
:105A0000F0EE492A0021B0EE4A3AFFF724FD0FA834
:105A100090EC030A04F5DC70F0EE4A1AB0EE482A66
:105A2000F0EE492A0021B0EE4A3AFFF714FD9FED4F
:105A300020AA9FED20BA9FED20CA9DEC030A2046C4
:105A4000F0EE4A1AB0EE4B2AF0EE492A0121B0EEF0
:105A50004C3AFFF700FD03A890EC030A04F158004C
:105A6000F0EE4A1AB0EE4B2AF0EE492A0121B0EED0
:105A70004C3AFFF7F0FC06A890EC030A04F1B000E2
:105A8000F0EE4A1AB0EE482AF0EE492A0121B0EEB3
:105A90004C3A1EB0BDEC0A8BBDE81040FFF7DBBCF2
:105AA00000007A44000096436F12033B00000000A0
:105AB000000016430000FA430000A042000000006E
:105AC0002DE9F04F81B02DED0C8B40F24005C2F274
:105AD00000052878022800F08980012800F08880DD
