:020000040800F2
:10000000A80600209D010008714900086939000810
:100010006D4900084910000855570008000000000D
:10002000000000000000000000000000894F0008F0
:100030004D10000800000000494C0008E94F00087E
:10004000B7010008B7010008B7010008B7010008B0
:10005000B7010008B7010008B7010008B7010008A0
:10006000B7010008B7010008B7010008B701000890
:10007000B7010008B7010008B7010008B701000880
:10008000B7010008B7010008B7010008B701000870
:10009000B7010008B7010008B7010008B701000860
:1000A000B7010008B7010008B7010008B701000850
:1000B000B7010008B7010008B7010008B701000840
:1000C000B7010008B7010008B7010008B701000830
:1000D000B7010008B7010008B7010008B701000820
:1000E000B7010008B7010008B7010008B701000810
:1000F000B7010008B7010008B7010008B701000800
:10010000B7010008B7010008B7010008B7010008EF
:10011000B7010008B7010008B7010008B7010008DF
:10012000B7010008B7010008B7010008B7010008CF
:10013000B70100080000000000000000B70100083F
:10014000B7010008B7010008B7010008B7010008AF
:10015000B7010008B7010008B7010008B70100089F
:10016000B7010008B7010008B7010008B70100088F
:10017000B7010008B70100080000000000000000FF
:10018000B7010008B7010008DFF80CD000F0B2FB9F
:1001900000480047F5570008A80600200648804799
:1001A00006480047FEE7FEE7FEE7FEE7FEE7FEE75C
:1001B000FEE7FEE7FEE7FEE7BD5000088901000804
:1001C0002DE9F05F0546002092469B46884606468C
:1001D000814640241BE0284641464746224600F01F
:1001E0003AFA53465A46C01A914110D3114618465E
:1001F000224600F021FA2D1A67EB01084F462246ED
:100200000120002100F018FA17EB00094E41201ED2
:10021000A4F10104DFDC484631462A464346BDE8E6
:10022000F09F2DE9F0410024061B254671F10006E0
:1002300005DA01240027D0EB070067EB0101161E49
:1002400073F1000605DA0027D2EB0702012567EB00
:100250000303FFF7B5FF86460E4617469C46AC42A1
:1002600004D00025D0EB050E65EB010624B100207B
:10027000D2EB000760EB030C704631463A4663460A
:10028000BDE8F081D2B201E000F8012B491EFBD29B
:1002900070470022F6E710B513460A460446194691
:1002A000FFF7F0FF204610BD2DE9FE4F804681EAA2
:1002B0000300C00F0C46009021F0004123F00045E0
:1002C000B8EB0200A94105D24046214690461C46A3
:1002D0000B46024623F00040104347D0270DC7F3DA
:1002E0000A00C3F30A510290401A019040286BDAC9
:1002F000C3F3130040F4801B0098924620B1002302
:10030000D2EB030A63EB0B0B01985946C0F1400294
:10031000504600F091F906460D4650465946019A5E
:1003200000F0A9F910EB08006141002487EA11529E
:1003300084EAE7731A4340D0009A62B3019A012A13
:100340004FEA075215DC001B61EB02014FF000423F
:1003500002EA0752CDE90042001C41F58011324605
:100360002B4600F0E0F903B0BDE8F08F404621468F
:10037000F9E7001B61EB0201001C41F58013001836
:100380005B412018A2F5001747EB030140EAD57046
:10039000B6196D4111E06D084FEA360645EAC075A1
:1003A0004FEA0752001B61EB0201001C41F580116E
:1003B00049084FEA30000019514132462B4603B03C
:1003C000BDE8F04F00F0A0B90098012240000023E2
:1003D000D0EB020263EBE073009821464FEAE07431
:1003E000B8EB000061EB0401E9E783F000435BE751
:1003F00081F0004158E72DE9FE4F81EA030404F043
:10040000004421F0004100944FF0000B23F0004322
:1004100050EA01045ED052EA03045BD0C3F30A54ED
:10042000C1F30A552C44A4F2F3340194A0FB025406
:10043000C1F3130141F48011C3F3130343F4801398
:1004400001FB024400FB034E840A970A44EA8154EC
:1004500047EA8357A4FB076802958D0A05FB0785C9
:100460004FEA932C04FB0C542705029D4FEA0658D3
:1004700047EA1637B5EB08056EEB070C870E920EB0
:1004800047EA811742EA8312A7FB0201B6EB0B0190
:1004900064EB00042B0D43EA0C335E1844EB1C5054
:1004A000DA465146E7FB0201C5F313044FEA0B336A
:1004B00043EA14534FEA0432019C43EA0603A4F1D1
:1004C0000C040294009CCDE900B400F02CF903B0B8
:1004D000BDE8F08F00200146F9E72DE9F04D81EAF3
:1004E000030404F0004B21F0004514464FF0000ACD
:1004F00023F0004150EA050220D054EA01021DD049
:10050000C5F30A570246C5F31303C1F31300C1F341
:100510000A5640F4801543F48013A7EB0608101B1D
:10052000D64608F2FD3873EB050002D308F1010846
:1005300001E092185B41B8F1000F03DA0020014698
:10054000BDE8F08D00204FF48011064684460EE091
:10055000171B73EB050705D3121B63EB050306435B
:100560004CEA010C49084FEA300092185B4150EA0E
:100570000107EDD152EA030012D082EA040083EAB7
:100580000501084305D0101BAB4106D20122002310
:1005900006E000224FF0004302E06FF0010253102A
:1005A0001AEB06004CEB085110EB0A0041EB0B0173
:1005B000BDE8F04D00F0A8B80EB5C10F80EAE070BC
:1005C0000844CA07002140F233438DE80E000A4672
:1005D0000B4600F0A8F803B000BD00F0004230F078
:1005E00000400AD0C10D01F56071C0F3160042EA67
:1005F0000151C2084007114370470020014670476F
:1006000001F0004330B421F0004150EA010206D06D
:100610000A0DA2F56072C1F31301002A02DC30BC9E
:1006200000207047440F44EAC104C100E01830BC08
:1006300000EBC25000F031B8202A04DB203A00FA67
:1006400002F1002070479140C2F1200320FA03F329
:10065000194390407047202A04DB203A21FA02F027
:100660000021704721FA02F3D040C2F120029140EC
:10067000084319467047202A06DBCB17203A41FA77
:1006800002F043EAE07306E041FA02F3D040C2F11F
:10069000200291400843194670470029A8BF7047BF
:1006A000401C490008BF20F00100704710B4B0FAA8
:1006B00080FC00FA0CF050EA010404BF10BC704743
:1006C00049B1CCF1200421FA04F411FA0CF118BF5D
:1006D000012121430843A3EB0C01CB1D4FEA00612C
:1006E0004FEA102042BF002010BC704700EBC350FF
:1006F00010440029A4BF10BC7047401C490008BF2B
:1007000020F0010010BC704710B5141E73F10004F6
:1007100008DA401C41F1000192185B411A4301D1F3
:1007200020F0010010BD2DE9F04D92469B4611B11D
:10073000B1FA81F202E0B0FA80F220329046FFF77F
:100740007BFF04460F4640EA0A0041EA0B0153468C
:100750005A46084313D0114653EA010019D0C8F194
:1007600040025046FFF777FF05460E465046594671
:100770004246FFF761FF084305D0012004E0204610
:100780003946BDE8F08D0020054346EAE0762C436B
:1007900037430A986305E40AA0EB08000022FD0A2B
:1007A00044EA47540A3002D500200146E9E7010532
:1007B00010196941DDE9084500196941BDE8F04DAE
:1007C000A2E770B521F0004303430CD0C1F30A55F2
:1007D0000024D5EB040564EB0403D617AD1AB3412E
:1007E00002DB0020014670BD201841EB025170BDB4
:1007F0002DE9F04D00231A461B1A8A4103DB002025
:100800000146BDE8F08DC1F30A52C1F3130141F472
:1008100080154FF0000BD10702D100186D41521E18
:100820000027044640F2FF11384601EB620A3E46BB
:100830008046024600204FF48011FFF70CFFC219DA
:100840007141BB1846EB0100B4EB030C75EB000CD7
:1008500004D3E41A65EB000517460E46241908F187
:1008600001006D4180463428E3DDF91946EB0600AE
:10087000091BA84103D24FF0FF32134601E00022CA
:1008800013461BEB070046EB0A51BDE8F04DFFF79E
:100890003BBF000030B5041E71F1000404DB4FF0D3
:1008A0000044404264EB0101141E73F1000405DBB7
:1008B0001C464FF00043524263EB04038B4208BFD7
:1008C000824230BD30B5041E71F1000404DB4FF0EC
:1008D0000044404264EB0101141E73F1000405DB87
:1008E0001C464FF00043524263EB0403994208BF99
:1008F000904230BD064C074D06E0E06840F0010331
:1009000094E8070098471034AC42F6D3FFF740FC58
:10091000C86D0008E86D000883B00146029042F2FD
:100920000030C4F2010001900198426822F4403284
:10093000426002984068019A5368184350600298D8
:100940000068426822F4807242600298026800697E
:10095000536843EA0020506002980068426822F021
:100960004072426002980268806853681843506081
:1009700002980068826822F400628260029802682D
:10098000C0689368184390600298806A0122C0F69C
:1009900000729042009119D0FFE7029800688168C8
:1009A00021F07061816002980168806A8A68104352
:1009B000886002980068816821F040518160029847
:1009C0000168C06A8A68104388600CE00298006879
:1009D000816821F07061816002980068816821F06F
:1009E00040518160FFE702980068816821F00201B0
:1009F00081600298017E0068826842EA410181605C
:100A0000029890F82000002819D0FFE702980068AB
:100A1000416841F40061416002980068416821F436
:100A20006041416002980168406A4EF20002CFF6D0
:100A3000FF7202EB40304A681043486006E00298BB
:100A40000068416821F400614160FFE70298006896
:100A5000C16A21F47001C16202980168C069002274
:100A6000CFF6F07202EB0050CA6A1043C8620298D7
:100A70000068816821F400718160029890F830105C
:100A80000068826842EA41218160029800688168BA
:100A900021F4806181600298016840698A6842EAB5
:100AA0008020886003B0704780B582B000208DF848
:100AB000070040F61400C4F20200016821F48071BE
:100AC00001600A210090084600F0D8FD00980168F6
:100AD00041F480710160D02000F046FA8DF80700E3
:100AE0009DF80700582811D1FFE740F21001C2F22B
:100AF00000010820182200F0F7F97420772100F097
:100B00006BFA7520102100F067FA00E0FFE702B0F1
:100B100080BD00000000000080B582B000F0BEF98A
:100B200040F2100EC2F2000EDEF82000CDF804E014
:100B300000F08AF900EE100AB8EE400A9FED381A6C
:100B400080EE010A019880ED0A0AC06900F06EF893
:100B500000EE100AB8EE400A9FED321A80EE010A4C
:100B6000019880ED090A90ED090A9FED2F1A80EE99
:100B7000010A80ED090A90ED090AB5EEC00AF1EE0E
:100B800010FA34DDFFE740F21000C2F20000416AC3
:100B900000900846FFF721FD41EC100B9FED181B5C
:100BA00053EC112B51EC100BFFF797FC41EC100BA1
:100BB0009FED151B05F0C4F853EC102B9FED140BA3
:100BC00051EC100BFFF711FC41EC100B51EC100B2A
:100BD0009FED110B53EC102BFFF70DFC41EC100BAC
:100BE00051EC100BFFF70CFD0099C86206E040F2D3
:100BF0001000C2F200000021C162FFE702B080BD18
:100C0000CDCCCCCCCC545940A6859916665AC83F59
:100C1000000000000000F03F3D0AD7A358A5E540C2
:100C20000000C8420000804300007A442DE9F041F2
:100C30008AB00146089040F21000C2F200008269BA
:100C4000D317B2F5FA3263F1000306920793069ABE
:100C5000079BA2FB02CE02FB03EE02FB03E2B0F90C
:100C600010304FEAE37EACFB03450CFB0E5C02FB4D
:100C700003C204940592049A059BDDF818C0DDF8C0
:100C80001CE0B0F90E404FEAE475ACFB04670CFBC6
:100C9000057C0EFB04CC4FEA4C4C4CEAD63C12EBE4
:100CA000464243EB0C0304920593049A059BB0F96A
:100CB0000CC003EBCC0304920593069A079BA2FB9E
:100CC00002CE02FB03EE02FB03EEB0F90840B0F9DE
:100CD0000A504FEAE576ACFB05780CFB068C0EFB60
:100CE00005CC4FEA2C2E4FEA172545EA0C6C4FEA4B
:100CF000E475A2FB046702FB057203FB04224FEAC2
:100D0000023242EA16521CEB063342EB0E02069305
:100D10000792069A079B03F50043C088A2FB002CAC
:100D200003FB00C04FEA60034FEAE07007900693B0
:100D30000698079B40EA030000280191009203D126
:100D4000FFE7002009907BE00898C0F58010C117EC
:100D50000290039102980399C90741EA5001049A4D
:100D6000059BD2EBC07061EB030140F63542A0FB5E
:100D7000020301FB0231069A079BFFF752FA039127
:100D8000029040F21000C2F20000B0F916104FEAD3
:100D9000E172029BDDF80CE04FEA533343EACE43A5
:100DA0004FEA6E3EA1FB03C401FB0E4102FB03119F
:100DB000ACFB03240CFB0E4C01FB03C14FEA526257
:100DC00042EAC1124FEA616107910692B0F914102C
:100DD0004FEAE172029BDDF80CC0A1FB03E401FBCA
:100DE0000C4102FB03114FEADE4242EA41324FEA74
:100DF000E141059104920299039A069BDDF81CC01B
:100E0000C91842EB0C02049BDDF814C0C91842EB70
:100E10000C024FEA22234FEA112141EA0261B0F9A4
:100E200012004FEAE0724FEA021242EA107211EB2E
:100E3000001043EB02010290039102980990FFE732
:100E400009980AB0BDE8F08185B001460490049885
:100E5000C01040F21002C2F200021388A0EB43005F
:100E6000B2F902305843C012039004981388C3EBC0
:100E7000201040430013B2F904305843801302900D
:100E80000398029B18449061906900EB80008030C9
:100E9000001201900198009105B0704780B582B0B2
:100EA00077200DF10201062200F01EF89DF80200E5
:100EB0009DF803109DF80420000340EA011040EA69
:100EC000121040F21001C2F20001C8619DF8050045
:100ED0009DF806209DF807E0000340EA021040EA72
:100EE0001E10086202B080BDB0B58CB013468C46AF
:100EF00086468DF82F000A91ADF826209DF82F0028
:100F000040F080008DF8250040F61400C4F2020085
:100F1000016821F48071016040F2A811C2F2000161
:100F20000DF1250201244FF47A75089008460791C7
:100F30001146224606932B46CDF814C0CDF810E09A
:100F4000039501F055FE0A99BDF82620079B0290F3
:100F50001846039B01F014FD08990A6842F4807258
:100F60000A6001900CB0B0BD80B586B001468DF826
:100F700017000020ADF81400ADF812009DF817001E
:100F800040F080008DF8140040F61400C4F2020016
:100F9000026822F4807202606A464FF47A7313602A
:100FA00040F2A812C2F2000205AB0DF1120C4FF094
:100FB000020E03901046029119466246734601F0F4
:100FC00077FF03990A6842F480720A609DF8132043
:100FD0000190104606B080BD10B588B00A460346A1
:100FE0008DF81F008DF81E109DF81F008DF81C0055
:100FF0009DF81E008DF81D0040F61400C4F202009A
:10100000016821F48071016069464FF47A7CC1F86F
:1010100000C040F2A811C2F200010DF11C0C0DF14C
:101020001A0E022405900846614604927246039304
:10103000234601F03DFF05990A6842F480720A6078
:10104000029008B010BD0000FFE7FEE77047000007
:1010500081B0EFF3108072B60090FFE7FEE700006A
:1010600088B00A460346069005910020049002923B
:101070000193FFE7069890F83C00012804D1FFE7B0
:1010800002208DF81F00FBE00698012180F83C103B
:10109000FFE7FFE7059800680A281CD3FFE70598DB
:1010A000008800EB40001E38072101FA00F0069985
:1010B0000968CA6822EA0000C8600598816800884B
:1010C00000EB40001E3801FA00F006990968CA6872
:1010D0001043C86019E00598008800EB4000072124
:1010E00001FA00F0069909680A6922EA000008611D
:1010F00005988168008800EB400001FA00F006992D
:1011000009680A6910430861FFE7059840680628E6
:101110001CD8FFE70598406800EB800005381F21C8
:1011200001FA00F0069909684A6B22EA0000486358
:1011300005980188406800EB8000053801FA00F04E
:10114000069909684A6B104348633DE0059840687A
:101150000C281CD8FFE70598406800EB8000233876
:101160001F2101FA00F0069909680A6B22EA0000C3
:10117000086305980188406800EB8000233801FA75
:1011800000F0069909680A6B104308631BE0059894
:10119000406800EB800041381F2101FA00F00699F9
:1011A0000968CA6A22EA0000C86205980188406896
:1011B00000EB8000413801FA00F006990968CA6A1C
:1011C0001043C862FFE7FFE742F20030C4F20100BB
:1011D00003900698006842F20001C4F201018842BF
:1011E0000BD1FFE705980068122806D1FFE70398A6
:1011F000416841F480014160FFE70698006842F2CF
:101200000001C4F20101884230D1FFE7059800686F
:10121000102805D0FFE705980068112826D1FFE7C0
:101220000398416841F40001416005980068102866
:101230001BD1FFE740F20400C2F2000000684DF647
:101240008361C4F21B31A0FB0101890C01EB810118
:10125000490004910090FFE70498002804D0FFE7BC
:10126000049801380490F7E7FFE7FFE7FFE70698E7
:10127000002180F83C10FFE700208DF81F00FFE7F9
:101280009DF81F0008B0704780B584B001460290F9
:1012900000208DF8070002980028009104D1FFE794
:1012A00001208DF80F0045E00298806A0121C0F608
:1012B0000071884201D0FFE7FFE70298006C002828
:1012C0000CD1FFE7029800F039F802984FF0000EB9
:1012D000C0F844E0029880F83CE0FFE70298006C18
:1012E000C006002817D4FFE70298006C40F0020007
:1012F00020F48850029908640298FFF70DFB0298C9
:10130000002141640298006C40F0010020F00200CE
:101310000299086403E001208DF80700FFE7FFE76A
:101320000298002180F83C10FFE79DF807008DF837
:101330000F00FFE79DF80F0004B080BD80B58CB0B2
:1013400001460B9000200A900990089007900690A3
:101350000B98006842F20002C4F20102904203912D
:1013600032D1FFE7FFE70020059043F64400C4F2C6
:101370000200016841F480710160006800F480702F
:10138000059005980290FFE7FFE70020049043F6E0
:101390003000C4F20200016841F0040101600068FD
:1013A00000F00400049004980190FFE708200690E4
:1013B000032007900020089040F60000C4F20200CD
:1013C00006A900F083F9FFE70CB080BD80B584B0BA
:1013D0000146029002980028009104D1FFE7012005
:1013E0008DF80F00E6E0029890F82000002804D164
:1013F000FFE7029800F0E2F8FFE702980068016852
:1014000021F00201016000F069FB0190FFE7029802
:10141000006840688007002817D5FFE700F05EFBF2
:10142000DDF804E0A0EB0E000B280DD3FFE70298D7
:10143000416A41F4003141620298052180F8201090
:1014400001208DF80F00B5E0E1E70298006801681F
:1014500041F00101016000F041FB0190FFE70298BB
:1014600000684068C007002817D1FFE700F036FB8E
:10147000DDF804E0A0EB0E000B280DD3FFE7029887
:10148000416A41F4003141620298052180F8201040
:1014900001208DF80F008DE0E1E70298007E012821
:1014A00007D1FFE702980068016841F08001016000
:1014B00006E002980068016821F080010160FFE702
:1014C0000298407E012807D1FFE702980068016872
:1014D00041F04001016006E002980068016821F0D7
:1014E00040010160FFE70298807E012807D1FFE7F5
:1014F00002980068016841F02001016006E002984E
:101500000068016821F020010160FFE70298C07EB9
:10151000012807D1FFE702980068016821F0100157
:10152000016006E002980068016841F01001016066
:10153000FFE70298007F012807D1FFE702980068C3
:10154000016841F00801016006E002980068016846
:1015500021F008010160FFE70298407F012807D1D0
:10156000FFE702980068016841F00401016006E0AD
:1015700002980068016821F004010160FFE7029809
:10158000016842688368D0F80CC043EA0C03D0F8C5
:1015900010C043EA0C0340691843013A1043C86184
:1015A0000298002141620298012280F820208DF8E3
:1015B0000F10FFE79DF80F0004B080BD80B58EB01E
:1015C00001460D9000200C900B900A900990089015
:1015D0000D98006846F60002C4F2000290420491A1
:1015E00049D1FFE7FFE70020079043F64000C4F22F
:1015F0000200016841F080610160006800F08060D5
:10160000079007980390FFE7FFE70020069043F656
:101610004000C4F20200016841F0007101600068FE
:1016200000F00070069006980290FFE7FFE70020A8
:10163000059043F63000C4F20200016841F0020157
:101640000160006800F00200059005980190FFE736
:101650004FF4405008900220099000200A90032087
:101660000B9009200C9040F20040C4F2020008A93F
:1016700000F02CF8FFE70EB080BD000080B584B00C
:1016800001460390009100F029FA0290039801901E
:1016900001980130002809D0FFE740F20800C2F2AB
:1016A00000000078019908440190FFE7FFE700F08F
:1016B00015FADDF808E0A0EB0E00DDF804E0704557
:1016C00001D2FFE7F3E704B080BD000091B00A4605
:1016D000034610900F9100200D900C900B900E90EF
:1016E00009920893FFE70E980F2800F2D381FFE7D5
:1016F0000E98012101FA00F00D900F9800680D99E5
:1017000008400C900C980D99884240F0BE81FFE78C
:101710000F98406800F00300012807D0FFE70F98FA
:10172000406800F0030002282FD1FFE7109880687E
:101730000B900E984000032101FA00F00B9921EA6A
:1017400000000B900F98C0680E99490088400B99D3
:1017500008430B900B9810998860109840680B9084
:101760000E98012101FA00F00B9921EA00000B907C
:101770000F984068C0F300100E9988400B990843F9
:101780000B900B9810994860FFE70F98406800F0A5
:101790000300032818D0FFE71098C0680B900E983C
:1017A0004000032101FA00F00B9921EA00000B90A0
:1017B0000F9880680E99490088400B9908430B9058
:1017C0000B981099C860FFE70F98406800F003007D
:1017D000022826D1FFE710980E996FF0030202EA63
:1017E00051010844006A0B900E9800F00700800039
:1017F0000F2101FA00F00B9921EA00000B900F98DD
:1018000000690E9901F00701890088400B9908438F
:101810000B900B9810990E9B02EA53021144086238
:10182000FFE7109800680B900E984000032101FA22
:1018300000F00B9921EA00000B900F98406800F02F
:1018400003000E99490088400B9908430B900B98B0
:10185000109908600F984068C000002840F114817A
:10186000FFE7FFE700200A9043F64400C4F20200BD
:10187000016841F480410160006800F480400A90F2
:101880000A980790FFE70E9820F0030043F608013E
:10189000C4F2010140580B900E9800F00300800044
:1018A0000F2101FA00F00B9921EA00000B9010982B
:1018B0000021C4F20201884203D1FFE70020069014
:1018C0005EE0109840F20041C4F20201884203D168
:1018D000FFE70120059050E0109840F60001C4F2A7
:1018E0000201884203D1FFE70220049042E01098F1
:1018F00040F60041C4F20201884203D1FFE7032011
:10190000039034E0109841F20001C4F202018842D1
:1019100003D1FFE70420029026E0109841F2004135
:10192000C4F20201884203D1FFE70520019018E0CC
:10193000109841F60001C4F20201884203D1FFE78A
:10194000062000900AE0109841F60041C4F202011E
:101950000822884208BF07220092FFE70098019002
:10196000FFE701980290FFE702980390FFE70398D2
:101970000490FFE704980590FFE705980690FFE7BD
:101980000698C0B20E9901F00301890088400B99B6
:1019900008430B900B980E9921F0030143F60802BF
:1019A000C4F20102885043F60040C4F2010000680E
:1019B0000B900C980B9921EA00000B900F9840684F
:1019C000C003002805D5FFE70C980B9908430B903E
:1019D000FFE70B9843F60041C4F20101086043F6AB
:1019E0000440C4F2010000680B900C980B9921EAA6
:1019F00000000B900F9840688003002805D5FFE792
:101A00000C980B9908430B90FFE70B9843F60441A1
:101A1000C4F20101086043F60840C4F20100006806
:101A20000B900C980B9921EA00000B900F984068DE
:101A3000C002002805D5FFE70C980B9908430B90CE
:101A4000FFE70B9843F60841C4F20101086043F632
:101A50000C40C4F2010000680B900C980B9921EA2D
:101A600000000B900F9840688002002805D5FFE722
:101A70000C980B9908430B90FFE70B9843F60C4129
:101A8000C4F201010860FFE7FFE7FFE70E980130AD
:101A90000E9028E611B0704780B585B013468C468D
:101AA00086460490ADF80E108DF80D209DF80D00BF
:101AB00000280293CDF804C0CDF800E005D0FFE780
:101AC000BDF80E000499886105E0BDF80E00000421
:101AD00004998861FFE705B080BD000040F2A020B6
:101AE000C2F200000068704740F20800C2F2000035
:101AF000007840F2A021C2F200010A681044086098
:101B00007047000080B582B043F60040C4F2020086
:101B1000016841F400710160016841F48061016075
:101B2000016841F480710160032000F095F8002005
:101B3000019000F007F8009000F040F8019802B022
:101B400080BD000080B584B00146029040F20400E0
:101B5000C2F20000006840F20802C2F200021278ED
:101B60004FF47A73B3FBF2F2B0FBF2F0019101F0A3
:101B700079FB002804D0FFE701208DF80F0018E062
:101B800002980F280DD8FFE702994FF0FF3000228E
:101B900000F03CF8029840F20C01C2F2000108602B
:101BA00003E001208DF80F0003E000208DF80F0006
:101BB000FFE79DF80F0004B080BD000084B0FFE790
:101BC0000020039043F64400C4F20200016841F48F
:101BD00080410160006800F4804003900398019008
:101BE000FFE7FFE70020029043F64000C4F2020046
:101BF000016841F080510160006800F0805002905F
:101C000002980090FFE704B07047000080B58AB0EA
:101C100013468C4686468DF82700089107920020CF
:101C200006900593CDF810C0CDF80CE003F094FDBC
:101C300006909DF927000699089A079B029008468E
:101C400011461A4602F0C0FF029901900846019918
:101C500003F08AFD0AB080BD80B582B001460190D4
:101C60000198009103F0A6FD02B080BD80B588B058
:101C70000A460346069005910698002803920293AF
:101C800004D1FFE701208DF81F0028E1059843F6F5
:101C90000041C4F20201096801F00701884212D92B
:101CA000FFE7059843F60041C4F202010870086896
:101CB00000F007000599884204D0FFE701208DF865
:101CC0001F000CE1FFE706980068800700282AD56E
:101CD000FFE7069800684007002809D5FFE743F6AC
:101CE0000800C4F20200016841F4E0510160FFE71E
:101CF000069800680007002809D5FFE743F60800AA
:101D0000C4F20200016841F460410160FFE743F65C
:101D10000800C4F20200016821F0F001069A9268FE
:101D200011430160FFE706980068C007002870D0E3
:101D3000FFE706984068012811D1FFE743F600004D
:101D4000C4F20200006800F400300021B1EB504FF3
:101D500004D1FFE701208DF81F00C0E02CE00698B9
:101D60004068022805D0FFE706984068032811D193
:101D7000FFE743F60000C4F20200006800F00070C4
:101D80000021B1EB506F04D1FFE701208DF81F0057
:101D9000A5E010E043F60000C4F20200006800F085
:101DA00002000021B1EB500F04D1FFE701208DF8B4
:101DB0001F0094E0FFE7FFE743F60800C4F20200CB
:101DC000016821F00301069A526811430160FFF790
:101DD00085FE0490FFE743F60800C4F202000068A5
:101DE00000F00C0006994968B0EB810F10D0FFE7B6
:101DF000FFF774FEDDF810E0A0EB0E0041F2893E23
:101E0000704504D3FFE703208DF81F0067E0E2E789
:101E1000FFE7059843F60041C4F20201096801F0AA
:101E20000701884212D2FFE7059843F60041C4F249
:101E300002010870086800F007000599884204D084
:101E4000FFE701208DF81F0049E0FFE706980068D2
:101E5000400700280CD5FFE743F60800C4F2020053
:101E6000016821F4E051069AD26811430160FFE74E
:101E700006980068000700280DD5FFE743F6080024
:101E8000C4F20200016821F46041069A126941EA35
:101E9000C2010160FFE700F02DF843F6080EC4F21E
:101EA000020EDEF800E05FFA8EFE4FEA1E1E46F6D6
:101EB000B051C0F6000111F80E10C84040F2040104
:101EC000C2F20001086040F20C00C2F2000000689B
:101ED000FFF738FE00218DF81F100190FFE79DF8F5
:101EE0001F0008B080BD000040F20400C2F20000F4
:101EF0000068704780B586B000200590049003907C
:101F0000029043F60800C4F20200006800F00C00E2
:101F100001460028019108D0FFE7019804280AD063
:101F2000FFE7019808280CD04FE042F20040C0F2D1
:101F3000F40002904FE042F20040C0F2F400029040
:101F400049E043F60400C4F20200016801F03F01D9
:101F5000059100684002002813D5FFE743F604000E
:101F6000C4F202000068C0F3881042F20041C0F2DF
:101F7000F401A0FB0101059A0023FEF721F904906A
:101F800012E043F60400C4F202000068C0F38810B7
:101F900042F20041C0F2F401A0FB0101059A0023C6
:101FA000FEF70EF90490FFE743F60400C4F20200C6
:101FB000006800F44030022101EBD0300390049817
:101FC0000399B0FBF1F0029005E042F20040C0F24C
:101FD000F4000290FFE7029806B080BD80B588B09B
:101FE0000146069006980028019104D1FFE70120E0
:101FF0008DF81F006EE306980068C007002800F007
:10200000AB80FFE743F60800C4F20200006800F06E
:102010000C00042813D0FFE743F60800C4F20200C6
:10202000006800F00C0008281FD1FFE743F6040009
:10203000C4F2020000684002002816D5FFE743F60C
:102040000000C4F20200006800F400300021B1EB8F
:10205000504F09D0FFE706984068002804D1FFE7F9
:1020600001208DF81F0035E375E0FFE70698406812
:10207000B0F5803F09D1FFE743F60000C4F202004B
:10208000016841F48031016020E006984068B0F5B5
:10209000A02F0DD1FFE743F60000C4F20200016853
:1020A00041F480210160016841F4803101600CE05D
:1020B00043F60000C4F20200016821F4803101609F
:1020C000016821F480210160FFE7FFE7FFE7069840
:1020D000406800281FD0FFE7FFF700FD0590FFE7ED
:1020E00043F60000C4F20200006800F40030002152
:1020F000B1EB504F0ED1FFE7FFF7F0FCDDF814E035
:10210000A0EB0E00652804D3FFE703208DF81F0025
:10211000E0E2E5E71EE0FFF7E1FC0590FFE743F6AC
:102120000000C4F20200006800F400300021B1EBAE
:10213000504F0ED0FFE7FFF7D1FCDDF814E0A0EB25
:102140000E00652804D3FFE703208DF81F00C1E2CD
:10215000E5E7FFE7FFE7FFE706980068800700284C
:1021600040F19B80FFE743F60800C4F202000068DC
:1021700010F00C0F13D0FFE743F60800C4F2020082
:10218000006800F00C0008282CD1FFE743F604009B
:10219000C4F2020000684002002823D4FFE743F69F
:1021A0000000C4F20200006800F002000021B1EB60
:1021B000500F09D0FFE70698C068012804D0FFE758
:1021C00001208DF81F0085E243F60000C4F20200F2
:1021D000016821F0F801069A126941EAC201016022
:1021E000FFE759E00698C068002830D0FFE70020DC
:1021F000C4F2472001210160FFF770FC0590FFE762
:1022000043F60000C4F20200006800F00200002162
:10221000B1EB500F0ED1FFE7FFF760FCDDF814E0E3
:10222000A0EB0E00032804D3FFE703208DF81F0066
:1022300050E2E5E743F60000C4F20200016821F035
:10224000F801069A126941EAC201016023E0002008
:10225000C4F2472000210160FFF740FC0590FFE732
:1022600043F60000C4F20200006800F00200002102
:10227000B1EB500F0ED0FFE7FFF730FCDDF814E0B4
:10228000A0EB0E00032804D3FFE703208DF81F0006
:1022900020E2E5E7FFE7FFE7FFE7069800680007B1
:1022A000002850D5FFE706984069002825D0FFE7B1
:1022B00040F68060C4F2472001210160FFF70EFC68
:1022C0000590FFE743F67400C4F20200006800F0D6
:1022D00002000021B1EB500F0ED1FFE7FFF7FEFB2C
:1022E000DDF814E0A0EB0E00032804D3FFE7032081
:1022F0008DF81F00EEE1E5E724E040F68060C4F2CF
:10230000472000210160FFF7E9FB0590FFE743F656
:102310007400C4F20200006800F002000021B1EB7A
:10232000500F0ED0FFE7FFF7D9FBDDF814E0A0EB6C
:102330000E00032804D3FFE703208DF81F00C9E136
:10234000E5E7FFE7FFE7069800684007002840F14F
:10235000D680FFE700208DF80F0043F64000C4F25E
:1023600002000068C000002816D4FFE7FFE7002045
:10237000029043F64000C4F20200016841F080512F
:102380000160006800F08050029002980090FFE722
:1023900001208DF80F00FFE747F20000C4F20000B3
:1023A0000068C005002824D4FFE747F20000C4F20B
:1023B0000000016841F480710160FFF78FFB059018
:1023C000FFE747F20000C4F200000068C0050028E3
:1023D0000ED4FFE7FFF782FBDDF814E0A0EB0E0060
:1023E000032804D3FFE703208DF81F0072E1E8E71C
:1023F000FFE7FFE706988068012809D1FFE743F669
:102400007000C4F20200016841F0010101601FE0A8
:102410000698806805280DD1FFE743F67000C4F2E6
:102420000200016841F004010160016841F001010E
:1024300001600CE043F67000C4F20200016821F074
:1024400001010160016821F004010160FFE7FFE77D
:10245000FFE706988068002821D0FFE7FFF73EFBE2
:102460000590FFE743F67000C4F20200006800F038
:1024700002000021B1EB500F10D1FFE7FFF72EFB58
:10248000DDF814E0A0EB0E0041F2893E704504D364
:10249000FFE703208DF81F001CE1E3E720E0FFF7D2
:1024A0001DFB0590FFE743F67000C4F202000068D0
:1024B00000F002000021B1EB500F10D0FFE7FFF752
:1024C0000DFBDDF814E0A0EB0E0041F2893E7045F3
:1024D00004D3FFE703208DF81F00FBE0E3E7FFE7ED
:1024E0009DF80F00012809D1FFE743F64000C4F230
:1024F0000200016821F080510160FFE7FFE70698C4
:102500008069002800F0E280FFE743F60800C4F28B
:102510000200006800F00C00082800F08B80FFE744
:1025200006988069022860D1FFE76020C4F2472046
:1025300000210160FFF7D2FA0590FFE743F60000A3
:10254000C4F20200006800F000700021B1EB506F8F
:102550000ED0FFE7FFF7C2FADDF814E0A0EB0E00A3
:10256000032804D3FFE703208DF81F00B2E0E5E75E
:102570000698C169026A436AD0F828C0114341EA4B
:1025800083114FEACC324FF6FF739A43A2F58032A3
:102590001143C06A41EA006043F60401C4F202013B
:1025A00008606020C4F2472001210160FFF796FA1D
:1025B0000590FFE743F60000C4F20200006800F057
:1025C00000700021B1EB506F0ED1FFE7FFF786FAE4
:1025D000DDF814E0A0EB0E00032804D3FFE703208E
:1025E0008DF81F0076E0E5E723E06020C4F2472085
:1025F00000210160FFF772FA0590FFE743F6000043
:10260000C4F20200006800F000700021B1EB506FCE
:102610000ED0FFE7FFF762FADDF814E0A0EB0E0042
:10262000032804D3FFE703208DF81F0052E0E5E7FD
:10263000FFE74AE006988069012804D1FFE70120FE
:102640008DF81F0046E043F60400C4F20200006863
:10265000049006988069012831D0FFE7049800F4BF
:1026600080000699C969884229D1FFE7049800F0E3
:102670003F000699096A884221D1FFE7049847F68E
:10268000C07108400699496AB0EB811F17D1FFE776
:10269000049800F440300699896AC9034FF6FF7226
:1026A0009143A1F58031884209D1FFE7049800F0F9
:1026B00070600699C96AB0EB016F04D0FFE7012092
:1026C0008DF81F0006E0FFE7FFE7FFE700208DF829
:1026D0001F00FFE79DF81F0008B080BD80B584B0E3
:1026E0000146029002980028019104D1FFE70120E1
:1026F0008DF80F0072E00298406A00280CD1FFE7C5
:1027000002984068B0F5827F01D1FFE703E00298AC
:102710000021C161FFE705E00298002101610298F4
:102720004161FFE7029800218162029890F8510010
:10273000002808D1FFE70298002180F85010029885
:1027400000F050F8FFE70298022180F8511002983B
:102750000068016821F04001016002980168426848
:102760008368D0F80CC002F4827203F404431A4464
:102770000CF400631A44036903F002031A4443692A
:1027800003F001031A44836903F400731A44C36914
:1027900003F038031A44036A03F080031A43806A83
:1027A00000F40050104308600298418B01F00401CE
:1027B0000268406A00F01000084450600298006807
:1027C000C16921F40061C16102980021416502984C
:1027D000012280F851208DF80F10FFE79DF80F00BF
:1027E00004B080BD80B594B00146139000201290D3
:1027F000119010900F900E901398006843F2000211
:10280000C4F201029042079135D1FFE7FFE70020B3
:102810000D9043F64400C4F20200016841F4805177
:102820000160006800F480500D900D980690FFE75D
:10283000FFE700200C9043F63000C4F2020001686C
:1028400041F001010160006800F001000C900C985B
:102850000590FFE7E0200E9002200F9000201090DE
:1028600003201190052012900020C4F202000EA94E
:10287000FEF72CFF81E01398006843F60001C4F2D4
:102880000001884237D1FFE7FFE700200B9043F6B5
:102890004000C4F20200016841F480410160006818
:1028A00000F480400B900B980490FFE7FFE70020B6
:1028B0000A9043F63000C4F20200016841F00201C0
:1028C0000160006800F002000A900A980390FFE798
:1028D0004FF444400E9002200F90002010900320EF
:1028E00011900520129040F20040C4F202000EA99F
:1028F000FEF7ECFE40E01398006843F60041C4F296
:102900000001884237D1FFE7FFE70020099043F636
:102910004000C4F20200016841F400410160006817
:1029200000F40040099009980290FFE7FFE70020BB
:10293000089043F63000C4F20200016841F004013F
:102940000160006800F00400089008980190FFE71B
:102950004FF4E0500E9002200F90002010900320C2
:1029600011900620129040F60000C4F202000EA959
:10297000FEF7ACFEFFE7FFE7FFE714B080BD000005
:10298000B0B58EB09C4696460C4605460C900B9111
:10299000ADF82A20099300208DF81F000C9840689C
:1029A000B0F5827FCDF818C0CDF814E004940395FB
:1029B00018D1FFE70C988068002813D1FFE70C9826
:1029C000042180F851100C980B99BDF82A30099A0F
:1029D000EC46CCF800200291029A00F069FA8DF8DA
:1029E000370000E1FFE70C9890F85000012804D16F
:1029F000FFE702208DF83700F5E00C98012180F800
:102A00005010FFE7FFE7FFF769F808900C9890F87F
:102A10005100012804D0FFE702208DF81F00D3E009
:102A20000B98002805D0FFE7BDF82A00002804D144
:102A3000FFE701208DF81F00C6E00C98042180F804
:102A400051100C98002141650B980C9A9063BDF8C9
:102A50002A000C9A9087BDF82A000C9AD0870C980F
:102A600001630C9881860C98C1860C9801640C98BF
:102A700041640C988068B0F5004F0DD1FFE70C98C9
:102A80000068016821F0400101600C98006801684D
:102A900021F480410160FFE70C980068006800F0B5
:102AA0004000402807D0FFE70C980068016841F01B
:102AB00040010160FFE70C98C068002837D1FFE7AC
:102AC000FFE70C98C08F002830D0FFE70C98006813
:102AD0008068C00700280FD0FFE70C980068007BD3
:102AE0000C99896B08700C98816B013181630C988B
:102AF000C18F0139C18718E0FEF7F0FFDDF820E053
:102B0000A0EB0E00DDF824E0704505D3FFE709983F
:102B10000130002804D1FFE70998002804D1FFE71D
:102B200003208DF81F004FE0FFE7CAE736E0FFE71C
:102B30000C98C08F002830D0FFE70C9800688068A0
:102B4000C00700280FD0FFE70C980068C0680C99F8
:102B5000896B08800C98816B023181630C98C18F5E
:102B60000139C18718E0FEF7B9FFDDF820E0A0EBDE
:102B70000E00DDF824E0704505D3FFE70998013029
:102B8000002804D1FFE70998002804D1FFE70320BB
:102B90008DF81F0018E0FFE7CAE7FFE70C980999D6
:102BA000089A02F071F8002804D0FFE70C98202161
:102BB0004165FFE70C98406D002804D0FFE7012035
:102BC0008DF81F00FFE7FFE70C98012180F85110F6
:102BD000FFE70C98002180F85010FFE79DF81F00D8
:102BE0008DF83700FFE79DF837000EB0B0BD00004C
:102BF000B0B58EB09C4696460C4605460C900B919F
:102C0000ADF82A20099300208DF81F00CDF814C0DC
:102C1000CDF810E003940295FFE70C9890F850006F
:102C2000012804D1FFE702208DF837003CE10C9821
:102C3000012180F85010FFE7FFE7FEF74FFF0890F3
:102C4000BDF82A00ADF81C000C9890F8510001283E
:102C500004D0FFE702208DF81F0016E10B98002832
:102C600005D0FFE7BDF82A00002804D1FFE70120C6
:102C70008DF81F0009E10C98032180F851100C9881
:102C8000002141650B980C9A1063BDF82A000C9A3C
:102C90009086BDF82A000C9AD0860C9881630C9817
:102CA00081870C98C1870C9841640C9801640C983A
:102CB0008068B0F5004F0DD1FFE70C9800680168FF
:102CC00021F0400101600C980068016841F48041E6
:102CD0000160FFE70C980068006800F040004028A1
:102CE00007D0FFE70C980068016841F040010160DF
:102CF000FFE70C98C068B0F5006F4ED1FFE70C9865
:102D00004068002805D0FFE7BDF81C0001280ED15F
:102D1000FFE70C980168006B0088C8600C98016B95
:102D2000023101630C98C18E0139C186FFE7FFE7CC
:102D30000C98C08E00282FD0FFE70C9800688068A0
:102D4000800700280ED5FFE70C980168006B00880B
:102D5000C8600C98016B023101630C98C18E013977
:102D6000C18618E0FEF7BAFEDDF820E0A0EB0E0009
:102D7000DDF824E0704505D3FFE70998013000280D
:102D800004D1FFE70998002804D1FFE703208DF85C
:102D90001F007AE0FFE7CBE74DE00C984068002881
:102DA00005D0FFE7BDF81C0001280ED1FFE70C9805
:102DB0000168006B007808730C98016B01310163A6
:102DC0000C98C18E0139C186FFE7FFE70C98C08ED1
:102DD00000282FD0FFE70C98006880688007002843
:102DE0000ED5FFE70C980168006B007808730C980B
:102DF000016B013101630C98C18E0139C18618E065
:102E0000FEF76CFEDDF820E0A0EB0E00DDF824E01C
:102E1000704505D3FFE709980130002804D1FFE78A
:102E20000998002804D1FFE703208DF81F002CE04B
:102E3000FFE7CBE7FFE70C980999089A01F0A2FF9A
:102E4000002804D0FFE70C9820214165FFE70C988B
:102E5000806800280FD1FFE7FFE7002006900C985C
:102E60000068C06806900C98006880680690069814
:102E70000190FFE7FFE70C98406D002804D0FFE7C2
:102E800001208DF81F00FFE7FFE70C98012180F873
:102E90005110FFE70C98002180F85010FFE79DF8D3
:102EA0001F008DF83700FFE79DF837000EB0B0BD6A
:102EB00070B594B0DDF860C09E4614460D460646D7
:102EC000129011911092ADF83E3001200B9000202D
:102ED0008DF82B00CDF820C0CDF81CE006940595A8
:102EE0000496FFE7129890F85000012804D1FFE7FC
:102EF00002208DF84F00B0E11298012180F85010A7
:102F0000FFE7FFE7FEF7EAFD0C90129890F85100FA
:102F10008DF83700129840680E90BDF83E00ADF86D
:102F20003C009DF83700012813D0FFE70E98B0F55C
:102F3000827F0AD1FFE712988068002805D1FFE759
:102F40009DF83700042804D0FFE702208DF82B00FD
:102F500074E11198002809D0FFE71098002805D0E7
:102F6000FFE7BDF83E00002804D1FFE701208DF8FF
:102F70002B0063E1129890F85100042805D0FFE778
:102F80001298052180F85110FFE712980021416541
:102F90001098129A9063BDF83E00129AD087BDF83F
:102FA0003E00129A90871198129A1063BDF83E0065
:102FB000129AD086BDF83E00129A9086129801644B
:102FC0001298416412980068006800F040004028A0
:102FD00007D0FFE712980068016841F040010160E6
:102FE000FFE71298C068B0F5006F40F08080FFE7FF
:102FF00012984068002805D0FFE7BDF83C00012882
:103000000ED1FFE712980168006B0088C860129823
:10301000016B023101631298C18E0139C186FFE74D
:10302000FFE71298C08E01210028039107D1FFE726
:103030001298C08F002818BF01200390FFE7039863
:10304000C007002852D0FFE7129800688068800708
:10305000002819D5FFE71298C08E002814D0FFE78A
:103060000B98012810D1FFE712980168006B0088C7
:10307000C8601298016B023101631298C18E013948
:10308000C18600200B90FFE7129800688068C00797
:10309000002816D0FFE71298C08F002811D0FFE754
:1030A00012980068C0681299896B08801298816B29
:1030B000023181631298C18F0139C18701200B90C1
:1030C000FFE7FEF70BFDDDF830E0A0EB0E00DDF8CA
:1030D00060E0704509D3FFE718980130002804D05C
:1030E000FFE703208DF82B00A8E09AE782E0129812
:1030F0004068002805D0FFE7BDF83C0001280ED14C
:10310000FFE712980168006B007808731298016B52
:10311000013101631298C18E0139C186FFE7FFE7D3
:103120001298C08E01210028029107D1FFE7129862
:10313000C08F002818BF01200290FFE70298C00747
:10314000002856D0FFE712980068806880070028A2
:1031500019D5FFE71298C08E002814D0FFE70B980E
:10316000012810D1FFE712980168006B00780873FE
:103170001298016B013101631298C18E0139C18629
:1031800000200B90FFE7129800688068C0070028B5
:1031900016D0FFE71298C08F002811D0FFE71298D1
:1031A0000068C0681299896B08701298816B0131B0
:1031B00081631298C18F0139C18701200B90FFE70D
:1031C000FEF78CFCDDF830E0A0EB0E00DDF860E0EF
:1031D000704505D3FFE718980130002804D1FFE7B8
:1031E0001898002804D1FFE703208DF82B0025E074
:1031F00096E7FFE7129818990C9A01F0C3FD002892
:1032000007D0FFE701208DF82B001298202141659F
:1032100014E01298806800280FD1FFE7FFE7002034
:10322000099012980068C068099012980068806838
:10323000099009980190FFE7FFE7FFE71298012145
:1032400080F85110FFE71298002180F85010FFE736
:103250009DF82B008DF84F00FFE79DF84F0014B04C
:1032600070BD000080B582B00146019001980091C8
:1032700001F08CFE02B080BD86B00A460346049081
:1032800003910020029001920093FFE7049890F8C8
:103290003C00012804D1FFE702208DF8170044E02C
:1032A0000498012180F83C10FFE7FFE7029820F026
:1032B000FF000399C96808430290029820F4407007
:1032C0000399896808430290029820F4806003996A
:1032D000496808430290029820F400600399096845
:1032E00008430290029820F480500399096908432A
:1032F0000290029820F40050039949690843029013
:10330000029820F480400399C9690843029002980A
:10331000049909684864FFE70498002180F83C108C
:10332000FFE700208DF81700FFE79DF8170006B0B3
:103330007047000087B00A46034605900491019249
:103340000093FFE7059890F83C00012804D1FFE7BF
:1033500002208DF81B007EE00598012180F83C10CA
:10336000FFE7FFE70598022180F83D100598006807
:10337000406803900598006880680290039820F0E8
:103380007000039004980068039908430390039821
:10339000059909684860059800680021C4F2010198
:1033A00088423CD0FFE705980068B0F1804F36D0E6
:1033B000FFE70598006840F20041C4F2000188422E
:1033C0002DD0FFE70598006840F60001C4F2000127
:1033D000884224D0FFE70598006840F60041C4F217
:1033E000000188421BD0FFE70598006840F20041C9
:1033F000C4F20101884212D0FFE70598006844F248
:103400000001C4F20101884209D0FFE70598006875
:1034100041F60001C4F2000188420ED1FFE7029894
:1034200020F08000029004984068029908430290BE
:103430000298059909688860FFE70598012180F8DE
:103440003D10FFE70598002180F83C10FFE70020C1
:103450008DF81B00FFE79DF81B0007B070470000C8
:1034600080B584B00146029002980028019104D1F1
:10347000FFE701208DF80F0043E0029890F83D002F
:10348000002808D1FFE70298002180F83C1002983C
:1034900000F03CF8FFE70298022180F83D10029806
:1034A00050F8041B00900846009901F011FE0298A4
:1034B000012180F84610FFE70298012180F83E10B4
:1034C000029880F83F10029880F84010029880F827
:1034D0004110FFE7FFE70298012180F842100298AF
:1034E00080F84310029880F84410029880F8451044
:1034F000FFE70298012180F83D1000208DF80F00B1
:10350000FFE79DF80F0004B080BD000084B00146C5
:103510000390039800680022C4F2010290420191D6
:1035200013D1FFE7FFE70020029043F64400C4F206
:103530000200016841F001010160006800F0010033
:10354000029002980090FFE7FFE704B07047000088
:1035500080B58CB00A4603460A90099107920693FB
:10356000FFE70A9890F83C00012804D1FFE7022009
:103570008DF82F00B7E00A98012180F83C10FFE792
:10358000FFE70A98022180F83D100A9800688068D9
:103590000890089820F077000890089820F47F4061
:1035A000089008980A9909688860099800680028B6
:1035B000059000F08280FFE7059810287DD0FFE796
:1035C0000598202879D0FFE70598302875D0FFE7C7
:1035D0000598402861D0FFE7059850283DD0FFE7C7
:1035E0000598602849D0FFE7059870280BD0FFE7C1
:1035F0000598B0F5805F05D0FFE70598B0F5005F4E
:1036000019D061E061E00A98006809994A688B68FE
:10361000C96804911946049B01F02CFE0A980068C1
:1036200080680890089840F07700089008980A99F8
:103630000968886049E00A98006809994A688B68B7
:10364000C96803911946039B01F014FE0A980068AB
:10365000816841F48041816037E00A9800680999E7
:103660004A68C96802911146029A02F00FF80A9856
:103670000068502101F024FE27E00A9800680999AB
:103680004A68C96801911146019A02F031F80A9816
:103690000068602101F014FE17E00A98006809999B
:1036A0004A68C96800911146009A01F0EFFF0A9834
:1036B0000068402101F004FE07E00A9800680999BB
:1036C000096801F0FDFD00E0FFE70A98012180F89C
:1036D0003D10FFE70A98002180F83C10FFE700202A
:1036E0008DF82F00FFE79DF82F000CB080BD000083
:1036F00080B58AB001460990002008900790069096
:1037000005900490099800680022C4F201029042DA
:10371000029123D1FFE7FFE70020039043F630003A
:10372000C4F20200016841F001010160006800F08C
:103730000100039003980190FFE74FF4706004903C
:10374000022005900020069007900120089000209C
:10375000C4F2020004A9FDF7B9FFFFE70AB080BD7B
:1037600080B588B013468C46864606900591049233
:103770000393CDF808C0CDF804E0FFE7069890F871
:103780003C00012804D1FFE702208DF81F008BE0E8
:103790000698012180F83C10FFE7FFE704980C2809
:1037A000009000F276800099DFE801F007737373F0
:1037B000227373733D7373735800069800680599FC
:1037C00001F098FD06980068816941F00801816167
:1037D00006980068816921F00401816105980069FB
:1037E00006990968D1F818E040EA0E00886151E0B6
:1037F00006980068059901F0F7FD06980068816950
:1038000041F40061816106980068816921F480615A
:1038100081610598006906990968D1F818E04EEAB7
:103820000020886136E006980068059901F05AFE8C
:1038300006980068C16941F00801C16106980068F6
:10384000C16921F00401C161059800690699096800
:10385000D1F81CE040EA0E00C8611BE00698006841
:10386000059901F0BDFE06980068C16941F4006148
:10387000C16106980068C16921F48061C161059841
:10388000006906990968D1F81CE04EEA0020C86179
:1038900000E0FFE7FFE70698002180F83C10FFE713
:1038A00000208DF81F00FFE79DF81F0008B080BDC5
:1038B00080B584B00146029002980028019104D19D
:1038C000FFE701208DF80F0043E0029890F83D00DB
:1038D000002808D1FFE70298002180F83C100298E8
:1038E00000F03CF8FFE70298022180F83D100298B2
:1038F00050F8041B00900846009901F0E9FB02987B
:10390000012180F84610FFE70298012180F83E105F
:10391000029880F83F10029880F84010029880F8D2
:103920004110FFE7FFE70298012180F8421002985A
:1039300080F84310029880F84410029880F84510EF
:10394000FFE70298012180F83D1000208DF80F005C
:10395000FFE79DF80F0004B080BD000082B0014673
:103960000190009102B07047FFE7FEE780B582B09A
:10397000FEF7C8F8019001F03BFB00F0B7FD00F046
:1039800053FD00F093FD00F0A3FE00F0C9FE00F02F
:10399000EDFE00F013FF02B080BD000080B584B0E2
:1039A0000F2000F0C3FA8DF80F009DF80F00492892
:1039B0003ED1FFE71F208021029000F0EFFA322075
:1039C000FDF75CFE0020029901900846019900F085
:1039D000E5FA01200090FDF751FE2020A72100F01C
:1039E000DDFA0098FDF74AFE2120182100F0D6FAF2
:1039F0000098FDF743FE2320042100F0CFFA009841
:103A0000FDF73CFE2420F42100F0C8FA0098FDF7F1
:103A100035FE2520019900F0C1FA0098FDF72EFE31
:103A20002620019900F0BAFA0098FDF727FEFFE77B
:103A300004B080BD0000000080B5AEB00020ADF83D
:103A4000B4002C90ADF8AC002A9008202CA90622D6
:103A5000259200F0DDF928202AA9259A00F0D8F94E
:103A60009DF8B0009DF8B11040EA012040F24001FD
:103A7000C2F2000108809DF8B2009DF8B32040EA30
:103A8000022048809DF8B4009DF8B52040EA02204D
:103A900088809DF8A8009DF8A92040EA0220C880EF
:103AA0009DF8AA009DF8AB2040EA022008819DF80D
:103AB000AC009DF8AD2040EA02204881B1F9080031
:103AC000B1F90A20249010462391FCF775FD41ECD2
:103AD000100B51EC100B22902191229A219BFCF7A4
:103AE0008AFC41EC100B24988DED1E0BFCF764FD55
:103AF00041EC100B51EC100B1D901C911D9A1C9B5E
:103B0000FCF779FC41EC100B9DED1E1B51EC110BE9
:103B100053EC102BFCF7C8FB41EC100B02F038FF04
:103B20008DED260B2398B0F90A10012905DBFFE77C
:103B30009DED260B8DED1A0B0CE0269A279B9FED31
:103B4000AC0B51EC100BFCF750FC41EC100B8DED65
:103B50001A0BFFE79DED1A0B8DED260B9DED260B45
:103B600040F24000C2F20000B0F906101990084679
:103B70008DED160BFCF720FD41EC110B9DED160BA6
:103B800001F0DEFF51EC100BFCF73AFD19990861CA
:103B90000869FCF722FD41EC100B9FED971B53ECDD
:103BA000112B51EC100BFCF726FC41EC100B51ECE7
:103BB000100BFCF725FD1999086191ED042A9FED82
:103BC000903A32EE032A81ED042A91ED042A9FED0A
:103BD0008D3AB4EEC32AF1EE10FA0DDAFFE740F2A7
:103BE0004000C2F2000090ED040A9FED871A30EE0B
:103BF000010A8DED150A08E040F24000C2F2000013
:103C000090ED040A8DED150AFFE79DED150A40F2CF
:103C10004000C2F2000080ED040AB0F90610B0F9CD
:103C20000A20149010461391FCF7C6FC41EC110BCE
:103C300051EC110B12901191129A119BFCF7DBFBC6
:103C400041EC110B13988DED0E1BFCF7B5FC41EC0C
:103C5000110B51EC110B0D900C910D9A0C9BFCF774
:103C6000CAFB41EC110B9DED0E2B51EC120B53ECEA
:103C7000112BFCF719FB41EC100B02F089FE8DEDC6
:103C8000260B1498B0F90A10012905DBFFE79DED1A
:103C9000260B8DED0A0B0CE0269A279B9FED540B0B
:103CA00051EC100BFCF7A1FB41EC100B8DED0A0B56
:103CB000FFE79DED0A0B8DED260B9DED260B40F2E7
:103CC0004000C2F20000B0F90810099008468DEDDE
:103CD000060BFCF771FC41EC110B9DED060B01F09E
:103CE0002FFF51EC100BFCF78BFC0999C860C868DA
:103CF000FCF773FC41EC100B9FED3F1B53EC112BB9
:103D000051EC100BFCF777FB41EC100B51EC100B56
:103D1000FCF776FC0999C86091ED032A9FED383ACB
:103D200032EE032A81ED032A91ED032A9FED353A05
:103D3000B4EEC32AF1EE10FA0DDAFFE740F24000CC
:103D4000C2F2000090ED030A9FED2F1A30EE010A37
:103D50008DED050A08E040F24000C2F2000090ED4F
:103D6000030A8DED050AFFE79DED050A40F24000CC
:103D7000C2F2000080ED030AB0F90010B0F9022091
:103D8000049010460391FCF717FC41EC100B0398CC
:103D90008DED000BFCF710FC41EC110B9DED000BC1
:103DA00001F0CEFE51EC100BFCF72AFC049948619F
:103DB0004869FCF712FC41EC100B9FED0F1B53EC14
:103DC000112B51EC100BFCF716FB41EC100B51ECD6
:103DD000100BFCF715FC0499486191ED052A9FED45
:103DE0000B3A32EE032A81ED052A2EB080BD00BFCA
:103DF00000000000000000809BE3DC26DCA54C40B6
:103E00000000B4C2000034C30000B44300003443D7
:103E1000B0B58CB013468C4686468DF82F000A91BB
:103E2000ADF826209DF82F0040F0C0008DF8250049
:103E300040F21440C4F20200016821F00801016060
:103E400040F20021C2F200010DF1250201244FF4DD
:103E50007A750890084607911146224606932B462C
:103E6000CDF814C0CDF810E00395FEF7C1FE0A9915
:103E7000BDF82620079B02901846039BFEF780FDA5
:103E800008990A6842F008020A6001900CB0B0BDBF
:103E900010B588B013468C4686468DF81F000691F3
:103EA000ADF816209DF81F008DF8150040F2144063
:103EB000C4F20200016821F00201016040F2A81082
:103EC000C2F200000DF1150101224FF47A74039340
:103ED0002346CDF808C0CDF804E0FEF789FE0021A6
:103EE000ADF812100090FFE7BDF81200BDF81610F3
:103EF000884210DAFFE7FF2000F00EFEDDF818E040
:103F0000BDF812100EF80100FFE7BDF812000130F5
:103F1000ADF81200E8E740F21440C4F20200016874
:103F200041F00201016008B010BD000080B586B00C
:103F300001468DF817000020ADF81400ADF812000E
:103F40009DF8170040F080008DF8140040F21440F6
:103F5000C4F20200026822F0080202606A464FF4CE
:103F60007A73136040F20022C2F2000205AB0DF139
:103F7000120C4FF0020E0390104602911946624651
:103F80007346FEF795FF03990A6842F008020A603B
:103F90009DF813200190104606B080BD10B588B082
:103FA0000A4603468DF81F008DF81E109DF81F006D
:103FB0008DF81C009DF81E008DF81D0040F2144085
:103FC000C4F20200016821F00801016069464FF463
:103FD0007A7CC1F800C040F20021C2F200010DF16C
:103FE0001C0C0DF11A0E022405900846614604923D
:103FF000724603932346FEF75BFF05990A6842F079
:1040000008020A60029008B010BD000080B58AB0B6
:1040100043F20000C4F20100016821F04001016098
:10402000016821F038010160016841F03001016050
:10403000016841F0400101606B20802108900791E8
:1040400000F0BAF932200690FDF718FB6820032132
:104050000590049100F0B0F90698FDF70FFB089861
:10406000079900F0A9F90698FDF708FB059804994F
:1040700000F0A2F90698FDF701FB752000F064F945
:104080008DF827009DF8270068283DD1FFE76B20B9
:104090000121039100F090F90F200290FDF7EEFA54
:1040A0006A201021019100F087F90298FDF7E6FAE5
:1040B0006C200021009100F07FF90298FDF7DEFAF4
:1040C0001920009900F078F90298FDF7D7FA1B2023
:1040D000182100F071F90298FDF7D0FA1C2001991F
:1040E00000F06AF90298FDF7C9FA3720009900F04C
:1040F00063F90298FDF7C2FA1A20022100F05CF978
:104100000398FDF7BBFA00E0FFE743F20000C4F2BA
:104110000100016821F040010160016821F03801CF
:104120000160016841F010010160016841F0400147
:10413000016000F005F80AB080BD0000000000003A
:1041400080B58CB00020ADF82C000A900990089042
:10415000BB218DF81F1040F21441C4F202010A681D
:1041600022F001020A6040F25012C2F200020DF188
:104170001F034FF0010C4FF47A7E06901046059114
:104180001946049262467346CDF80CE0FEF730FD06
:1041900008A90E22049B02901846039BFEF7F0FB31
:1041A00005990A6842F001020A60069A8DF81E20FD
:1041B0000190FFE79DF81E00052830DCFFE79DF821
:1041C0001E00C007002814D1FFE79DF81E0008A9B3
:1041D000095C00F0FE0040F25802C2F20002063212
:1041E00011529DF81E0000F0FE00115A09021152F2
:1041F0000EE09DF81E0008A9095C00F0FE0040F2E8
:104200005802C2F200021044C2881143C180FFE785
:10421000FFE79DF81E0001308DF81E00CAE706205A
:104220008DF81E00FFE79DF81E00072823DCFFE73E
:104230009DF81E00C00700280CD1FFE79DF81E0066
:1042400008A9085CADF81C00BDF81C000002ADF820
:104250001C0009E09DF81E0008A9085CBDF81C10B0
:104260000843ADF81C00FFE7FFE79DF81E00013092
:104270008DF81E00D7E7BDF91C00FCF79DF941EC55
:10428000100B9FED2F1B53EC112B51EC100BFCF777
:1042900024F941EC100B51EC100BFCF7B1F902EED4
:1042A000100AB3EE053A32EE032A40F25800C2F289
:1042B000000080ED092A08208DF81E00FFE79DF818
:1042C0001E000D2837DCFFE79DF81E00C007002800
:1042D00019D1FFE79DF81E0008A9095C083800EB1A
:1042E000D07020F0010040F25802C2F200021152D8
:1042F0009DF81E00083800EBD07020F00100115A24
:104300000902115210E09DF81E0008A9095C083846
:1043100000EBD07020F0010040F25802C2F200021F
:10432000135A19431152FFE7FFE79DF81E000130B1
:104330008DF81E00C3E70CB080BD00BF00BF00BFFA
:1043400052B81E85EBDD744080B586B001468DF80D
:1043500017000020ADF81400ADF812009DF817000A
:1043600040F080008DF8140040F21440C4F20200C6
:10437000026822F0010202606A464FF47A73136009
:1043800040F25012C2F2000205AB0DF1120C4FF0D8
:10439000020E039010460291194662467346FEF7DC
:1043A00087FD03990A6842F001020A609DF8132014
:1043B0000190104606B080BD10B588B00A4603468D
:1043C0008DF81F008DF81E109DF81F008DF81C0041
:1043D0009DF81E008DF81D0040F21440C4F202004A
:1043E000016821F00101016069464FF47A7CC1F84F
:1043F00000C040F25011C2F200010DF11C0C0DF191
:104400001A0E0224059008466146049272460393F0
:104410002346FEF74DFD05990A6842F001020A6045
:10442000029008B010BD000080B584B00020039059
:1044300002900190009040F2E001C2F2000142F2CD
:104440000002C4F201020A604FF400324A60886040
:104450000861087681F82000C8620122C0F6007267
:104460008A62C8600122CA6181F830004A61084648
:10447000FCF70AFF002803D0FFE7FCF7E9FDFFE7A0
:104480000D200090012001900020029040F2E000F9
:10449000C2F200006946FCF7E3FD002803D0FFE705
:1044A000FCF7D6FDFFE704B080BD000080B540F208
:1044B0002810C2F2000046F60001C4F200010160BB
:1044C0001021416000218160C1600161416101767C
:1044D00041768176C17601774177FCF777FF002836
:1044E00003D0FFE7FCF7B4FDFFE780BD80B598B0CF
:1044F000002017901690159014901390FFE700205D
:10450000129043F63000C4F20200016841F08001CD
:104510000160006800F08000129012980E90FFE792
:10452000FFE70020119043F63000C4F2020001685A
:1045300041F004010160006800F00400119011983E
:104540000D90FFE7FFE70020109043F63000C4F223
:104550000200016841F001010160006800F0010003
:10456000109010980C90FFE7FFE700200F9043F6A3
:104570003000C4F20200016841F0020101600068ED
:1045800000F002000F900F980B90FFE740F600003C
:10459000C4F2020040F2231101220A900992FDF7B1
:1045A0007BFA0020C4F20200082108900791099AC2
:1045B000FDF772FA102100200A9A06901046069A1A
:1045C000FDF76AFA40F20040C4F202000B210590A8
:1045D0000491099AFDF760FA40F23310139009989C
:1045E000149006991591032216920DF14C0E0A981B
:1045F00071460392CDF808E0FDF768F80398139030
:1046000002211491069A15921690DDF81CE0CDF85F
:104610005CE00898029B01911946FDF757F807984E
:10462000139009991491069A1592039B1693089872
:104630000299FDF74BF80498139009991491069A82
:104640001592039B169305980299FDF73FF84FF4D6
:10465000036013900020C1F2110014900698159089
:1046600005980299FDF732F8C02013900199149132
:10467000069A1592039B1693DDF81CE0CDF85CE0DA
:10468000DDF828C0009060460299FDF71FF80098F9
:10469000139001991491069A1592039B16934FF06B
:1046A000070CCDF85CC005980299FDF70FF84FF4A0
:1046B0004070139012201490099815900399169148
:1046C0000422179205980299FDF700F818B080BDF2
:1046D00080B540F25010C2F2000043F20001C4F273
:1046E000010101604FF48271416000218160C1606D
:1046F00002220261012242614FF40072826138227B
:10470000C2610162416281620A21C162FDF7E6FF76
:10471000002803D0FFE7FCF79BFCFFE780BD00000B
:1047200080B540F2A810C2F2000043F60001C4F2C6
:10473000000101604FF48271416000218160C1601D
:10474000016141614FF4007282610822C26101621D
:10475000416281620A21C162FDF7C0FF002803D0D7
:10476000FFE7FCF775FCFFE780BD000080B540F275
:104770000020C2F2000043F60041C4F200010160D3
:104780004FF48271416000218160C16002220261A8
:10479000012242614FF4007282610822C26101620B
:1047A000416281620A21C162FDF798FF002803D0AF
:1047B000FFE7FCF74DFCFFE780BD000080B596B039
:1047C00000201590149013901290119010900F905B
:1047D0000E900D900C900B900A9009900890079005
:1047E00006900590049003900290019040F25821A9
:1047F000C2F200010022C4F201020A6053224A60A0
:10480000886049F64042CA6008614861802088613A
:104810000846FEF725FE002803D0FFE7FCF718FC4A
:10482000FFE74FF48050129040F25820C2F200008F
:1048300012A9FEF78DFE002803D0FFE7FCF708FC65
:10484000FFE740F25820C2F20000FFF731F80028DD
:1048500003D0FFE7FCF7FCFBFFE70020109011906E
:1048600040F25820C2F2000010A9FEF763FD0028B4
:1048700003D0FFE7FCF7ECFBFFE7602009904FF463
:10488000FA600A9000200B900C900D900E900F9003
:1048900040F25821C2F2000109AA009008461146D0
:1048A000009AFEF75DFF002803D0FFE7FCF7D0FB7E
:1048B000FFE740F25820C2F2000001688A6922F046
:1048C00008028A6109A90422FEF74AFF002803D0E2
:1048D000FFE7FCF7BDFBFFE740F25820C2F2000003
:1048E00001688A6922F400628A6109A90822FEF738
:1048F00037FF002803D0FFE7FCF7AAFBFFE740F2F1
:104900005820C2F200000168CA6922F00802CA6198
:1049100009A90C22FEF724FF002803D0FFE7FCF7CB
:1049200097FBFFE740F25820C2F200000168CA6915
:1049300022F40062CA610021019102910391049165
:1049400005914FF400520692089101A9FEF794FCDC
:10495000002803D0FFE7FCF77BFBFFE740F258207D
:10496000C2F20000FEF7C4FE16B080BDFFE7FEE70E
:10497000FFE7FEE780B540F28C00C2F20000512153
:10498000FBF787FC00F014F8012801D0FFE70EE0E8
:1049900040F28C00C2F20000192180F8311032215F
:1049A00080F8331080F8351080F83710FFE780BDAD
:1049B00080B588B000F04AF940F6140EC4F2020E39
:1049C000DEF8000020F02000CEF800000120039067
:1049D000CDF808E0FCF752FE46F6C051C0F60001E3
:1049E0002A204FF0050E7246CDF804E000F056F88C
:1049F0002120039900F0B0F82220039900F0ACF8D0
:104A000025200C2100F0A8F831202021009100F091
:104A1000A3F826200F2100F09FF83F21009800F016
:104A20009BF80298016841F0200101600398FCF7AF
:104A300025FE0A200DF11501019AFFF729FA002041
:104A4000ADF81200FFE7BDF81200042815DCFFE7FF
:104A5000BDF812000DF11501095C46F6C052C0F612
:104A60000002105C814201D0FFE706E0FFE7BDF8DD
:104A700012000130ADF81200E5E7BDF8120005287C
:104A800004D0FFE700208DF81F0003E001208DF81F
:104A90001F00FFE79DF81F0008B080BDB0B58CB0C7
:104AA00013468C4686468DF82F000A91ADF82620D5
:104AB0009DF82F008DF8250040F21440C4F202004A
:104AC000016821F00201016040F2A811C2F2000168
:104AD0000DF1250201244FF47A75089008460791DC
:104AE0001146224606932B46CDF814C0CDF810E0AF
:104AF0000395FEF77DF80A99BDF82620079B0290E2
:104B00001846039BFEF774F808990A6842F00202FF
:104B10000A6001900CB0B0BD80B584B001468DF83C
:104B20000F0068464FF47A72026040F2A810C2F299
:104B300000000DF10F020DF10E034FF0010C029178
:104B400011461A466346FEF7B3F99DF80E10019020
:104B5000084604B080BD000010B58AB00A4603467E
:104B60008DF827008DF8261040F21440C4F20200A0
:104B7000016821F00201016040F2A811C2F20001B7
:104B80000DF1270C4FF0010E4FF47A74089008468F
:104B9000079161460692724605932346CDF810E0D0
:104BA0000394FEF725F80DF12601079A02901046AE
:104BB000049A039BFEF71CF808990A6842F0020267
:104BC0000A6001900AB010BD80B58BB013468C46C8
:104BD00086460A90099108920A9800F0070007900B
:104BE0000798C0F1070005280493CDF80CC0CDF854
:104BF00008E003D3FFE70420019004E00798C0F128
:104C000007000190FFE701980690079804300628F6
:104C100003D8FFE70020009003E0079803380090D6
:104C2000FFE70098059009980699012202FA01F120
:104C30000139084005998840089B02FA01F10139C1
:104C4000194008430BB080BD7047000080B582B0AA
:104C500040F61400C4F20200016821F02001016056
:104C6000012101900846FCF709FD20200D21FFF7E6
:104C700073FF0198016841F0200101601420FCF7E6
:104C8000FDFC02B080BD000080B588B013468C46A4
:104C9000864606900591049206984068B0F5827F9A
:104CA0000393CDF808C0CDF804E013D1FFE70698D0
:104CB0008068B0F5004F06D0FFE706988068B0F531
:104CC000806F07D1FFE706980068016821F0400176
:104CD0000160FFE706984068B0F5827F33D1FFE7B7
:104CE00006988068B0F5806F16D0FFE70698059BA0
:104CF00004996A4611608021002200F0A1F8002882
:104D000009D0FFE70698416D41F02001416503207D
:104D10008DF81F0031E015E00698059B04996A465E
:104D200011600121002200F08BF8002809D0FFE774
:104D30000698416D41F02001416503208DF81F0068
:104D40001BE0FFE715E00698059B04996A46116091
:104D50000121002200F074F8002809D0FFE706982E
:104D6000416D41F02001416503208DF81F0004E0F2
:104D7000FFE700208DF81F00FFE79DF81F0008B037
:104D800080BD000010B58CB013468C4686460A9054
:104D90000991089240F20400C2F2000000684AF64D
:104DA000AB21CAF6AA21A0FB010109094DF68362D5
:104DB000C4F21B32A1FB0212920C4FF47A746243CC
:104DC00007920A9A5268B2F5827F0693CDF814C012
:104DD000CDF810E00390029116D1FFE70A98099BE5
:104DE00008996A4611608021002200F029F8002805
:104DF00009D0FFE70A98416D41F020014165032089
:104E00008DF82F0018E013E0FFE70798002801D184
:104E1000FFE70CE0079801380790FFE70A98006861
:104E20008068C0B20021B1EBD01FEED1FFE7FFE7F1
:104E300000208DF82F00FFE79DF82F000CB010BD6B
:104E400070B58EB0DDF848C09E4614460D46064645
:104E50000C900B918DF82B2009930998CDF814C074
:104E6000CDF810E00394029501960090FCF736FE11
:104E70001299081A009908440790FCF72FFE069033
:104E8000079840F20401C2F200010968C1F3CB3176
:104E900048430890FFE70C98006880680B99084029
:104EA000401AB0FA80F040099DF82B10884262D079
:104EB000FFE70998013000285CD0FFE7FCF70EFE01
:104EC000DDF818E0A0EB0E00DDF81CE0704504D220
:104ED000FFE70798002842D1FFE70C980068416877
:104EE00021F0E00141600C984068B0F5827F13D159
:104EF000FFE70C988068B0F5004F06D0FFE70C98EC
:104F00008068B0F5806F07D1FFE70C9800680168F2
:104F100021F040010160FFE70C98806AB0F5005F66
:104F20000FD1FFE7FFE70C980068016821F40051FA
:104F300001600C980068016841F400510160FFE7CE
:104F4000FFE70C98012180F85110FFE70C98002131
:104F500080F85010FFE703208DF837000FE0089825
:104F6000002803D1FFE700200790FFE708980138E9
:104F70000890FFE78FE700208DF83700FFE79DF8E6
:104F800037000EB070BD00007047000080B584B0DF
:104F90000146029002980138B0F1807F019103D35D
:104FA000FFE7012003901BE0029801384EF2140144
:104FB000CEF2000108604FF0FF300F2100F0D4FB6B
:104FC0004EF21800CEF20000002101604EF21000F7
:104FD000CEF200004FF0070EC0F800E00391FFE7AB
:104FE000039804B080BD000080B5FCF77DFD80BD56
:104FF00080B596B00AA83021FBF74BF90020099044
:105000000890079006900590FFE70020039043F674
:105010004000C4F20200016841F080510160006864
:1050200000F08050039003980190FFE7FFE7002015
:10503000029047F20000C4F20000016841F4804190
:105040000160006800F48040029002980090FFE741
:1050500001200A904FF480300B90022010904FF402
:1050600080011191102112914FF4A07113911490AD
:10507000042015900AA8FCF7B1FF002803D0FFE731
:10508000FBF7E6FFFFE70F200590022006900020C7
:1050900007904FF4A05008904FF48050099005A855
:1050A0000521FCF7E3FD002803D0FFE7FBF7D0FF65
:1050B000FFE7FCF719FF049016B080BD4EF688504C
:1050C000CEF20000016841F47001016070470000F9
:1050D00085B00A4603460490039104980068029044
:1050E00004980021C4F2010188420192009325D066
:1050F000FFE70498B0F1804F20D0FFE7049840F21A
:105100000041C4F20001884218D0FFE7049840F63D
:105110000001C4F20001884210D0FFE7049840F675
:105120000041C4F20001884208D0FFE7049840F231
:105130000041C4F2010188420AD1FFE7029820F041
:105140007000029003984068029908430290FFE7BC
:1051500004980021C4F20101884255D0FFE7049869
:10516000B0F1804F50D0FFE7049840F20041C4F204
:105170000001884248D0FFE7049840F60001C4F2DD
:105180000001884240D0FFE7049840F60041C4F295
:105190000001884238D0FFE7049840F20041C4F291
:1051A0000101884230D0FFE7049844F20001C4F2C4
:1051B0000101884228D0FFE7049844F20041C4F27C
:1051C0000101884220D0FFE7049844F60001C4F2B0
:1051D0000101884218D0FFE7049841F60001C4F2AB
:1051E0000001884210D0FFE7049841F60041C4F264
:1051F0000001884208D0FFE7049842F20001C4F29F
:10520000000188420AD1FFE7029820F44070029022
:105210000398C068029908430290FFE7029820F0C3
:105220008000039949690843029002980499086034
:10523000039880680499C86203980068049988629A
:1052400004980021C4F20101884208D0FFE70498C5
:1052500040F20041C4F20101884205D1FFE7039802
:10526000006904990863FFE704980121416105B0D2
:1052700070470000B0B589B09C4696460C4605467E
:105280000890079106920593089880680490049806
:1052900020F47F40049007980699059A41EA02217C
:1052A0000843049908430490049808998860CDF84D
:1052B0000CC0CDF808E00194009509B0B0BD000025
:1052C00085B00A46034604900391049880680290D2
:1052D000029820F07000029003980299084340F071
:1052E000070002900298049988600192009305B02B
:1052F0007047000087B00A4603460690059106985D
:10530000016A21F0010101620698006A0390069883
:1053100040680290069880690490049820F070001C
:105320000490049820F00300049005980068049904
:1053300008430490039820F00200039005988068C9
:1053400003990843039006980021C4F201018842A2
:105350000192009308D0FFE7069840F20041C4F2A2
:10536000010188420ED1FFE7039820F00800039066
:105370000598C068039908430390039820F004003F
:105380000390FFE706980021C4F20101884208D08B
:10539000FFE7069840F20041C4F20101884213D1B0
:1053A000FFE7029820F480700290029820F40070C9
:1053B0000290059840690299084302900598806917
:1053C000029908430290FFE7029806994860049802
:1053D000069988610598406806994863039806997C
:1053E000086207B07047000087B00A46034606907F
:1053F00005910698016A21F0100101620698006A81
:10540000039006984068029006988069049004987A
:1054100020F4E0400490049820F440700490059833
:105420000068049941EA00200490039820F02000CD
:10543000039005988068039941EA0010039006984C
:105440000021C4F2010188420192009308D0FFE7D5
:10545000069840F20041C4F2010188420FD1FFE7F3
:10546000039820F0800003900598C068039941EAF2
:1054700000100390039820F040000390FFE7069887
:105480000021C4F20101884208D0FFE7069840F2EB
:105490000041C4F20101884215D1FFE7029820F4CF
:1054A00080600290029820F40060029005984069A4
:1054B000029941EA8000029005988069029941EAC8
:1054C00080000290FFE702980699486004980699C8
:1054D0008861059840680699886303980699086270
:1054E00007B0704787B00A460346069005910698B4
:1054F000016A21F4807101620698006A039006989F
:10550000406802900698C0690490049820F07000EA
:105510000490049820F00300049005980068049912
:1055200008430490039820F4007003900598806865
:10553000039941EA0020039006980021C4F201017A
:1055400088420192009308D0FFE7069840F200419C
:10555000C4F2010188420FD1FFE7039820F40060F4
:1055600003900598C068039941EA002003900398CE
:1055700020F480600390FFE706980021C4F2010147
:10558000884208D0FFE7069840F20041C4F20101CA
:10559000884215D1FFE7029820F4805002900298CB
:1055A00020F40050029005984069029941EA0010E9
:1055B000029005988069029941EA00100290FFE785
:1055C00002980699486004980699C8610598406851
:1055D0000699C86303980699086207B070470000EF
:1055E00087B00A460346069005910698016A21F4A1
:1055F000805101620698006A039006984068029004
:105600000698C0690490049820F4E040049004983F
:1056100020F44070049005980068049941EA002045
:105620000490039820F40050039005988068039933
:1056300041EA0030039006980021C4F2010188423B
:105640000192009308D0FFE7069840F20041C4F2AF
:10565000010188420BD1FFE7029820F480400290BC
:1056600005984069029941EA80100290FFE702988C
:105670000699486004980699C8610598406806999B
:10568000086403980699086207B0704780B588B02F
:1056900013468C4686460790069105920798006A45
:1056A00003900798016A21F001010162079880695F
:1056B0000490049820F0F00004900598049941EAC1
:1056C00000100490039820F00A00039006980399B4
:1056D0000843039004980799886103980799086222
:1056E0000293CDF804C0CDF800E008B080BD000002
:1056F00080B588B013468C46864607900691059281
:105700000798016A21F010010162079880690490EE
:105710000798006A0390049820F47040049005985C
:10572000049941EA00300490039820F0A00003900F
:105730000698039941EA001003900498079988613C
:105740000398079908620293CDF804C0CDF800E0F1
:1057500008B080BDFFE7FEE74EF60C50CEF2000029
:105760000068C0F30220704784B00A4603468DF8F3
:105770000F0002919DF90F000028019200930ADBAF
:10578000FFE7029800019DF90F104EF20042CEF2A1
:10579000000288540BE0029800019DF80F1001F000
:1057A0000F014EF61452CEF200028854FFE704B007
:1057B0007047000084B001460390039800F0070092
:1057C00001904EF60C50CEF2000002680292029A4E
:1057D0004FF6FF031A400292029A019B42EA03220B
:1057E0000023C0F2FA531A430292029A0260009117
:1057F00004B0704780B582B0002001900090FEF7A1
:10580000B5F840F60000C4F202000121009AFCF74E
:1058100043F9FEF7FBFBFBF747F9FEF7BFF8FFF78D
:10582000A9F8FFE7FEF78CFCFBF776F9FEF704F921
:105830000120FBF723FFF5E703B40198410000982E
:1058400050EAC12018BF04204A0D18BF40F00100E3
:1058500040F2FF72B2EB515F08BF40F00200012836
:1058600008BF052002B0704770B59B482DED020BB4
:105870002DED068B079D25F00044A04218DC9748CB
:10588000844202DC0AD1069840B19DED060BBDECC6
:10589000068B02B0BDE8704001F04EB9002DCCBFC0
:1058A0009FED8F0B9FED900BBDEC068B02B070BD92
:1058B0008F48A04215DD8F48A042D8BF4FF0FF347B
:1058C00058DD9DED060B51EC100BFFF7B5FF0428DA
:1058D00008BF01F065F99DED060BBDEC068B02B02B
:1058E00070BD9DED060B51EC100B01F087F9CDE971
:1058F000060181489FED828BA0423CDD8248A04298
:105900001FDD00249FED82AB9DED060B53EC1A2B9F
:1059100051EC100BFAF7C8FC9DED060B41EC190B8E
:1059200053EC1A2B51EC100BFAF765FD53EC182BC6
:10593000FAF75BFD53EC192BFAF7CFFDCDE9060121
:1059400049E09DED060B012453EC182B51EC100B94
:10595000FAF7AAFC9DED060B41EC190B53EC182B42
:1059600051EC100BFAF741FD53EC192BFAF7B5FD8A
:10597000CDE906012FE06848A0421FDD02249FED1B
:10598000689B9DED060B53EC192B51EC100BFAF7AD
:1059900032FD53EC182BFAF787FC9DED060B41EC1A
:1059A000180B53EC192B51EC100BFAF71EFD53ECAE
:1059B000182BFAF792FDCDE906010CE09DED060BE0
:1059C000032453EC102B9FED580B51EC100BFAF7FE
:1059D00084FDCDE906019DED060B53EC102B51EC37
:1059E000100BFAF708FD41EC180B53EC182BFAF7E3
:1059F00002FD41EC190B4E480621B0EE490AF0EECB
:105A0000690A784401F001F853EC182B51EC100BA3
:105A1000FAF7F1FC41EC180B4648B0EE490AF0EEFB
:105A2000690A0521784400F0F0FF53EC192B51EC82
:105A3000100BFAF7E0FC41EC100B51EC180B53EC97
:105A4000102B002C0EDAFAF72FFC9DED061B53EC01
:105A5000112BFAF7D0FC9DED061B53EC112BFAF736
:105A6000C7FC35E0FAF720FC9DED061B53EC112B2B
:105A7000FAF7C1FC41EC100B2F48784400EBC4004E
:105A800090ED001B51EC100B53EC112BFAF7ADFC11
:105A90009DED061B53EC112BFAF7A7FC41EC100B04
:105AA0002648784400EBC40090ED001B51EC100B2D
:105AB00053EC112BFAF79CFC41EC100B002DA2BF0C
:105AC000BDEC068B02B070BD51EC100B81F00041B3
:105AD00041EC100B01E70000000010440000F07FD3
