:020000040800F2
:10000000C0160020C1010008E53D0008712C000861
:10001000E13D00088D0300082548000800000000AD
:10002000000000000000000000000000C9430008BC
:100030001104000800000000A3400008DB43000892
:10004000DB010008DB010008DB010008DB01000820
:10005000DB010008DB010008DB010008DB01000810
:10006000DB010008DB010008DB010008DB01000800
:10007000DB010008DB010008DB010008DB010008F0
:10008000DB010008DB010008DB010008DB010008E0
:10009000DB010008DB010008DB010008DB010008D0
:1000A000DB010008DB010008DB010008DB010008C0
:1000B000DB010008DB010008DB010008DB010008B0
:1000C000DB010008DB010008DB010008DB010008A0
:1000D000DB010008DB010008DB010008DB01000890
:1000E000DB010008DB010008DB010008DB01000880
:1000F000DB010008DB010008DB010008DB01000870
:10010000DB010008DB010008DB010008DB0100085F
:10011000DB010008DB010008DB010008DB0100084F
:10012000F9030008DB01000805040008DB010008F2
:10013000DB010008DB010008DB010008DB0100082F
:10014000DB010008DB010008DB010008DB0100081F
:10015000DB010008DB010008DB010008DB0100080F
:10016000DB010008DB010008DB010008DB010008FF
:10017000DB010008DB010008DB01000800000000D3
:10018000DB010008DB010008DB010008DB010008DF
:10019000DB010008DB010008DB010008DB010008CF
:1001A000DB010008DB010008DB010008DFF80CD0F0
:1001B00000F098F80048004729480008C0160020C1
:1001C0000648804706480047FEE7FEE7FEE7FEE7F1
:1001D000FEE7FEE7FEE7FEE7FEE7FEE797440008DE
:1001E000AD0100082DE9F05F0546002092469B46D0
:1001F00088460646814640241BE02846414647463D
:10020000224600F05EF853465A46C01A914110D378
:1002100011461846224600F045F82D1A67EB0108F2
:100220004F4622460120002100F03CF817EB000960
:100230004E41201EA4F10104DFDC484631462A4627
:100240004346BDE8F09FD2B201E000F8012B491E01
:10025000FBD270470022F6E710B513460A46044663
:100260001946FFF7F0FF204610BD421C10F8011B95
:100270000029FBD1801A704730B50B46014600209B
:100280002022012409E021FA02F59D4205D303FA58
:1002900002F5491B04FA02F52844151EA2F10102D9
:1002A000F1DC30BD202A04DB203A00FA02F1002004
:1002B00070479140C2F1200320FA03F319439040A4
:1002C0007047202A04DB203A21FA02F0002170470F
:1002D00021FA02F3D040C2F12002914008431946AE
:1002E00070470000064C074D06E0E06840F001034F
:1002F00094E8070098471034AC42F6D3FFF75AFF52
:1003000058680008786800080146806B036C026C2E
:1003100013F0500F07D0D20648BF00F094BA806B9C
:10032000C26C0846104742F40071016401688A6893
:1003300012F0405F01D000F0E9B9027E002AFAD144
:10034000CA6A12F4700F02D08A685205F3D44A6860
:1003500022F020024A60016C21F480710164016C7A
:10036000C90448BF00F0D2B9016C41F00101016439
:1003700000F0CCB9806B40210164416C41F0040174
:10038000416400F060BA806B00F05CBAFEE740F2B6
:100390009020C2F200000021C0E9001103F024BD4A
:1003A00010B540F29024C2F200042078022809D04F
:1003B000012809D0B8B940F22030C2F2000000682C
:1003C00060600CE000200CE040F22030C2F200003F
:1003D00000686168884208BF10BD03F0EDFD207819
:1003E0000130207010BD0020207040F22030C2F299
:1003F00000000068606010BD40F2B430C2F200003E
:1004000000F052BC40F21440C2F2000000F04CBCBC
:1004100070470000EFF3108072B600BFFEE72DE9D1
:10042000F0410B680268012B1DD1D1E9073422F499
:10043000F842D1E901E7D1E90365D1E9058C496AC0
:100440001A4322431143426847F6FF739A4342EA34
:100450000E023A4332432A4342EA080242EA0C02BD
:100460000160426019E047F6FF7322EA030CD1E90C
:100470000132D1E903E443EA0C0301F114081A4301
:1004800098E8E00142EA0E0222432A433243496AD5
:100490003A4342EA0802114301600020BDE8F081BE
:1004A0000246406940EA4101002051617047000066
:1004B000F0B581B000250095144691E88C00C9681C
:1004C0001A436FF01F0303EB47131A4342EA41211B
:1004D000009100990646016100F08DFEB169890620
:1004E0000FD50746651C00BF2DB14CB100F083FE4F
:1004F000C01BA04204D8B0698006F5D4002500E0F6
:100500000325284601B0F0BD2DE9F0418368012A9A
:1005100035D140F6FF72CFF60F721A40CB684FF21A
:100520000006CFF6FF764F6906EB03330026CFF6C1
:10053000F07606EB07571A43C36842EA070CD1E985
:1005400000768D686FF00F0203F0704302EB061225
:100550006FF0FF06013F0C6906EB052600253B43C3
:10056000CFF6FF7589691A4305EB0445324301391B
:100570002A4342EA0161C0F808C0C1602EE003F0DE
:10058000704CD1E90032D1E902E401F110084FF2D8
:100590000001013B6FF00F07CFF6FF7198E8600193
:1005A00007EB02126FF0FF0701EB0431002443EA6E
:1005B0000C0307EB0E27CFF6FF741A4304EB054537
:1005C00000243A43CFF6F074114304EB0656294356
:1005D000A8F10104314341EA046181600020BDE8D3
:1005E000F081000070B581B00022009290F83C20AC
:1005F000012A01D102214CE00E6801220A2E80F866
:100600003C2009D3B2B25200D0F800E012FA86F2D0
:100610001E3A0EF10C0305E0D0F800E006EB4602AE
:100620000EF110034FF0070C1D680CFA02F4A543FD
:100630001D608D681C6805FA02F222431A60496841
:10064000062905D801EB810105390EF1340309E0D3
:100650000C2901EB810187BF41390EF12C032339AD
:100660000EF130031F221C688A4024EA020242F283
:10067000043C1A60C4F2010CB2B21C6802FA01F127
:10068000ACF5417221439645196005D0002180F8F0
:100690003C10084601B070BD1221112EC1F20001BC
:1006A00018BF8E4223D1DCF800208E4222F4800253
:1006B000CCF80020DCF8002042F40002CCF8002046
:1006C000E4D140F20001C2F2000109684DF68362F4
:1006D000C4F21B32A1FB0212910C01EB8101490013
:1006E000009100990029D1D000990139F8E7122E24
:1006F000CCD1DCF8001021F40001CCF80010DCF8BB
:10070000001041F48001CCF80010BFE710B586B0AE
:1007100040F22431C2F2000188424AD040F26C31EA
:10072000C2F20001884240F0878001AC20461421CB
:10073000FFF790FD40F2C8114FF0000CC2F200012B
:10074000002200BF31F8123054F82200184444F857
:1007500022000132052AF5D10CF1010CBCF1140F75
:1007600001F10A01ECD14CF6CD4C9FED340A9FED1E
:10077000341A40F2BE120020CCF6CC4CC2F2000279
:1007800054F82030A3FB0C31090902EE101AB8EE20
:10079000422A22EE002A22EE012ABCEEC22A12EEE2
:1007A000101A44F8201022F8101001300528E7D163
:1007B00042E001AC20461421FFF74CFD40F2F60167
:1007C0004FF0000CC2F20001002200BF31F81230DD
:1007D00054F82200184444F822000132052AF5D1C9
:1007E0000CF1010CBCF1140F01F10A01ECD14CF633
:1007F000CD4C9FED120A9FED121A40F2EC02002040
:10080000CCF6CC4CC2F2000254F82030A3FB0C31E1
:10081000090902EE101AB8EE422A22EE002A22EE50
:10082000012ABCEEC22A12EE101A44F8201022F857
:10083000101001300528E7D106B010BD0000803946
:1008400000404E4570477047002848D010B5044618
:10085000006C30B9204600F09DF80020606484F8F8
:100860003C00206CC0063CD4206C41F2021188434D
:10087000023042F204312064C4F20101086820F41D
:10088000403008600A6894E809101A43D4F810E070
:100890000A604168012321F4807141604168C0F61B
:1008A000007341EA0E214160416821F040714160CE
:1008B000416841EA0C014160816821F40061816076
:1008C000E168826811438160A16A8268994222F0DE
:1008D00070628260826806D122F040510CE00120F3
:1008E0007047012052E011438160816821F040513E
:1008F0008160E16A826811438160816821F00201B0
:1009000081608168227E94F8203041EA4201816052
:10091000416883B141F40061416041684EF20002D8
:1009200021F460414160616ACFF6FF72436802EBD7
:100930004131194301E021F400614160C16A40F294
:10094000000C21F47001C162E2696169CFF6F07CAC
:10095000C36A0CEB02521A43C262826822F400722C
:10096000826094F83020836843EA42228260826881
:1009700022F480628260826842EA812181600020E4
:100980006064216C012262F301012164002184F87A
:100990003C1010BD2DE9F04186B0044601A8142199
:1009A000FFF758FC206842F20011C4F201018842AE
:1009B00051D042F20001C4F20101884240F0C180EE
:1009C000002643F630000096C4F20200416941F46B
:1009D00080714161416901F4807100910099009634
:1009E000016841F001010160006801A900F0010007
:1009F00000900098F82001900320CDE90206002025
:100A0000C4F2020000F016FB40F2B43546F210408A
:100A1000C2F20005C4F202004FF48061C5E900068D
:100A200005F110004FF400624FF400534FF480774B
:100A30008EC04FF44030C5E908062846C5E9026675
:100A400000F0F2F900287AD0FFF7E4FC40F2B43568
:100A5000C2F2000573E0002743F630000097C4F2AD
:100A60000200416940F2000841F4007141614169AE
:100A7000C4F2020801F40071009100990097016826
:100A800001AE41F0040101600168032501F0040199
:100A9000009100990097016841F00101016001682F
:100AA00001F00101009100990097016841F00201F5
:100AB00001600068314600F00200009000980220BA
:100AC000019008F50060CDE9025700F0B3FA062066
:100AD00001A9A1C14046314600F0ACFA08F580609A
:100AE0003146CDE90155039700F0A4FA46F21040D3
:100AF000C4F2020040F214453030C2F200054FF05B
:100B000000714FF4006385E8830005F114004FF491
:100B100000564FF4807C80E848104FF440304FF48A
:100B20008062C5E908072846C5E9037200F07CF930
:100B300028B1FFF76FFC40F21445C2F20005A5632F
:100B4000AC6306B0BDE8F08170B582B00446002009
:100B5000019094F83C00012801D10220A2E0134644
:100B60000A460120216884F83C008868C00717D134
:100B700088684DF6836540F00100886040F200000F
:100B8000C2F200000068C4F21B35A0FB0505A80CEA
:100B900000EB40000190019810B101980138F9E78D
:100BA0008868C00503D5886820F4807088608D68E7
:100BB000206CED0707D140F010002064606C40F01D
:100BC000010060646DE040F20175A84300F580709B
:100BD00020644868400504D5206C012565F30D307C
:100BE0002064256C0020ED044FF0000544BF656CC7
:100BF00025F00605656484F83C00A06B40F20935D9
:100C000040F2873CC0F60005C0F6000CC0E90F5C5E
:100C100040F27535C0F60005C5646FF022050D6021
:100C20004D6842F2000645F080654D608D68C4F263
:100C3000010645F480758D604C3100F099F9D6F8C5
:100C400004132068C9060AD0B0422AD1B06810F057
:100C5000405F26D1B06840F08040B06021E0B042F3
:100C600017D042F20021C4F2010188420DD042F2B5
:100C70000011C4F20101884213D1D6F80413C90649
:100C800007D006F5007188420BD1D6F80413C906C7
:100C900007D4816811F0405F03D1816841F0804141
:100CA0008160002002B070BDF0B581B00446002024
:100CB000009040F20000C2F200000268D4E9166021
:100CC00048F2B51337680821C1F64E3381403942E6
:100CD000A2FB03250CD0226813685B0708D51368B4
:100CE00023F004031360B160616D41F0010161659F
:100CF00001218140394208D022685269120604D588
:100D0000B160616D41F002016165042181403942A9
:100D100008D022681268920704D5B160616D41F075
:100D20000401616510218140394217D020680268B2
:100D3000120713D5B16002680168520306D4C905D1
:100D400006D4016821F00801016001E0080301D424
:100D5000216C00E0A16C09B120468847E16D20209C
:100D600000FA01F23A423CD020680368DB0638D52D
:100D7000B26094F835300268052B1AD122F01602C1
:100D80000260426922F080024261226C0AB9A26CC0
:100D90001AB1026822F0080202603F208840B06069
:100DA000012084F83500216D002084F83400B9BB9F
:100DB00038E0016852030CD4C9050ED4016821F053
:100DC00010010160012084F83500002084F834000F
:100DD00003E0080301D4616C00E0E16B09B1204637
:100DE0008847606DF0B1606DC00717D0052084F8AA
:100DF00035002068A90A026822F00102026000BFE3
:100E0000009A01328A42009202D80268D207F7D1D2
:100E1000012084F83500002084F83400E16C09B129
:100E20002046884701B0F0BD2DE9F041044600F0AE
:100E3000E2F9002C4DD00546022084F83500002050
:100E4000216884F83400086820F00100086000BFC1
:100E50000868C00706D000F0CEF9401B052865D809
:100E60002168F5E7086848F23F02CFF21002D4E9A2
:100E70000135024004F10C0E9EE8C1511A432A4389
:100E800010433043384340EA0800626A40EA0C00ED
:100E9000042A40EA0E031FD1D4E90A5E206B4EEA11
:100EA0000302104308604869BEF1000F20F0030000
:100EB00040EA050040F0040C14D0B8F5005F39D0CA
:100EC000B8F1000F45D1022D46D0012D3BD0002DA9
:100ED00041E00120BDE8F0810B60486920F0070087
:100EE00040EA020C6FF00F004AF6AB2250FA81F094
:100EF000CAF6AA22A0FB02231A0946F65003C0F63E
:100F000000039A5C40F2FF335F284FF03F00C1F8C6
:100F100014C021EA030100FA02F088BF0431C4E9D9
:100F2000161288600023012200201CE003222023E7
:100F3000032018E0032DD5D8012240230120DFE84B
:100F400005F0120B1202AEF1C070B0FA80F0400949
:100F500004E0032D04D3C5D1CEF300600028C1D036
:100F6000012240230120636584F83520BDE8F0812B
:100F700070B590F834C0BCF1010F45D04FF0010CB2
:100F800080F834C0D0F858E090F835C0BCF1010FBB
:100F900037D14FF0020C80F835C04FF0000CC0F88C
:100FA00054C0D0F800C08468056CC06DDCF80060E7
:100FB000402C26F48026CCF80060CCF804300B4698
:100FC00004BF13460A463F2101FA00F0CCF808306E
:100FD000CCF80C20CEF80800DCF8000040F0160039
:100FE000CCF800002DB1DCF8000040F00800CCF88F
:100FF0000000DCF8000040F00100CCF80000002008
:1010000070BD002180F83410022070BDB0B50446D8
:1010100000F0F1F8054640F20400C2F2000000784A
:10102000611C18BF044400BF00F0E5F8401BA0425B
:10103000FAD3B0BD2DE9F04F82B000F13E4242F24A
:10104000004502F1FF77C4F202050A224FEAB726F3
:10105000A84208BF0922092E38BF4FEAB7224FF035
:10106000010E002400274FF0000800920E680EFACF
:1010700008F916EA090F00F0AE80D1F804A00AF0D2
:10108000030BABF10106012E1AD80322866802FA7F
:1010900007FECA6826EA0E06BA40324382604268FA
:1010A000CAF3001522EA090205FA08F54FEA480CCE
:1010B0006FEA0E064FF0010E2A4342600CE000BFBB
:1010C0000322BA40D643BBF1030FBC4604D1BC4651
:1010D0004FF0030B24E000BFC2688D68324005FA70
:1010E0000CF52A43BBF1020FC26019D16FF0030265
:1010F00002EA5802024404F01C030F25D2F820E053
:1011000005FA03FA0D692EEA0A0E05FA03F343EA1B
:101110000E031362D1F804A04FF0010E0AF0030B86
:1011200002680BFA0CF332401A431AF4403F026093
:1011300051D0002243F644030192C4F202031A681C
:1011400043F6004C42F480421A601A68C4F2010C63
:1011500002F480420192019A28F003024FF6084AF5
:101160006244CFF6FF7A52F80A3004F00C060F25DD
:10117000B540AB43009D05FA06F6334342F80A300A
:10118000DCF800204B6842EA0906DD0358BF22EA7A
:101190000906CCF80060DCF804209D0342EA090649
:1011A00058BF22EA0906CCF80460DCF80820DD020A
:1011B00042EA090643F60C4558BF22EA0906CCF874
:1011C0000860C4F201052A689B0242EA090658BF7A
:1011D00022EA09062E60023708F10108202F04F1E7
:1011E00004047FF443AF02B0BDE8F08F002A08BFCB
:1011F00009048161704740F2BC60C2F200000068DF
:10120000704740F2040040F2BC61C2F20000C2F23A
:10121000000100780A6810440860704780B543F602
:101220000040C4F20200016841F4007101600168ED
:1012300041F480610160016841F480710160032024
:1012400000F035FA002000F004F800F0DAF9002090
:1012500080BDB0B540F20402C2F2000240F20001CB
:101260001278C2F200014FF47A730968B3FBF2F20C
:101270000446B1FBF2F1084601F003F90F2C4FF0E0
:1012800001050CD858B94FF0FF3021460022002547
:1012900000F0E2F940F20800C2F2000004602846C3
:1012A000B0BD2DE9F041044690F8A00001284FF0B0
:1012B000020008BFBDE8F0814FF0010884F8A0806B
:1012C00084F8A100342002FB0040D1E900CED1E92E
:1012D0000267D1E90453C0E91067C0E91253C0E9BD
:1012E0000ECED1E906CED1E90865D1E90A73C0E98D
:1012F0001665C0E91873C0E914CE0B6B83662046EF
:1013000002F0DDFC2068C0F82480002084F8A18071
:1013100084F8A000BDE8F08100286DD010B5044627
:1013200090F8A10028B9002084F8A000204600F021
:1013300065F8022084F8A100D4E9000CD4E9022366
:10134000816921F07041816142EA0C0122691943EF
:10135000836911431943816181684FF6000CCFF214
:10136000000C01EA0C018160D4E90513826843EAAC
:10137000014111438160C16801EA0C01C160D4E9F7
:101380000712C36842EA01411943C160016901EAD9
:101390000C010161D4E90912036942EA01411943D0
:1013A0000161416901EA0C014161D4E90B12436911
:1013B00042EA01411943416194F8351094F836200E
:1013C000C36A120403F07F43C36242EA012194F826
:1013D0003420C36A11441943C162416B41F00601D4
:1013E0004163816941F00101816100200121C4F85C
:1013F000A40084F8A11010BD012070472DE9F04F22
:1014000085B0002543F630000095C4F20200416922
:1014100040F2004841F0806141614169C4F2020834
:1014200001F080610091009900950168002241F46B
:10143000000101600168202401F40001009100997D
:101440000095016841F002010160016801F00201AC
:10145000009100990095016841F020010160016848
:1014600001F02001009100990095016841F04001D0
:101470000160016801F04001009100990095016848
:1014800041F080010160016801F080010091009944
:101490000095016841F4807101600068202100F42A
:1014A0008070009000984046FFF7A0FE00946C46C4
:1014B0004FF0010A4FF0030940462146CDE901A54E
:1014C000CDF80C90FFF7B6FD08F5E05630464FF426
:1014D00080710122FFF78AFE304608210122FFF7C2
:1014E00085FE08F5C0573846802101224FF0800B59
:1014F000FFF77CFE4FF48470CDE9000A30462146A8
:10150000CDE90255FFF796FD38462146CDF800B0EB
:10151000FFF790FD4FF480600090022001A981E860
:1015200021020E20049008F580502146FFF782FD2D
:101530004FF40C60009008F5A0502146FFF77AFDAB
:101540004FF47E40009038462146FFF773FD40F28D
:10155000F760009030462146FFF76CFD05B0BDE80E
:10156000F08FF0B581B0054690F8A00001284FF04B
:1015700002001CD0342403FB0454012785F8A0701A
:1015800085F8A10044F8381FD4E90A060844B118C8
:10159000C4E90102E160284621461A4602F08FFBA9
:1015A00028684762002085F8A17085F8A00001B086
:1015B000F0BDF0B581B0054690F8A00001284FF0CD
:1015C00002001CD03424012703FB045485F8A070CA
:1015D00085F8A10054F8380FA66808446060B01878
:1015E000E060C4E90A12284621461A4602F067FB69
:1015F00028684762002085F8A17085F8A00001B036
:10160000F0BD82B0002043F640010190C4F2020117
:101610004A6842F480424A604A6802F48042019279
:10162000019A0090086840F080500860086800F057
:1016300080500090009802B0704700280BD400F052
:101640001F01012202FA01F14EF200124009CEF20E
:10165000000242F82010704710B54EF60C5CCEF236
:10166000000CDCF80030C3F3022E8EF00704042CCB
:1016700028BF0424BEF103034FF0FF3E0EFA04F42A
:1016800038BF0023A14399400EFA03F39A4300F0B8
:101690000F03043B1143634409010C3300F1604222
:1016A000B0F1FF3FC8BF02F56443197010BD4EF69C
:1016B0000C51CEF200010A684FF6FF031A4060F3A6
:1016C0000A2242F0806040F0FD7008607047000020
:1016D000F0B581B00446006843F6000610F0430FF1
:1016E000C4F202064ED06827C4F2472700203860B3
:1016F000FFF781FD054600BF3068000105D5FFF703
:101700007AFD401B0228F7D9B2E02068C10706D055
:10171000D4E90121090741EA8211C6F88410810742
:1017200014D5D6F88410626801F0E041E36841EA1C
:10173000821141EA0361E569C6F88410D6F88C107D
:101740006A1E21F01F011143C6F88C10400609D50E
:10175000E168D4E90102090641EA801040EA02701A
:10176000C6F8840001203860FFF745FD054600BF3C
:101770003068000105D4FFF73EFD401B0228F7D971
:1017800076E0206810F00C0F52D06827C4F247278B
:101790000020B860FFF72FFD054600BF30688000CD
:1017A00005D5FFF728FD401B0228F7D960E0206827
:1017B000410717D5D6F88810D4E9042301F0E04199
:1017C00041EA821141EA0361256AC6F88810D6F819
:1017D0008C106FF0FF0221F4F85102EB0522114347
:1017E000C6F88C10000713D5D6F88800216900F0E0
:1017F0007060A26940EA811040EA0270636AC6F82C
:101800008800D6F88C0020F440301843C6F88C00CD
:101810000120B860FFF7EFFC054600BF306880008C
:1018200005D4FFF7E8FC401B0228F7D920E0206828
:1018300081064DD500200090306C47F2000740F043
:1018400080503064306CC4F2000700F0805000908B
:101850000098386840F480703860FFF7CCFC05468B
:101860003868C00506D4FFF7C6FC401B0228F7D92C
:10187000032038E0306F10F4407013D0A16A01F4F7
:10188000407188420ED0306F40F64061C4F247216B
:10189000012220F440700A6000220A603067306F35
:1018A000C00722D12068A16AB2684FF6FF4701F451
:1018B000407322F4F812C0F6FF770F40B3F5407F73
:1018C00008BF3A43B260326F6FF31F311143316783
:1018D000C00607D594F82C0040F64061C4F24721B9
:1018E000C1F8A003002001B0F0BDFFF784FC05465D
:1018F00041F28837306F8007D4D4FFF77CFC401B5F
:10190000B8424FF00300F5D9EDE700002DE9F041B2
:10191000002878D043F60008C4F202080446D8F83C
:1019200000040D4600F00F00884207D288F80054EA
:10193000D8F8000400F00F00A84264D120688107A5
:1019400017D5410705D5D8F8081041F4E051C8F87B
:101950000810010705D5D8F8081041F46041C8F80F
:101960000810D8F80810A26821F0F0011143C8F857
:101970000810C0073FD1D8F8000400F00F00A842BB
:1019800007D988F80054D8F8000400F00F00A842E6
:1019900039D12068410707D5D8F80810E26821F44A
:1019A000E0511143C8F80810000708D5D8F808001E
:1019B000216920F4604040EAC100C8F8080000F046
:1019C00072F8D8F8081044F60E22C1F30311C0F6DD
:1019D0000002515C40F2000220FA01F140F20800DE
:1019E000C2F200000068C2F200021160FFF731FC91
:1019F0000020BDE8F0816068811E022906D2D8F877
:101A00000010890108D40120BDE8F08101281FD110
:101A1000D8F800108903F6D5D8F8081021F0030192
:101A20000843C8F80800FFF7E6FB064641F288378E
:101A3000D8F80800616800F00C00B0EB810F9AD074
:101A4000FFF7D9FB801BB842F2D90320BDE8F08133
:101A5000D8F800108907D6D5DEE740F2000043F63B
:101A60000801C2F20000C4F202010068096844F6ED
:101A70001E22C1F38221C0F60002515CC8407047AB
:101A800040F2000043F60801C2F20000C4F2020175
:101A90000068096844F61E22C1F34231C0F6000214
:101AA000515CC840704710B543F60404C4F2020408
:101AB000606800F00C0008280AD0042819BF42F220
:101AC0000040C0F2F40047F64000C0F27D1010BDA7
:101AD000206821682368490247F64001C0F27D1161
:101AE00000F03F02C3F388105CBF42F20041C0F235
:101AF000F401A1FB00010023FEF774FB2168022220
:101B0000C1F3014102EB4101B0FBF1F010BD000057
:101B10002DE9F04182B0002867D00446007843F6F2
:101B20000006C007C4F202060BD0B06800F00C003B
:101B3000042840F098803068800302D5606800284F
:101B400053D0207880071AD5B06810F00C0F09D058
:101B5000B06800F00C00082840F09F8070684002D8
:101B600000F19B803068800702D5E06801283CD1F5
:101B70003068216920F0F80040EAC1003060207828
:101B8000000734D42078400747D4A5695DB3B06816
:101B900000F00C00082840F0B380012D25D07068BB
:101BA000E16900F480028A421FD1216A00F03F02FD
:101BB0008A421AD147F6C071626A0140B1EB821FB6
:101BC00013D1A26A0023CFF6FF7303EBC23200F4F5
:101BD00040316FF30F02914207D1E16A00F070606B
:101BE000B0EB016F01D10020F0E00120EEE0606970
:101BF000002840F20000C4F2472071D00121C0F853
:101C0000801EFFF7F8FA0546706F8007BAD4FFF719
:101C1000F2FA401B0228F7D9D7E0306C10F0805858
:101C20000AD100200190306C40F080503064306C5C
:101C300000F080500190019847F20007C4F20007BD
:101C40003868C0053ED4386840F480703860FFF7CB
:101C5000D2FA05463868C00534D4FFF7CCFA401BE9
:101C60000228F7D9B1E0B06800F00C00082803D1D1
:101C7000706840023FF55FAF6068B0F5803F07D005
:101C8000B0F5A02F40F08B80306840F480203060A9
:101C9000306840F4803030608BE0E068002851D03C
:101CA0000020C4F2472001210160FFF7A4FA054695
:101CB000306880073FF55CAFFFF79DFA401B0228B4
:101CC000F6D982E0A068012805D005284ED1306FF2
:101CD00040F004003067306F40F0010030674FE0A3
:101CE0000021C0F8801EFFF786FA0546706F800756
:101CF0007FF548AFFFF77FFA401B0228F6D964E072
:101D00000027C4F2472700203866FFF774FA022D37
:101D100005460BD1306880015BD5FFF76CFA401B9C
:101D200002284FF00300F5D950E000BF3068800171
:101D30007FF559AFFFF75FFA401B02284FF0030011
:101D4000F4D943E00020C4F2472000210160FFF7EE
:101D500052FA0546306880077FF511AFFFF74BFA5E
:101D6000401B02284FF00300F4D92FE0316F002808
:101D700021F001013167316F21F0040131674BD04F
:101D8000FFF739FA054641F2883700BF306F800708
:101D900053D4FFF730FA401BB842F7D915E0316849
:101DA000002821F480313160316821F480213160D4
:101DB0004CD0FFF720FA0546306880033FF5C1AEEE
:101DC000FFF719FA401B6428F6D9032002B0BDE8DA
:101DD000F08104F11C052FCD08430021CFF6FF71DF
:101DE00040EA821001EBC3316FF30F0140EA056056
:101DF0000843706001203866FFF7FDF9044600BF14
:101E0000306880013FF5EFAEFFF7F5F9001B0228BF
:101E10004FF00300F4D9D9E7FFF7EDF9054641F299
:101E2000883700BF306F800707D5FFF7E4F9401B04
:101E3000B8424FF00300F5D9C8E7B8F1000F7FF4BE
:101E4000A4AE306C20F0805030649EE6FFF7D3F9EA
:101E5000054600BF306880037FF573AEFFF7CBF90E
:101E6000401B64284FF00300F4D9AFE7E0B1B0B5F0
:101E7000044690F82C000D4628B9002084F82D0067
:101E8000204600F013F8022084F82C002068211D61
:101E9000FEF7C5FAD4E900022946FEF735FB01201A
:101EA00084F82C000020B0BD01207047B0B586B08A
:101EB000002143F630000191C4F20200826840F62E
:101EC000000542F0010282608268C4F2020502F05D
:101ED00001020192019A0191826801AC42F0010273
:101EE0008260826802F001020192019A0191026807
:101EF00042F004020260026802F004020192019AB8
:101F00000191026842F008020260026802F00802D1
:101F10000192019A0191026842F010020260026887
:101F200002F010020192019A0191026842F020022F
:101F30000260026802F020020192019A0191016898
:101F400041F0400101600068214600F0400001902E
:101F500001980D200190022002900120039003209F
:101F600004900C2005902846FFF764F84CF20370AB
:101F7000019005F580602146FFF75CF84FF683700D
:101F8000019005F500602146FFF754F84FF63F0039
:101F9000019005F540602146FFF74CF848F23710F4
:101FA000019005F580502146FFF744F806B0B0BD1A
:101FB00010B5044690F82C0002284FF0020008BF2C
:101FC00010BD84F82C002068FEF76AFA012084F81E
:101FD0002C00002010BDB0B5044690F82C0002285B
:101FE0004FF0020008BFB0BD84F82C0020680D46F9
:101FF000FEF75EFA2868012102284FF0000008BFB2
:10200000052184F82C10B0BD70B550B1D0F824C0B3
:102010000446BCF1000F06D00021216104F1140137
:1020200007E0012550E06168B1F5827F03D004F13B
:102030001C0100220A600025A56294F851104FF09F
:10204000000E41B9204684F8505000F03FF8D4E922
:1020500009C101F4005E022284F85120D4E9002372
:10206000D4E90201166803F4827326F04006166074
:1020700000F404401844236901F40061084403F0AB
:1020800002016369084403F00101A369E669084499
:1020900003F40071084406F03801266A084406F08B
:1020A0008001084340EA0E001060042000EA13405B
:1020B0000CF0100108445060D06920F40060D06139
:1020C0000120656584F85100284670BD80B586B052
:1020D000016843F60000C4F20000814227D10021CC
:1020E00043F630020191C4F20202136900F5E630B2
:1020F00043F480431361136903F480430193019B0C
:102100000191136843F002031360126802F00202A7
:102110000192019A4FF4604201920222CDE902211C
:10212000032104910521059101A9FEF783FF06B063
:1021300080BD00002DE9F04381B0044690F85000C6
:10214000012801D10220ACE04FF001091D461646DE
:102150000F4684F85090FFF74EF894F8511001297B
:102160005CD18046002F4FF0010000F09580002EDA
:1021700000F092800320002184F8510061652763FC
:10218000A686E686A163A187E187A0682164B0F5F1
:10219000004F2068616407D1016821F040010160AF
:1021A000016841F4804101600168490603D4016877
:1021B00041F0400101606168731EE268B1FA81F18B
:1021C000B3FA83F349095B09B2F5006F41EA0301F1
:1021D00026D131B137F8021BC1602763E18E013986
:1021E000E186E18E00293FD06E1C00BF816889071F
:1021F00008D4FFF700F86EB1A0EB0800A84209D39D
:1022000049E000BF216B31F8022BC2602163E08EF0
:102210000138E086E08E38B32068E7E702203BE033
:1022200039B139780173206B01302063E08E0138B9
:10223000E086E08EC0B16E1C20688168890707D4F3
:10224000FEF7D9FF6EB1A0EB0800A84209D322E047
:10225000216B09780173206B01302063E08E013817
:10226000E086E08E0028E7D120462946424601F06C
:10227000E7FF08B120206065A06838B90020009011
:102280002068C1680091806800900098606D002807
:1022900018BF012000E00320002184F8519084F849
:1022A000501001B0BDE8F0832DE9F04381B0044641
:1022B00090F85000012801D10220C8E001201E46FC
:1022C00015460F4684F85000FEF795FF94F851101C
:1022D000814601296BD1002F4FF0010000F0B18041
:1022E000002D00F0AE80002E00F0AB8094F851007D
:1022F000002104281CBF052084F851006165A563F6
:10230000E687A6872763E6862068A686216461643F
:102310000168490603D4016841F040010160616829
:10232000731EE268B1FA81F1B3FA83F3DDF820801D
:1023300049095B09B2F5006F41EA030146D131B1A9
:1023400037F8021BC1602763E08E0138E086012662
:1023500008F10105E08E10B9E08F00287AD02068DE
:10236000816889070CD5E18E012E09D141B1216B1D
:10237000002631F8022BC2602163E18E0139E1862B
:102380008168C9070AD0E18F41B1C068A16B0126FD
:1023900021F8020BA163E08F0138E087FEF72BFFE5
:1023A000002DD7D0A0EB09004045D3D348E06068AA
:1023B000B0F5827F08D104294FF0020041D1A16815
:1023C00000293FF488AF3CE002203AE039B1397887
:1023D0000173206B01302063E08E0138E086012616
:1023E00008F10105E08E08B9E08F98B32068816894
:1023F00089070ED5E18E012E0BD151B1216B00263C
:1024000009780173216B206801312163E18E013964
:10241000E1868168C9070BD0E18F49B1C068A16B23
:1024200001260870A06B0130A063E08F0138E087BF
:10243000FEF7E1FE002DD5D0A0EB09004045D1D339
:102440000320012184F85110002184F8501001B0BC
:10245000BDE8F083204641464A4601F0F1FE18B13E
:10246000202060650120ECE7A06800284FF0000004
:10247000E7D100902168CA680092896800910099AC
:10248000DFE7411E0020B0EB116F1CBF0120704739
:102490004EF21002CEF2000251604EF62351CEF2FF
:1024A0000001F0230B70072190601160704710B598
:1024B00090F83C20012A4FF002024DD080F83D20D8
:1024C0000268D2F804E0D2F808C00C682EF070035D
:1024D000234341F2FF74C4F20004A24253600BDCB8
:1024E00040F2FF73C4F200039A4213DCB2F1804F52
:1024F00027D040F2004315E040F2FF33C4F201035D
:102500009A4212DC41F60003C4F200039A4218D04A
:10251000002312E040F60003C4F200039A4210D0F8
:1025200040F60043C4F2000309E044F20003C4F2A1
:1025300001039A4205D040F20043C4F201039A42DB
:1025400004D149682CF080031943916001210022D5
:1025500080F83D1080F83C20104610BD40B310B507
:10256000044690F83D0028B9002084F83C0020463D
:1025700000F020F8022084F83D002068211D01F0C1
:1025800093FF012084F8460084F83E0084F83F0061
:1025900084F8400084F8410084F8420084F8430045
:1025A00084F8440084F8450084F83D00002010BD04
:1025B0000120704710B586B0044601A81421FDF72C
:1025C00049FE206800F140404FEAB020032800F2A5
:1025D0007980DFE800F002243F68002043F63001F4
:1025E0000090C4F202010A6942F001020A610A691C
:1025F00002F001020092009A00900A6842F0020282
:102600000A60096801F00201009100990821019116
:102610000221CDE902100490012005903BE000204A
:1026200043F630010090C4F202010A6942F002024E
:102630000A610A6902F002020092009A00900A6898
:1026400042F002020A60096801F00201009100995B
:1026500010211AE0002043F630010090C4F202017C
:102660000A6942F004020A610A6902F00402009257
:10267000009A00900A6842F002020A60096801F0BC
:102680000201009100994FF47071019102210291B1
:1026900003900490059140F20040C4F2020001A9A9
:1026A000FEF7C8FC0EE00020009043F63000C4F2B4
:1026B0000200016941F008010161006900F00800B1
:1026C0000090009806B010BD90F83D1001291CBF85
:1026D00001207047022180F83D10006841F2FF712F
:1026E000C4F2000188420BDC40F2FF71C4F2000129
:1026F000884213DCB0F1804F27D040F2004115E052
:1027000040F2FF31C4F20101884212DC41F60001BF
:10271000C4F20001884218D0002112E040F6000106
:10272000C4F20001884210D040F60041C4F200011A
:1027300009E044F20001C4F20101884205D040F2F0
:102740000041C4F20101884204D1816801F007010F
:10275000062903D0016841F00101016000207047A3
:1027600080B590F83C20012A4FF0020200F0BF80B3
:1027700080F83D20D0F800C04FF67772DCF80830C2
:1027800023EA0202CCF808200B684F2B28DC1F2B11
:1027900043DD202B44D0302B42D0402B40F0A98089
:1027A000D1F804E0C968DCF82030DCF8202022F001
:1027B0000102CCF82020DCF8182022F0F00242EAD6
:1027C000011123F00A0242EA0E02CCF81810CCF8EC
:1027D0002020DCF8081041F0470121F030017DE0B5
:1027E0006F2B25DDB3F5005F46D0B3F5805F77D062
:1027F000702B7ED1D1E901E3C968DCF8082043EAF7
:102800000E0322F47F4243EA01211143CCF8081061
:10281000DCF8081041F0770160E00BB1102B68D1B3
:10282000DCF8081021F07001194341F0070155E070
:10283000502B34D0602B5CD1D1F804E0C968DCF8AF
:10284000203023F01003CCF82030DCF81830DCF80E
:10285000202023F4704322F0A00243EA013142EA2F
:102860000E12CCF81810CCF82020DCF8081041F03B
:10287000670121F0100131E0D1E901E3C968DCF81A
:10288000082043EA0E0322F47F4243EA0121114368
:10289000CCF80810DCF8081041F480411EE0D1F8B3
:1028A00004E0C968DCF82030DCF8202022F00102C6
:1028B000CCF82020DCF8182022F0F00242EA0111C6
:1028C00023F00A0242EA0E02CCF81810CCF82020BD
:1028D000DCF8081041F0570121F02001CCF8081075
:1028E0000022012180F83D10002180F83C101046A4
:1028F00080BD0122F5E70000B0B5044690F83C0029
:10290000012804BF0220B0BD0D464FEAB2010120EC
:10291000032984F83C0037D8DFE801F0020A1222CC
:102920002068294601F04EFE206850F8181F0EE07E
:102930002068294601F078FE206850F8181F16E03C
:102940002068294601F0A5FE206850F81C1F41F0C0
:1029500008010160016821F00401016029690FE0AC
:102960002068294601F0C9FE206850F81C1F41F478
:1029700000610160016821F4806101602969090238
:102980000268114301600020002184F83C10B0BDB2
:1029900040B310B5044690F83D0028B9002084F8F3
:1029A0003C00204600F020F8022084F83D0020681A
:1029B000211D01F079FD012084F8460084F83E00D5
:1029C00084F83F0084F8400084F8410084F8420015
:1029D00084F8430084F8440084F8450084F83D00FE
:1029E000002010BD0120704780B586B0016844F218
:1029F0000000C4F20100814225D1002143F63002DB
:102A00000191C4F20202536900F5504043F480334F
:102A10005361536903F480330193019B019113685F
:102A200043F010031360126802F010020192019A41
:102A3000602201920222CDE9022104910321059135
:102A400001A9FEF7F7FA06B080BD41B108290ED002
:102A5000042914BF00F1410200F13F0209E090F89F
:102A60003E20012A12D1022280F83E2012E000F11D
:102A700040021278012A09D10222082908D004292B
:102A800014BF80F8412080F83F2003E00120704708
:102A900080F84020006801F01F010122036A02FA59
:102AA00001F123EA01020262026A114341F2FF725C
:102AB000C4F20002904201620BDC40F2FF71C4F2EA
:102AC0000001884213DCB0F1804F35D040F2004164
:102AD00015E040F2FF31C4F20101884214DC41F6F6
:102AE0000001C4F20001884226D0002114E040F623
:102AF0000001C4F2000188421ED040F60041C4F239
:102B00000001884218D01CE044F20001C4F2010127
:102B1000884211D040F20041C4F20101884210D134
:102B2000416C40F2004340F48062C4F2010341F47E
:102B300000419A42416404D1816801F007010629ED
:102B400003D0016841F0010101600020704750B3DB
:102B500010B5044690F83D0028B9002084F83C00E8
:102B6000204600F022F8242084F83D002068C16847
:102B700021F40051C160204601F0E6FD20680169A2
:102B800021F490410161416921F02A014161C1684C
:102B900041F40051C16000202021206484F83D10E0
:102BA00084F83E1010BD0120704710B586B0044671
:102BB00001A81421FDF74EFB206841F20041C4F248
:102BC0000101884226D041F20001C4F2010188428D
:102BD0004BD1002043F630010090C4F202014A6953
:102BE00042F010024A614A6902F010020092009A13
:102BF0000090086840F0010008600868072100F0B4
:102C00000100009000984FF4C06001900020C4F2D1
:102C1000020020E0002043F630010090C4F20201DF
:102C20004A6942F020024A614A6902F02002009299
:102C3000009A0090086840F00400086008680821C5
:102C400000F0040000900098C02001900020C4F221
:102C5000020000F500600222029200220392032289
:102C6000CDE9042101A9FEF7E5F906B010BD000089
:102C7000FEE700002DE9F04F8FB042F20015C4F2DC
:102C80000105FEF7CBFA01F0AFFB002443F6300953
:102C9000CDE904440B94C4F20209D9F8000005F50B
:102CA000634840F01000C9F80000D9F800004FF464
:102CB000805100F010000B900B980B94D9F8000095
:102CC000012240F00400C9F80000D9F800004FF0DC
:102CD000010A00F004000B900B980B94D9F8000047
:102CE00040F48070C9F80000D9F8000000F480704A
:102CF0000B900B980B94D9F8000040F08000C9F8B5
:102D00000000D9F8000000F080000B900B980B94A5
:102D1000D9F8000040F00100C9F80000D9F800001F
:102D200000F001000B900B980B94D9F8000040F0D4
:102D30000200C9F80000D9F8000000F002000B9072
:102D40000B980B94D9F8000040F00800C9F8000077
:102D5000D9F8000000F008000B900B980B94D9F8FC
:102D6000000040F04000C9F80000D9F8000000F071
:102D700040000B900B984046FEF738FA05F56B4B78
:102D800058464FF400510122FEF730FA05F5674628
:102D900030464FF440710022FEF728FA042001A9C2
:102DA00005F56F4701AD81E8110438462946FEF765
:102DB00041F91820CDE90104384629460394FEF76D
:102DC00039F94FF4005001A981E811043046294631
:102DD000FEF730F942F200174FF40060C4F2010729
:102DE000CDE9010407F57F4029460394FEF722F957
:102DF0000C2007F57B47CDE90104384629460394AA
:102E0000FEF718F941F63040CDE901043046294675
:102E10000394FEF70FF94FF4807001904FF488107F
:102E200002900220039038462946FEF703F94FF43A
:102E3000805001900120CDE902004FF0030A404686
:102E400040F2004829460127CDF810A0C4F200083E
:102E5000FEF7F0F84FF40050CDE901075846294637
:102E6000CDE90344FEF7E6F84FF44070CDE90107E1
:102E700030462946CDE9034AFEF7DCF88C20CDE93F
:102E80000104584642F2001B29460394C4F2010B88
:102E9000FEF7D0F84FF4C840CDE901040BF57740B8
:102EA000294603940125FEF7C5F80194D9F80000DE
:102EB000002140F48000C9F80000D9F80000002289
:102EC00000F48000019001983820FEF7C5FB3820FF
:102ED000FEF7B3FB3A2000210022FEF7BDFB3A20AB
:102EE000FEF7ABFB40F22430C2F200004FF08053FB
:102EF0004FF0206608F58E31C0E90A63052304947B
:102F00004FF48032047680F82040C36180F830505E
:102F100080E81600C0E903454561FDF795FC20B146
:102F2000EFF3108072B600BFFEE740F22430C2F229
:102F3000000001A9CDE901A50394FDF753FB20B1E1
:102F4000EFF3108072B600BFFEE70420019002206C
:102F5000029040F22430C2F2000001A9FDF742FBCA
:102F600018B1EFF3108072B6FEE705200190032040
:102F7000029040F22430C2F2000001A9FDF732FBBA
:102F800018B1EFF3108072B6FEE70620019004201E
:102F9000029040F22430C2F2000001A9FDF722FBAA
:102FA00018B1EFF3108072B6FEE70720019040F2EF
:102FB00024300525C2F2000001A90295FDF712FB9D
:102FC00018B1EFF3108072B6FEE740F26C300024C7
:102FD000C2F200004FF4803101264FF080524FF0D2
:102FE00020630494047680F82040C0E90A32C56169
:102FF00080F83060C0E900B1C0E90244C0E904666D
:10300000FDF722FC18B1EFF3108072B6FEE740F234
:103010006C30C2F2000001A9CDE901660394FDF70E
:10302000E1FA20B1EFF3108072B600BFFEE7022094
:10303000CDE9010040F26C30C2F2000001A9FDF7B9
:10304000D1FA20B1EFF3108072B600BFFEE708207E
:1030500001900320029040F26C30C2F2000001A9FE
:10306000FDF7C0FA18B1EFF3108072B6FEE7092041
:1030700001900420029040F26C30C2F2000001A9DD
:103080005D464646FDF7AEFA18B1EFF3108072B612
:10309000FEE70B2001900520029040F26C30C2F256
:1030A000000001A9FDF79EFA18B1EFF3108072B687
:1030B000FEE740F2744006F55051C2F200004FF4B2
:1030C000827200244FF40073082780E816000A215A
:1030D000C0E90344C0E90543C761C0E90844C0E949
:1030E0000A41FEF791FF18B1EFF3108072B6FEE7C8
:1030F00001A81C210E94CDE90C44CDE90844FDF74C
:10310000A9F840F2CC40C2F200004FF080414FF0ED
:10311000FF32C0E90014C0E9024204618461FFF794
:103120001DFA18B1EFF3108072B6FEE74FF480502D
:103130000B9040F2CC40C2F200000BA9FFF710FB4D
:1031400018B1EFF3108072B6FEE740F2CC40C2F245
:103150000000FFF71DFC18B1EFF3108072B6FEE718
:1031600040F2CC400024C2F2000008A9CDE9084496
:10317000FFF79DF918B1EFF3108072B6FEE76020FB
:10318000CDE9010440F2CC40C2F2000001A90022C6
:1031900003940594FFF7B0FB18B1EFF3108072B6FB
:1031A000FEE740F2CC40C2F2000001A90422FFF782
:1031B000A3FB18B1EFF3108072B6FEE740F2CC40EB
:1031C000C2F2000001A90822FFF796FB18B1EFF345
:1031D000108072B6FEE740F2CC40C2F2000001A9B6
:1031E0000C22FFF789FB18B1EFF3108072B6FEE7EF
:1031F000002401A81C210E94CDE90C44CDE908441B
:10320000FDF728F840F21450C2F200004FF6FF71AB
:10321000C0E90064C0E9024104618461FFF79EF9DE
:1032200018B1EFF3108072B6FEE74FF480500B90A8
:1032300040F21450C2F200000BA9FFF791FA18B146
:10324000EFF3108072B6FEE740F21450C2F20000B5
:10325000FFF79EFB18B1EFF3108072B6FEE740F265
:1032600014500024C2F2000008A9CDE90844FFF779
:103270001EF918B1EFF3108072B6FEE76020CDE9B9
:10328000010440F21450C2F2000001A9002203948C
:103290000594FFF731FB18B1EFF3108072B6FEE72B
:1032A000002401A81C210E94CDE90C44CDE908446A
:1032B000FCF7D0FF40F25C5006F58061C2F20000DE
:1032C0004FF6FF72C0E90014C0E902420461846154
:1032D000FFF744F918B1EFF3108072B6FEE74FF430
:1032E00080500B9040F25C50C2F200000BA9FFF737
:1032F00037FA18B1EFF3108072B6FEE740F25C5077
:10330000C2F20000FFF744FB18B1EFF3108072B671
:10331000FEE740F25C500024C2F2000008A9CDE9AB
:103320000844FFF7C4F818B1EFF3108072B6FEE757
:103330006020CDE9010440F25C50C2F2000001A916
:10334000002203940594FFF7D7FA18B1EFF3108029
:1033500072B6FEE740F25C50C2F2000001A90422FE
:10336000FFF7CAFA18B1EFF3108072B6FEE740F229
:103370005C50C2F2000001A90822FFF7BDFA18B1A3
:10338000EFF3108072B6FEE740F25C50C2F200002C
:1033900001A90C22FFF7B0FA18B1EFF3108072B652
:1033A000FEE740F2EC50002405F5F851C2F20000AF
:1033B0004FF6FF72CDE90644CDE90444C0E900149C
:1033C000C0E9024204618461FFF7E2FA18B1EFF349
:1033D000108072B6FEE76020CDE9010440F2EC50A7
:1033E000C2F2000001A9002203940594FFF784FAB9
:1033F00018B1EFF3108072B6FEE740F2EC50C2F263
:10340000000001A90422FFF777FA18B1EFF310804A
:1034100072B6FEE740F2346006F58631C2F2000073
:1034200000240C254FF47A3280E81600C0E90344EA
:10343000C0E90554C461FFF78AFB18B1EFF31080AF
:1034400072B6FEE740F2786006F58831C2F20000FD
:103450004FF4E13280E81600C0E90344C0E90554A6
:10346000C461FFF774FB18B1EFF3108072B6FEE78A
:10347000002401A81C210E94CDE90C44CDE9084498
:10348000FCF7E8FE40F2A45006F50061C2F200002D
:103490004F22312380E816008021C0E90334816186
:1034A000FFF75CF818B1EFF3108072B6FEE74FF447
:1034B00080500B9040F2A450C2F200000BA9FFF71D
:1034C0004FF918B1EFF3108072B6FEE740F2A45046
:1034D000C2F20000FFF75CFA18B1EFF3108072B689
:1034E000FEE74020089040F2A4500024C2F2000001
:1034F00008A90994FEF7DBFF18B1EFF3108072B64C
:10350000FEE7602001901920CDE9020440F2A450AA
:10351000C2F2000001A900220594FFF7EDF918B1ED
:10352000EFF3108072B6FEE700F012FE00F0B3F980
:1035300040F2243040F2F601C2F20000C2F2000173
:103540006422FDF701FB40F26C3040F2C811C2F278
:103550000000C2F200016422FDF7F6FA40F2A45422
:10356000C2F200042046FFF7AFF820460021FFF723
:103570006CFA0FB0BDE8F08F2DE9F04F81B0064630
:10358000A2F12000DDE90A87C0B21C460D46000109
:103590004FF0000A009000BF009844F626215044E6
:1035A000C0F6000111F800B04FF000094FFA8BF09F
:1035B000002800D44FB1002809EB0600424680B233
:1035C000A9B248BF224600F0DDF81FFA89F04FEAA1
:1035D0004B0B09F101090728E8D30AF1010ABAF1F6
:1035E000100F05F10105D7D101B0BDE8F08F000043
:1035F0002DE9F04F83B00D46A2F120018146DDE9AF
:103600000CB0C9B2890145F22606984600910028FF
:1036100018BF01200021C0F6000680F0010700BF9E
:103620000098002400EB410016F800A002910190E0
:103630004FFA8AF0B0F1FF3F4FF00001C8BF0121FF
:10364000394209D1002804EB09005A4680B2A9B2D8
:1036500048BF424600F096F8A0B24FEA4A0A013449
:103660000728E5D30198B24640F00100345C0826F3
:1036700060B2B0F1FF3F4FF00001C8BF01213942F5
:1036800009D1002806EB09005A4680B2A9B248BF0A
:10369000424600F077F8B0B2640001360F28E7D355
:1036A00002990135013120295646B9D103B0BDE850
:1036B000F08F00002DE9F04782B0DDF82880064643
:1036C00008461C4617460D46FCF7CFFD012F1BD0C0
:1036D000AFBB1FFA80FABAF1000F30D031010020E1
:1036E0004FF001098EB200272A5CF80080B2314603
:1036F0002346CDF80080CDF80490FFF73DFF013759
:10370000B8B28245F0D81AE01FFA80FABAF1000F79
:1037100015D0710100204FF001098EB2002700BFC3
:103720002A5C380180B231462346CDF80080CDF8BE
:103730000490FFF75DFF0137B8B28245F0D802B0C0
:10374000BDE8F08770B542F2000504460026C4F2D9
:10375000020500BFE0B2C20928460821FDF746FD78
:1037600028464FF4807100226400FDF73FFD284693
:103770004FF480710122FDF739FD072E06F1010695
:10378000E8D370BD70B540F29823C2F200031C7DEF
:1037900040F2B8255E7DC2F2000555F824C0D3F88A
:1037A0001CE01B6816B103FB001003E0C043184483
:1037B00003FB010000FB0EF020F80C2070BD0000A0
:1037C0002DE9F04781B040F2982EC2F2000E9EF82B
:1037D0001540DDF824C034B1DEF800408946984633
:1037E0001346014607E0DEF80040D243C04304EB35
:1037F000020904EB00089EF8140040F2B822C2F25D
:10380000000252F820A0002043F63005DEF81CE04C
:103810000090C4F202052A68A8EB090742F40002EE
:103820002A602D684BF2000205F400050095C4F2F1
:103830000202009D156804FB019625F00105013781
:1038400015604FF44035591AE41B0EFB06A61560AF
:10385000022501315563A5B241EA07411564D663DB
:103860005164C2F838C0116841F0010111604FF68F
:10387000FE71C0F21F0100BF5368884204D813F0E4
:10388000020300F10100F7D0906840F00200906060
:1038900001B0BDE8F0872DE9F0478EB0A0204FF0D1
:1038A000080905904FF0020A002501A8CDF8049000
:1038B000CDF81CA00A95FDF70BFF40F298271226C1
:1038C000C2F200074FF4F0700222C0F208064FF473
:1038D0004871C0F207024FF0021387E84F0040F230
:1038E000B82640F20000C2F20006CCF2000040F21E
:1038F00010043060C2F20004012006210322C4E952
:10390000045040F2E31046F60008C4E906124FF4F2
:103910004A71C4E9089004F12800C4F2010840F299
:10392000F5124FF44C730EC02046C7F81CA0C4E932
:103930000085C4E9025584F83650A586FDF7ECFCF5
:10394000FF233068D7E90012CDE906354FF4C06394
:1039500008934FF4E0630291CDE9042ACDE90930E0
:10396000CDE90B1201A920460022019503958DF89F
:103970003650ADF83450FDF794FC3D88BE882046A3
:10398000002100220023FDF7ECFD204629463246A7
:103990000023FDF70EFED7E900100122F8824FF454
:1039A00080703983B88208F51C402021FDF71EFC89
:1039B000F88A398B013801394FF0FF3782B28BB268
:1039C000002000210097FFF7FBFE08F53444204655
:1039D00080210122FDF70AFC1420FDF717FB204689
:1039E00080210022FDF702FC202000F0BDFC2920F0
:1039F00000F0BAFC3A2000F0B7FC772000F0CCFCD5
:103A0000B12000F0B1FC002000F0C6FC142000F052
:103A1000C3FC062000F0C0FCB22000F0A5FC102082
:103A200000F0BAFCC82000F0B7FCB32000F09CFC0A
:103A3000002000F0B1FCB42000F096FC042000F05F
:103A4000ABFCB52000F090FC102000F0A5FC30206D
:103A500000F0A2FC302000F09FFC002000F09CFC55
:103A6000002000F099FCB62000F07EFC012000F060
:103A700093FC182000F090FC022000F08DFC402008
:103A800000F08AFC102000F087FC002000F084FC8D
:103A9000C02000F069FC012000F07EFC182000F03E
:103AA0007BFCC32000F060FC032000F075FC0420C8
:103AB00000F072FC032000F06FFC032000F06CFCAF
:103AC000032000F069FC2820FDF7A0FAC42000F0D4
:103AD0004BFC022000F060FC232000F05DFC112074
:103AE00000F05AFC122000F057FC022000F054FCB9
:103AF000772000F051FC1420FDF788FAC52000F073
:103B000033FC732000F048FC0A20FDF77FFAC62042
:103B100000F02AFC242000F03FFC602000F03CFC78
:103B2000002000F039FC0A20FDF770FAD02000F0E8
:103B30001BFC142000F030FC012000F02DFC532071
:103B400000F02AFC252000F027FC022000F024FCD5
:103B5000022000F021FC662000F01EFC142000F082
:103B60001BFC032000F018FCD12000F0FDFB14200A
:103B700000F012FC012000F00FFC532000F00CFCC0
:103B8000072000F009FC022000F006FC022000F0F3
:103B900003FC662000F000FC142000F0FDFB032075
:103BA00000F0FAFBD22000F0DFFB142000F0F4FB61
:103BB000012000F0F1FB532000F0EEFB252000F087
:103BC000EBFB022000F0E8FB022000F0E5FB6620A2
:103BD00000F0E2FB142000F0DFFB032000F0DCFB30
:103BE000D32000F0C1FB142000F0D6FB012000F030
:103BF000D3FB532000F0D0FB072000F0CDFB0220C8
:103C000000F0CAFB022000F0C7FB662000F0C4FBF6
:103C1000142000F0C1FB032000F0BEFBD42000F014
:103C2000A3FB142000F0B8FB012000F0B5FB5320EB
:103C300000F0B2FB252000F0AFFB022000F0ACFB4F
:103C4000022000F0A9FB662000F0A6FB142000F083
:103C5000A3FB032000F0A0FBD52000F085FB14207F
:103C600000F09AFB012000F097FB532000F094FB3A
:103C7000072000F091FB022000F08EFB022000F0F4
:103C80008BFB662000F088FB142000F085FB0320EE
:103C900000F082FB112000F067FB0A20FDF7B6F967
:103CA0003A2000F061FB772000F076FB362000F030
:103CB0005BFB0A2000F070FB0EB0BDE8F087F0B5AA
:103CC0000468D1E900CE04EBC2108B68CD68E668C9
:103CD000D0F88820002702F47042C0F88820E268FB
:103CE000C0F6FF77C2F30B423E40624406EB0E463D
:103CF00001323243C0F88820E268D0F88C606FF35C
:103D0000DF2206F47046C0F88C60E4682A446FF342
:103D1000DF242344013343EA0242C0F88C20D0F868
:103D2000942022F00702C0F894200B69C0F8943068
:103D300091F8322091F831408D69D0F89C600026CE
:103D40001204C0F89C6091F8307042EA042242EA02
:103D500005623A44C0F89C20D0F8982040F20774DD
:103D600022F0FF02C0F898204A69072BC0F898207B
:103D7000D0F8A02022EA0402C0F8A020D1E907452B
:103D800000F1840244EA0504C0F8A040D0F8AC4039
:103D9000C0F8AC604C6AC0F8AC4006D846F63000BB
:103DA000C0F6000050F8230000E00120D36AAEEB1B
:103DB0000C0703F0E023D362D1E90A31434378438F
:103DC000033040EA0340D062106B40F2FF73984327
:103DD00010631163106840F001001060F0BD000036
:103DE000FEE70000FEE7000070B584B040F2C0249A
:103DF000C2F2000420465121FCF72CFA40F614468A
:103E0000C4F20206306820F4005030600120FDF753
:103E1000FDF820200D2100F01CF9306840F400501E
:103E200030601420FDF7F2F8306820F40050306064
:103E30000120FDF7EBF846F62B05C0F60005302013
:103E40002946052200F0DEF846F62601C0F60001FC
:103E50002A20052200F0D6F8611CA020202200F0C4
:103E6000D1F82120012100F0F4F82220012100F0F6
:103E7000F0F824200A2100F0ECF825200C2100F0B5
:103E8000E8F826200F2100F0E4F820200E2100F0B1
:103E9000E0F8306840F4005030600120FDF7B6F8DB
:103EA0000DF1060610203146052200F01BF8002017
:103EB000315C2A5C914203D101300528F8D104E03D
:103EC00080B205281CBF04B070BD4FF03211C4F899
:103ED00009106420C4F80D1004B0BDE87040FDF76F
:103EE00095B800002DE9F04F83B040F21449C4F2B8
:103EF00002098DF80900D9F80000144620F480501A
:103F0000C9F8000040F274400D46C2F200000DF105
:103F1000090101224FF47A734FF47A7AFEF70AF915
:103F2000D4B140F274484FF0FF0BC2F200080DF11B
:103F30000B070DF10A0600BF404639463246012301
:103F40008DF80BB0CDF800A0FEF7AEF99DF80A0091
:103F5000013C05F8010BEFD1D9F8000040F4805086
:103F6000C9F8000003B0BDE8F08F10B582B04FF67D
:103F70000770ADF80600002040F21444ADF80400CC
:103F8000C4F2020420684FF47A7C20F48050206050
:103F900040F27440C2F200000DF1060101AA0223B2
:103FA000CDF800C0FEF780F9206840F48050206012
:103FB0009DF8050002B010BD10B540F61444C4F2DF
:103FC00002042068202220F40050206040F2C0202B
:103FD000C2F20000411CA02000F014F8206840F458
:103FE00000502060FFF7C1FF04462720214600F063
:103FF00030F8E00658BF10BD2720FF21BDE8104073
:1040000000F027B8F0B581B040F214478DF80300F6
:10401000C4F20207386840F2744620F48050C2F2BD
:10402000000614460D4638600DF1030130460122AA
:104030004FF47A73FEF77EF83046294622464FF455
:104040007A73FEF777F8386840F48050386001B032
:10405000F0BDB0B582B040F214458DF807008DF880
:104060000610C4F20205286840F2744420F480501F
:10407000C2F2000428600DF10701204601224FF42E
:104080007A73FEF757F80DF10601204601224FF42E
:104090007A73FEF74FF8286840F48050286002B029
:1040A000B0BD704740F21430C2F200000021C0E9F8
:1040B0000011816070470000B0B586B040F2143541
:1040C000C2F200052879022809D0012809D060BB76
:1040D00040F22030C2F200000068A86021E0002019
:1040E00021E040F22030C2F200000068A968401AC6
:1040F000C82822D340F2EC00C2F20000008901ACD3
:10410000800068806A880EA1204600F0ADFB4FF663
:10411000FF7C0120214601220023CDF800C0FFF7DB
:10412000C9FA28790130287107E00020287140F28F
:104130002030C2F200000068A86006B0B0BD00BF29
:10414000426174746572793A25646D56000000000E
:10415000B0B588B040F2B80040F2401CC2F2000096
:10416000CAF2000C00224FF4C07501230821C0E9F7
:1041700000C2C0E906524FF4006200F1200CC0E911
:1041800002314FF480534FF400558CE82C0002228A
:10419000CDE9012106214FF0100E4024CDE9031195
:1041A00001A9C0E904E4CDE905220792FDF75EFE0E
:1041B00000F002F808B0B0BD2DE9F04184B040F243
:1041C000B804C2F200044FF0010810260027694627
:1041D00020464FF48052CDF80080CDE90168039766
:1041E000FDF7F9FE02200225FCF710FF6946204684
:1041F0004FF480528DE860010397FDF7ECFE032039
:10420000CDE900060820CDE90207694620464FF4B3
:104210008052FDF7E0FE04208DE841014FF40C7060
:104220000390694620464FF48052FDF7D4FE2046A5
:1042300040F2AB21FDF7BCFE04B0BDE8F081000008
:1042400010B582B040F20003C2F200031B6849F6C9
:104250008174C1F25E64A3FB043C04464FEA5C50E7
:104260004FF47A73584301906068B0F5827F0DD1A6
:1042700013460A462046802100F014F878B1606D9C
:1042800040F02000606503200AE000BF019830B1D3
:10429000019801380190206880680006F6D400205B
:1042A00002B010BD2DE9F04381B01E4690460D4688
:1042B0008146FCF7A0FF301A00EB0807FCF79BFFD4
:1042C00040F20001C2F200010968C1F3CB31794329
:1042D0000091D9F800108A682A40AA4216D10646F1
:1042E00008F1010474B1FCF786FF801BB8420FD2BD
:1042F000009800990028A1F101010091D9F800105F
:1043000008BF074688682840A842EBD0002028E074
:10431000D9E900014268B1F5827F22F0E0024260F3
:104320000BD1D9F80810B1F5004F02D0B1F5806F6C
:1043300003D1016821F040010160D9F82810B1F5DE
:10434000005F07D1016821F400510160016841F468
:1043500000510160012089F85100002089F85000C7
:10436000032001B0BDE8F083B0B541F60045C4F2CA
:1043700002050446284680210022FCF737FF702002
:10438000FFF7E0F9E0B2FFF7DDF9284680210122CE
:10439000BDE8B040FCF72ABFB0B541F60045C4F215
:1043A00002050446284680210022FCF71FFF7220E8
:1043B000FFF7C8F9E0B2FFF7C5F9284680210122CE
:1043C000BDE8B040FCF712BF704740F22030C2F2A7
:1043D0000000016801310160704780B5FCF711FFF2
:1043E000BDE88040FFF7F1BFB0B592B0002401A84E
:1043F0001421CDE90A44CDE90844FBF72BFF43F62D
:1044000040000094C4F202000168022541F080518E
:104410000160006800F080500090009847F20000B2
:104420000094C4F20000016841F44041016000685A
:1044300000F4404000900098012006904FF4803036
:1044400007904FF480000D9019200E904FF4A0704B
:10445000CDE90F050420119006A80C95FDF758FB37
:1044600018B1EFF3108072B6FEE70F20CDE9010519
:104470004FF4A05004904FF48050059001A80521FE
:104480000394FDF743FA20B1EFF3108072B600BF3A
:10449000FEE712B0B0BD4EF68850CEF200000168C3
:1044A00041F470010160704710B540F6FF3E0368AB
:1044B000C4F2000E40F2004C7045C4F2010C0DDC59
:1044C000B0F1804F17D040F20042C4F20002904297
:1044D00011D040F60002C4F200020AE040F60042A9
:1044E000C4F20002904206D0604504D00022C4F21B
:1044F0000102904203D14A6823F07003134341F64E
:10450000FF72C4F2000290420DDC70451FDCB0F176
:10451000804F3FD040F20042C4F20002904239D0B6
:1045200040F6000221E043F6FF72C4F2010290421D
:104530001EDC42F20002C4F2000290422AD00022A5
:10454000C4F20102904225D0604523D026E040F617
:104550000042C4F2000290421CD041F60002C4F2B4
:104560000002904216D041F60042C4F200020FE071
:1045700044F20002C4F2010290420BD044F6000261
:10458000C4F20102904205D044F20042C4F201029A
:10459000904203D1CA6823F44073134323F080028E
:1045A0004B69D1F800E08C681A430260C46240F4A1
:1045B0008062C0F828E0624504BF096901630121F7
:1045C000416110BDB0B5026A40F2004522F001021F
:1045D0000262026AD0F804E0D0F818C08C6822F0B9
:1045E000020240F48063C4F20105AB4242EA0402D5
:1045F00005D1CC6822F00C0224F0040422430C689C
:10460000AB4207D1D1E905532EF4407E45EA0E05B1
:1046100045EA030E2CF073032343C0F804E08361E2
:10462000496841630262B0BD70B5026A40F200445D
:1046300022F010020262026AD0F804E0D0F818C03A
:104640008D6822F0200240F48063C4F20104A3428A
:1046500042EA051207D1CD686FF0400622F0C00291
:1046600006EA05152A430D68A34207D1D1E905647E
:104670002EF4406343EA860343EA840E2CF4E643B7
:1046800043EA0523C0F804E083614968816302625C
:1046900070BD70B5026A40F2004422F4807202627A
:1046A000026AD0F804E0D0F81CC08D6822F40072D1
:1046B00040F48063C4F20104A34242EA052207D118
:1046C000CD6840F2FF462D0222F44062B5432A43F2
:1046D0000D68A34207D1D1E905642EF4405343EAA3
:1046E000061343EA041E2CF073032B43C0F804E0C6
:1046F000C3614968C163026270BD70B5026A40F26D
:10470000004622F480520262026A4368D0F81CE03C
:104710000C68D1F808C040F48065C4F20106B542C7
:1047200004D14D6923F4804343EA85132EF4E64611
:1047300046EA04264360C66122F40052496842EA10
:104740000C320164026270BD10B504460068D4E901
:1047500002C22369016921F4405111430161626978
:1047600043EA0C01E3691143C268194349F20C633F
:104770009A431143C1604169A26921F4407141F239
:104780000043114340F48062C4F201039A42416144
:1047900002D1FDF775F901E0FDF75FF9E1696368A2
:1047A0001922B1F5004FA0FB02011CD15A00DB0F0A
:1047B000FBF718FD48F21F51C5F2EB11A0FB0123D6
:1047C0005A096FF0630302FB0300322303EBC000BE
:1047D000A0FB01014FF4F87000EA111000EB021089
:1047E000C1F342111AE09A009B0FFBF7FBFC48F261
:1047F0001F51C5F2EB11A0FB01235A096FF06303AF
:1048000002FB0300322303EB0010A0FB0101F020A8
:1048100000EA511000EB0210C1F343112268084373
:10482000906010BDFEE7000082B0FEF723FAFFF7AC
:1048300039FCFBF7ACFD4FF6FF7C07A100200122FD
:104840000023CDF800C0FEF735FF00BFFFF734FCB2
:10485000FBF7A6FDFAE700BF4F70656E48796472FA
:104860006F67656E000000000FB4084B10B504A917
:1048700002AA039800F01CF8044602A9002000F0E8
:10488000C1F8204610BC5DF814FB0000054A000882
:1048900002E008C8121F08C1002AFAD17047704709
:1048A000002001E001C1121F002AFBD17047000067
:1048B0002DE9FF4F89B09B460446002506E02528D8
:1048C0000BD05A460B999047641C6D1C2078002829
:1048D000F5D10DB02846BDE8F08F0027B84601227B
:1048E000474900E0074314F8013F203B02FA03F078
:1048F0000842F7D120782E2819D114F8010F47F07B
:1049000004072A280ED06FF02F022078A0F1300182
:1049100009290CD808EB880102EB410100EB0108E2
:10492000641CF2E70A98641C50F8048B0A90207803
:104930000028CED0642808D0692806D075281ED05B
:104940005A460B9990476D1C58E00A994FF00A0996
:1049500001C90A91002802DA40422D2102E03905FE
:1049600004D52B218DF82010012103E0F90704D094
:104970002021F7E78A4608AE0DE00021FAE70A9900
:104980004FF00A0901C90A91F7E74946FBF774FCA1
:10499000303106F8011D0028F7D1ADEB060000F11B
:1049A0002009780701D44FF00108C84502DDA8EBC3
:1049B000090000E000208046002706E008A85A46CB
:1049C000C05D0B9990476D1C7F1C5745F6DB04E0DA
:1049D00030205A460B9990476D1CB8F10001A8F1A0
:1049E0000108F5DC05E016F8010B5A460B999047D3
:1049F0006D1CB9F10001A9F10109F4DC641C65E743
:104A0000092801000A68531C0B60107070470000F1
:104A1000000000000000010203040607080900006E
:104A2000000001020304000000000000000000007C
:104A30000000000000000000183C3C3C1818180062
:104A400018180000000000666666240000000000E0
:104A50000000000000000000006C6CFE6C6C6CFE3E
:104A60006C6C0000000018187CC6C2C07C0686C6AC
:104A70007C181800000000000000C2C60C1830604E
:104A8000C686000000000000386C6C3876DCCCCCA8
:104A9000CC760000000000303030600000000000E4
:104AA00000000000000000000C18303030303030C2
:104AB000180C00000000000030180C0C0C0C0C0C42
:104AC0001830000000000000000000663CFF3C665B
:104AD000000000000000000000000018187E1818F8
:104AE00000000000000000000000000000000018AE
:104AF00018183000000000000000000000FE000058
:104B000000000000000000000000000000000000A5
:104B10001818000000000000000002060C183060A9
:104B2000C0800000000000007CC6C6CED6D6E6C617
:104B3000C67C0000000000001838781818181818F3
:104B4000187E0000000000007CC6060C183060C013
:104B5000C6FE0000000000007CC606063C060606F5
:104B6000C67C0000000000000C1C3C6CCCFE0C0C51
:104B70000C1E000000000000FEC0C0C0FC0E0606B7
:104B8000C67C0000000000003860C0C0FCC6C6C67D
:104B9000C67C000000000000FEC606060C1830307F
:104BA00030300000000000007CC6C6C67CC6C6C609
:104BB000C67C0000000000007CC6C6C67E06060655
:104BC0000C78000000000000000018180000001819
:104BD0001800000000000000000018180000001875
:104BE000183000000000000000060C18306030187B
:104BF0000C0600000000000000000000FE0000FEA7
:104C00000000000000000000006030180C060C18C6
:104C100030600000000000007CC6C60C18181800A8
:104C20001818000000000000007CC6C6DEDEDEDCD6
:104C3000C07C00000000000010386CC6C6FEC6C66E
:104C4000C6C6000000000000FC6666667C666666FC
:104C500066FC0000000000003C66C2C0C0C0C0C2CC
:104C6000663C000000000000F86C666666666666DA
:104C70006CF8000000000000FE6662687868606200
:104C800066FE000000000000FE66626878686060F2
:104C900060F00000000000003C66C2C0C0DEC6C676
:104CA000663A000000000000C6C6C6C6FEC6C6C6FC
:104CB000C6C60000000000003C1818181818181884
:104CC000183C0000000000001E0C0C0C0C0CCCCC9E
:104CD000CC78000000000000E6666C6C78786C66AA
:104CE00066E6000000000000F060606060606062E6
:104CF00066FE000000000000C6EEFEFED6C6C6C678
:104D0000C6C6000000000000C6E6F6FEDECEC6C63F
:104D1000C6C6000000000000386CC6C6C6C6C6C6BF
:104D20006C38000000000000FC6666667C60606015
:104D300060F00000000000007CC6C6C6C6C6C6D62D
:104D4000DE7C0C0E00000000FC6666667C6C66660D
:104D500066E60000000000007CC6C660380C06C68F
:104D6000C67C0000000000007E7E5A181818181833
:104D7000183C000000000000C6C6C6C6C6C6C6C6AF
:104D8000C67C000000000000C6C6C6C6C6C6C66C0B
:104D90003810000000000000C6C6C6C6C6D6D6FE43
:104DA0006C6C000000000000C6C66C6C38386C6C7F
:104DB000C6C6000000000000666666663C1818184B
:104DC000183C000000000000FEC6860C183060C2CF
:104DD000C6FE0000000000003C3030303030303083
:104DE000303C0000000000000080C0E070381C0E65
:104DF00006020000000000003C0C0C0C0C0C0C0C1B
:104E00000C3C0000000010386CC6000000000000E0
:104E10000000000000000000000000000000000092
:104E2000000000FF0000303018000000000000000B
:104E30000000000000000000000000780C7CCCCCDA
:104E4000CC76000000000000E06060786C6666666A
:104E500066DC0000000000000000007CC6C0C0C08E
:104E6000C67C0000000000001C0C0C3C6CCCCCCCC0
:104E7000CC760000000000000000007CC6FEC0C030
:104E8000C67C000000000000386C6460F060606068
:104E900060F000000000000000000076CCCCCCCC1C
:104EA000CC7C0CCC78000000E060606C76666666B6
:104EB00066E60000000000001818003818181818DE
:104EC000183C0000000000000606000E060606065C
:104ED000060666663C000000E06060666C78786CF0
:104EE00066E6000000000000381818181818181896
:104EF000183C000000000000000000ECFED6D6D6F2
:104F0000D6D6000000000000000000DC6666666681
:104F100066660000000000000000007CC6C6C6C631
:104F2000C67C000000000000000000DC66666666CB
:104F3000667C6060F000000000000076CCCCCCCC39
:104F4000CC7C0C0C1E000000000000DC766260606F
:104F500060F00000000000000000007CC660380C1B
:104F6000C67C000000000000103030FC30303030D3
:104F7000361C000000000000000000CCCCCCCCCCE3
:104F8000CC760000000000000000006666666666E1
:104F90003C18000000000000000000C6C6C6D6D6BF
:104FA000FE6C000000000000000000C66C383838BD
:104FB0006CC6000000000000000000C6C6C6C6C6E1
:104FC000C67E060CF8000000000000FECC18306021
:104FD000C6FE0000000000000E18181870181818FF
:104FE000180E0000000000001818181800181818F3
:104FF0001818000000000000701818180E18181873
:10500000187000000000000076DC000000000000C6
:105010000000000000000000000010386CC6C6C68A
:10502000FE00000000000000000000000000000082
:105030000000000000000000000000000000000070
:105040000000000000000000000000000000000060
:105050000000000000000000000000000000000050
:10506000000000000000000000000000038003803A
:105070000380038003800380038003800380038018
:10508000038003800380038003800380000000000E
:10509000018003C003C00180000000000000000088
:1050A0000000000000000000000000003C783C7898
:1050B0003C783C783C783C783C780000000000006C
:1050C00000000000000000000000000000000000E0
:1050D00000000000000000000000000000000000D0
:1050E00000000000000000000000000000000000C0
:1050F000063806380638063806387FFF7FFF0E7000
:105100000E700E700C700C70FFFEFFFE0C701CE039
:105110001CE01CE01CE01CE000000000000000009F
:10512000000000000000000000000060006000E0DF
:1051300007F81FFC3CC470C070C070C079C03DC08F
:105140003F800FE003F801FC019E038E038E030EE7
:10515000031E633C7FF81FE0030007000700060002
:105160000000000000000000000000001F013F835D
:1051700079C771C671CE71DC73D83FB01F70006003
:1051800000C001C00380031F073F0E790C711C7122
:1051900038713073703FE01F000000000000000015
:1051A00000000000000000000000000007C01FE039
:1051B0001CF038703870387038703CE01FC01F80A9
:1051C0001F003F0E7B8E71CEE1EEE0FCE07CE03C08
:1051D000F03C787E3FEF1F870000000000000000D9
:1051E00000000000000000000000000003C003C039
:1051F00003C003C003C003C003C0000000000000E0
:10520000000000000000000000000000000000009E
:10521000000000000000000000000000000000008E
:10522000000000000000000000000020007000E00E
:1052300001C003800380070007000E000E000C0071
:105240001C001C001C001C001C001C001C001E007C
:105250000E000E00070007000380038001C000E07D
:105260000070002000000000000008001C000E007C
:1052700007000380038001C001C000E000E000F0EF
:10528000007000700070007000700070007000709E
:1052900000E000E001C001C00380038007000E00B1
:1052A0001C000800000000000000000001800180D8
:1052B0001188399C1DB807E0018007E01FF8399C70
:1052C0001188018001800000000000000000000043
:1052D00000000000000000000000000000000000CE
:1052E00000000000000000000000000000000000BE
:1052F0000000000000000000000003800380038025
:10530000038003800380FFFEFFFE03800380038091
:105310000380038003800000000000000000000004
:10532000000000000000000000000000000000007D
:10533000000000000000000000000000000000006D
:10534000000000000000000000000000000000E07D
:1053500001F001F001F000F000F000E001E00F804A
:105360000E0000000000000000000000000000002F
:10537000000000000000000000000000000000002D
:105380000000000000001FF01FF0000000000000FF
:10539000000000000000000000000000000000000D
:1053A00000000000000000000000000000000000FD
:1053B00000000000000000000000000000000000ED
:1053C000000000000000000000000000000003805A
:1053D00007C007C007C003800000000000000000F5
:1053E000000000000000000000000000000C001C95
:1053F00000180038003800300070006000E000C085
:1054000001C001C0038003800300070006000E00F6
:105410000C001C001C001800380030007000000058
:10542000000000000000000000000000000000007C
:1054300007C01FF03C78783C701C701CE01EE07EBA
:10544000E0EEE1CEE70EEE0EFC0EF00E701C701CCE
:10545000783C3C781FF007C000000000000000000E
:10546000000000000000000000000000000000003C
:1054700001C007C01DC039C071C021C001C001C03A
:1054800001C001C001C001C001C001C001C001C014
:1054900001C001C03FFE3FFE000000000000000010
:1054A00000000000000000000000000000000000FC
:1054B0000FC03FE070F02078003800380038003826
:1054C0000078007000F001E003C007800F001E00AC
:1054D0001C0038007FFC7FFC000000000000000082
:1054E00000000000000000000000000000000000BC
:1054F0001FC03FF0207000380038003800380070BE
:1055000000F00FC00FF00078003C001C001C001CD5
:10551000003800787FE07F8000000000000000007D
:10552000000000000000000000000000000000007B
:10553000007800F801F801B803B8073807380E38CA
:105540001C381C38383830387038E038FFFFFFFF1F
:10555000003800380038003800000000000000006B
:10556000000000000000000000000000000000003B
:105570007FF87FF87000700070007000700070009D
:105580007FC07FF00078003C001C001C001C001C49
:10559000003800F07FE07F80000000000000000085
:1055A00000000000000000000000000000000000FB
:1055B00001F807F80F001C003800380030007000B8
:1055C00077F07FF8783C701E700E700E700E380EFB
:1055D000381C1C3C1FF807E0000000000000000021
:1055E00000000000000000000000000000000000BB
:1055F0007FFE7FFE000E001C001C0038003800708B
:10560000007000E000E001C001C0038003800700DB
:1056100007000F000E001E00000000000000000048
:10562000000000000000000000000000000000007A
:1056300007F01FFC381C700E700E700E781E3C1C9C
:105640001E780FF00FF01E78381C700E700E700E62
:10565000700E3C3C1FF80FE000000000000000004E
:10566000000000000000000000000000000000003A
:1056700007E01FF03C38381C701C700E700E700E66
:10568000780E3C1E1FFE0FEE000E000C001C003CAE
:10569000007800F03FE03F00000000000000000044
:1056A00000000000000000000000000000000000FA
:1056B0000000000000000000018003C003C003C020
:1056C00001800000000000000000000000000180D8
:1056D00003C003C003C00180000000000000000000
:1056E00000000000000000000000000000000000BA
:1056F000000000000000000000C001E001E001E047
:1057000000C000000000000000000000000000E0F9
:1057100001F001F001F000F000F000E001E00F8086
:105720000E0000000000000000000000000000006B
:10573000000000000008001C007800F001E003C039
:1057400007800F001E001E000F00078003C001E04D
:1057500000F00078001C00080000000000000000BD
:105760000000000000000000000000000000000039
:105770000000000000000000000000000000000029
:105780007FFC7FFC0000000000007FFC7FFC00002D
:105790000000000000000000000000000000000009
:1057A00000000000000000000000000000000000F9
:1057B00000000000100038001E000F00078003C02A
:1057C00001E000F00078007800F001E003C00780FD
:1057D0000F001E0038001000000000000000000054
:1057E0000000000000000000000000001E001FC0BC
:1057F00001E000F000700038003800380038007018
:1058000007F007C0070007000700070000000000BE
:1058100006000F000F00060000000000000000005E
:1058200000000000000000000000000001F803FC80
:105830000F0E0C07180338033001700161F963F98A
:105840006739C739C631CE31CE31CE31CE31CE7384
:10585000CE73C7FEC79CE0006000600030003C18BB
:105860001FF807E00000000000000000000000003A
:1058700000F001F001B003B803B80318071C071CBF
:10588000060C0E0E0E0E0C071C071C073FFF3FFFF9
:10589000380370017001700100000000000000007A
:1058A00000000000000000000000000000000000F8
:1058B0007FC07FF0707070387038703870387070DA
:1058C00070F07FC07FF07078703C701C701C701C92
:1058D000703C70787FF07FC0000000000000000086
:1058E00000000000000000000000000000000000B8
:1058F00003FC0FFE1E023800700070007000E00014
:10590000E000E000E000E000E000E0007000700077
:1059100038003E060FFE03F8000000000000000003
:105920000000000000000000000000000000000077
:10593000FF80FFE0E078E038E01CE01CE00EE00EC5
:10594000E00EE00EE00EE00EE00EE00EE01CE01CCB
:10595000E038E0F0FFE0FF80000000000000000001
:105960000000000000000000000000000000000037
:105970003FFC3FFC38003800380038003800380061
:1059800038003FFC3FFC3800380038003800380051
:10599000380038003FFC3FFC000000000000000021
:1059A00000000000000000000000000000000000F7
:1059B0003FFC3FFC38003800380038003800380021
:1059C00038003FFC3FFC3800380038003800380011
:1059D00038003800380038000000000000000000E7
:1059E00000000000000000000000000000000000B7
:1059F00003FC0FFE1E023C00780070007000E00007
:105A0000E000E0FEE0FEE00EE00EE00E700E700E34
:105A1000380E3E0E0FFE03F80000000000000000EC
:105A20000000000000000000000000000000000076
:105A3000700E700E700E700E700E700E700E700E76
:105A4000700E7FFE7FFE700E700E700E700E700E68
:105A5000700E700E700E700E00000000000000004E
:105A60000000000000000000000000000000000036
:105A70007FFC7FFC0380038003800380038003801E
:105A800003800380038003800380038003800380FE
:105A9000038003807FFC7FFC00000000000000000A
:105AA00000000000000000000000000000000000F6
:105AB0003FF83FF800380038003800380038003828
:105AC0000038003800380038003800380038003816
:105AD000207030F01FE00F80000000000000000088
