:020000040800F2
:1000000018110020C10100085D2C0008A121000882
:10001000592C0008CD020008C52F00080000000080
:10002000000000000000000000000000852E000815
:10003000D102000800000000CD2C0008DD2E0008D1
:10004000DB010008DB010008DB010008DB01000820
:10005000DB010008DB010008DB010008DB01000810
:10006000DB010008DB010008DB010008DB01000800
:10007000DB010008DB010008DB010008DB010008F0
:10008000DB010008DB010008DB010008DB010008E0
:10009000DB010008DB010008DB010008DB010008D0
:1000A000DB010008DB010008DB010008DB010008C0
:1000B000DB010008DB010008DB010008DB010008B0
:1000C000DB010008DB010008DB010008DB010008A0
:1000D000DB010008DB010008DB010008DB01000890
:1000E000DB010008DB010008DB010008DB01000880
:1000F000DB010008DB010008DB010008DB01000870
:10010000DB010008DB010008DB010008DB0100085F
:10011000DB010008DB010008DB010008DB0100084F
:10012000DB010008DB010008DB010008DB0100083F
:10013000DB010008DB010008DB010008DB0100082F
:10014000DB010008DB010008DB010008DB0100081F
:10015000DB010008DB010008DB010008DB0100080F
:10016000DB010008DB010008DB010008DB010008FF
:10017000DB010008DB010008DB01000800000000D3
:10018000DB010008DB010008DB010008DB010008DF
:10019000DB010008DB010008DB010008DB010008CF
:1001A000DB010008DB010008DB010008DFF80CD0F0
:1001B00000F07AF800480047593000081811002074
:1001C0000648804706480047FEE7FEE7FEE7FEE7F1
:1001D000FEE7FEE7FEE7FEE7FEE7FEE7B12F0008D9
:1001E000AD0100082DE9F05F0546002092469B46D0
:1001F00088460646814640241BE02846414647463D
:10020000224600F041F853465A46C01A914110D395
:1002100011461846224600F028F82D1A67EB01080F
:100220004F4622460120002100F01FF817EB00097D
:100230004E41201EA4F10104DFDC484631462A4627
:100240004346BDE8F09FD2B201E000F8012B491E01
:10025000FBD270470022F6E710B513460A46044663
:100260001946FFF7F0FF204610BD202A04DB203A94
:1002700000FA02F1002070479140C2F1200320FAF9
:1002800003F3194390407047202A04DB203A21FAF7
:1002900002F00021704721FA02F3D040C2F120029F
:1002A0009140084319467047064C074D06E0E06848
:1002B00040F0010394E8070098471034AC42F6D3AD
:1002C000FFF778FF98300008B8300008FFE7FEE736
:1002D0007047000081B0EFF3108072B60090FFE726
:1002E000FEE7000085B00490039100200290019089
:1002F00003980068012824D0FFE704980068029062
:10030000029847F6FF71884302900399009148686C
:10031000D1F808C0CB680A6940EA0C0018431043C2
:100320004A6910438A691043CA6910430A6A104334
:10033000496A0143029808430290029804990860B0
:100340002FE0049800680290029820F4F840029090
:100350000399C8690A6A496A10430143029808432D
:100360000290049840680190019847F6FF71884315
:10037000019003994868D1F808C0CB680A6940EA3F
:100380000C00184310434A691043896901430198DE
:100390000843019002980499086001980499486004
:1003A000FFE7002005B0704782B001900091009AED
:1003B0000199486940EA42004861002002B0704754
:1003C00080B586B0049003910292002001900090C5
:1003D000039908684A688B68C96810436FF01F0268
:1003E00002EB4312104340EA412001900198049926
:1003F000086100F0E9FA0090FFE704988069800640
:10040000002815D5FFE70298013080B1FFE7029878
:1004100040B1FFE700F0D8FA0099401A02998842EB
:1004200004D9FFE703208DF8170005E0FFE7E4E7B4
:1004300000208DF81700FFE79DF8170006B080BD7B
:1004400080B585B004900391029200200190009045
:100450000298012839D0FFE704988068019001983C
:1004600000F07040019003990868D1F804E0D1F8D9
:1004700008C0CB6801386FF00F0202EB0E12104378
:100480006FF0FF0202EB0C2210434FF20002CFF696
:10049000FF7202EB033210430B690022CFF6FF72AA
:1004A00002EB034210434B690022CFF6F07202EBDD
:1004B000035210438969013940EA016101980843F8
:1004C000019001980499886048E004988068019040
:1004D000019840F6FF71CFF60F7108400190039824
:1004E000C16842694FF20000CFF6FF7000EB0130A7
:1004F0000021CFF6F07101EB02510143019808434E
:1005000001900498C0680090009800F0704000903E
:1005100003990868D1F804E0D1F808C00B690138E4
:100520006FF00F0202EB0E1210436FF0FF0202EBAE
:100530000C2210430022CFF6FF7202EB034210435D
:100540008969013940EA01610098084300900198E7
:100550000499886000980499C860FFE7002005B0FE
:1005600080BD000080B584B0039000F02DFA0290A9
:10057000039801900198013048B1FFE740F2040070
:10058000C2F200000178019808440190FFE7FFE7FC
:1005900000F01AFA0299401A0199884201D2FFE745
:1005A000F6E704B080BD000090B00F900E910020DF
:1005B0000C900B900A900D90FFE70D980F2800F219
:1005C000E881FFE70D99012088400C900E980068A3
:1005D0000C9908400B900B980C99884240F0D481FC
:1005E000FFE70E98406800F00300012807D0FFE7FE
:1005F0000E98406800F0030002282FD1FFE70F9803
:1006000080680A900D984100032000FA01F10A98D1
:1006100088430A900E98C0680D99490000FA01F1CC
:100620000A9808430A900A980F9988600F984068C2
:100630000A900D99012000FA01F10A9888430A9066
:100640000E984068C0F300100D9900FA01F10A9865
:1006500008430A900A980F994860FFE70E9840688F
:1006600000F00300032818D0FFE70F98C0680A9035
:100670000D984100032000FA01F10A9888430A907E
:100680000E9880680D99490000FA01F10A98084314
:100690000A900A980F99C860FFE70E98406800F02A
:1006A0000300022826D1FFE70F980D996FF003028F
:1006B00002EA51010844006A0A900D9800F0070010
:1006C00081000F2000FA01F10A9888430A900E98E1
:1006D00000690D9901F00701890000FA01F10A98FB
:1006E00008430A900A980F990D9B02EA530211449D
:1006F0000862FFE70F9800680A900D9841000320F8
:1007000000FA01F10A9888430A900E98406800F0B8
:1007100003000D99490000FA01F10A9808430A9074
:100720000A980F9908600E9880798007002800F0D9
:100730002A81FFE7FFE70020099043F64400C4F256
:100740000200016841F480410160006800F48040CB
:1007500009900998FFE70D9820F0030043F608017F
:10076000C4F2010140580A900D9800F00300810086
:100770000F2000FA01F10A9888430A900F9800218F
:10078000C4F20201884203D1FFE7002008907AE01A
:100790000F9840F20041C4F20201884203D1FFE702
:1007A000012007906CE00F9840F60001C4F20201AE
:1007B000884203D1FFE7022006905EE00F9840F6E2
:1007C0000041C4F20201884203D1FFE703200590F3
:1007D00050E00F9841F20001C4F20201884203D1B7
:1007E000FFE70420049042E00F9841F20041C4F278
:1007F0000201884203D1FFE70520039034E00F98FF
:1008000041F60001C4F20201884203D1FFE706204D
:10081000029026E00F9841F60041C4F2020188429E
:1008200003D1FFE70720019018E00F9842F2000182
:10083000C4F20201884203D1FFE7082000900AE0D9
:100840000F9942F20042C4F202020A20914208BF0C
:1008500009200090FFE700980190FFE701980290BF
:10086000FFE702980390FFE703980490FFE70498DE
:100870000590FFE705980690FFE706980790FFE7C9
:1008800007980890FFE70898C0B20D9901F003019E
:10089000890000FA01F10A9808430A900A980D9914
:1008A00021F0030143F60802C4F20102885043F626
:1008B0000040C4F2010000680A900B990A9888432E
:1008C0000A900E988079C00728B1FFE70B990A9823
:1008D00008430A90FFE70A9843F60041C4F2010179
:1008E000086043F60440C4F2010000680A900B99C6
:1008F0000A9888430A900E9880798007002805D5C9
:10090000FFE70B990A9808430A90FFE70A9843F615
:100910000441C4F20101086043F60840C4F201003A
:1009200000680A900B990A9888430A900E9880797B
:10093000C006002805D5FFE70B990A9808430A90DE
:10094000FFE70A9843F60841C4F20101086043F644
:100950000C40C4F2010000680A900B990A98884381
:100960000A900E9880798006002805D5FFE70B993C
:100970000A9808430A90FFE70A9843F60C41C4F22C
:1009800001010860FFE7FFE7FFE70D9801300D90D8
:1009900013E610B07047000082B00190ADF802106D
:1009A0008DF801209DF8010028B1FFE7BDF8020095
:1009B0000199886105E0BDF8020000040199886191
:1009C000FFE702B07047000040F21410C2F20000CE
:1009D0000068704740F20400C2F20000027840F262
:1009E0001411C2F20001086810440860704700004A
:1009F00080B582B043F60041C4F20201086840F4B9
:100A000000700860086840F480600860086840F47E
:100A100080700860032000F011FB0020019000F0BE
:100A200005F800F0CBFA019802B080BD80B582B025
:100A3000009040F20000C2F20000006840F20401A1
:100A4000C2F200010A784FF47A71B1FBF2F1B0FB07
:100A5000F1F001F09DFB20B1FFE701208DF80700C8
:100A600018E000980F280DD8FFE700994FF0FF30ED
:100A7000002200F0C9FA009840F20801C2F2000119
:100A8000086003E001208DF8070003E000208DF8E6
:100A90000700FFE79DF8070002B080BDB0B586B043
:100AA000049003910292FFE7049890F8A0000128B7
:100AB00004D1FFE702208DF8170049E004990120D6
:100AC00081F8A000FFE7FFE70499022081F8A10068
:100AD000049A0298342100FB0121009103980190AF
:100AE00002684368D0F808C0D0F80CE00469456992
:100AF000CD648C64C1F844E0C1F840C0CB638A6324
:100B00008269C369D0F820C0D0F824E0846AC56A3D
:100B10004D660C66C1F85CE0C1F858C04B650A65CB
:100B2000006B886604980399029A01F05DFF0498AF
:100B3000016801204862049981F8A100FFE7049947
:100B4000002081F8A000FFE700208DF81700FFE7E4
:100B50009DF8170006B0B0BD80B584B00290029831
:100B600020B9FFE701208DF80F009EE0029890F871
:100B7000A10040B9FFE70299002081F8A000029887
:100B800000F098F8FFE70299022081F8A10002988E
:100B90000168886920F070408861029A1168506885
:100BA000D2F808C0D36840EA0C0018431269024327
:100BB0008869104388610298016888684FF60002CE
:100BC000CFF2000210408860029840690004019052
:100BD0000198029B19689B690343886818438860E1
:100BE00002980168C8681040C8600298C069000493
:100BF00001900198029B19681B6A0343C868184357
:100C0000C860029801680869104008610298406A4B
:100C1000000401900198029B19689B6A03430869CC
:100C200018430861029801684869104048610298B9
:100C3000C06A000401900198029A1168126B024385
:100C4000486910434861029890F83500000201900D
:100C5000029890F836000004009002980168C86A73
:100C600000F07F40C862009801990143029890F813
:100C700034200A430168C86A1043C86202980168B8
:100C8000486B40F00600486302980168886940F0AC
:100C90000100886102990020C1F8A400029A012194
:100CA00082F8A1108DF80F00FFE79DF80F0004B047
:100CB00080BD000080B596B01590FFE700200F9032
:100CC00043F64400C4F20200016841F08061016013
:100CD000006800F080600F900F98FFE7FFE70020AA
:100CE0000E9043F63000C4F20200016841F40001A6
:100CF0000160006800F400000E900E98FFE7FFE727
:100D000000200D9043F63000C4F20200016841F06B
:100D100002010160006800F002000D900D98FFE7ED
:100D2000FFE700200C9043F63000C4F20200016897
:100D300041F020010160006800F020000C900C9848
:100D4000FFE7FFE700200B9043F63000C4F20200FB
:100D5000016841F040010160006800F040000B9024
:100D60000B98FFE7FFE700200A9043F63000C4F23B
:100D70000200016841F080010160006800F080001D
:100D80000A900A98FFE7FFE70020099043F6300039
:100D9000C4F20200016841F480710160006800F44F
:100DA000807009900998FFE740F20040C4F2020009
:100DB00001902021009100220492FFF7EDFD009A9E
:100DC000019804991092012202921192129103212A
:100DD0000591139110A90891FFF7E6FB029A42F2E0
:100DE0000000C4F2020007904FF48071FFF7D4FDB9
:100DF000029A07980821FFF7CFFD029A41F60040BA
:100E0000C4F20200069080210391FFF7C5FD029B0A
:100E1000049A079808994FF4847CCDF840C0119348
:100E200012921392FFF7C0FB039A0698089910924A
:100E3000FFF7BAFB049A059808994FF48063109362
:100E400002231193129213900E20149041F200404D
:100E5000C4F20200FFF7A8FB08994FF40C60109051
:100E600041F60000C4F20200FFF79EFB06980899C5
:100E70004FF47E421092FFF797FB0798089940F2D3
:100E8000F7621092FFF790FB16B080BD80B586B078
:100E90000490039102920193FFE7049890F8A00058
:100EA000012804D1FFE702208DF8170036E00499ED
:100EB000012081F8A000FFE7FFE70499022081F8F4
:100EC000A100049A0198342100FB012038300090E1
:100ED000039800990860039800998A6A1044486052
:100EE00002980099886002980099CA6A1044C86004
:100EF00004980099019A01F077FD04980168012097
:100F00004862049981F8A100FFE70499002081F864
:100F1000A000FFE700208DF81700FFE79DF81700FD
:100F200006B080BD80B586B0049003910292019313
:100F3000FFE7049890F8A000012804D1FFE7022001
:100F40008DF8170036E00499012081F8A000FFE732
:100F5000FFE70499022081F8A100049A0198342146
:100F600000FB012038300090039800990A68104473
:100F70004860029800998A681044C86003980099F4
:100F8000886202980099C86204980099019A01F059
:100F90002BFD0498016801204862049981F8A100A2
:100FA000FFE70499002081F8A000FFE700208DF8FA
:100FB0001700FFE79DF8170006B080BD82B0FFE77D
:100FC0000020019043F64400C4F20200016841F49D
:100FD00080410160006800F4804001900198FFE7C3
:100FE000FFE70020009043F64000C4F202000168D1
:100FF00041F080510160006800F08050009000983E
:10100000FFE702B07047000080B586B08DF817008A
:10101000049103920020029001F0D6FF02909DF906
:101020001700019002980499039A01F019FE0146F5
:10103000019801F0D1FF06B080BD000080B582B0FC
:101040000190019801F0EAFF02B080BD80B584B044
:1010500000200290FFE70020019043F64000C4F218
:101060000200016841F080510160006800F080508A
:1010700001900198FFE74021C4F20E210120086091
:10108000FFF7A2FC0290FFE747F20400C4F2000061
:10109000006800F48030B0F5803F0DD0FFE7FFF727
:1010A00093FC0299401AB0F57A7F04D9FFE7032038
:1010B0008DF80F0025E0E7E74421C4F20E2101205E
:1010C0000860FFF781FC0290FFE747F20400C4F2DA
:1010D0000000006800F40030B0F5003F0DD0FFE7DD
:1010E000FFF772FC0299401AB0F57A7F04D9FFE746
:1010F00003208DF80F0004E0E7E700208DF80F00D3
:10110000FFE79DF80F0004B080BD000080B586B0F9
:10111000049000200390029004980078C00770B9F2
:10112000FFE70498006800F00200022807D0FFE7FC
:10113000049800784006002840F18F80FFE768217E
:10114000C4F2472100200860FFF73EFC0390FFE750
:1011500043F60000C4F20200006800F000610020C5
:10116000B0EBD16F0CD0FFE7FFF72EFC0399401ACC
:10117000032804D3FFE703208DF81700D0E1E7E749
:1011800004980078C00760B1FFE70499486889684F
:10119000800140EA017043F68401C4F20201086054
:1011A000FFE704980078800700281FD5FFE743F683
:1011B0008401C4F202010868C0F302700290049A2C
:1011C0005068D268800140EA0260029A40EA0270E8
:1011D000086043F68C01C4F20201086820F01F0089
:1011E000049AD269013A10430860FFE70498007836
:1011F000400600280FD5FFE7049A50689168D2682E
:10120000800140EA026040EA017043F68401C4F2C2
:1012100002010860FFE76821C4F24721012008604D
:10122000FFF7D2FB0390FFE743F60000C4F2020091
:10123000006800F000610020B0EBD16F0CD1FFE737
:10124000FFF7C2FB0399401A032804D3FFE70320EA
:101250008DF8170064E1E7E7FFE70498006800F005
:101260000400042807D0FFE704980078000700284E
:1012700040F19080FFE77021C4F247210020086010
:10128000FFF7A2FB0390FFE743F60000C4F2020061
:10129000006800F000510020B0EB517F0CD0FFE758
:1012A000FFF792FB0399401A032804D3FFE70320BA
:1012B0008DF8170034E1E7E704980078400700282C
:1012C00022D5FFE743F68801C4F202010868C0F3A3
:1012D00002700290049A10695269800140EA02602B
:1012E000029A40EA0270086043F68C01C4F20201DF
:1012F000086820F4F850049A136A6FF0FF0202EBBA
:10130000032210430860FFE70498007800070028D4
:101310001ED5FFE743F68801C4F202010868C0F356
:1013200003600290049A106992698001029B40EA6E
:10133000036040EA0270086043F68C01C4F20201C7
:10134000086820F44030049A526A10430860FFE7AE
:101350007021C4F2472101200860FFF735FB03909C
:10136000FFE743F60000C4F20200006800F00051FD
:101370000020B0EB517F0CD1FFE7FFF725FB03996D
:10138000401A032804D3FFE703208DF81700C7E0B5
:10139000E7E7FFE7049800788006002840F1AD8079
:1013A000FFE7FFE70020019043F64000C4F202008F
:1013B000016841F080510160006800F080500190A8
:1013C0000198FFE747F20001C4F20001086840F409
:1013D00080700860FFF7F8FA0390FFE747F200001B
:1013E000C4F200000068C00500280CD4FFE7FFF736
:1013F000EBFA0399401A032804D3FFE703208DF882
:1014000017008DE0EAE743F67000C4F202000068BE
:1014100000F440700290029800283ED0FFE7029846
:101420000499896A01F44071884236D0FFE743F697
:101430007000C4F20200016821F44071029140F68C
:101440004062C4F24722012111600021116002991B
:1014500001600068C007F8B1FFE7FFF7B5FA039035
:10146000FFE743F67000C4F20200006800F00201DA
:101470000020B0EB510F0ED1FFE7FFF7A5FA03995B
:10148000401A41F28931884204D3FFE703208DF8E6
:10149000170045E0E5E7FFE7FFE7FFE70498806A0C
:1014A00000F44070B0F5407F11D1FFE743F608012A
:1014B000C4F20201086820F4F810049A926A4FF608
:1014C000FF43C0F6FF731A401043086008E043F67C
:1014D0000801C4F20201086820F4F8100860FFE770
:1014E0000498826A6FF31F3243F67001C4F202015E
:1014F000086810430860FFE7FFE704980078C0061B
:10150000002809D5FFE7049890F82C0041F2E0117B
:10151000C4F247210860FFE700208DF81700FFE7BD
:101520009DF8170006B080BD80B584B0029001918F
:10153000029820B9FFE701208DF80F0021E1019802
:1015400043F60041C4F20201096801F00F0188422C
:1015500012D9FFE7019943F60040C4F2020001707E
:10156000006800F00F000199884204D0FFE70120D5
:101570008DF80F0005E1FFE702980078800700284A
:101580002AD5FFE7029800784007002809D5FFE731
:1015900043F60801C4F20201086840F4E050086014
:1015A000FFE7029800780007002809D5FFE743F617
:1015B0000801C4F20201086840F460400860FFE7D7
:1015C00043F60801C4F20201086820F0F000029A14
:1015D000926810430860FFE702980078C00700286F
:1015E0006ED0FFE702984068012811D1FFE743F66B
:1015F0000000C4F20200006800F400310020B0EBEB
:10160000514F04D1FFE701208DF80F00B9E02CE025
:1016100002984068022805D0FFE702984068032836
:1016200011D1FFE743F60000C4F20200006800F0A9
:1016300000710020B0EB516F04D1FFE701208DF85D
:101640000F009EE010E043F60000C4F202000068C4
:1016500000F002010020B0EB510F04D1FFE70120A0
:101660008DF80F008DE0FFE7FFE743F60801C4F2B5
:101670000201086820F00300029A526810430860D3
:10168000FFF7A2F90090FFE743F60800C4F202005A
:10169000006800F00C0002994968B0EB810F0ED091
:1016A000FFE7FFF791F90099401A41F2893188422A
:1016B00004D3FFE703208DF80F0062E0E4E7FFE7C3
:1016C000019843F60041C4F20201096801F00F01DC
:1016D000884212D2FFE7019943F60040C4F20200AB
:1016E0000170006800F00F000199884204D0FFE704
:1016F00001208DF80F0044E0FFE7029800784007D2
:1017000000280CD5FFE743F60801C4F2020108687F
:1017100020F4E050029AD26810430860FFE7029874
:101720000078000700280DD5FFE743F60801C4F252
:101730000201086820F46040029A126940EAC2007F
:101740000860FFE700F022F843F60801C4F2020146
:101750000968C9B20A0943F28601C0F60001895C32
:10176000C84040F20001C2F20001086040F20800E7
:10177000C2F200000068FFF759F900208DF80F0051
:10178000FFE79DF80F0004B080BD000080B586B073
:101790000020059004900390029043F60800C4F2E4
:1017A0000200006800F00C000146019140B1FFE723
:1017B000019804280AD0FFE7019808280CD04FE0D0
:1017C00042F20040C0F2F40002904FE047F64000C1
:1017D000C0F27D10029049E043F60400C4F202001A
:1017E000016801F03F01059100684002002813D50F
:1017F000FFE743F60400C4F202000068C0F388105B
:1018000047F64001C0F27D11A0FB0101059A0023BB
:10181000FEF7E8FC049012E043F60400C4F2020074
:101820000068C0F3881042F20041C0F2F401A0FB4E
:101830000101059A0023FEF7D5FC0490FFE743F66B
:101840000400C4F20200006800F44031022000EB02
:10185000D130039004980399B0FBF1F0029005E0B9
:1018600042F20040C0F2F4000290FFE7029806B096
:1018700080BD000080B586B00490049820B9FFE7D1
:1018800001208DF8170050E304980078C007002865
:1018900000F0A580FFE743F60800C4F202000068EC
:1018A00000F00C00042813D0FFE743F60800C4F250
:1018B0000200006800F00C0008281ED1FFE743F684
:1018C0000400C4F2020000684002002815D5FFE7BA
:1018D00043F60000C4F20200006800F4003100206A
:1018E000B0EB514F08D0FFE70498406820B9FFE7FC
:1018F00001208DF8170018E370E0FFE704984068B6
:10190000B0F5803F09D1FFE743F60001C4F20201C0
:10191000086840F48030086020E004984068B0F522
:10192000A02F0DD1FFE743F60001C4F202010868C1
:1019300040F480200860086840F4803008600CE0C3
:1019400043F60001C4F20201086820F48030086008
:10195000086820F480200860FFE7FFE7FFE70498AD
:101960004068E8B1FFE7FFF72FF80390FFE743F681
:101970000000C4F20200006800F400310020B0EB67
:10198000514F0CD1FFE7FFF71FF80399401A652864
:1019900004D3FFE703208DF81700C6E2E7E71CE059
:1019A000FFF712F80390FFE743F60000C4F20200CD
:1019B000006800F400310020B0EB514F0CD0FFE77D
:1019C000FFF702F80399401A652804D3FFE70320C4
:1019D0008DF81700A9E2E7E7FFE7FFE7FFE70498C4
:1019E00000788007002840F19680FFE743F6080062
:1019F000C4F20200006810F00C0F13D0FFE743F6AA
:101A00000800C4F20200006800F00C0008282CD185
:101A1000FFE743F60400C4F2020000684002002819
:101A200023D4FFE743F60000C4F20200006800F090
:101A300002010020B0EB510F09D0FFE70498C06805
:101A4000012804D0FFE701208DF817006DE243F66E
:101A50000001C4F20201086820F0F800049A12693B
:101A600040EAC2000860FFE754E00498C06870B321
:101A7000FFE70021C4F2472101200860FEF7A4FF20
:101A80000390FFE743F60000C4F20200006800F094
:101A900002010020B0EB510F0CD1FFE7FEF794FFDD
:101AA0000399401A032804D3FFE703208DF8170099
:101AB0003BE2E7E743F60001C4F20201086820F0C8
:101AC000F800049A126940EAC200086021E000218F
:101AD000C4F2472100200860FEF776FF0390FFE77D
:101AE00043F60000C4F20200006800F0020100208A
:101AF000B0EB510F0CD0FFE7FEF766FF0399401AD9
:101B0000032804D3FFE703208DF817000DE2E7E771
:101B1000FFE7FFE7FFE704980078000700284BD5B0
:101B2000FFE70498406918B3FFE740F68061C4F20C
:101B3000472101200860FEF747FF0390FFE743F6C7
:101B40007400C4F20200006800F002010020B0EB53
:101B5000510F0CD1FFE7FEF737FF0399401A032816
:101B600004D3FFE703208DF81700DEE1E7E722E06A
:101B700040F68061C4F2472100200860FEF724FF90
:101B80000390FFE743F67400C4F20200006800F01F
:101B900002010020B0EB510F0CD0FFE7FEF714FF5D
:101BA0000399401A032804D3FFE703208DF8170098
:101BB000BBE1E7E7FFE7FFE704980078400700286C
:101BC00040F1CE80FFE700208DF8070043F640008B
:101BD000C4F202000068C000002815D4FFE7FFE748
:101BE0000020009043F64000C4F20200016841F07A
:101BF00080510160006800F0805000900098FFE77D
:101C000001208DF80700FFE747F20000C4F2000052
:101C10000068C005002822D4FFE747F20001C4F2A3
:101C20000001086840F480700860FEF7CDFE039064
:101C3000FFE747F20000C4F200000068C00500287A
:101C40000CD4FFE7FEF7C0FE0399401A032804D323
:101C5000FFE703208DF8170067E1EAE7FFE7FFE7FA
:101C600004988068012809D1FFE743F67001C4F2A7
:101C70000201086840F0010008601FE004988068D5
:101C800005280DD1FFE743F67001C4F20201086890
:101C900040F004000860086840F0010008600CE0B3
:101CA00043F67001C4F20201086820F001000860E8
:101CB000086820F004000860FFE7FFE7FFE70498EA
:101CC0008068F8B1FFE7FEF77FFE0390FFE743F679
:101CD0007000C4F20200006800F002010020B0EBC6
:101CE000510F0ED1FFE7FEF76FFE0399401A41F244
:101CF0008931884204D3FFE703208DF8170014E1EF
:101D0000E5E71EE0FEF760FE0390FFE743F6700094
:101D1000C4F20200006800F002010020B0EB510F95
:101D20000ED0FFE7FEF750FE0399401A41F28931C9
:101D3000884204D3FFE703208DF81700F5E0E5E7BC
:101D4000FFE79DF80700012809D1FFE743F64001AE
:101D5000C4F20201086820F080500860FFE7FFE746
:101D600004988069002800F0DC80FFE743F6080053
:101D7000C4F20200006800F00C00082800F0858022
:101D8000FFE70498806902285CD1FFE76021C4F274
:101D9000472100200860FEF717FE0390FFE743F697
:101DA0000000C4F20200006800F000710020B0EBF7
:101DB000516F0CD0FFE7FEF707FE0399401A032886
:101DC00004D3FFE703208DF81700AEE0E7E704999E
:101DD000C869D1F820C04B6A8A6A40EA0C0040EA20
:101DE0008310D2034FF6FF739A43A2F5803210435B
:101DF000C96A40EA016043F60401C4F202010860C6
:101E00006021C4F2472101200860FEF7DDFD039048
:101E1000FFE743F60000C4F20200006800F0007122
:101E20000020B0EB516F0CD1FFE7FEF7CDFD039919
:101E3000401A032804D3FFE703208DF8170074E04D
:101E4000E7E721E06021C4F2472100200860FEF7A7
:101E5000BBFD0390FFE743F60000C4F202000068F8
:101E600000F000710020B0EB516F0CD0FFE7FEF7DF
:101E7000ABFD0399401A032804D3FFE703208DF834
:101E8000170052E0E7E7FFE74AE00498806901287D
:101E900004D1FFE701208DF8170046E043F6040067
:101EA000C4F202000068029004988069012831D0D1
:101EB000FFE7029800F480000499C969884229D19B
:101EC000FFE7029800F03F000499096A884221D197
:101ED000FFE7029847F6C07108400499496AB0EBE1
:101EE000811F17D1FFE7029800F440300499896AF6
:101EF000C9034FF6FF729143A1F58031884209D1A1
:101F0000FFE7029800F070600499C96AB0EB016FB6
:101F100004D0FFE701208DF8170006E0FFE7FFE798
:101F2000FFE700208DF81700FFE79DF8170006B0C7
:101F300080BD000080B584B002900191029820B964
:101F4000FFE701208DF80F0023E0029890F82C00A5
:101F500040B9FFE70299002081F82D00029800F0B7
:101F60001DF8FFE70299022081F82C00029951F830
:101F7000040BFEF7B7F9029A019910685268FEF750
:101F80005FFA0299012081F82C0000208DF80F00E3
:101F9000FFE79DF80F0004B080BD000080B58EB053
:101FA0000D90FFE70020079043F63800C4F20200CE
:101FB000016841F001010160006800F00100079034
:101FC0000798FFE7FFE70020069043F63000C4F2D1
:101FD0000200016841F004010160006800F00400A3
:101FE00006900698FFE7FFE70020059043F63000D3
:101FF000C4F20200016841F008010160006800F0CD
:10200000080005900598FFE7FFE70020049043F6DD
:102010003000C4F20200016841F010010160006864
:1020200000F0100004900498FFE7FFE70020039001
:1020300043F63000C4F20200016841F02001016063
:10204000006800F0200003900398FFE7FFE70020FE
:10205000029043F63000C4F20200016841F04001F2
:102060000160006800F0400002900298FFE70D2038
:1020700008900220099001200A9003200B900C2068
:102080000C9040F60000C4F2020008A90191FEF78E
:102090008BFA01994CF20370089040F60040C4F2AC
:1020A0000200FEF781FA01994FF68370089041F221
:1020B0000000C4F20200FEF777FA01994FF63F00E4
:1020C000089041F20040C4F20200FEF76DFA019957
:1020D00048F23710089041F60000C4F20200FEF703
:1020E00063FA0EB080BD000080B584B0029001910B
:1020F000029890F82C00022804D1FFE702208DF806
:102100000F0010E00299022081F82C00029800686C
:102110000199FEF749F90299012081F82C0000206D
:102120008DF80F00FFE79DF80F0004B080BD0000A0
:1021300080B584B0029001910092029890F82C0032
:10214000022804D1FFE702208DF80F001CE002995D
:10215000022081F82C00029800680199009AFEF78D
:102160002FF901980068022805D1FFE702990520A0
:1021700081F82C0004E00299012081F82C00FFE78F
:1021800000208DF80F00FFE79DF80F0004B080BD20
:1021900080B582B00190019800F076FE02B080BD5B
:1021A000FFE7FEE780B5FEF723FC00F09BFE00F0A2
:1021B0008FFD00F05DF980BD80B584B08DF80F0013
:1021C00000208DF80E00FFE79DF80E00072834DC94
:1021D000FFE79DF80F000006002809D5FFE742F24F
:1021E0000000C4F2020008210122FEF7D5FB08E03E
:1021F00042F20000C4F2020008210022FEF7CCFBEC
:10220000FFE79DF80F0040008DF80F0042F200003C
:10221000C4F2020001904FF4807102910022FEF797
:10222000BBFB019802990122FEF7B6FBFFE79DF880
:102230000E0001308DF80E00C6E704B080BD00002E
:1022400080B582B0019040F2EC00C2F20000C18A79
:102250000139008B0138019A6B461A608AB283B249
:102260000021084600F048F802B080BD80B590B06B
:102270000E900D910C92082000900E9804900D98ED
:1022800006900C9809906846FEF740FF20B9FFE7DA
:1022900000208DF83F0003E001208DF83F00FFE7AC
:1022A0009DF83F0010B080BD81B08DF803009DF80F
:1022B000030040F2EC01C2F2000148759DF80300F2
:1022C00048B9FFE740F2EC01C2F200014868C88259
:1022D000086808830EE09DF80300012809D1FFE794
:1022E00040F2EC01C2F200010868C8824868088325
:1022F000FFE7FFE701B070478AB0DDF828C0ADF80E
:102300002600ADF82410ADF82220ADF820300020D2
:10231000039040F2EC00C2F20000407D68B1FFE79C
:10232000BDF826000790BDF824000690BDF82200F5
:102330000590BDF82000049016E0BDF82400079039
:1023400040F2EC00C2F200004268BDF82210C9431E
:1023500011440691BDF8201005914168BDF8260092
:10236000C04308440490FFE740F2EC01C2F20001D0
:102370000A680598079BC01AC0431044ADF80A00CC
:102380000A7D40F20C10C2F2000050F82220C86909
:102390000968069BDDF81CC001FB03C100FB01209E
:1023A0000190FFE70020009043F63000C4F20200E5
:1023B000016841F400010160006800F40000009031
:1023C0000098FFE74BF20001C4F20201086820F018
:1023D000010008604FF4403008604BF23402C4F250
:1023E000020202201060BDF80A004BF24002C4F263
:1023F0000202106001984BF23C02C4F2020210602B
:102400000498069A801A0130059A079BD21A013265
:1024100040EA02404BF24402C4F2020210600A9801
:102420004BF23802C4F202021060086840F001006A
:102430000860FFE74BF20400C4F202000068800766
:1024400000280AD4FFE70398013003900398B0F501
:10245000001F01D3FFE700E0ECE74BF20801C4F2F4
:102460000201086840F0020008600AB070470000EE
:1024700080B58AB064200221069100220892FFF7FD
:10248000F5FE0899069840F2EC03C2F200030793A8
:102490004FF4F0721A604FF448725A6018810722A4
:1024A00005925A819881D88112221A8208225A8272
:1024B000D86140F20C12C2F20002049240F2000015
:1024C000CCF20000106040F21000C2F2000046F6AC
:1024D0000002C4F20102026041608160C1600161DA
:1024E0001A89013A42615A89013A82611A89B3F81C
:1024F0000CC06244013AC2615A89B3F80EC062440A
:10250000013A02621A89B3F80CC06244D3F800C0E1
:102510006244013A42625A89B3F80EC06244D3F869
:1025200004C06244013A82621A89B3F80CC0624462
:10253000D3F800C06244B3F810C06244013AC262EA
:102540005A89B3F80EC06244D3F804C062445B8A6F
:102550001A44013A026380F8361080F8351080F88A
:102560003410FEF7F9FA0499DDF814C0069A0898B9
:1025700009686B46D860C3F808C04FF0060CC3F872
:1025800004C01860FF2300F021F80798089A038818
:102590008088694608601046114600F063F8012003
:1025A0000990FFF781FE089800F012FA099A40F2AC
:1025B0000040C4F202002021FEF7EEF94FF0FF3098
:1025C000FFF73EFE00F074F80AB080BDB0B592B0DF
:1025D00094468E460446199818981799169A8DF8BD
:1025E0004740CDF840E08DF83FC08DF83E308DF883
:1025F0003D208DF83C108DF83B00002001900390A9
:1026000040F2EC01C2F200010A6802924A680492A8
:102610009DF83F2005929DF83E2006929DF83D20B2
:1026200007929DF83C20120208929DF83B2012026E
:102630000992109A0A920A680B9249680C918DF8D7
:1026400036008DF8350019988DF834009DF8472034
:1026500040F21000C2F2000001A9FEF71FFA12B00A
:10266000B0BD000080B584B0844606988DF80FC0D8
:10267000ADF80C10ADF80A20ADF80830ADF8060042
:10268000BDF80C10BDF80A209DF80F3040F2100084
:10269000C2F200000090FEF7F9FB0098BDF80810A8
:1026A000BDF806209DF80F30FEF73CFC04B080BD5D
:1026B00080B594B041F60040C4F202000190802140
:1026C000029101220992FEF767F914200E90FDF79E
:1026D00049FF0198029900220792FEF75DF9202038
:1026E00000F098FB292000F095FB3A20119000F0B3
:1026F00091FB7720129000F0A9FBB12000F08AFB3B
:10270000079800F0A3FB0E9800F0A0FB062000F055
:102710009DFBB22000F07EFB1020049000F096FBA1
:10272000C82000F093FBB32000F074FB079800F082
:102730008DFBB42000F06EFB0420069000F086FBB9
:10274000B52000F067FB049800F080FB3020039078
:1027500000F07CFB039800F079FB079800F076FB13
:10276000079800F073FBB62000F054FB099800F0C6
:102770006DFB1820059000F069FB02200C9000F022
:1027800065FB402000F062FB049800F05FFB0798B7
:1027900000F05CFBC02000F03DFB099800F056FB08
:1027A000059800F053FBC32000F034FB03200F908A
:1027B00000F04CFB069800F049FB0F9800F046FB38
:1027C0000F9800F043FB0F9800F040FB2820FDF726
:1027D000C9FEC42000F01EFB0C9800F037FB23203C
:1027E00000F034FB1120109000F030FB122000F0BC
:1027F0002DFB0C9800F02AFB129800F027FB0E9896
:10280000FDF7B0FEC52000F005FB732000F01EFBB5
:102810000A201390FDF7A6FEC62000F0FBFA242044
:1028200000F014FB602000F011FB079800F00EFB95
:102830001398FDF797FED02000F0ECFA0E9800F008
:1028400005FB099800F002FB53200A9000F0FEFA05
:102850002520089000F0FAFA0C9800F0F7FA0C988E
:1028600000F0F4FA66200D9000F0F0FA0E9800F0F7
:10287000EDFA0F9800F0EAFAD12000F0CBFA0E98AA
:1028800000F0E4FA099800F0E1FA0A9800F0DEFAA4
:1028900007200B9000F0DAFA0C9800F0D7FA0C98A9
:1028A00000F0D4FA0D9800F0D1FA0E9800F0CEFAAC
:1028B0000F9800F0CBFAD22000F0ACFA0E9800F09E
:1028C000C5FA099800F0C2FA0A9800F0BFFA089811
:1028D00000F0BCFA0C9800F0B9FA0C9800F0B6FAC7
:1028E0000D9800F0B3FA0E9800F0B0FA0F9800F0CF
:1028F000ADFAD32000F08EFA0E9800F0A7FA0998EE
:1029000000F0A4FA0A9800F0A1FA0B9800F09EFAE1
:102910000C9800F09BFA0C9800F098FA0D9800F0D3
:1029200095FA0E9800F092FA0F9800F08FFAD420E2
:1029300000F070FA0E9800F089FA099800F086FA13
:102940000A9800F083FA089800F080FA0C9800F0DA
:102950007DFA0C9800F07AFA0D9800F077FA0E984C
:1029600000F074FA0F9800F071FAD52000F052FAD6
:102970000E9800F06BFA099800F068FA0A9800F0D7
:1029800065FA0B9800F062FA0C9800F05FFA0C9868
:1029900000F05CFA0D9800F059FA0E9800F056FA23
:1029A0000F9800F053FA109800F034FA1398FDF7DE
:1029B000D9FD119800F02EFA129800F047FA36204F
:1029C00000F028FA139800F041FA14B080BD00001E
:1029D00081B08DF803009DF8030040F2EC01C2F2D3
:1029E0000001087501B0704786B00590049103920C
:1029F0000498406805990968C9680022C0F6FF720A
:102A0000114000EB11400004029005980068039902
:102A100000EBC111D1F8880000F47040C1F88800C3
:102A20000498006805990968C968114000EB1140D5
:102A300001300299084305990968039A01EBC21114
:102A4000C1F888000498C06805990968C9686FF3DF
:102A5000DF2108440004029005980068039900EB08
:102A6000C111D1F88C0000F47040C1F88C000498BA
:102A7000806805990968C9686FF3DF21084401304F
:102A80000299084305990968039A01EBC211C1F83C
:102A90008C0005980068039900EBC111D1F89400EF
:102AA00020F00700C1F894000498006905990968AE
:102AB000039A01EBC211C1F89400049890F8310018
:102AC00000020290049890F83200000401900498EB
:102AD00080690006009005980068039900EBC11119
:102AE000D1F89C000020C1F89C00049991F83010A6
:102AF000029A1143019A1143009A1143059A1268F0
:102B0000039B02EBC312C2F89C1005990968039A53
:102B100001EBC212D2F8981021F0FF01C2F8981010
:102B200004994969059A1268039B02EBC312C2F823
:102B3000981005990968039A01EBC212D2F8A01007
:102B400040F207739943C2F8A010049AD169126A3F
:102B50001143059A1268039B02EBC312C2F8A0103E
:102B600005990968039A01EBC211D1F8AC20C1F8AC
:102B7000AC000498406A05990968039A01EBC211F8
:102B8000C1F8AC000498006918B9FFE7042002906E
:102B900023E004980069012803D1FFE70320029095
:102BA0001AE00498006904280FD0FFE70498006930
:102BB00002280AD0FFE704980069032805D0FFE740
:102BC00004980069072803D1FFE70220029002E081
:102BD00001200290FFE7FFE7FFE7059800680399EF
:102BE00000EBC111D1F8B00000F0E020C1F8B00056
:102BF00004990B684868896A029A5143C01A504385
:102C0000033040EA014005990968039A01EBC211BB
:102C1000C1F8B00005980068039900EBC111D1F824
:102C2000B40040F2FF729043C1F8B4000498C06A47
:102C300005990968039A01EBC211C1F8B40005981F
:102C40000068039900EBC111D1F8840040F0010045
:102C5000C1F8840006B07047FFE7FEE7FFE7FEE734
:102C600088B0079006910592079800F0070004903D
:102C70000498C0F10700052803D3FFE70420019062
:102C800004E00498C0F107000190FFE70198039069
:102C900004980430062803D8FFE70020009003E0E2
:102CA000049803380090FFE7009802900698039973
:102CB000012202FA01F101390840029B984005996E
:102CC0009A40013A1140084308B07047704700002D
:102CD00080B588B040F2B800C2F20000009040F227
:102CE0004011CAF2000101600021416001228260AE
:102CF0000822C26010230361402343614FF4C07374
:102D00008361C1614FF4006101624FF480514162FF
:102D10004FF4005181620221019102920622039236
:102D2000049205910691079101A9FFF703F9009814
:102D300000F002F808B080BD80B586B00590002391
:102D400003930493012202921846114600F024F8DE
:102D500002200190FDF706FC0199039B029A184698
:102D600000F01AF8039B03210822184600F014F81B
:102D7000029A03984FF40C710491BDF810300421AD
:102D800000F00AF840F2B800C2F2000040F2AB21B5
:102D9000FFF7AAF906B080BD80B588B08DF81E0097
:102DA0008DF81D108DF81C20ADF81A30002005900C
:102DB0009DF81E0018B9FFE71020059008E09DF867
:102DC0001E00012803D1FFE708200590FFE7FFE779
:102DD0009DF81D000190059802909DF81C0003903D
:102DE000BDF81A00049040F2B800C2F2000001A938
:102DF0004FF48052FFF79CF920B9FFE700208DF8CF
:102E00001F0003E001208DF81F00FFE79DF81F0061
:102E100008B080BD80B584B0ADF80E0041F600402A
:102E2000C4F202000190802102910022FDF7B4FD5E
:102E30007020FFF7C1F99DF80E00FFF7BDF901986A
:102E400002990122FDF7A8FD04B080BD80B584B0D1
:102E5000ADF80E0041F60040C4F20200019080215E
:102E600002910022FDF798FD7220FFF7A5F99DF869
:102E70000E00FFF7A1F9019802990122FDF78CFDE0
:102E800004B080BD7047000080B582B0009000980B
:102E90000138B0F1807F03D3FFE70120019019E0F2
:102EA000009801384EF21401CEF2000108604FF094
:102EB000FF300F2100F090F84EF21801CEF2000121
:102EC000002008604EF21002CEF2000207211160CD
:102ED0000190FFE7019802B080BD000080B5FDF7CA
:102EE00079FD80BD80B594B008A83021FDF7B2F916
:102EF000002007900690059004900390FFE70020C3
:102F0000029043F64000C4F20200016841F0805193
:102F10000160006800F0805002900298FFE7FFE730
:102F20000020019047F20000C4F20000016841F463
:102F300040410160006800F4404001900198FFE7C3
:102F4000012008904FF48030099002200E904FF439
:102F500080010F91192110914FF4B47111911290C9
:102F60000420139008A8FEF785FC18B1FFE7FDF7D1
:102F7000B1F9FFE7FEF76AF818B1FFE7FDF7AAF924
:102F8000FFE70F20039002200490002005904FF4EB
:102F9000A05006904FF48050079003A80521FEF73B
:102FA000C3FA18B1FFE7FDF795F9FFE714B080BD4C
:102FB0004EF68851CEF20001086840F470000860B7
:102FC00070470000FFE7FEE74EF60C50CEF200001F
:102FD0000068C0F30220704782B08DF807000091AE
:102FE0009DF9070000280AD4FFE7009800019DF929
:102FF00007104EF20042CEF2000288540BE0009817
:1030000000019DF8071001F00F014EF61452CEF2A8
:1030100000028854FFE702B07047000083B00290BE
:10302000029800F0070000904EF60C51CEF200011D
:103030000868019001984FF6FF0210400190019836
:10304000009A40EA02200022C0F2FA521043019096
:103050000198086003B0704780B582B000200190ED
:10306000FFF7A0F8FFE7FEE702E008C8121F08C15B
:10307000002AFAD170477047002001E001C1121FF9
:10308000002AFBD170470000000000000000010290
:103090000304060708090000B830000800000020FB
:1030A0001000000068300008C83000081000002040
:1030B00008110000783000080024F400010000002E
:0830C0001000000000000000F8
:02000004C0003A
:1000000000000000000000000000000000000000F0
:1000100000000000000000000000000000000000E0
:1000200000000000000000000000000000000000D0
:1000300000000000000000000000000000000000C0
:02000004C00B2F
:04000005080001AD41
:00000001FF
